{
    "_format": "hh-sol-artifact-1",
    "contractName": "OMA3AppMetadataV0",
    "sourceName": "contracts/OMA3AppMetadataV0.sol",
    "abi": [
        {
            "anonymous": false,
            "inputs": [
                {
                    "indexed": true,
                    "internalType": "string",
                    "name": "did",
                    "type": "string"
                },
                {
                    "indexed": false,
                    "internalType": "string",
                    "name": "metadataJson",
                    "type": "string"
                },
                {
                    "indexed": false,
                    "internalType": "bytes32",
                    "name": "metadataHash",
                    "type": "bytes32"
                },
                {
                    "indexed": true,
                    "internalType": "address",
                    "name": "owner",
                    "type": "address"
                },
                {
                    "indexed": false,
                    "internalType": "uint256",
                    "name": "timestamp",
                    "type": "uint256"
                }
            ],
            "name": "MetadataRegisteredJson",
            "type": "event"
        },
        {
            "anonymous": false,
            "inputs": [
                {
                    "indexed": true,
                    "internalType": "string",
                    "name": "did",
                    "type": "string"
                },
                {
                    "indexed": false,
                    "internalType": "string",
                    "name": "metadataJson",
                    "type": "string"
                },
                {
                    "indexed": false,
                    "internalType": "bytes32",
                    "name": "metadataHash",
                    "type": "bytes32"
                },
                {
                    "indexed": true,
                    "internalType": "address",
                    "name": "owner",
                    "type": "address"
                },
                {
                    "indexed": false,
                    "internalType": "uint256",
                    "name": "timestamp",
                    "type": "uint256"
                }
            ],
            "name": "MetadataUpdatedJson",
            "type": "event"
        },
        {
            "inputs": [
                {
                    "internalType": "string",
                    "name": "did",
                    "type": "string"
                }
            ],
            "name": "getMetadataJson",
            "outputs": [
                {
                    "internalType": "string",
                    "name": "",
                    "type": "string"
                }
            ],
            "stateMutability": "view",
            "type": "function"
        },
        {
            "inputs": [
                {
                    "internalType": "string",
                    "name": "",
                    "type": "string"
                }
            ],
            "name": "metadataJsonByDID",
            "outputs": [
                {
                    "internalType": "string",
                    "name": "",
                    "type": "string"
                }
            ],
            "stateMutability": "view",
            "type": "function"
        },
        {
            "inputs": [
                {
                    "internalType": "string",
                    "name": "",
                    "type": "string"
                }
            ],
            "name": "owners",
            "outputs": [
                {
                    "internalType": "address",
                    "name": "",
                    "type": "address"
                }
            ],
            "stateMutability": "view",
            "type": "function"
        },
        {
            "inputs": [
                {
                    "internalType": "string",
                    "name": "did",
                    "type": "string"
                },
                {
                    "internalType": "string",
                    "name": "metadataJson",
                    "type": "string"
                }
            ],
            "name": "setMetadataJson",
            "outputs": [],
            "stateMutability": "nonpayable",
            "type": "function"
        }
    ],
    "bytecode": "0x6080806040523461001657610ba9908161001c8239f35b600080fdfe6040608081526004908136101561001557600080fd5b6000803560e01c80632b1fd9951461080457806362a5ccce146107c75780639073e23a146100c35763e9eee0471461004c57600080fd5b346100c05760203660031901126100c05782359067ffffffffffffffff82116100c0575061009a60206100886100bc956100a9943691016108a6565b81855193828580945193849201610902565b8101600181520301902061095f565b9051918291602083526020830190610a04565b0390f35b80fd5b509190346107c357806003193601126107c35767ffffffffffffffff9180358381116107bf576100f690369083016108a6565b6024358481116107bb5761010d90369084016108a6565b91815115159461016e61011e610a29565b9686519061016960338360209b61013e8d82519281849286019101610902565b8101724449442063616e6e6f7420626520656d70747960681b8d82015203601381018552018361086e565b610a73565b6101c060808451111561017f610a29565b90610169602c89518461019c8d8397519281849286019101610902565b81016b44494420746f6f206c6f6e6760a01b8d82015203600c81018552018361086e565b61021e6101cc84610b0c565b6101d4610a29565b9061016960358951846101f18d8397519281849286019101610902565b810174444944206d757374206265206c6f7765726361736560581b8d82015203601581018552018361086e565b61027f8451151561022d610a29565b90610169603d89518461024a8d8397519281849286019101610902565b81017f4d65746164617461204a534f4e2063616e6e6f7420626520656d7074790000008d82015203601d81018552018361086e565b6102e361271085511115610291610a29565b9061016960378951846102ae8d8397519281849286019101610902565b81017f4d65746164617461204a534f4e20746f6f206c617267650000000000000000008d82015203601781018552018361086e565b835186850120958551845190828601916102fe818385610902565b81018a815281900383019020546001600160a01b0316806104ec57509061035f91875182818851610330818387610902565b81018d815203019020336bffffffffffffffffffffffff60a01b82541617905587519283918751928391610902565b8201918181600194858152030190209386519384116104d957506103838454610925565b601f8111610493575b5080601f841160011461040557509282806103e5946103f497947f203fc0c7f34c9ed91daa042abd52b586202c0c5968e72f38a5e74ead08eaa39799978d936103fa575b501b916000199060031b1c1916179055610aa3565b93519182913396429184610ac3565b0390a380f35b8801519250386103d0565b90601f939293198316858b52828b20928b905b82821061047c575050927f203fc0c7f34c9ed91daa042abd52b586202c0c5968e72f38a5e74ead08eaa3979795926103e59592826103f4999610610463575b5050811b019055610aa3565b87015160001960f88460031b161c191690553880610457565b808785968294968d01518155019501930190610418565b848a52818a20601f850160051c8101918386106104cf575b601f0160051c019083905b8281106104c457505061038c565b8b81550183906104b6565b90915081906104ab565b634e487b7160e01b8a5260419052602489fd5b610544906104f8610a29565b9061053d60318b518461051482965180928b8086019101610902565b8101702737ba103a3432902224a21037bbb732b960791b8982015203601181018552018361086e565b3314610a73565b8188885182818951610557818389610902565b810160018152030190208951908c9080549061057282610925565b808552916001811690811561079d575060011461075d575b505091816105a16105f7936106079795038261086e565b84815191012014156105b1610a29565b9061016960328d51846105cd82965180928b8086019101610902565b8101714e6f206d65746164617461206368616e676560701b8982015203601281018552018361086e565b8851809381928951928391610902565b8101600181520301902092855192831161074a57506106268354610925565b601f8111610707575b5080601f83116001146106945750927fb2d8db990f8a3a3233f1b4930440ceb05d6cd534f3124c8a31001de49d6108e79492826103e5936103f4968b91610689575b508160011b916000199060031b1c1916179055610aa3565b905085015138610671565b90601f198316848a52828a20928a905b8282106106ef575050836103f496937fb2d8db990f8a3a3233f1b4930440ceb05d6cd534f3124c8a31001de49d6108e79896936103e59660019410610463575050811b019055610aa3565b80600185968294968c015181550195019301906106a4565b838952818920601f840160051c810191838510610740575b601f0160051c01905b818110610735575061062f565b898155600101610728565b909150819061071f565b634e487b7160e01b895260419052602488fd5b8e52848e20929593928e92505b8183106107845750929491925081018301816105a161058a565b805487840187015287958e94509092019160010161076a565b60ff1916878601525050151560051b820184019050816105a161058a565b8580fd5b8480fd5b8280fd5b50346100c05760203660031901126100c05782359067ffffffffffffffff82116100c0575061009a60206100886100bc956100a9943691016108a6565b5091346107c35760203660031901126107c357803567ffffffffffffffff811161086a5760209391610838913691016108a6565b8361084b84519283815193849201610902565b810191825290819003830190205490516001600160a01b039091168152f35b8380fd5b90601f8019910116810190811067ffffffffffffffff82111761089057604052565b634e487b7160e01b600052604160045260246000fd5b81601f820112156108fd5780359067ffffffffffffffff821161089057604051926108db601f8401601f19166020018561086e565b828452602083830101116108fd57816000926020809301838601378301015290565b600080fd5b60005b8381106109155750506000910152565b8181015183820152602001610905565b90600182811c92168015610955575b602083101461093f57565b634e487b7160e01b600052602260045260246000fd5b91607f1691610934565b9060405191826000825461097281610925565b908184526020946001916001811690816000146109e257506001146109a3575b5050506109a19250038361086e565b565b600090815285812095935091905b8183106109ca5750506109a19350820101388080610992565b855488840185015294850194879450918301916109b1565b925050506109a194925060ff191682840152151560051b820101388080610992565b90602091610a1d81518092818552858086019101610902565b601f01601f1916010190565b604051906040820182811067ffffffffffffffff82111761089057604052601c82527f4170704d6574616461746120436f6e7472616374204572726f723a20000000006020830152565b15610a7b5750565b60405162461bcd60e51b815260206004820152908190610a9f906024830190610a04565b0390fd5b610abb90602060405192828480945193849201610902565b810103902090565b610adb60409295949395606083526060830190610a04565b9460208201520152565b908151811015610af6570160200190565b634e487b7160e01b600052603260045260246000fd5b6000805b8251811015610b6b576001600160f81b0319604160f81b81610b328487610ae5565b511610159081610b50575b50610b4a57600101610b10565b50905090565b602d60f91b9150610b618386610ae5565b5116111538610b3d565b50505060019056fea26469706673582212202b25d602c5eb17a9d0637356970c246a43470f7777e3ce59053fd43003cd143364736f6c63430008180033",
    "linkReferences": {},
    "deployedLinkReferences": {}
}