{
  "_format": "hh-sol-artifact-1",
  "contractName": "OMA3AppMetadata",
  "sourceName": "contracts/OMA3AppMetadata.sol",
  "abi": [
    {
      "inputs": [],
      "stateMutability": "nonpayable",
      "type": "constructor"
    },
    {
      "inputs": [
        {
          "internalType": "address",
          "name": "owner",
          "type": "address"
        }
      ],
      "name": "OwnableInvalidOwner",
      "type": "error"
    },
    {
      "inputs": [
        {
          "internalType": "address",
          "name": "account",
          "type": "address"
        }
      ],
      "name": "OwnableUnauthorizedAccount",
      "type": "error"
    },
    {
      "anonymous": false,
      "inputs": [
        {
          "indexed": true,
          "internalType": "string",
          "name": "did",
          "type": "string"
        },
        {
          "indexed": false,
          "internalType": "uint8",
          "name": "major",
          "type": "uint8"
        },
        {
          "indexed": false,
          "internalType": "uint8",
          "name": "minor",
          "type": "uint8"
        },
        {
          "indexed": false,
          "internalType": "uint8",
          "name": "patch",
          "type": "uint8"
        },
        {
          "indexed": false,
          "internalType": "string",
          "name": "metadataJson",
          "type": "string"
        },
        {
          "indexed": false,
          "internalType": "bytes32",
          "name": "metadataHash",
          "type": "bytes32"
        },
        {
          "indexed": false,
          "internalType": "uint256",
          "name": "timestamp",
          "type": "uint256"
        }
      ],
      "name": "MetadataSet",
      "type": "event"
    },
    {
      "anonymous": false,
      "inputs": [
        {
          "indexed": true,
          "internalType": "address",
          "name": "previousOwner",
          "type": "address"
        },
        {
          "indexed": true,
          "internalType": "address",
          "name": "newOwner",
          "type": "address"
        }
      ],
      "name": "OwnershipTransferred",
      "type": "event"
    },
    {
      "anonymous": false,
      "inputs": [
        {
          "indexed": true,
          "internalType": "address",
          "name": "registryAddress",
          "type": "address"
        }
      ],
      "name": "RegistryAuthorized",
      "type": "event"
    },
    {
      "inputs": [],
      "name": "authorizedRegistry",
      "outputs": [
        {
          "internalType": "address",
          "name": "",
          "type": "address"
        }
      ],
      "stateMutability": "view",
      "type": "function"
    },
    {
      "inputs": [
        {
          "internalType": "string",
          "name": "did",
          "type": "string"
        }
      ],
      "name": "getMetadataJson",
      "outputs": [
        {
          "internalType": "string",
          "name": "",
          "type": "string"
        }
      ],
      "stateMutability": "view",
      "type": "function"
    },
    {
      "inputs": [
        {
          "internalType": "string",
          "name": "",
          "type": "string"
        }
      ],
      "name": "metadataJsonByDID",
      "outputs": [
        {
          "internalType": "string",
          "name": "",
          "type": "string"
        }
      ],
      "stateMutability": "view",
      "type": "function"
    },
    {
      "inputs": [],
      "name": "owner",
      "outputs": [
        {
          "internalType": "address",
          "name": "",
          "type": "address"
        }
      ],
      "stateMutability": "view",
      "type": "function"
    },
    {
      "inputs": [],
      "name": "renounceOwnership",
      "outputs": [],
      "stateMutability": "nonpayable",
      "type": "function"
    },
    {
      "inputs": [
        {
          "internalType": "address",
          "name": "_registryAddress",
          "type": "address"
        }
      ],
      "name": "setAuthorizedRegistry",
      "outputs": [],
      "stateMutability": "nonpayable",
      "type": "function"
    },
    {
      "inputs": [
        {
          "internalType": "string",
          "name": "did",
          "type": "string"
        },
        {
          "internalType": "uint8",
          "name": "major",
          "type": "uint8"
        },
        {
          "internalType": "uint8",
          "name": "minor",
          "type": "uint8"
        },
        {
          "internalType": "uint8",
          "name": "patch",
          "type": "uint8"
        },
        {
          "internalType": "string",
          "name": "metadataJson",
          "type": "string"
        }
      ],
      "name": "setMetadataForRegistry",
      "outputs": [],
      "stateMutability": "nonpayable",
      "type": "function"
    },
    {
      "inputs": [
        {
          "internalType": "address",
          "name": "newOwner",
          "type": "address"
        }
      ],
      "name": "transferOwnership",
      "outputs": [],
      "stateMutability": "nonpayable",
      "type": "function"
    }
  ],
  "bytecode": "0x608080604052346071573315605e575f8054336001600160a01b0319821681178355916001600160a01b03909116907f8be0079c531659141344cd1fd0a4f28419497f9722a3daafe3b4186f6b6457e09080a3610a1890816100768239f35b631e4fbdf760e01b5f525f60045260245ffd5b5f80fdfe60806040526004361015610011575f80fd5b5f3560e01c8063090741a0146106885780632d7306e01461066057806330f12019146101eb57806362a5ccce146100fe578063715018a6146101945780638da5cb5b1461016d578063e9eee047146100fe5763f2fde38b14610071575f80fd5b346100fa5760203660031901126100fa576004356001600160a01b038116908190036100fa5761009f61092f565b80156100e7575f80546001600160a01b03198116831782556001600160a01b0316907f8be0079c531659141344cd1fd0a4f28419497f9722a3daafe3b4186f6b6457e09080a3005b631e4fbdf760e01b5f525f60045260245ffd5b5f80fd5b346100fa5760203660031901126100fa5760043567ffffffffffffffff81116100fa57610155602080610138610169943690600401610772565b604051928184925191829101835e81016001815203019020610800565b6040519182916020835260208301906108a0565b0390f35b346100fa575f3660031901126100fa575f546040516001600160a01b039091168152602090f35b346100fa575f3660031901126100fa576101ac61092f565b5f80546001600160a01b0319811682556001600160a01b03167f8be0079c531659141344cd1fd0a4f28419497f9722a3daafe3b4186f6b6457e08280a3005b346100fa5760a03660031901126100fa5760043567ffffffffffffffff81116100fa5761021c903690600401610772565b60243560ff81168091036100fa5760443560ff81168091036100fa576064359160ff83168093036100fa5760843567ffffffffffffffff81116100fa57610267903690600401610772565b6102d3602060018060a01b036002541633146102ce6018836102876108c4565b6040519581879251918291018484015e81017f4f6e6c7920617574686f72697a65642072656769737472790000000000000000838201520301600719810185520183610750565b6108ff565b6103276020865115156102ce6013836102ea6108c4565b6040519581879251918291018484015e8101724449442063616e6e6f7420626520656d70747960681b838201520301600c19810185520183610750565b61037660206080875111156102ce600c836103406108c4565b6040519581879251918291018484015e81016b44494420746f6f206c6f6e6760a01b838201520301601319810185520183610750565b6103d160206103848761097a565b6102ce6015836103926108c4565b6040519581879251918291018484015e810174444944206d757374206265206c6f7765726361736560581b838201520301600a19810185520183610750565b61042f6020825115156102ce601d836103e86108c4565b6040519581879251918291018484015e81017f4d65746164617461204a534f4e2063616e6e6f7420626520656d707479000000838201520301600219810185520183610750565b6104906020612710835111156102ce6017836104496108c4565b6040519581879251918291018484015e81017f4d65746164617461204a534f4e20746f6f206c61726765000000000000000000838201520301600819810185520183610750565b604051855190602081818901938085835e81016001815203019020825167ffffffffffffffff811161064c576104c682546107c8565b601f8111610607575b506020601f821160011461057e57918161056294927f753a13c9f662aee94a0450006d8124aa3bc2d984415bdf3af714ad733fd51fa8999a96945f91610573575b508160011b915f199060031b1c19161790555b8151602083012093604051918291518091835e81015f81520390209660405195869586526020860152604085015260c0606085015260c08401906108a0565b9060808301524260a08301520390a2005b90508401518b610510565b601f19821690835f52805f20915f5b8181106105ef5750927f753a13c9f662aee94a0450006d8124aa3bc2d984415bdf3af714ad733fd51fa8999a969492600192826105629896106105d7575b5050811b019055610523565b8601515f1960f88460031b161c191690558b806105cb565b9192602060018192868b01518155019401920161058d565b825f5260205f20601f830160051c81019160208410610642575b601f0160051c01905b81811061063757506104cf565b5f815560010161062a565b9091508190610621565b634e487b7160e01b5f52604160045260245ffd5b346100fa575f3660031901126100fa576002546040516001600160a01b039091168152602090f35b346100fa5760203660031901126100fa576004356001600160a01b038116908190036100fa576106b661092f565b61071860206107106018826106c96108c4565b6040519481869251918291018484015e81017f496e76616c696420726567697374727920616464726573730000000000000000838201520301600719810184520182610750565b8215156108ff565b600280546001600160a01b031916821790557fb9908420f7f761c66f2f2de6483341b084e1df4238247f4b7eb2f21e28f761ba5f80a2005b90601f8019910116810190811067ffffffffffffffff82111761064c57604052565b81601f820112156100fa5780359067ffffffffffffffff821161064c57604051926107a7601f8401601f191660200185610750565b828452602083830101116100fa57815f926020809301838601378301015290565b90600182811c921680156107f6575b60208310146107e257565b634e487b7160e01b5f52602260045260245ffd5b91607f16916107d7565b9060405191825f825492610813846107c8565b808452936001811690811561087e575060011461083a575b5061083892500383610750565b565b90505f9291925260205f20905f915b818310610862575050906020610838928201015f61082b565b6020919350806001915483858901015201910190918492610849565b90506020925061083894915060ff191682840152151560051b8201015f61082b565b805180835260209291819084018484015e5f828201840152601f01601f1916010190565b604051906108d3604083610750565b601c82527f4170704d6574616461746120436f6e7472616374204572726f723a20000000006020830152565b156109075750565b60405162461bcd60e51b81526020600482015290819061092b9060248301906108a0565b0390fd5b5f546001600160a01b0316330361094257565b63118cdaa760e01b5f523360045260245ffd5b908151811015610966570160200190565b634e487b7160e01b5f52603260045260245ffd5b5f5b81518110156109db57604160f81b6001600160f81b031961099d8385610955565b51161015806109b9575b6109b35760010161097c565b50505f90565b50602d60f91b6001600160f81b03196109d28385610955565b511611156109a7565b505060019056fea26469706673582212202fce792966745d823eae86408a188e28fd722bce237ae0bea209a707fce7b23964736f6c634300081c0033",
  "linkReferences": {},
  "deployedLinkReferences": {}
}