{
  "_format": "hh-sol-artifact-1",
  "contractName": "OMA3AppMetadata",
  "sourceName": "contracts/OMA3AppMetadata.sol",
  "abi": [
    {
      "inputs": [],
      "stateMutability": "nonpayable",
      "type": "constructor"
    },
    {
      "inputs": [
        {
          "internalType": "address",
          "name": "owner",
          "type": "address"
        }
      ],
      "name": "OwnableInvalidOwner",
      "type": "error"
    },
    {
      "inputs": [
        {
          "internalType": "address",
          "name": "account",
          "type": "address"
        }
      ],
      "name": "OwnableUnauthorizedAccount",
      "type": "error"
    },
    {
      "anonymous": false,
      "inputs": [
        {
          "indexed": true,
          "internalType": "string",
          "name": "did",
          "type": "string"
        },
        {
          "indexed": false,
          "internalType": "string",
          "name": "metadataJson",
          "type": "string"
        },
        {
          "indexed": false,
          "internalType": "bytes32",
          "name": "metadataHash",
          "type": "bytes32"
        },
        {
          "indexed": false,
          "internalType": "uint256",
          "name": "timestamp",
          "type": "uint256"
        }
      ],
      "name": "MetadataSet",
      "type": "event"
    },
    {
      "anonymous": false,
      "inputs": [
        {
          "indexed": true,
          "internalType": "address",
          "name": "previousOwner",
          "type": "address"
        },
        {
          "indexed": true,
          "internalType": "address",
          "name": "newOwner",
          "type": "address"
        }
      ],
      "name": "OwnershipTransferred",
      "type": "event"
    },
    {
      "anonymous": false,
      "inputs": [
        {
          "indexed": true,
          "internalType": "address",
          "name": "registryAddress",
          "type": "address"
        }
      ],
      "name": "RegistryAuthorized",
      "type": "event"
    },
    {
      "inputs": [],
      "name": "authorizedRegistry",
      "outputs": [
        {
          "internalType": "address",
          "name": "",
          "type": "address"
        }
      ],
      "stateMutability": "view",
      "type": "function"
    },
    {
      "inputs": [
        {
          "internalType": "string",
          "name": "did",
          "type": "string"
        }
      ],
      "name": "getMetadataJson",
      "outputs": [
        {
          "internalType": "string",
          "name": "",
          "type": "string"
        }
      ],
      "stateMutability": "view",
      "type": "function"
    },
    {
      "inputs": [
        {
          "internalType": "string",
          "name": "",
          "type": "string"
        }
      ],
      "name": "metadataJsonByDID",
      "outputs": [
        {
          "internalType": "string",
          "name": "",
          "type": "string"
        }
      ],
      "stateMutability": "view",
      "type": "function"
    },
    {
      "inputs": [],
      "name": "owner",
      "outputs": [
        {
          "internalType": "address",
          "name": "",
          "type": "address"
        }
      ],
      "stateMutability": "view",
      "type": "function"
    },
    {
      "inputs": [],
      "name": "renounceOwnership",
      "outputs": [],
      "stateMutability": "nonpayable",
      "type": "function"
    },
    {
      "inputs": [
        {
          "internalType": "address",
          "name": "_registryAddress",
          "type": "address"
        }
      ],
      "name": "setAuthorizedRegistry",
      "outputs": [],
      "stateMutability": "nonpayable",
      "type": "function"
    },
    {
      "inputs": [
        {
          "internalType": "string",
          "name": "did",
          "type": "string"
        },
        {
          "internalType": "string",
          "name": "metadataJson",
          "type": "string"
        }
      ],
      "name": "setMetadataForRegistry",
      "outputs": [],
      "stateMutability": "nonpayable",
      "type": "function"
    },
    {
      "inputs": [
        {
          "internalType": "address",
          "name": "newOwner",
          "type": "address"
        }
      ],
      "name": "transferOwnership",
      "outputs": [],
      "stateMutability": "nonpayable",
      "type": "function"
    }
  ],
  "bytecode": "0x6080806040523461007a5733156100645760008054336001600160a01b03198216811783556040519290916001600160a01b0316907f8be0079c531659141344cd1fd0a4f28419497f9722a3daafe3b4186f6b6457e09080a3610ad590816100808239f35b631e4fbdf760e01b815260006004820152602490fd5b600080fdfe60406080815260048036101561001457600080fd5b600091823560e01c8063090741a0146106805780632d7306e0146106575780633eebf01a1461020757806362a5ccce14610108578063715018a6146101ad5780638da5cb5b14610181578063e9eee047146101085763f2fde38b1461007857600080fd5b34610104576020366003190112610104576001600160a01b03823581811693919290849003610100576100a96109e5565b83156100ea57505082546001600160a01b0319811683178455167f8be0079c531659141344cd1fd0a4f28419497f9722a3daafe3b4186f6b6457e08380a380f35b51631e4fbdf760e01b8152908101849052602490fd5b8480fd5b8280fd5b50823461017e57602036600319011261017e5782359067ffffffffffffffff821161017e5750610158602061014661017a95610167943691016107e8565b81855193828580945193849201610844565b810160018152030190206108a1565b9051918291602083526020830190610946565b0390f35b80fd5b8382346101a957816003193601126101a957905490516001600160a01b039091168152602090f35b5080fd5b833461017e578060031936011261017e576101c66109e5565b80546001600160a01b03198116825581906001600160a01b03167f8be0079c531659141344cd1fd0a4f28419497f9722a3daafe3b4186f6b6457e08280a380f35b50903461010457816003193601126101045767ffffffffffffffff9080358281116101005761023990369083016107e8565b926024358381116106535761025190369084016107e8565b9260018060a01b03600254163314926102c461026b61096b565b948451906102bf60388360209961028a815180928d8086019101610844565b81017f4f6e6c7920617574686f72697a656420726567697374727900000000000000008b8201520360188101855201836107b0565b6109b5565b61031a865115156102d361096b565b906102bf60338751846102ef82965180928d8086019101610844565b8101724449442063616e6e6f7420626520656d70747960681b8b8201520360138101855201836107b0565b61036b60808751111561032b61096b565b906102bf602c87518461034782965180928d8086019101610844565b81016b44494420746f6f206c6f6e6760a01b8b82015203600c8101855201836107b0565b6103c861037787610a38565b61037f61096b565b906102bf603587518461039b82965180928d8086019101610844565b810174444944206d757374206265206c6f7765726361736560581b8b8201520360158101855201836107b0565b610428855115156103d761096b565b906102bf603d8751846103f382965180928d8086019101610844565b81017f4d65746164617461204a534f4e2063616e6e6f7420626520656d7074790000008b82015203601d8101855201836107b0565b61048b6127108651111561043a61096b565b906102bf603787518461045682965180928d8086019101610844565b81017f4d65746164617461204a534f4e20746f6f206c617267650000000000000000008b8201520360178101855201836107b0565b825191865192858801936104a0818387610844565b81019086816001938481520301902092875192831161064057506104c48354610867565b601f81116105fa575b508589601f841160011461056e579280806105549997947f32dc28f1aac24a649c22c50b9073e6c6bb7320a04eab98fcf541663d2d08acfb9b99979461053b9793610563575b501b916000199060031b1c19161790555b845184860120978351928392839251928391610844565b8101039020958151948594606086526060860190610946565b9284015242908301520390a280f35b8a0151925038610513565b50838a52868a2091929190601f1983168b5b8181106105e55750927f32dc28f1aac24a649c22c50b9073e6c6bb7320a04eab98fcf541663d2d08acfb9997959261053b9592826105549b9996106105cc575b5050811b019055610524565b89015160001960f88460031b161c1916905538806105c0565b8a830151845592850192918901918901610580565b838a52868a20601f840160051c810191888510610636575b601f0160051c019082905b82811061062b5750506104cd565b8b815501829061061d565b9091508190610612565b634e487b7160e01b8a5260419052602489fd5b8580fd5b8382346101a957816003193601126101a95760025490516001600160a01b039091168152602090f35b503461010457602091826003193601126107ac57356001600160a01b0381811693918490036101005773149959da5cdd1c9e48185b1c9958591e481cd95d60621b6107779161076f603487966106d46109e5565b6107386106df61096b565b61073060388451836106fb8d8396519281849286019101610844565b81017f496e76616c6964207265676973747279206164647265737300000000000000008d8201520360188101845201826107b0565b8915156109b5565b6002549661074461096b565b9151958261075b8894518092858088019101610844565b8301918201520360148101855201836107b0565b8316156109b5565b6001600160a01b031916176002557fb9908420f7f761c66f2f2de6483341b084e1df4238247f4b7eb2f21e28f761ba8280a280f35b8380fd5b90601f8019910116810190811067ffffffffffffffff8211176107d257604052565b634e487b7160e01b600052604160045260246000fd5b81601f8201121561083f5780359067ffffffffffffffff82116107d2576040519261081d601f8401601f1916602001856107b0565b8284526020838301011161083f57816000926020809301838601378301015290565b600080fd5b60005b8381106108575750506000910152565b8181015183820152602001610847565b90600182811c92168015610897575b602083101461088157565b634e487b7160e01b600052602260045260246000fd5b91607f1691610876565b906040519182600082546108b481610867565b9081845260209460019160018116908160001461092457506001146108e5575b5050506108e3925003836107b0565b565b600090815285812095935091905b81831061090c5750506108e393508201013880806108d4565b855488840185015294850194879450918301916108f3565b925050506108e394925060ff191682840152151560051b8201013880806108d4565b9060209161095f81518092818552858086019101610844565b601f01601f1916010190565b604051906040820182811067ffffffffffffffff8211176107d257604052601c82527f4170704d6574616461746120436f6e7472616374204572726f723a20000000006020830152565b156109bd5750565b60405162461bcd60e51b8152602060048201529081906109e1906024830190610946565b0390fd5b6000546001600160a01b031633036109f957565b60405163118cdaa760e01b8152336004820152602490fd5b908151811015610a22570160200190565b634e487b7160e01b600052603260045260246000fd5b6000805b8251811015610a97576001600160f81b0319604160f81b81610a5e8487610a11565b511610159081610a7c575b50610a7657600101610a3c565b50905090565b602d60f91b9150610a8d8386610a11565b5116111538610a69565b50505060019056fea2646970667358221220881d91aeeceec7665139f3f9e8b267ef59a0104cc4efc7109a3ae0235c5508bc64736f6c63430008180033",
  "linkReferences": {},
  "deployedLinkReferences": {}
}