{
  "_format": "hh-sol-artifact-1",
  "contractName": "OMA3AppRegistry",
  "sourceName": "contracts/OMA3AppRegistry.sol",
  "abi": [
    {
      "inputs": [],
      "stateMutability": "nonpayable",
      "type": "constructor"
    },
    {
      "inputs": [
        {
          "internalType": "string",
          "name": "did",
          "type": "string"
        },
        {
          "internalType": "uint8",
          "name": "major",
          "type": "uint8"
        }
      ],
      "name": "AppNotFound",
      "type": "error"
    },
    {
      "inputs": [
        {
          "internalType": "uint256",
          "name": "length",
          "type": "uint256"
        }
      ],
      "name": "ContractIdTooLong",
      "type": "error"
    },
    {
      "inputs": [],
      "name": "DIDCannotBeEmpty",
      "type": "error"
    },
    {
      "inputs": [
        {
          "internalType": "bytes32",
          "name": "didHash",
          "type": "bytes32"
        }
      ],
      "name": "DIDHashNotFound",
      "type": "error"
    },
    {
      "inputs": [
        {
          "internalType": "string",
          "name": "did",
          "type": "string"
        },
        {
          "internalType": "uint8",
          "name": "major",
          "type": "uint8"
        }
      ],
      "name": "DIDMajorAlreadyExists",
      "type": "error"
    },
    {
      "inputs": [
        {
          "internalType": "uint256",
          "name": "length",
          "type": "uint256"
        }
      ],
      "name": "DIDTooLong",
      "type": "error"
    },
    {
      "inputs": [
        {
          "internalType": "bytes32",
          "name": "computed",
          "type": "bytes32"
        },
        {
          "internalType": "bytes32",
          "name": "provided",
          "type": "bytes32"
        }
      ],
      "name": "DataHashMismatch",
      "type": "error"
    },
    {
      "inputs": [],
      "name": "DataHashRequiredForTraitChange",
      "type": "error"
    },
    {
      "inputs": [],
      "name": "DataUrlCannotBeEmpty",
      "type": "error"
    },
    {
      "inputs": [
        {
          "internalType": "uint256",
          "name": "length",
          "type": "uint256"
        }
      ],
      "name": "DataUrlTooLong",
      "type": "error"
    },
    {
      "inputs": [],
      "name": "ERC721EnumerableForbiddenBatchMint",
      "type": "error"
    },
    {
      "inputs": [
        {
          "internalType": "address",
          "name": "sender",
          "type": "address"
        },
        {
          "internalType": "uint256",
          "name": "tokenId",
          "type": "uint256"
        },
        {
          "internalType": "address",
          "name": "owner",
          "type": "address"
        }
      ],
      "name": "ERC721IncorrectOwner",
      "type": "error"
    },
    {
      "inputs": [
        {
          "internalType": "address",
          "name": "operator",
          "type": "address"
        },
        {
          "internalType": "uint256",
          "name": "tokenId",
          "type": "uint256"
        }
      ],
      "name": "ERC721InsufficientApproval",
      "type": "error"
    },
    {
      "inputs": [
        {
          "internalType": "address",
          "name": "approver",
          "type": "address"
        }
      ],
      "name": "ERC721InvalidApprover",
      "type": "error"
    },
    {
      "inputs": [
        {
          "internalType": "address",
          "name": "operator",
          "type": "address"
        }
      ],
      "name": "ERC721InvalidOperator",
      "type": "error"
    },
    {
      "inputs": [
        {
          "internalType": "address",
          "name": "owner",
          "type": "address"
        }
      ],
      "name": "ERC721InvalidOwner",
      "type": "error"
    },
    {
      "inputs": [
        {
          "internalType": "address",
          "name": "receiver",
          "type": "address"
        }
      ],
      "name": "ERC721InvalidReceiver",
      "type": "error"
    },
    {
      "inputs": [
        {
          "internalType": "address",
          "name": "sender",
          "type": "address"
        }
      ],
      "name": "ERC721InvalidSender",
      "type": "error"
    },
    {
      "inputs": [
        {
          "internalType": "uint256",
          "name": "tokenId",
          "type": "uint256"
        }
      ],
      "name": "ERC721NonexistentToken",
      "type": "error"
    },
    {
      "inputs": [
        {
          "internalType": "address",
          "name": "owner",
          "type": "address"
        },
        {
          "internalType": "uint256",
          "name": "index",
          "type": "uint256"
        }
      ],
      "name": "ERC721OutOfBoundsIndex",
      "type": "error"
    },
    {
      "inputs": [
        {
          "internalType": "uint256",
          "name": "length",
          "type": "uint256"
        }
      ],
      "name": "FungibleTokenIdTooLong",
      "type": "error"
    },
    {
      "inputs": [
        {
          "internalType": "uint16",
          "name": "current",
          "type": "uint16"
        },
        {
          "internalType": "uint16",
          "name": "attempted",
          "type": "uint16"
        }
      ],
      "name": "InterfaceRemovalNotAllowed",
      "type": "error"
    },
    {
      "inputs": [],
      "name": "InterfacesCannotBeEmpty",
      "type": "error"
    },
    {
      "inputs": [
        {
          "internalType": "uint256",
          "name": "tokenId",
          "type": "uint256"
        }
      ],
      "name": "InvalidAgent",
      "type": "error"
    },
    {
      "inputs": [
        {
          "internalType": "uint8",
          "name": "algorithm",
          "type": "uint8"
        }
      ],
      "name": "InvalidDataHashAlgorithm",
      "type": "error"
    },
    {
      "inputs": [
        {
          "internalType": "uint8",
          "name": "major",
          "type": "uint8"
        },
        {
          "internalType": "uint8",
          "name": "minor",
          "type": "uint8"
        },
        {
          "internalType": "uint8",
          "name": "patch",
          "type": "uint8"
        }
      ],
      "name": "InvalidVersion",
      "type": "error"
    },
    {
      "inputs": [
        {
          "internalType": "string",
          "name": "did",
          "type": "string"
        },
        {
          "internalType": "uint8",
          "name": "currentMajor",
          "type": "uint8"
        },
        {
          "internalType": "uint8",
          "name": "attemptedMajor",
          "type": "uint8"
        }
      ],
      "name": "MajorVersionChangeRequiresNewMint",
      "type": "error"
    },
    {
      "inputs": [
        {
          "internalType": "uint256",
          "name": "tokenId",
          "type": "uint256"
        },
        {
          "internalType": "string",
          "name": "key",
          "type": "string"
        }
      ],
      "name": "MetadataUnavailable",
      "type": "error"
    },
    {
      "inputs": [
        {
          "internalType": "uint8",
          "name": "currentMinor",
          "type": "uint8"
        },
        {
          "internalType": "uint8",
          "name": "attemptedMinor",
          "type": "uint8"
        }
      ],
      "name": "MinorIncrementRequired",
      "type": "error"
    },
    {
      "inputs": [
        {
          "internalType": "string",
          "name": "reason",
          "type": "string"
        }
      ],
      "name": "NewDIDRequired",
      "type": "error"
    },
    {
      "inputs": [],
      "name": "NoChangesSpecified",
      "type": "error"
    },
    {
      "inputs": [
        {
          "internalType": "string",
          "name": "did",
          "type": "string"
        },
        {
          "internalType": "uint8",
          "name": "major",
          "type": "uint8"
        }
      ],
      "name": "NotAppOwner",
      "type": "error"
    },
    {
      "inputs": [
        {
          "internalType": "address",
          "name": "owner",
          "type": "address"
        }
      ],
      "name": "OwnableInvalidOwner",
      "type": "error"
    },
    {
      "inputs": [
        {
          "internalType": "address",
          "name": "account",
          "type": "address"
        }
      ],
      "name": "OwnableUnauthorizedAccount",
      "type": "error"
    },
    {
      "inputs": [
        {
          "internalType": "uint8",
          "name": "currentPatch",
          "type": "uint8"
        },
        {
          "internalType": "uint8",
          "name": "attemptedPatch",
          "type": "uint8"
        }
      ],
      "name": "PatchIncrementRequired",
      "type": "error"
    },
    {
      "inputs": [],
      "name": "ReentrancyGuardReentrantCall",
      "type": "error"
    },
    {
      "inputs": [
        {
          "internalType": "uint256",
          "name": "count",
          "type": "uint256"
        }
      ],
      "name": "TooManyTraits",
      "type": "error"
    },
    {
      "anonymous": false,
      "inputs": [
        {
          "indexed": true,
          "internalType": "address",
          "name": "owner",
          "type": "address"
        },
        {
          "indexed": true,
          "internalType": "address",
          "name": "approved",
          "type": "address"
        },
        {
          "indexed": true,
          "internalType": "uint256",
          "name": "tokenId",
          "type": "uint256"
        }
      ],
      "name": "Approval",
      "type": "event"
    },
    {
      "anonymous": false,
      "inputs": [
        {
          "indexed": true,
          "internalType": "address",
          "name": "owner",
          "type": "address"
        },
        {
          "indexed": true,
          "internalType": "address",
          "name": "operator",
          "type": "address"
        },
        {
          "indexed": false,
          "internalType": "bool",
          "name": "approved",
          "type": "bool"
        }
      ],
      "name": "ApprovalForAll",
      "type": "event"
    },
    {
      "anonymous": false,
      "inputs": [
        {
          "indexed": true,
          "internalType": "bytes32",
          "name": "didHash",
          "type": "bytes32"
        },
        {
          "indexed": true,
          "internalType": "uint8",
          "name": "major",
          "type": "uint8"
        },
        {
          "indexed": true,
          "internalType": "uint256",
          "name": "tokenId",
          "type": "uint256"
        },
        {
          "indexed": false,
          "internalType": "string",
          "name": "newDataUrl",
          "type": "string"
        },
        {
          "indexed": false,
          "internalType": "bytes32",
          "name": "newDataHash",
          "type": "bytes32"
        },
        {
          "indexed": false,
          "internalType": "uint8",
          "name": "dataHashAlgorithm",
          "type": "uint8"
        }
      ],
      "name": "DataUrlUpdated",
      "type": "event"
    },
    {
      "anonymous": false,
      "inputs": [
        {
          "indexed": true,
          "internalType": "bytes32",
          "name": "didHash",
          "type": "bytes32"
        },
        {
          "indexed": true,
          "internalType": "uint8",
          "name": "major",
          "type": "uint8"
        },
        {
          "indexed": true,
          "internalType": "uint256",
          "name": "tokenId",
          "type": "uint256"
        },
        {
          "indexed": false,
          "internalType": "uint16",
          "name": "newInterfaces",
          "type": "uint16"
        }
      ],
      "name": "InterfacesUpdated",
      "type": "event"
    },
    {
      "anonymous": false,
      "inputs": [
        {
          "indexed": true,
          "internalType": "address",
          "name": "previousOwner",
          "type": "address"
        },
        {
          "indexed": true,
          "internalType": "address",
          "name": "newOwner",
          "type": "address"
        }
      ],
      "name": "OwnershipTransferred",
      "type": "event"
    },
    {
      "anonymous": false,
      "inputs": [
        {
          "indexed": true,
          "internalType": "uint256",
          "name": "tokenId",
          "type": "uint256"
        },
        {
          "indexed": false,
          "internalType": "string",
          "name": "dataUrl",
          "type": "string"
        },
        {
          "indexed": true,
          "internalType": "address",
          "name": "registerer",
          "type": "address"
        },
        {
          "indexed": true,
          "internalType": "bytes32",
          "name": "didHash",
          "type": "bytes32"
        },
        {
          "indexed": false,
          "internalType": "uint8",
          "name": "versionMajor",
          "type": "uint8"
        },
        {
          "indexed": false,
          "internalType": "uint16",
          "name": "interfaces",
          "type": "uint16"
        },
        {
          "indexed": false,
          "internalType": "uint256",
          "name": "registrationBlock",
          "type": "uint256"
        },
        {
          "indexed": false,
          "internalType": "uint256",
          "name": "registrationTimestamp",
          "type": "uint256"
        }
      ],
      "name": "Registered",
      "type": "event"
    },
    {
      "anonymous": false,
      "inputs": [
        {
          "indexed": true,
          "internalType": "bytes32",
          "name": "didHash",
          "type": "bytes32"
        },
        {
          "indexed": true,
          "internalType": "uint8",
          "name": "major",
          "type": "uint8"
        },
        {
          "indexed": true,
          "internalType": "uint256",
          "name": "tokenId",
          "type": "uint256"
        },
        {
          "indexed": false,
          "internalType": "uint8",
          "name": "newStatus",
          "type": "uint8"
        },
        {
          "indexed": false,
          "internalType": "uint256",
          "name": "timestamp",
          "type": "uint256"
        }
      ],
      "name": "StatusUpdated",
      "type": "event"
    },
    {
      "anonymous": false,
      "inputs": [
        {
          "indexed": true,
          "internalType": "bytes32",
          "name": "didHash",
          "type": "bytes32"
        },
        {
          "indexed": true,
          "internalType": "uint8",
          "name": "major",
          "type": "uint8"
        },
        {
          "indexed": true,
          "internalType": "uint256",
          "name": "tokenId",
          "type": "uint256"
        },
        {
          "indexed": false,
          "internalType": "bytes32[]",
          "name": "newTraitHashes",
          "type": "bytes32[]"
        }
      ],
      "name": "TraitsUpdated",
      "type": "event"
    },
    {
      "anonymous": false,
      "inputs": [
        {
          "indexed": true,
          "internalType": "address",
          "name": "from",
          "type": "address"
        },
        {
          "indexed": true,
          "internalType": "address",
          "name": "to",
          "type": "address"
        },
        {
          "indexed": true,
          "internalType": "uint256",
          "name": "tokenId",
          "type": "uint256"
        }
      ],
      "name": "Transfer",
      "type": "event"
    },
    {
      "anonymous": false,
      "inputs": [
        {
          "indexed": true,
          "internalType": "bytes32",
          "name": "didHash",
          "type": "bytes32"
        },
        {
          "indexed": true,
          "internalType": "uint8",
          "name": "major",
          "type": "uint8"
        },
        {
          "indexed": true,
          "internalType": "uint256",
          "name": "tokenId",
          "type": "uint256"
        },
        {
          "indexed": false,
          "internalType": "uint8",
          "name": "minor",
          "type": "uint8"
        },
        {
          "indexed": false,
          "internalType": "uint8",
          "name": "patch",
          "type": "uint8"
        }
      ],
      "name": "VersionAdded",
      "type": "event"
    },
    {
      "inputs": [
        {
          "internalType": "address",
          "name": "to",
          "type": "address"
        },
        {
          "internalType": "uint256",
          "name": "tokenId",
          "type": "uint256"
        }
      ],
      "name": "approve",
      "outputs": [],
      "stateMutability": "nonpayable",
      "type": "function"
    },
    {
      "inputs": [
        {
          "internalType": "address",
          "name": "owner",
          "type": "address"
        }
      ],
      "name": "balanceOf",
      "outputs": [
        {
          "internalType": "uint256",
          "name": "",
          "type": "uint256"
        }
      ],
      "stateMutability": "view",
      "type": "function"
    },
    {
      "inputs": [],
      "name": "dataUrlResolver",
      "outputs": [
        {
          "internalType": "contract IOMA3DataUrlResolver",
          "name": "",
          "type": "address"
        }
      ],
      "stateMutability": "view",
      "type": "function"
    },
    {
      "inputs": [
        {
          "internalType": "string",
          "name": "didString",
          "type": "string"
        },
        {
          "internalType": "uint8",
          "name": "major",
          "type": "uint8"
        }
      ],
      "name": "getApp",
      "outputs": [
        {
          "components": [
            {
              "internalType": "address",
              "name": "minter",
              "type": "address"
            },
            {
              "internalType": "uint16",
              "name": "interfaces",
              "type": "uint16"
            },
            {
              "internalType": "uint8",
              "name": "versionMajor",
              "type": "uint8"
            },
            {
              "internalType": "uint8",
              "name": "status",
              "type": "uint8"
            },
            {
              "internalType": "uint8",
              "name": "dataHashAlgorithm",
              "type": "uint8"
            },
            {
              "internalType": "bytes32",
              "name": "dataHash",
              "type": "bytes32"
            },
            {
              "internalType": "string",
              "name": "did",
              "type": "string"
            },
            {
              "internalType": "string",
              "name": "fungibleTokenId",
              "type": "string"
            },
            {
              "internalType": "string",
              "name": "contractId",
              "type": "string"
            },
            {
              "internalType": "string",
              "name": "dataUrl",
              "type": "string"
            },
            {
              "components": [
                {
                  "internalType": "uint8",
                  "name": "major",
                  "type": "uint8"
                },
                {
                  "internalType": "uint8",
                  "name": "minor",
                  "type": "uint8"
                },
                {
                  "internalType": "uint8",
                  "name": "patch",
                  "type": "uint8"
                }
              ],
              "internalType": "struct OMA3AppRegistry.Version[]",
              "name": "versionHistory",
              "type": "tuple[]"
            },
            {
              "internalType": "bytes32[]",
              "name": "traitHashes",
              "type": "bytes32[]"
            }
          ],
          "internalType": "struct OMA3AppRegistry.App",
          "name": "",
          "type": "tuple"
        }
      ],
      "stateMutability": "view",
      "type": "function"
    },
    {
      "inputs": [
        {
          "internalType": "uint256",
          "name": "tokenId",
          "type": "uint256"
        }
      ],
      "name": "getApproved",
      "outputs": [
        {
          "internalType": "address",
          "name": "",
          "type": "address"
        }
      ],
      "stateMutability": "view",
      "type": "function"
    },
    {
      "inputs": [
        {
          "internalType": "uint256",
          "name": "startIndex",
          "type": "uint256"
        }
      ],
      "name": "getApps",
      "outputs": [
        {
          "components": [
            {
              "internalType": "address",
              "name": "minter",
              "type": "address"
            },
            {
              "internalType": "uint16",
              "name": "interfaces",
              "type": "uint16"
            },
            {
              "internalType": "uint8",
              "name": "versionMajor",
              "type": "uint8"
            },
            {
              "internalType": "uint8",
              "name": "status",
              "type": "uint8"
            },
            {
              "internalType": "uint8",
              "name": "dataHashAlgorithm",
              "type": "uint8"
            },
            {
              "internalType": "bytes32",
              "name": "dataHash",
              "type": "bytes32"
            },
            {
              "internalType": "string",
              "name": "did",
              "type": "string"
            },
            {
              "internalType": "string",
              "name": "fungibleTokenId",
              "type": "string"
            },
            {
              "internalType": "string",
              "name": "contractId",
              "type": "string"
            },
            {
              "internalType": "string",
              "name": "dataUrl",
              "type": "string"
            },
            {
              "components": [
                {
                  "internalType": "uint8",
                  "name": "major",
                  "type": "uint8"
                },
                {
                  "internalType": "uint8",
                  "name": "minor",
                  "type": "uint8"
                },
                {
                  "internalType": "uint8",
                  "name": "patch",
                  "type": "uint8"
                }
              ],
              "internalType": "struct OMA3AppRegistry.Version[]",
              "name": "versionHistory",
              "type": "tuple[]"
            },
            {
              "internalType": "bytes32[]",
              "name": "traitHashes",
              "type": "bytes32[]"
            }
          ],
          "internalType": "struct OMA3AppRegistry.App[]",
          "name": "apps",
          "type": "tuple[]"
        },
        {
          "internalType": "uint256",
          "name": "nextStartIndex",
          "type": "uint256"
        }
      ],
      "stateMutability": "view",
      "type": "function"
    },
    {
      "inputs": [
        {
          "internalType": "uint16",
          "name": "interfaceMask",
          "type": "uint16"
        },
        {
          "internalType": "uint256",
          "name": "startIndex",
          "type": "uint256"
        }
      ],
      "name": "getAppsByInterface",
      "outputs": [
        {
          "components": [
            {
              "internalType": "address",
              "name": "minter",
              "type": "address"
            },
            {
              "internalType": "uint16",
              "name": "interfaces",
              "type": "uint16"
            },
            {
              "internalType": "uint8",
              "name": "versionMajor",
              "type": "uint8"
            },
            {
              "internalType": "uint8",
              "name": "status",
              "type": "uint8"
            },
            {
              "internalType": "uint8",
              "name": "dataHashAlgorithm",
              "type": "uint8"
            },
            {
              "internalType": "bytes32",
              "name": "dataHash",
              "type": "bytes32"
            },
            {
              "internalType": "string",
              "name": "did",
              "type": "string"
            },
            {
              "internalType": "string",
              "name": "fungibleTokenId",
              "type": "string"
            },
            {
              "internalType": "string",
              "name": "contractId",
              "type": "string"
            },
            {
              "internalType": "string",
              "name": "dataUrl",
              "type": "string"
            },
            {
              "components": [
                {
                  "internalType": "uint8",
                  "name": "major",
                  "type": "uint8"
                },
                {
                  "internalType": "uint8",
                  "name": "minor",
                  "type": "uint8"
                },
                {
                  "internalType": "uint8",
                  "name": "patch",
                  "type": "uint8"
                }
              ],
              "internalType": "struct OMA3AppRegistry.Version[]",
              "name": "versionHistory",
              "type": "tuple[]"
            },
            {
              "internalType": "bytes32[]",
              "name": "traitHashes",
              "type": "bytes32[]"
            }
          ],
          "internalType": "struct OMA3AppRegistry.App[]",
          "name": "apps",
          "type": "tuple[]"
        },
        {
          "internalType": "uint256",
          "name": "nextStartIndex",
          "type": "uint256"
        }
      ],
      "stateMutability": "view",
      "type": "function"
    },
    {
      "inputs": [
        {
          "internalType": "address",
          "name": "owner",
          "type": "address"
        },
        {
          "internalType": "uint256",
          "name": "startIndex",
          "type": "uint256"
        }
      ],
      "name": "getAppsByOwner",
      "outputs": [
        {
          "components": [
            {
              "internalType": "address",
              "name": "minter",
              "type": "address"
            },
            {
              "internalType": "uint16",
              "name": "interfaces",
              "type": "uint16"
            },
            {
              "internalType": "uint8",
              "name": "versionMajor",
              "type": "uint8"
            },
            {
              "internalType": "uint8",
              "name": "status",
              "type": "uint8"
            },
            {
              "internalType": "uint8",
              "name": "dataHashAlgorithm",
              "type": "uint8"
            },
            {
              "internalType": "bytes32",
              "name": "dataHash",
              "type": "bytes32"
            },
            {
              "internalType": "string",
              "name": "did",
              "type": "string"
            },
            {
              "internalType": "string",
              "name": "fungibleTokenId",
              "type": "string"
            },
            {
              "internalType": "string",
              "name": "contractId",
              "type": "string"
            },
            {
              "internalType": "string",
              "name": "dataUrl",
              "type": "string"
            },
            {
              "components": [
                {
                  "internalType": "uint8",
                  "name": "major",
                  "type": "uint8"
                },
                {
                  "internalType": "uint8",
                  "name": "minor",
                  "type": "uint8"
                },
                {
                  "internalType": "uint8",
                  "name": "patch",
                  "type": "uint8"
                }
              ],
              "internalType": "struct OMA3AppRegistry.Version[]",
              "name": "versionHistory",
              "type": "tuple[]"
            },
            {
              "internalType": "bytes32[]",
              "name": "traitHashes",
              "type": "bytes32[]"
            }
          ],
          "internalType": "struct OMA3AppRegistry.App[]",
          "name": "apps",
          "type": "tuple[]"
        },
        {
          "internalType": "uint256",
          "name": "nextStartIndex",
          "type": "uint256"
        }
      ],
      "stateMutability": "view",
      "type": "function"
    },
    {
      "inputs": [
        {
          "internalType": "uint8",
          "name": "status",
          "type": "uint8"
        },
        {
          "internalType": "uint256",
          "name": "startIndex",
          "type": "uint256"
        }
      ],
      "name": "getAppsByStatus",
      "outputs": [
        {
          "components": [
            {
              "internalType": "address",
              "name": "minter",
              "type": "address"
            },
            {
              "internalType": "uint16",
              "name": "interfaces",
              "type": "uint16"
            },
            {
              "internalType": "uint8",
              "name": "versionMajor",
              "type": "uint8"
            },
            {
              "internalType": "uint8",
              "name": "status",
              "type": "uint8"
            },
            {
              "internalType": "uint8",
              "name": "dataHashAlgorithm",
              "type": "uint8"
            },
            {
              "internalType": "bytes32",
              "name": "dataHash",
              "type": "bytes32"
            },
            {
              "internalType": "string",
              "name": "did",
              "type": "string"
            },
            {
              "internalType": "string",
              "name": "fungibleTokenId",
              "type": "string"
            },
            {
              "internalType": "string",
              "name": "contractId",
              "type": "string"
            },
            {
              "internalType": "string",
              "name": "dataUrl",
              "type": "string"
            },
            {
              "components": [
                {
                  "internalType": "uint8",
                  "name": "major",
                  "type": "uint8"
                },
                {
                  "internalType": "uint8",
                  "name": "minor",
                  "type": "uint8"
                },
                {
                  "internalType": "uint8",
                  "name": "patch",
                  "type": "uint8"
                }
              ],
              "internalType": "struct OMA3AppRegistry.Version[]",
              "name": "versionHistory",
              "type": "tuple[]"
            },
            {
              "internalType": "bytes32[]",
              "name": "traitHashes",
              "type": "bytes32[]"
            }
          ],
          "internalType": "struct OMA3AppRegistry.App[]",
          "name": "apps",
          "type": "tuple[]"
        },
        {
          "internalType": "uint256",
          "name": "nextStartIndex",
          "type": "uint256"
        }
      ],
      "stateMutability": "view",
      "type": "function"
    },
    {
      "inputs": [
        {
          "internalType": "uint256",
          "name": "tokenId",
          "type": "uint256"
        }
      ],
      "name": "getDIDByTokenId",
      "outputs": [
        {
          "internalType": "string",
          "name": "",
          "type": "string"
        }
      ],
      "stateMutability": "view",
      "type": "function"
    },
    {
      "inputs": [
        {
          "internalType": "string",
          "name": "didString",
          "type": "string"
        }
      ],
      "name": "getDidHash",
      "outputs": [
        {
          "internalType": "bytes32",
          "name": "",
          "type": "bytes32"
        }
      ],
      "stateMutability": "pure",
      "type": "function"
    },
    {
      "inputs": [
        {
          "internalType": "uint256",
          "name": "tokenId",
          "type": "uint256"
        },
        {
          "internalType": "string",
          "name": "key",
          "type": "string"
        }
      ],
      "name": "getMetadata",
      "outputs": [
        {
          "internalType": "bytes",
          "name": "value",
          "type": "bytes"
        }
      ],
      "stateMutability": "view",
      "type": "function"
    },
    {
      "inputs": [
        {
          "internalType": "address",
          "name": "owner",
          "type": "address"
        }
      ],
      "name": "getTotalAppsByOwner",
      "outputs": [
        {
          "internalType": "uint256",
          "name": "",
          "type": "uint256"
        }
      ],
      "stateMutability": "view",
      "type": "function"
    },
    {
      "inputs": [
        {
          "internalType": "uint8",
          "name": "status",
          "type": "uint8"
        }
      ],
      "name": "getTotalAppsByStatus",
      "outputs": [
        {
          "internalType": "uint256",
          "name": "",
          "type": "uint256"
        }
      ],
      "stateMutability": "view",
      "type": "function"
    },
    {
      "inputs": [
        {
          "internalType": "string",
          "name": "didString",
          "type": "string"
        },
        {
          "internalType": "uint8",
          "name": "major",
          "type": "uint8"
        },
        {
          "internalType": "bytes32[]",
          "name": "traits",
          "type": "bytes32[]"
        }
      ],
      "name": "hasAllTraits",
      "outputs": [
        {
          "internalType": "bool",
          "name": "",
          "type": "bool"
        }
      ],
      "stateMutability": "view",
      "type": "function"
    },
    {
      "inputs": [
        {
          "internalType": "string",
          "name": "didString",
          "type": "string"
        },
        {
          "internalType": "uint8",
          "name": "major",
          "type": "uint8"
        },
        {
          "internalType": "bytes32[]",
          "name": "traits",
          "type": "bytes32[]"
        }
      ],
      "name": "hasAnyTraits",
      "outputs": [
        {
          "internalType": "bool",
          "name": "",
          "type": "bool"
        }
      ],
      "stateMutability": "view",
      "type": "function"
    },
    {
      "inputs": [
        {
          "internalType": "address",
          "name": "owner",
          "type": "address"
        },
        {
          "internalType": "address",
          "name": "operator",
          "type": "address"
        }
      ],
      "name": "isApprovedForAll",
      "outputs": [
        {
          "internalType": "bool",
          "name": "",
          "type": "bool"
        }
      ],
      "stateMutability": "view",
      "type": "function"
    },
    {
      "inputs": [
        {
          "internalType": "bytes32",
          "name": "didHash",
          "type": "bytes32"
        }
      ],
      "name": "latestMajor",
      "outputs": [
        {
          "internalType": "uint8",
          "name": "",
          "type": "uint8"
        }
      ],
      "stateMutability": "view",
      "type": "function"
    },
    {
      "inputs": [],
      "name": "metadataContract",
      "outputs": [
        {
          "internalType": "contract IOMA3AppMetadata",
          "name": "",
          "type": "address"
        }
      ],
      "stateMutability": "view",
      "type": "function"
    },
    {
      "inputs": [
        {
          "internalType": "string",
          "name": "didString",
          "type": "string"
        },
        {
          "internalType": "uint16",
          "name": "interfaces",
          "type": "uint16"
        },
        {
          "internalType": "string",
          "name": "dataUrl",
          "type": "string"
        },
        {
          "internalType": "bytes32",
          "name": "dataHash",
          "type": "bytes32"
        },
        {
          "internalType": "uint8",
          "name": "dataHashAlgorithm",
          "type": "uint8"
        },
        {
          "internalType": "string",
          "name": "fungibleTokenId",
          "type": "string"
        },
        {
          "internalType": "string",
          "name": "contractId",
          "type": "string"
        },
        {
          "internalType": "uint8",
          "name": "initialVersionMajor",
          "type": "uint8"
        },
        {
          "internalType": "uint8",
          "name": "initialVersionMinor",
          "type": "uint8"
        },
        {
          "internalType": "uint8",
          "name": "initialVersionPatch",
          "type": "uint8"
        },
        {
          "internalType": "bytes32[]",
          "name": "traitHashes",
          "type": "bytes32[]"
        },
        {
          "internalType": "string",
          "name": "metadataJson",
          "type": "string"
        }
      ],
      "name": "mint",
      "outputs": [
        {
          "internalType": "uint256",
          "name": "",
          "type": "uint256"
        }
      ],
      "stateMutability": "nonpayable",
      "type": "function"
    },
    {
      "inputs": [],
      "name": "name",
      "outputs": [
        {
          "internalType": "string",
          "name": "",
          "type": "string"
        }
      ],
      "stateMutability": "view",
      "type": "function"
    },
    {
      "inputs": [],
      "name": "owner",
      "outputs": [
        {
          "internalType": "address",
          "name": "",
          "type": "address"
        }
      ],
      "stateMutability": "view",
      "type": "function"
    },
    {
      "inputs": [
        {
          "internalType": "uint256",
          "name": "tokenId",
          "type": "uint256"
        }
      ],
      "name": "ownerOf",
      "outputs": [
        {
          "internalType": "address",
          "name": "",
          "type": "address"
        }
      ],
      "stateMutability": "view",
      "type": "function"
    },
    {
      "inputs": [],
      "name": "ownershipResolver",
      "outputs": [
        {
          "internalType": "contract IOMA3OwnershipResolver",
          "name": "",
          "type": "address"
        }
      ],
      "stateMutability": "view",
      "type": "function"
    },
    {
      "inputs": [
        {
          "internalType": "string",
          "name": "_tokenURI",
          "type": "string"
        },
        {
          "components": [
            {
              "internalType": "string",
              "name": "key",
              "type": "string"
            },
            {
              "internalType": "bytes",
              "name": "value",
              "type": "bytes"
            }
          ],
          "internalType": "struct OMA3AppRegistry.MetadataEntry[]",
          "name": "_metadata",
          "type": "tuple[]"
        }
      ],
      "name": "register",
      "outputs": [
        {
          "internalType": "uint256",
          "name": "",
          "type": "uint256"
        }
      ],
      "stateMutability": "nonpayable",
      "type": "function"
    },
    {
      "inputs": [
        {
          "internalType": "string",
          "name": "_tokenURI",
          "type": "string"
        }
      ],
      "name": "register",
      "outputs": [
        {
          "internalType": "uint256",
          "name": "",
          "type": "uint256"
        }
      ],
      "stateMutability": "nonpayable",
      "type": "function"
    },
    {
      "inputs": [
        {
          "internalType": "bytes32",
          "name": "",
          "type": "bytes32"
        }
      ],
      "name": "registrationBlock",
      "outputs": [
        {
          "internalType": "uint256",
          "name": "",
          "type": "uint256"
        }
      ],
      "stateMutability": "view",
      "type": "function"
    },
    {
      "inputs": [],
      "name": "registrationResolver",
      "outputs": [
        {
          "internalType": "contract IOMA3RegistrationResolver",
          "name": "",
          "type": "address"
        }
      ],
      "stateMutability": "view",
      "type": "function"
    },
    {
      "inputs": [
        {
          "internalType": "bytes32",
          "name": "",
          "type": "bytes32"
        }
      ],
      "name": "registrationTimestamp",
      "outputs": [
        {
          "internalType": "uint256",
          "name": "",
          "type": "uint256"
        }
      ],
      "stateMutability": "view",
      "type": "function"
    },
    {
      "inputs": [],
      "name": "renounceOwnership",
      "outputs": [],
      "stateMutability": "nonpayable",
      "type": "function"
    },
    {
      "inputs": [],
      "name": "requireDataUrlAttestation",
      "outputs": [
        {
          "internalType": "bool",
          "name": "",
          "type": "bool"
        }
      ],
      "stateMutability": "view",
      "type": "function"
    },
    {
      "inputs": [
        {
          "internalType": "address",
          "name": "from",
          "type": "address"
        },
        {
          "internalType": "address",
          "name": "to",
          "type": "address"
        },
        {
          "internalType": "uint256",
          "name": "tokenId",
          "type": "uint256"
        }
      ],
      "name": "safeTransferFrom",
      "outputs": [],
      "stateMutability": "nonpayable",
      "type": "function"
    },
    {
      "inputs": [
        {
          "internalType": "address",
          "name": "from",
          "type": "address"
        },
        {
          "internalType": "address",
          "name": "to",
          "type": "address"
        },
        {
          "internalType": "uint256",
          "name": "tokenId",
          "type": "uint256"
        },
        {
          "internalType": "bytes",
          "name": "data",
          "type": "bytes"
        }
      ],
      "name": "safeTransferFrom",
      "outputs": [],
      "stateMutability": "nonpayable",
      "type": "function"
    },
    {
      "inputs": [
        {
          "internalType": "address",
          "name": "operator",
          "type": "address"
        },
        {
          "internalType": "bool",
          "name": "approved",
          "type": "bool"
        }
      ],
      "name": "setApprovalForAll",
      "outputs": [],
      "stateMutability": "nonpayable",
      "type": "function"
    },
    {
      "inputs": [
        {
          "internalType": "address",
          "name": "_resolver",
          "type": "address"
        }
      ],
      "name": "setDataUrlResolver",
      "outputs": [],
      "stateMutability": "nonpayable",
      "type": "function"
    },
    {
      "inputs": [
        {
          "internalType": "address",
          "name": "_metadataContract",
          "type": "address"
        }
      ],
      "name": "setMetadataContract",
      "outputs": [],
      "stateMutability": "nonpayable",
      "type": "function"
    },
    {
      "inputs": [
        {
          "internalType": "address",
          "name": "_resolver",
          "type": "address"
        }
      ],
      "name": "setOwnershipResolver",
      "outputs": [],
      "stateMutability": "nonpayable",
      "type": "function"
    },
    {
      "inputs": [
        {
          "internalType": "address",
          "name": "_resolver",
          "type": "address"
        }
      ],
      "name": "setRegistrationResolver",
      "outputs": [],
      "stateMutability": "nonpayable",
      "type": "function"
    },
    {
      "inputs": [
        {
          "internalType": "bool",
          "name": "_require",
          "type": "bool"
        }
      ],
      "name": "setRequireDataUrlAttestation",
      "outputs": [],
      "stateMutability": "nonpayable",
      "type": "function"
    },
    {
      "inputs": [
        {
          "internalType": "bytes4",
          "name": "interfaceId",
          "type": "bytes4"
        }
      ],
      "name": "supportsInterface",
      "outputs": [
        {
          "internalType": "bool",
          "name": "",
          "type": "bool"
        }
      ],
      "stateMutability": "view",
      "type": "function"
    },
    {
      "inputs": [],
      "name": "symbol",
      "outputs": [
        {
          "internalType": "string",
          "name": "",
          "type": "string"
        }
      ],
      "stateMutability": "view",
      "type": "function"
    },
    {
      "inputs": [
        {
          "internalType": "uint256",
          "name": "index",
          "type": "uint256"
        }
      ],
      "name": "tokenByIndex",
      "outputs": [
        {
          "internalType": "uint256",
          "name": "",
          "type": "uint256"
        }
      ],
      "stateMutability": "view",
      "type": "function"
    },
    {
      "inputs": [
        {
          "internalType": "address",
          "name": "owner",
          "type": "address"
        },
        {
          "internalType": "uint256",
          "name": "index",
          "type": "uint256"
        }
      ],
      "name": "tokenOfOwnerByIndex",
      "outputs": [
        {
          "internalType": "uint256",
          "name": "",
          "type": "uint256"
        }
      ],
      "stateMutability": "view",
      "type": "function"
    },
    {
      "inputs": [
        {
          "internalType": "uint256",
          "name": "tokenId",
          "type": "uint256"
        }
      ],
      "name": "tokenURI",
      "outputs": [
        {
          "internalType": "string",
          "name": "",
          "type": "string"
        }
      ],
      "stateMutability": "view",
      "type": "function"
    },
    {
      "inputs": [],
      "name": "totalSupply",
      "outputs": [
        {
          "internalType": "uint256",
          "name": "",
          "type": "uint256"
        }
      ],
      "stateMutability": "view",
      "type": "function"
    },
    {
      "inputs": [
        {
          "internalType": "address",
          "name": "from",
          "type": "address"
        },
        {
          "internalType": "address",
          "name": "to",
          "type": "address"
        },
        {
          "internalType": "uint256",
          "name": "tokenId",
          "type": "uint256"
        }
      ],
      "name": "transferFrom",
      "outputs": [],
      "stateMutability": "nonpayable",
      "type": "function"
    },
    {
      "inputs": [
        {
          "internalType": "address",
          "name": "newOwner",
          "type": "address"
        }
      ],
      "name": "transferOwnership",
      "outputs": [],
      "stateMutability": "nonpayable",
      "type": "function"
    },
    {
      "inputs": [
        {
          "internalType": "string",
          "name": "didString",
          "type": "string"
        },
        {
          "internalType": "uint8",
          "name": "major",
          "type": "uint8"
        },
        {
          "internalType": "string",
          "name": "newDataUrl",
          "type": "string"
        },
        {
          "internalType": "bytes32",
          "name": "newDataHash",
          "type": "bytes32"
        },
        {
          "internalType": "uint8",
          "name": "newDataHashAlgorithm",
          "type": "uint8"
        },
        {
          "internalType": "uint16",
          "name": "newInterfaces",
          "type": "uint16"
        },
        {
          "internalType": "bytes32[]",
          "name": "newTraitHashes",
          "type": "bytes32[]"
        },
        {
          "internalType": "uint8",
          "name": "newMinor",
          "type": "uint8"
        },
        {
          "internalType": "uint8",
          "name": "newPatch",
          "type": "uint8"
        },
        {
          "internalType": "string",
          "name": "metadataJson",
          "type": "string"
        }
      ],
      "name": "updateAppControlled",
      "outputs": [],
      "stateMutability": "nonpayable",
      "type": "function"
    },
    {
      "inputs": [
        {
          "internalType": "string",
          "name": "didString",
          "type": "string"
        },
        {
          "internalType": "uint8",
          "name": "major",
          "type": "uint8"
        },
        {
          "internalType": "uint8",
          "name": "newStatus",
          "type": "uint8"
        }
      ],
      "name": "updateStatus",
      "outputs": [],
      "stateMutability": "nonpayable",
      "type": "function"
    }
  ],
  "bytecode": "0x60806040523461037b57604080519081016001600160401b0381118282101761029157604090815260118252704f4d41332041707020526567697374727960781b602083015280519081016001600160401b0381118282101761029157604052600781526604f4d41334150560cc1b602082015281516001600160401b038111610291575f54600181811c91168015610371575b602082101461027357601f811161030f575b50602092601f82116001146102b057928192935f926102a5575b50508160011b915f199060031b1c1916175f555b80516001600160401b03811161029157600154600181811c91168015610287575b602082101461027357601f8111610210575b50602091601f82116001146101b0579181925f926101a5575b50508160011b915f199060031b1c1916176001555b331561019257600a8054336001600160a01b03198216811790925560405191906001600160a01b03167f8be0079c531659141344cd1fd0a4f28419497f9722a3daafe3b4186f6b6457e05f80a36001600b5561513c90816103808239f35b631e4fbdf760e01b5f525f60045260245ffd5b015190505f8061011f565b601f1982169260015f52805f20915f5b8581106101f8575083600195106101e0575b505050811b01600155610134565b01515f1960f88460031b161c191690555f80806101d2565b919260206001819286850151815501940192016101c0565b60015f527fb10e2d527612073b26eecdfd717e6a320cf44b4afac2b0732d9fcbe2b7fa0cf6601f830160051c81019160208410610269575b601f0160051c01905b81811061025e5750610106565b5f8155600101610251565b9091508190610248565b634e487b7160e01b5f52602260045260245ffd5b90607f16906100f4565b634e487b7160e01b5f52604160045260245ffd5b015190505f806100bf565b601f198216935f8052805f20915f5b8681106102f757508360019596106102df575b505050811b015f556100d3565b01515f1960f88460031b161c191690555f80806102d2565b919260206001819286850151815501940192016102bf565b5f80527f290decd9548b62a8d60345a988386fc84ba6bc95484008f6362f93160ef3e563601f830160051c81019160208410610367575b601f0160051c01905b81811061035c57506100a5565b5f815560010161034f565b9091508190610346565b90607f1690610093565b5f80fdfe6102c0806040526004361015610013575f80fd5b5f3560e01c90816301ffc9a7146124995750806306fdde03146123f7578063081812fc146123bb578063095ea7b3146122d15780630fecc4fb14611fd457806318160ddd146122b457806323b872dd1461229d57806327ca40c2146122785780632a678e91146122505780632f745c591461222957806333c49a6a1461220157806335209821146121d95780633f89efe7146121af57806342842e0e146121865780634f6ccce71461210257806353a2b12a146120dd5780636352211e146120ad5780636bb1d6e114611ff757806370a0823114611fd4578063715018a614611f795780637c6ecba914611ee357806385ddd4a014611e8f5780638da5cb5b14611e675780638ea422861461192357806395d89b411461185957806399671e38146110a7578063a1e5425e14611054578063a22cb46514610fb9578063a38dca5114610f22578063a95018d814610ee2578063b2a7b15814610ebd578063b51c31ef14610e78578063b53818f614610d58578063b5503f3214610d30578063b56ccfae14610d05578063b88d4fde14610cb5578063bd629a3514610c9c578063c19ab07e1461099e578063c87b56dd14610932578063cb4799f2146108e0578063cef7b5d8146108a0578063d81e0de7146107bb578063db737a9214610721578063db764d92146106fe578063e5187f4314610668578063e985e9c514610611578063f2c298be146102ec578063f2fde38b146102665763fe87533f14610238575f80fd5b34610262576020366003190112610262576004355f526014602052602060405f2054604051908152f35b5f80fd5b346102625760203660031901126102625761027f61255c565b610287613ed7565b6001600160a01b031680156102d957600a80546001600160a01b0319811683179091556001600160a01b03167f8be0079c531659141344cd1fd0a4f28419497f9722a3daafe3b4186f6b6457e05f80a3005b631e4fbdf760e01b5f525f60045260245ffd5b34610262576020366003190112610262576004356001600160401b0381116102625761031c903690600401612834565b610324613efe565b6018546001600160a01b031680156105cc575f60405180926371995b6b60e01b8252336004830152604060248301528183816103636044820189612538565b03925af19081156105c1575f916103dc575b60206103cf848480519161ffff858301511690606083015160ff60808501511660a085015160c08601519160ff60e0880151169360ff610100890151169560ff6101208a015116976101606101408b01519a01519a613f1e565b6001600b55604051908152f35b90503d805f833e6103ed81836127f8565b810190602081830312610262578051906001600160401b0382116102625701916101c08383031261026257604051916101c083018381106001600160401b038211176105ad5760405283516001600160401b0381116102625781610452918601613268565b83526104606020850161333e565b602084015260408401516001600160401b0381116102625781610484918601613268565b60408401526060840151606084015261049f60808501613330565b608084015260a08401516001600160401b03811161026257816104c3918601613268565b60a084015260c08401516001600160401b03811161026257816104e7918601613268565b60c08401526104f860e08501613330565b60e084015261050a6101008501613330565b61010084015261051d6101208501613330565b6101208401526101408401516001600160401b03811161026257816105439186016132d3565b610140840152610160840151906001600160401b03821161026257610569918501613268565b610160830152610180830151916001600160401b03831683036102625761059f6101a06020956103cf9561018085015201613e96565b6101a0820152915091610375565b634e487b7160e01b5f52604160045260245ffd5b6040513d5f823e3d90fd5b60405162461bcd60e51b815260206004820152601d60248201527f526567697374726174696f6e207265736f6c766572206e6f74207365740000006044820152606490fd5b346102625760403660031901126102625761062a61255c565b610632612572565b9060018060a01b03165f52600560205260405f209060018060a01b03165f52602052602060ff60405f2054166040519015158152f35b346102625760203660031901126102625761068161255c565b610689613ed7565b6001600160a01b031680156106af576001600160601b0360a01b60155416176015555f80f35b60405162461bcd60e51b815260206004820152602160248201527f496e76616c6964206d6574616461746120636f6e7472616374206164647265736044820152607360f81b6064820152608490fd5b34610262576020610717610711366128ec565b91613e04565b6040519015158152f35b346102625760203660031901126102625761073a61255c565b610742613ed7565b6001600160a01b03168015610768576001600160601b0360a01b60185416176018555f80f35b60405162461bcd60e51b815260206004820152602560248201527f496e76616c696420726567697374726174696f6e207265736f6c766572206164604482015264647265737360d81b6064820152608490fd5b34610262576060366003190112610262576004356001600160401b038111610262576107eb903690600401612834565b6107f3612780565b906044359060ff821682036102625761082983825160208401205f52600d60205260ff60405f2091165f5260205260405f205490565b80156108845761083890613ea3565b336001600160a01b0390911603610862579161085b92610856613efe565b613c59565b6001600b55005b604051635f69c25560e01b8152928392506108809160048401613216565b0390fd5b604051634ecda4f560e11b815280610880868560048401613216565b346102625760403660031901126102625760043561ffff81168103610262576108cc9060243590613b27565b906108dc6040519283928361270b565b0390f35b34610262576040366003190112610262576024356001600160401b0381116102625761091e6109166108dc923690600401612834565b600435613631565b604051918291602083526020830190612538565b34610262576020366003190112610262576004355f818152600260205260409020546001600160a01b03161561098c575f52600c6020526108dc61098561091e600560405f20016040519283809261297e565b03826127f8565b63a42088b560e01b5f5260045260245ffd5b34610262576020366003190112610262576040516329d1589560e11b81525f600480830182905235602483015281604481305afa9081156105c1575f905f926109f2575b506108dc6040519283928361270b565b9150503d805f833e610a0481836127f8565b8101906040818303126102625780516001600160401b0381116102625781019180601f8401121561026257825192610a3b84612878565b93610a4960405195866127f8565b80855260208086019160051b830101918383116102625760208101915b838310610a7d5750505050506020015190826109e2565b82516001600160401b03811161026257820190610180828703601f1901126102625760405190610aac826127dc565b610ab86020840161361d565b8252610ac66040840161333e565b6020830152610ad760608401613330565b6040830152610ae860808401613330565b6060830152610af960a08401613330565b608083015260c083015160a083015260e08301516001600160401b03811161026257876020610b2a92860101613268565b60c08301526101008301516001600160401b03811161026257876020610b5292860101613268565b60e08301526101208301516001600160401b03811161026257876020610b7a92860101613268565b6101008301526101408301516001600160401b03811161026257876020610ba392860101613268565b6101208301526101608301516001600160401b0381116102625760209084010187601f82011215610262578051610bd981612878565b91610be760405193846127f8565b818352602060608185019302820101908a821161026257602001915b818310610c4b57505050610140830152610180830151916001600160401b03831161026257610c3a886020809695819601016132d3565b610160820152815201920191610a66565b6060838c0312610262576020606091604051610c66816127c1565b610c6f86613330565b8152610c7c838701613330565b83820152610c8c60408701613330565b6040820152815201920191610c03565b34610262576020610717610caf366128ec565b9161356c565b3461026257608036600319011261026257610cce61255c565b610cd6612572565b606435916001600160401b03831161026257610cf9610d03933690600401612834565b916044359161342c565b005b34610262576020366003190112610262576020610d28610d23612770565b6133c4565b604051908152f35b34610262575f366003190112610262576018546040516001600160a01b039091168152602090f35b3461026257610180366003190112610262576004356001600160401b03811161026257610d89903690600401612834565b6024359061ffff82168203610262576044356001600160401b03811161026257610db7903690600401612834565b91610dc0612790565b60a4356001600160401b03811161026257610ddf903690600401612834565b60c4356001600160401b03811161026257610dfe903690600401612834565b610e066127a0565b610e0e6127b0565b91610124359360ff8516850361026257610144356001600160401b03811161026257610e3e90369060040161288f565b9561016435986001600160401b038a116102625760209a610e666103cf9b3690600401612834565b99610e6f613efe565b60643592613f1e565b346102625760203660031901126102625760043580151580910361026257610e9e613ed7565b6018805460ff60a01b191660a09290921b60ff60a01b16919091179055005b34610262575f36600319011261026257602060ff60185460a01c166040519015158152f35b34610262576020366003190112610262576004356001600160401b03811161026257610f146020913690600401612834565b818151910120604051908152f35b3461026257602036600319011261026257610f3b61255c565b610f43613ed7565b6001600160a01b03168015610f69576001600160601b0360a01b60165416176016555f80f35b60405162461bcd60e51b815260206004820152602260248201527f496e76616c6964206f776e657273686970207265736f6c766572206164647265604482015261737360f01b6064820152608490fd5b3461026257604036600319011261026257610fd261255c565b60243590811515809203610262576001600160a01b031690811561104157335f52600560205260405f20825f5260205260405f2060ff1981541660ff83161790556040519081527f17307eab39ab6107e8899845ad3d59bd9653f200f220920489ca2b5937696c3160203392a3005b50630b61174360e31b5f5260045260245ffd5b34610262576020366003190112610262576004355f818152600260205260409020546001600160a01b03161561098c575f52600c6020526108dc61098561091e600260405f20016040519283809261297e565b3461026257610140366003190112610262576004356001600160401b038111610262576110d8903690600401612834565b60a0526110e3612780565b60e0526044356001600160401b03811161026257611105903690600401612834565b61110d612790565b60c05260a43561ffff811681036102625760c4356001600160401b0381116102625761113d90369060040161288f565b916111466127a0565b9161114f6127b0565b93610124356001600160401b03811161026257611170903690600401612834565b60805260a051516111a3602060a051019160e0519083205f52600d60205260ff60405f2091165f5260205260405f205490565b8015611839576111b290613ea3565b336001600160a01b0390911603611819576111cb613efe565b60a05151902090815f52600d60205260405f2060ff60e051165f5260205260405f205493845f52600c60205260405f209381519081151591826117ed575b5081156117ca575b81156117b2575b61ffff811615158061179c575b845115938315938480611794575b8061178d575b61177e576006890154805f1981011161176a578a9561125f85925f190160068d01613054565b50916116f9575b82906116f1575b611696575b5080611653575b851561162a575b611486575b50611430575b50501561136b575b506040516112a0816127c1565b60ff60e051169283825260ff8616602083015260ff871660408301526006810154600160401b8110156105ad5760066112e192600183018282015501613054565b919091611358576112f191613386565b6040805160ff8681168252871660208201527f8ab6771ee4cb5523129ea5bd846d7f7d4103bbf1a2cebe9dca96f04dfbd222ed9190a460805151611336576001600b55005b6113519160c05191606435916080519160e05160a051614fe6565b808061085b565b634e487b7160e01b5f525f60045260245ffd5b8051600784016001600160401b0382116105ad57600160401b82116105ad57805482825580831061140a575b509082916020879401905f5260205f205f5b8381106113f35750505050827f536e40ba7e2dd8d050f26bde7e64327c5e2375c23eb08a756d093181e683b5f6604051806113ea60ff60e05116958261334d565b0390a485611293565b8251818301558895506020909201916001016113a9565b815f528260205f2091820191015b8181106114255750611397565b5f8155600101611418565b855461ffff60a01b191660a082901b61ffff60a01b1617865561ffff60405191168152847f3caeada380b095b0be8b51d0aed4ae24286f0178967772d5bc509fd50eb82c75602060ff60e0511693a4848861128b565b805193506001600160401b0384116105ad5788936114a760058a0154612946565b601f81116115d4575b506020601f82116001146115675790808693925f9161155c575b508160011b915f199060031b1c19161760058a01555b60643560018a015560c080518a5460ff60c01b1916911b60ff60c01b16178955877fb5daf8653c340810f25c86316337b06a4d13c3730ea2bfd33d9280f3cfcc307061153760405193606085526060850190612538565b92606435602082015260ff60c0511660408201528060ff60e05116940390a48a611285565b90508201518e6114ca565b60058a015f52805f20905f5b601f19841681106115b957509160019187949382601f198116106115a1575b5050811b0160058a01556114e0565b8401515f1960f88460031b161c191690558e80611592565b8185015183558c975060019092019160209182019101611573565b909192939450600589015f5260205f20601f830160051c810160208410611623575b908b9695949392915b601f830160051c820181106116155750506114b0565b5f81558c97506001016115ff565b50806115f6565b935061163586614fc8565b60643515611644578893611280565b633b66b41d60e21b5f5260045ffd5b9080929394505115611687578151610100811161167557509088939291611279565b6371a40f7160e01b5f5260045260245ffd5b63df9e8a8160e01b5f5260045ffd5b9091929394505460ff8160081c1660ff8c161115806116de575b6116bf57908994939291611272565b8b60ff80926331c6775f60e01b5f5260101c166004521660245260445ffd5b5060ff8160101c1660ff8d1611156116b0565b50861561126d565b9091929394955060ff825460081c1660ff8d16908082111561175557505061ffff8a5460a01c8181169182918916160361173a5750908a9594939291611266565b8661ffff91631571017560e31b5f526004521660245260445ffd5b63cc1e425960e01b5f5260045260245260445ffd5b634e487b7160e01b5f52601160045260245ffd5b630c1dc38b60e11b5f5260045ffd5b5085611239565b508215611233565b5061ffff865460a01c1661ffff82161415611225565b905060ff855460c01c1660ff60c05116141590611218565b90506064351515806117dd575b90611211565b50600185015460643514156117d7565b9091506020830120604051611809816109858160058b0161297e565b6020815191012014159089611209565b604051635f69c25560e01b81528061088060e05160a05160048401613216565b604051634ecda4f560e11b81528061088060e05160a05160048401613216565b34610262575f366003190112610262576040515f60015461187981612946565b80845290600181169081156118ff57506001146118a1575b6108dc8361091e818503826127f8565b60015f9081527fb10e2d527612073b26eecdfd717e6a320cf44b4afac2b0732d9fcbe2b7fa0cf6939250905b8082106118e55750909150810160200161091e611891565b9192600181602092548385880101520191019092916118cd565b60ff191660208086019190915291151560051b8401909101915061091e9050611891565b34610262576040366003190112610262576004356001600160401b03811161026257611953903690600401612834565b6024356001600160401b038111610262573660238201121561026257806004013561197d81612878565b9161198b60405193846127f8565b8183526024602084019260051b820101903682116102625760248101925b828410611dce5785856119ba613efe565b6060916001905f5f85866001915f935f958a978b995f9c5b8d8d511115611dc0576119e58e8e612db8565b5151602081519101207f4af34ffd9904d5bc4854346ab5ad09ba5dfb85bdbcabda139065f3cd26385b0c81145f14611a475750506001611a3e60208f8f90611a2c91612db8565b510151602080825183010191016132ae565b9d5b019c6119d2565b909d938d917f491804cb91ec5cd12f861f142d8204e7b75cc8be84d78bf4e1ce2679da74424d8103611a9e575050611a8184602092612db8565b510151602081805181010312610262576020600191015193611a40565b949590947fc9d54eb7b84d9ee03d7e291d0304f5f17e656d3a13f90908b9d2b5abad311bc78103611afb575050611ad785602092612db8565b51015160208180518101031261026257611af5602060019201613330565b94611a40565b909592907f47e3896e0d0ff43a3431a60c9ca5e20041e273da9f26ffc0f04eafc80f7d7cb38103611b58575050611b3482602092612db8565b51015160208180518101031261026257611b5260206001920161333e565b91611a40565b929690927f164c6244b2e19c26d9b6edbba573afdd43797ec33e4c02786f7920cb8509c3968103611b9c575050611b966020611a2c88600194612db8565b95611a40565b969790967f2fc6f32cae07e7ae089902644376689fdc72e3b74369068c60fa3a1b59ea3aaa8103611be0575050611bda6020611a2c89600194612db8565b96611a40565b979890977f822fcd80c2305106a6b64e09f6d6c4eb5bdd964b8e3373e3b3a1eba5a1eef7098103611c3d575050611c1988602092612db8565b51015160208180518101031261026257611c37602060019201613330565b97611a40565b989990987f77260edc9ffce91576691a2ac19fee12a572d0a5fb8bf9ecef7ef6b291e93ad38103611c9a575050611c7689602092612db8565b51015160208180518101031261026257611c94602060019201613330565b98611a40565b999a90997fd0f8a96f4037e03022df4b601e82b54f7ba66b54b01f842de2243666580dc2778103611cf7575050611cd38a602092612db8565b51015160208180518101031261026257611cf1602060019201613330565b99611a40565b9a9b909a7f9ab47b3a4531c42654638ea0611351352fada062374aeeb8bdb1e2283de54e0c8103611d6f575050611d308b602092612db8565b5101518051810190602081830312610262576020810151906001600160401b038211610262576020611d699281600195019201016132d3565b9a611a40565b909b91907f6a6fcee3dfc55c9d85c759f47ae5a6f25e81b184c2cedf77171ca084d2b0127a14611da3575b50600190611a40565b819c506020611a2c600193611db793612db8565b9b90508c611d9a565b60209d506103cf9c50613f1e565b83356001600160401b038111610262578201604060231982360301126102625760405191604083018381106001600160401b038211176105ad5760405260248201356001600160401b03811161026257611e2e9060243691850101612834565b83526044820135926001600160401b03841161026257611e58602094936024869536920101612834565b838201528152019301926119a9565b34610262575f36600319011261026257600a546040516001600160a01b039091168152602090f35b3461026257602036600319011261026257600435805f52601060205260ff60405f20541615611ed1575f52600f602052602060ff60405f205416604051908152f35b6304e5b67b60e21b5f5260045260245ffd5b3461026257602036600319011261026257611efc61255c565b611f04613ed7565b6001600160a01b03168015611f2a576001600160601b0360a01b60175416176017555f80f35b60405162461bcd60e51b815260206004820152602160248201527f496e76616c696420646174612055524c207265736f6c766572206164647265736044820152607360f81b6064820152608490fd5b34610262575f36600319011261026257611f91613ed7565b600a80546001600160a01b031981169091555f906001600160a01b03167f8be0079c531659141344cd1fd0a4f28419497f9722a3daafe3b4186f6b6457e08280a3005b34610262576020366003190112610262576020610d28611ff261255c565b613237565b34610262576040366003190112610262576004356001600160401b03811161026257612027903690600401612834565b61202f612780565b612037612c7d565b5061205f81835160208501205f52600d60205260ff60405f2091165f5260205260405f205490565b91821561209157825f52600c6020526108dc61207d60405f20612e16565b6040519182916020835260208301906125c2565b610880604051928392634ecda4f560e11b845260048401613216565b346102625760203660031901126102625760206120cb600435613ea3565b6040516001600160a01b039091168152f35b34610262576040366003190112610262576108cc6120f9612770565b60243590613077565b34610262576020366003190112610262576004356008548110156121705760085481101561215c5760085f527ff3f7a9fe364faab93b216da50a3214154f22a0a2b415b23a84c8169e8b636ee30154604051908152602090f35b634e487b7160e01b5f52603260045260245ffd5b63295f44f760e21b5f525f60045260245260445ffd5b3461026257610d0361219736612588565b90604051926121a76020856127f8565b5f845261342c565b34610262576020366003190112610262576004355f526013602052602060405f2054604051908152f35b34610262575f366003190112610262576015546040516001600160a01b039091168152602090f35b34610262575f366003190112610262576016546040516001600160a01b039091168152602090f35b34610262576040366003190112610262576020610d2861224761255c565b60243590612fee565b34610262575f366003190112610262576017546040516001600160a01b039091168152602090f35b34610262576040366003190112610262576108cc61229461255c565b60243590612f60565b3461026257610d036122ae36612588565b916129ff565b34610262575f366003190112610262576020600854604051908152f35b34610262576040366003190112610262576122ea61255c565b6024356122f681613ea3565b331515806123a8575b8061237b575b6123685781906001600160a01b0384811691167f8c5be1e5ebec7d5bd14f71427d1e84f3dd0314c0f7b2291e5b200ac8c7c3b9255f80a45f90815260046020526040902080546001600160a01b0319166001600160a01b03909216919091179055005b63a9fbf51f60e01b5f523360045260245ffd5b506001600160a01b0381165f90815260056020908152604080832033845290915290205460ff1615612305565b506001600160a01b0381163314156122ff565b34610262576020366003190112610262576004356123d881613ea3565b505f526004602052602060018060a01b0360405f205416604051908152f35b34610262575f366003190112610262576040515f5f5461241681612946565b80845290600181169081156118ff575060011461243d576108dc8361091e818503826127f8565b5f8080527f290decd9548b62a8d60345a988386fc84ba6bc95484008f6362f93160ef3e563939250905b80821061247f5750909150810160200161091e611891565b919260018160209254838588010152019101909291612467565b34610262576020366003190112610262576004359063ffffffff60e01b821680920361026257602091631b66b43760e21b81149081156124db575b5015158152f35b63780e9d6360e01b8114915081156124f5575b50836124d4565b6380ac58cd60e01b811491508115612527575b8115612516575b50836124ee565b6301ffc9a760e01b1490508361250f565b635b5e139f60e01b81149150612508565b805180835260209291819084018484015e5f828201840152601f01601f1916010190565b600435906001600160a01b038216820361026257565b602435906001600160a01b038216820361026257565b6060906003190112610262576004356001600160a01b038116810361026257906024356001600160a01b0381168103610262579060443590565b60018060a01b03815116825261ffff602082015116602083015260ff604082015116604083015260ff606082015116606083015260ff608082015116608083015260a081015160a083015261266b61265761264361263160c085015161018060c0880152610180870190612538565b60e085015186820360e0880152612538565b610100840151858203610100870152612538565b610120830151848203610120860152612538565b9061014081015191838103610140850152602080845192838152019301905f5b8181106126d657505050610160015191610160818303910152602080835192838152019201905f5b8181106126c05750505090565b82518452602093840193909201916001016126b3565b9091936020606060019260ff60408951828151168452828682015116868501520151166040820152019501910191909161268b565b92919060408401906040855280518092526060850191602060608260051b8801019201925f905b8282106127455750505060209150930152565b909192602080612761600193605f198c820301865288516125c2565b96019201920190939291612732565b6004359060ff8216820361026257565b6024359060ff8216820361026257565b6084359060ff8216820361026257565b60e4359060ff8216820361026257565b610104359060ff8216820361026257565b606081019081106001600160401b038211176105ad57604052565b61018081019081106001600160401b038211176105ad57604052565b90601f801991011681019081106001600160401b038211176105ad57604052565b6001600160401b0381116105ad57601f01601f191660200190565b81601f820112156102625760208135910161284e82612819565b9261285c60405194856127f8565b8284528282011161026257815f92602092838601378301015290565b6001600160401b0381116105ad5760051b60200190565b9080601f830112156102625781356128a681612878565b926128b460405194856127f8565b81845260208085019260051b82010192831161026257602001905b8282106128dc5750505090565b81358152602091820191016128cf565b6060600319820112610262576004356001600160401b038111610262578161291691600401612834565b9160243560ff811681036102625791604435906001600160401b038211610262576129439160040161288f565b90565b90600182811c92168015612974575b602083101461296057565b634e487b7160e01b5f52602260045260245ffd5b91607f1691612955565b5f929181549161298d83612946565b80835292600181169081156129e257506001146129a957505050565b5f9081526020812093945091925b8383106129c8575060209250010190565b6001816020929493945483858701015201910191906129b7565b915050602093945060ff929192191683830152151560051b010190565b9091906001600160a01b0383168015612c6a575f838152600260205260409020546001600160a01b03169333151580612bda575b5084158015612ba7575b825f52600360205260405f2060018154019055845f52600260205260405f20836001600160601b0360a01b8254161790558483877fddf252ad1be2c89b69c2b068fc378daa952ba7f163c4a11628f55a4df523b3ef5f80a415612b2a57600854845f52600960205260405f2055612ab384613c35565b818503612aea575b50506001600160a01b0316808303612ad257505050565b6364283d7b60e01b5f5260045260245260445260645ffd5b612af390613237565b5f1981019190821161176a575f52600660205260405f20815f526020528260405f2055825f52600760205260405f20555f80612abb565b848214612ab357612b3a85613237565b845f52600760205260405f205490865f52600660205260405f2091818103612b7c575b50855f5260076020525f60408120555f526020525f6040812055612ab3565b815f528260205260405f2054815f52836020528060405f20555f52600760205260405f20555f612b5d565b5f85815260046020526040902080546001600160a01b0319169055855f52600360205260405f205f198154019055612a3d565b80612c19575b15612beb575f612a33565b8385612c0357637e27328960e01b5f5260045260245ffd5b63177e802f60e01b5f523360045260245260445ffd5b503385148015612c48575b80612be057505f848152600460205260409020546001600160a01b03163314612be0565b505f85815260056020908152604080832033845290915290205460ff16612c24565b633250574960e11b5f525f60045260245ffd5b60405190612c8a826127dc565b6060610160835f81525f60208201525f60408201525f838201525f60808201525f60a08201528260c08201528260e08201528261010082015282610120820152826101408201520152565b60405190612ce46020836127f8565b5f80835282815b828110612cf757505050565b602090612d02612c7d565b82828501015201612ceb565b604051610ca09190612d2083826127f8565b6064815291601f1901825f5b828110612d3857505050565b602090612d43612c7d565b82828501015201612d2c565b90612d5982612878565b612d6660405191826127f8565b8281528092612d77601f1991612878565b01905f5b828110612d8757505050565b602090612d92612c7d565b82828501015201612d7b565b9190820391821161176a57565b80511561215c5760200190565b805182101561215c5760209160051b010190565b90604051918281549182825260208201905f5260205f20925f5b818110612dfd575050612dfb925003836127f8565b565b8454835260019485019487945060209093019201612de6565b90604051612e23816127dc565b809260ff815460018060a01b038116845261ffff8160a01c166020850152818160b01c166040850152818160b81c16606085015260c01c166080830152600181015460a0830152604051612e7e81610985816002860161297e565b60c0830152604051612e9781610985816003860161297e565b60e0830152604051612eb081610985816004860161297e565b610100830152604051612eca81610985816005860161297e565b610120830152600681018054612edf81612878565b91612eed60405193846127f8565b81835260208301905f5260205f205f915b838310612f245750505050600761016092612f1f9261014086015201612dcc565b910152565b600160208192604051612f36816127c1565b60ff86548181168352818160081c168584015260101c166040820152815201920192019190612efe565b90612f6a82613237565b9081811015612fde57612f85612f808284612d9e565b612d4f565b92815b838110612f985750505050905f90565b80612fa560019284612fee565b5f52600c602052612fd760405f20612fc6612fc08785612d9e565b91612e16565b612fd0828a612db8565b5287612db8565b5001612f88565b505050612fe9612cd5565b905f90565b612ff781613237565b82101561301f5760018060a01b03165f52600660205260405f20905f5260205260405f205490565b63295f44f760e21b5f5260018060a01b031660045260245260445ffd5b60115481101561215c5760115f5260205f2001905f90565b805482101561215c575f5260205f2001905f90565b5f19811461176a5760010190565b60ff16806131215750906011548083101561311657606483019081841161176a5780821161310e575b6130ad612f808584612d9e565b93805b8381106130c85750508110156130c35790565b505f90565b806130d460019261303c565b90549060031b1c5f52600c60205261310760405f206130f6612fc08685612d9e565b613100828b612db8565b5288612db8565b50016130b0565b9050806130a0565b509050612fe9612cd5565b61312a33613237565b9182811015612fde5761313b612d0e565b935f915b8481108061320c575b156131be576131578133612fee565b805f52600c6020528460ff60405f205460b81c1614613180575b5061317b90613069565b61313f565b61317b91936131b7915f52600c60205261319c60405f20612e16565b6131a6828a612db8565b526131b18189612db8565b50613069565b9290613171565b925092906131cb81612d4f565b945f5b8281106131e2575050508110156130c35790565b806131ef60019284612db8565b516131fa828a612db8565b526132058189612db8565b50016131ce565b5060648310613148565b9060ff613230602092959495604085526040850190612538565b9416910152565b6001600160a01b03168015613255575f52600360205260405f205490565b6322718ad960e21b5f525f60045260245ffd5b81601f820112156102625780519061327f82612819565b9261328d60405194856127f8565b8284526020838301011161026257815f9260208093018386015e8301015290565b906020828203126102625781516001600160401b038111610262576129439201613268565b9080601f830112156102625781516132ea81612878565b926132f860405194856127f8565b81845260208085019260051b82010192831161026257602001905b8282106133205750505090565b8151815260209182019101613313565b519060ff8216820361026257565b519061ffff8216820361026257565b60206040818301928281528451809452019201905f5b8181106133705750505090565b8251845260209384019390920191600101613363565b81518154602084015160409094015162ff000060109190911b1661ff0060089590951b9490941660ff90921662ffffff199091161717919091179055565b60ff16806133d3575060115490565b6133dc33613237565b5f915f5b8281106133ed5750505090565b6133f78133612fee565b5f52600c6020528160ff60405f205460b81c1614613418575b6001016133e0565b92613424600191613069565b939050613410565b92916134398183866129ff565b813b613446575b50505050565b604051630a85bd0160e11b81523360048201526001600160a01b0394851660248201526044810191909152608060648201529216919060209082908190613491906084830190612538565b03815f865af15f9181613527575b506134f457503d156134ed573d6134b581612819565b906134c360405192836127f8565b81523d5f602083013e5b805190816134e85782633250574960e11b5f5260045260245ffd5b602001fd5b60606134cd565b6001600160e01b03191663757a42ff60e11b0161351557505f808080613440565b633250574960e11b5f5260045260245ffd5b9091506020813d602011613564575b81613543602093836127f8565b8101031261026257516001600160e01b03198116810361026257905f61349f565b3d9150613536565b9061359481835160208501205f52600d60205260ff60405f2091165f5260205260405f205490565b9182156120915750505f52600c6020526135b3600760405f2001612dcc565b5f905b8251821015613615575f925f5b825181101561360b576135d68483612db8565b516135e18285612db8565b51146135ef576001016135c3565b5092509060015b1561360457600101906135b6565b5050505f90565b50929190916135f6565b505050600190565b51906001600160a01b038216820361026257565b5f818152600260205260409020546060906001600160a01b031615613b1457815f52600c60205260405f2091835160208501209360409460076020875161367889826127f8565b828152016619185d18555c9b60ca1b81522081148015613ae9575b156136b157505050506129439061098560059351809481930161297e565b6003602087516136c189826127f8565b8281520162191a5960ea1b81522081145f146136f057505050506129439061098560029351809481930161297e565b600f6020875161370089826127f8565b828152016e199d5b99da589b19551bdad95b9259608a1b81522081145f1461373b57505050506129439061098560039351809481930161297e565b600a6020875161374b89826127f8565b828152016918dbdb9d1c9858dd125960b21b81522081145f1461378157505050506129439061098560049351809481930161297e565b5f9493945060086020875161379689826127f8565b82815201670c8c2e8c290c2e6d60c31b81522081145f146137d05750505061294391506001015491805192602084015260208352826127f8565b6011602087516137e089826127f8565b82815201706461746148617368416c676f726974686d60781b81522081145f146138305750509054925160389390931b6001600160f81b03191660208401525050600181526129436021826127f8565b600a6020875161384089826127f8565b8281520169696e746572666163657360b01b81522081145f146138895750509054925160509390931b6001600160f01b03191660208401525050600281526129436022826127f8565b60066020875161389989826127f8565b828152016573746174757360d01b81522081145f146138da57505090548351931b6001600160f81b03191660208401525050600181526129436021826127f8565b600c602087516138ea89826127f8565b828152016b3b32b939b4b7b726b0b537b960a11b81522081145f146139355750509054925160489390931b6001600160f81b03191660208401525050600181526129436021826127f8565b60066020875161394589826127f8565b828152016536b4b73a32b960d11b81522081145f14613989575050509050549051906001600160601b03199060601b166020820152601481526129436034826127f8565b600b6020875161399989826127f8565b828152016a747261697448617368657360a81b81522081145f14613a1457505050600791500181518092810191602080830152805480935260608201905f5260205f20925f5b8181106139fb575050612943925003601f1981018352826127f8565b84548352600194850194869450602090930192016139df565b600e60208751613a2489826127f8565b828152016d76657273696f6e486973746f727960901b815220145f14613ac0575050600601918051928184928301906020808501528254809252848401925f5260205f20945f915b838310613a8a5750505050612943925003601f1981018352826127f8565b865460ff8181168752600882901c8116602088015260109190911c16858201526001968701968896509482019490920191613a6c565b9061088085928351938493631a06112960e11b8552600485015260248401526044830190612538565b50600860208751613afa89826127f8565b82815201676167656e7455524960c01b8152208114613693565b5063a42088b560e01b5f5260045260245ffd5b6011549182811015612fde57613b3b612d0e565b935f915b84811080613bed575b15613b9f57613b568161303c565b90549060031b1c5f52600c60205260405f2061ffff85825460a01c1616613b87575b50613b8290613069565b613b3f565b613b82919361319c613b9892612e16565b9290613b78565b92509290613bac81612d4f565b945f5b828110613bc3575050508110156130c35790565b80613bd060019284612db8565b51613bdb828a612db8565b52613be68189612db8565b5001613baf565b5060648310613b48565b601154600160401b8110156105ad57613c1b816001613c3193016011556011613054565b819391549060031b91821b915f19901b19161790565b9055565b600854600160401b8110156105ad57613c1b816001613c3193016008556008613054565b91909160208151910120805f52600d60205260405f2060ff84165f5260205260405f205492835f52600c60205260ff60405f205460b81c1660ff841693848214613dfc575f868152600c60205260409020805460ff60b81b191660b89290921b60ff60b81b16919091179055158080613df3575b15613d9b5750835f52601260205260405f20546011545f19810190811161176a57613cf79061303c565b90549060031b1c80613d0b613c1b8461303c565b90555f52601260205260405f2055601154908115613d875760ff6040917f7c6860c4abb223f1d0f6b5a1b79fdac9cb6ea8b538f0260940bcd10af7856e7d935f1901613d58816011613054565b8154905f199060031b1b19169055601155865f5260126020525f838120555b82519586524260208701521693a4565b634e487b7160e01b5f52603160045260245ffd5b60ff7f7c6860c4abb223f1d0f6b5a1b79fdac9cb6ea8b538f0260940bcd10af7856e7d926040921580613deb575b15613d7757601154875f526012602052835f2055613de687613bf7565b613d77565b508515613dc9565b50831515613ccd565b505050505050565b90613e2c81835160208501205f52600d60205260ff60405f2091165f5260205260405f205490565b9182156120915750505f52600c602052613e4b600760405f2001612dcc565b5f5b8251811015613604575f5b8251811015613e8d57613e6b8285612db8565b51613e768285612db8565b5114613e8457600101613e58565b50505050600190565b50600101613e4d565b5190811515820361026257565b5f818152600260205260409020546001600160a01b0316908115613ec5575090565b637e27328960e01b5f5260045260245ffd5b600a546001600160a01b03163303613eeb57565b63118cdaa760e01b5f523360045260245ffd5b6002600b5414613f0f576002600b55565b633ee5aeb560e01b5f5260045ffd5b9a9998969493929a97959761018052610280526101a052610160526102a0526101c052610240526101e052610180515115614fb957610180515160808111614fa7575061ffff610280511615614f98576101a0515115611687576101a05151610100811161167557506102a051516101008111614f86575080516101008111614f745750613fab82614fc8565b610180518051602090910120610220526016546001600160a01b031680614ebe575b5060ff60185460a01c1680614eaa575b614de9575b610220515f52600d60205260405f2060ff6101c051165f5260205260405f2054614dc757610220515f52600e60205261098561402760405f206040519283809261297e565b805115614c6f57602081519101206102a0515160206102a051012003614c1a57610220515f52600f60205260ff60405f20541660ff6101c0511611614bf6575b614072601954613069565b61026052610260516019553315612c6a57610260515f908152600260205260409020546001600160a01b031680158015919082614bba575b335f81815260036020908152604080832080546001019055610260518084526002909252822080546001600160a01b03191684179055919084907fddf252ad1be2c89b69c2b068fc378daa952ba7f163c4a11628f55a4df523b3ef9080a415614b3757600854610260515f52600960205260405f205561412c61026051613c35565b338103614aee575b50614adb57604061020081905280518392909161415190836127f8565b600182525f5b61020051601f19018110614aa757506102005151614174816127c1565b60ff6101c05116815260ff6102405116602082015260ff6101e05116610200518201526141a083612dab565b526141aa82612dab565b506102005151906141ba826127dc565b338252602082016101405261ffff6102805116610140515261020051820160ff6101c051168152606083015f81526080840160ff6101605116815261430660ff60a08701928c84526142e38260c08a019661018051885260e08b01986102a0518a526101008c019a8b526101208c019b6101a0518d5261014081019d8e5261016081019e8f52610260515f52600c602052610200515f206101205260018060a01b039060018060a01b03905116166001600160601b0360a01b6101205154161761012051556142ac61ffff610140515116610120519081549061ffff60a01b9060a01b169061ffff60a01b1916179055565b51610120518054925160ff60b81b90851660b81b1691841660b090811b94901b199092169290921760ff60b81b1916919091179055565b5161012051805460ff60c01b19169290911660c01b60ff60c01b16919091179055565b5160016101205101556002610120510190518051906001600160401b0382116105ad5781906143358454612946565b601f8111614a57575b50602090601f83116001146149f4575f926149e9575b50508160011b915f199060031b1c19161790555b6003610120510190518051906001600160401b0382116105ad57819061438e8454612946565b601f8111614999575b50602090601f8311600114614936575f9261492b575b50508160011b915f199060031b1c19161790555b6004610120510190518051906001600160401b0382116105ad5781906143e78454612946565b601f81116148db575b50602090601f8311600114614878575f9261486d575b50508160011b915f199060031b1c19161790555b6005610120510190518051906001600160401b0382116105ad5781906144408454612946565b601f811161481d575b50602090601f83116001146147ba575f926147af575b50508160011b915f199060031b1c19161790555b60066101205101905190815191600160401b83116105ad578154838355808410614789575b50602001905f5260205f205f915b83831061476c5750505050518051906001600160401b0382116105ad57600160401b82116105ad5761012051600701805490839055808310614740575b50602001600761012051015f5260205f20610100525f5b82811061472957505050610220515f52600d602052610200515f2060ff6101c051165f52602052610200515f20610260519055601154610260515f526012602052610200515f205561454e61026051613bf7565b610220515f526013602052610200515f2054156146fe575b80516146b3575b50805161468e575b5050610200515160a0815261459060a082016101a051612538565b9060ff6101c05116602082015261ffff61028051166102005182015243606082015242608082015261022051917f929d4bc5290f296d002ad3aada73fb70d45a263ebd0ccea61435ba2f6619fff533928061026051930390a460ff6101c051161580159061467f575b8015614670575b61460c575b6102605190565b6102005151610260519060ff6101c05116907f8ab6771ee4cb5523129ea5bd846d7f7d4103bbf1a2cebe9dca96f04dfbd222ed6102205191806146686101e051610240518390929160ff60209181604085019616845216910152565b0390a4614605565b5060ff6101e051161515614600565b5060ff610240511615156145f9565b6146ac9161016051916101e051610240516101c05161018051614fe6565b5f80614575565b610200515161026051917f536e40ba7e2dd8d050f26bde7e64327c5e2375c23eb08a756d093181e683b5f660ff6101c0511692806146f561022051948261334d565b0390a45f61456d565b610220515f52601360205243610200515f2055610220515f52601460205242610200515f2055614566565b6001906020835193019281610100510155016144fa565b600761012051015f528260205f2091820191015b81811061476157506144e3565b5f8155600101614754565b600160208261477d83945186613386565b019201920191906144a6565b825f528360205f2091820191015b8181106147a45750614498565b5f8155600101614797565b015190505f8061445f565b5f8581528281209350601f198516905b81811061480557509084600195949392106147ed575b505050811b019055614473565b01515f1960f88460031b161c191690555f80806147e0565b929360206001819287860151815501950193016147ca565b909150835f5260205f20601f840160051c81019160208510614863575b90601f859493920160051c01905b8181106148555750614449565b5f8155849350600101614848565b909150819061483a565b015190505f80614406565b5f8581528281209350601f198516905b8181106148c357509084600195949392106148ab575b505050811b01905561441a565b01515f1960f88460031b161c191690555f808061489e565b92936020600181928786015181550195019301614888565b909150835f5260205f20601f840160051c81019160208510614921575b90601f859493920160051c01905b81811061491357506143f0565b5f8155849350600101614906565b90915081906148f8565b015190505f806143ad565b5f8581528281209350601f198516905b8181106149815750908460019594939210614969575b505050811b0190556143c1565b01515f1960f88460031b161c191690555f808061495c565b92936020600181928786015181550195019301614946565b909150835f5260205f20601f840160051c810191602085106149df575b90601f859493920160051c01905b8181106149d15750614397565b5f81558493506001016149c4565b90915081906149b6565b015190505f80614354565b5f8581528281209350601f198516905b818110614a3f5750908460019594939210614a27575b505050811b019055614368565b01515f1960f88460031b161c191690555f8080614a1a565b92936020600181928786015181550195019301614a04565b909150835f5260205f20601f840160051c81019160208510614a9d575b90601f859493920160051c01905b818110614a8f575061433e565b5f8155849350600101614a82565b9091508190614a74565b6020919293506102005151614abb816127c1565b5f81525f838201525f610200518201528282860101520190839291614157565b6339e3563760e11b5f525f60045260245ffd5b614af733613237565b805f1981011161176a57335f52600660205260405f205f1982015f526020526102605160405f2055610260515f5260076020525f190160405f2055614134565b33811461412c57614b4781613237565b610260515f52600760205260405f205490825f52600660205260405f2091818103614b8f575b50610260515f5260076020525f60408120555f526020525f604081205561412c565b815f528260205260405f2054815f52836020528060405f20555f52600760205260405f20555f614b6d565b614bde610260515f52600460205260405f206001600160601b0360a01b8154169055565b815f52600360205260405f205f1981540190556140aa565b610220515f52600f60205260405f2060ff6101c0511660ff19825416179055614067565b60405163192ce30b60e31b815260206004820152602660248201527f46756e6769626c6520746f6b656e206368616e6765207265717569726573206e604482015265195dc811125160d21b6064820152608490fd5b50610220515f52600e60205260405f206102a051516001600160401b0381116105ad57614c9c8254612946565b601f8111614d82575b50806020601f8211600114614d1a575f91614d0c575b508160011b915f199060031b1c19161790555b610220515f52600f60205260405f2060ff6101c0511660ff19825416179055610220515f52601060205260405f20600160ff19825416179055614067565b90506102a05101515f614cbb565b9150825f52815f205f925b601f1983168410614d67576001935082601f19811610614d4c575b5050811b019055614cce565b6102a05101515f1960f88460031b161c191690555f80614d40565b6102a051810151825560209384019360019092019101614d25565b825f5260205f20601f830160051c81019160208410614dbd575b601f0160051c01905b818110614db25750614ca5565b5f8155600101614da5565b9091508190614d9c565b604051631afb365160e01b8152806108806101c0516101805160048401613216565b6017546040516304b1396b60e11b81526102205160048201526024810186905290602090829060449082906001600160a01b03165afa9081156105c1575f91614e70575b50613fe25760405162461bcd60e51b81526020600482015260166024820152751110551057d21054d217d393d517d055151154d5115160521b6044820152606490fd5b90506020813d602011614ea2575b81614e8b602093836127f8565b8101031261026257614e9c90613e96565b5f614e2d565b3d9150614e7e565b506017546001600160a01b03161515613fdd565b6020602491604051928380926327cc573960e01b82526102205160048301525afa9081156105c1575f91614f3a575b50336001600160a01b0390911603614f05575f613fcd565b60405162461bcd60e51b815260206004820152600d60248201526c2727aa2fa224a22fa7aba722a960991b6044820152606490fd5b90506020813d602011614f6c575b81614f55602093836127f8565b8101031261026257614f669061361d565b5f614eed565b3d9150614f48565b634f7f300b60e01b5f5260045260245ffd5b63e422361760e01b5f5260045260245ffd5b631464e25760e31b5f5260045ffd5b63977af6c760e01b5f5260045260245ffd5b63ccdf6bd560e01b5f5260045ffd5b5160148111614fd45750565b63582dc9af60e11b5f5260045260245ffd5b949091959392938351615099575b50506015546001600160a01b0316918261501057505050505050565b823b15610262575f9461507061504c93879360ff8098816040519c8d9b8c9a8b996330f1201960e01b8b5260a060048c015260a48b0190612538565b96166024890152166044870152166064850152838203600319016084850152612538565b03925af180156105c157615089575b8080808080613dfc565b5f615093916127f8565b5f61507f565b60ff16806150c65750825160208401205b808214614ff457636f205f0f60e11b5f5260045260245260445ffd5b600181036150f5575060205f60405180865180858901835e8101838152039060025afa156105c1575f516150aa565b624c220360e01b5f5260045260245ffdfea2646970667358221220e6c72a1804d7f9d4de33996264ec6402947dad4c42f7530489f03347f20a129064736f6c634300081c0033",
  "linkReferences": {},
  "deployedLinkReferences": {}
}