{
  "_format": "hh-sol-artifact-1",
  "contractName": "OMA3AppRegistry",
  "sourceName": "contracts/OMA3AppRegistry.sol",
  "abi": [
    {
      "inputs": [],
      "stateMutability": "nonpayable",
      "type": "constructor"
    },
    {
      "inputs": [
        {
          "internalType": "string",
          "name": "did",
          "type": "string"
        },
        {
          "internalType": "uint8",
          "name": "major",
          "type": "uint8"
        }
      ],
      "name": "AppNotFound",
      "type": "error"
    },
    {
      "inputs": [
        {
          "internalType": "uint256",
          "name": "length",
          "type": "uint256"
        }
      ],
      "name": "ContractIdTooLong",
      "type": "error"
    },
    {
      "inputs": [],
      "name": "DIDCannotBeEmpty",
      "type": "error"
    },
    {
      "inputs": [
        {
          "internalType": "bytes32",
          "name": "didHash",
          "type": "bytes32"
        }
      ],
      "name": "DIDHashNotFound",
      "type": "error"
    },
    {
      "inputs": [
        {
          "internalType": "string",
          "name": "did",
          "type": "string"
        },
        {
          "internalType": "uint8",
          "name": "major",
          "type": "uint8"
        }
      ],
      "name": "DIDMajorAlreadyExists",
      "type": "error"
    },
    {
      "inputs": [
        {
          "internalType": "uint256",
          "name": "length",
          "type": "uint256"
        }
      ],
      "name": "DIDTooLong",
      "type": "error"
    },
    {
      "inputs": [
        {
          "internalType": "bytes32",
          "name": "computed",
          "type": "bytes32"
        },
        {
          "internalType": "bytes32",
          "name": "provided",
          "type": "bytes32"
        }
      ],
      "name": "DataHashMismatch",
      "type": "error"
    },
    {
      "inputs": [],
      "name": "DataHashRequiredForTraitChange",
      "type": "error"
    },
    {
      "inputs": [],
      "name": "DataUrlCannotBeEmpty",
      "type": "error"
    },
    {
      "inputs": [
        {
          "internalType": "uint256",
          "name": "length",
          "type": "uint256"
        }
      ],
      "name": "DataUrlTooLong",
      "type": "error"
    },
    {
      "inputs": [],
      "name": "ERC721EnumerableForbiddenBatchMint",
      "type": "error"
    },
    {
      "inputs": [
        {
          "internalType": "address",
          "name": "sender",
          "type": "address"
        },
        {
          "internalType": "uint256",
          "name": "tokenId",
          "type": "uint256"
        },
        {
          "internalType": "address",
          "name": "owner",
          "type": "address"
        }
      ],
      "name": "ERC721IncorrectOwner",
      "type": "error"
    },
    {
      "inputs": [
        {
          "internalType": "address",
          "name": "operator",
          "type": "address"
        },
        {
          "internalType": "uint256",
          "name": "tokenId",
          "type": "uint256"
        }
      ],
      "name": "ERC721InsufficientApproval",
      "type": "error"
    },
    {
      "inputs": [
        {
          "internalType": "address",
          "name": "approver",
          "type": "address"
        }
      ],
      "name": "ERC721InvalidApprover",
      "type": "error"
    },
    {
      "inputs": [
        {
          "internalType": "address",
          "name": "operator",
          "type": "address"
        }
      ],
      "name": "ERC721InvalidOperator",
      "type": "error"
    },
    {
      "inputs": [
        {
          "internalType": "address",
          "name": "owner",
          "type": "address"
        }
      ],
      "name": "ERC721InvalidOwner",
      "type": "error"
    },
    {
      "inputs": [
        {
          "internalType": "address",
          "name": "receiver",
          "type": "address"
        }
      ],
      "name": "ERC721InvalidReceiver",
      "type": "error"
    },
    {
      "inputs": [
        {
          "internalType": "address",
          "name": "sender",
          "type": "address"
        }
      ],
      "name": "ERC721InvalidSender",
      "type": "error"
    },
    {
      "inputs": [
        {
          "internalType": "uint256",
          "name": "tokenId",
          "type": "uint256"
        }
      ],
      "name": "ERC721NonexistentToken",
      "type": "error"
    },
    {
      "inputs": [
        {
          "internalType": "address",
          "name": "owner",
          "type": "address"
        },
        {
          "internalType": "uint256",
          "name": "index",
          "type": "uint256"
        }
      ],
      "name": "ERC721OutOfBoundsIndex",
      "type": "error"
    },
    {
      "inputs": [
        {
          "internalType": "uint256",
          "name": "length",
          "type": "uint256"
        }
      ],
      "name": "FungibleTokenIdTooLong",
      "type": "error"
    },
    {
      "inputs": [
        {
          "internalType": "uint16",
          "name": "current",
          "type": "uint16"
        },
        {
          "internalType": "uint16",
          "name": "attempted",
          "type": "uint16"
        }
      ],
      "name": "InterfaceRemovalNotAllowed",
      "type": "error"
    },
    {
      "inputs": [],
      "name": "InterfacesCannotBeEmpty",
      "type": "error"
    },
    {
      "inputs": [
        {
          "internalType": "uint256",
          "name": "tokenId",
          "type": "uint256"
        }
      ],
      "name": "InvalidAgent",
      "type": "error"
    },
    {
      "inputs": [
        {
          "internalType": "uint8",
          "name": "algorithm",
          "type": "uint8"
        }
      ],
      "name": "InvalidDataHashAlgorithm",
      "type": "error"
    },
    {
      "inputs": [
        {
          "internalType": "uint8",
          "name": "major",
          "type": "uint8"
        },
        {
          "internalType": "uint8",
          "name": "minor",
          "type": "uint8"
        },
        {
          "internalType": "uint8",
          "name": "patch",
          "type": "uint8"
        }
      ],
      "name": "InvalidVersion",
      "type": "error"
    },
    {
      "inputs": [
        {
          "internalType": "string",
          "name": "did",
          "type": "string"
        },
        {
          "internalType": "uint8",
          "name": "currentMajor",
          "type": "uint8"
        },
        {
          "internalType": "uint8",
          "name": "attemptedMajor",
          "type": "uint8"
        }
      ],
      "name": "MajorVersionChangeRequiresNewMint",
      "type": "error"
    },
    {
      "inputs": [
        {
          "internalType": "uint256",
          "name": "tokenId",
          "type": "uint256"
        },
        {
          "internalType": "string",
          "name": "key",
          "type": "string"
        }
      ],
      "name": "MetadataUnavailable",
      "type": "error"
    },
    {
      "inputs": [
        {
          "internalType": "uint8",
          "name": "currentMinor",
          "type": "uint8"
        },
        {
          "internalType": "uint8",
          "name": "attemptedMinor",
          "type": "uint8"
        }
      ],
      "name": "MinorIncrementRequired",
      "type": "error"
    },
    {
      "inputs": [
        {
          "internalType": "string",
          "name": "reason",
          "type": "string"
        }
      ],
      "name": "NewDIDRequired",
      "type": "error"
    },
    {
      "inputs": [],
      "name": "NoChangesSpecified",
      "type": "error"
    },
    {
      "inputs": [
        {
          "internalType": "string",
          "name": "did",
          "type": "string"
        },
        {
          "internalType": "uint8",
          "name": "major",
          "type": "uint8"
        }
      ],
      "name": "NotAppOwner",
      "type": "error"
    },
    {
      "inputs": [
        {
          "internalType": "address",
          "name": "owner",
          "type": "address"
        }
      ],
      "name": "OwnableInvalidOwner",
      "type": "error"
    },
    {
      "inputs": [
        {
          "internalType": "address",
          "name": "account",
          "type": "address"
        }
      ],
      "name": "OwnableUnauthorizedAccount",
      "type": "error"
    },
    {
      "inputs": [
        {
          "internalType": "uint8",
          "name": "currentPatch",
          "type": "uint8"
        },
        {
          "internalType": "uint8",
          "name": "attemptedPatch",
          "type": "uint8"
        }
      ],
      "name": "PatchIncrementRequired",
      "type": "error"
    },
    {
      "inputs": [],
      "name": "ReentrancyGuardReentrantCall",
      "type": "error"
    },
    {
      "inputs": [
        {
          "internalType": "uint256",
          "name": "count",
          "type": "uint256"
        }
      ],
      "name": "TooManyTraits",
      "type": "error"
    },
    {
      "anonymous": false,
      "inputs": [
        {
          "indexed": true,
          "internalType": "address",
          "name": "owner",
          "type": "address"
        },
        {
          "indexed": true,
          "internalType": "address",
          "name": "approved",
          "type": "address"
        },
        {
          "indexed": true,
          "internalType": "uint256",
          "name": "tokenId",
          "type": "uint256"
        }
      ],
      "name": "Approval",
      "type": "event"
    },
    {
      "anonymous": false,
      "inputs": [
        {
          "indexed": true,
          "internalType": "address",
          "name": "owner",
          "type": "address"
        },
        {
          "indexed": true,
          "internalType": "address",
          "name": "operator",
          "type": "address"
        },
        {
          "indexed": false,
          "internalType": "bool",
          "name": "approved",
          "type": "bool"
        }
      ],
      "name": "ApprovalForAll",
      "type": "event"
    },
    {
      "anonymous": false,
      "inputs": [
        {
          "indexed": true,
          "internalType": "bytes32",
          "name": "didHash",
          "type": "bytes32"
        },
        {
          "indexed": true,
          "internalType": "uint8",
          "name": "major",
          "type": "uint8"
        },
        {
          "indexed": true,
          "internalType": "uint256",
          "name": "tokenId",
          "type": "uint256"
        },
        {
          "indexed": false,
          "internalType": "string",
          "name": "dataUrl",
          "type": "string"
        },
        {
          "indexed": false,
          "internalType": "bytes32",
          "name": "newDataHash",
          "type": "bytes32"
        },
        {
          "indexed": false,
          "internalType": "uint8",
          "name": "dataHashAlgorithm",
          "type": "uint8"
        }
      ],
      "name": "DataHashUpdated",
      "type": "event"
    },
    {
      "anonymous": false,
      "inputs": [
        {
          "indexed": true,
          "internalType": "bytes32",
          "name": "didHash",
          "type": "bytes32"
        },
        {
          "indexed": true,
          "internalType": "uint8",
          "name": "major",
          "type": "uint8"
        },
        {
          "indexed": true,
          "internalType": "uint256",
          "name": "tokenId",
          "type": "uint256"
        },
        {
          "indexed": false,
          "internalType": "uint16",
          "name": "newInterfaces",
          "type": "uint16"
        }
      ],
      "name": "InterfacesUpdated",
      "type": "event"
    },
    {
      "anonymous": false,
      "inputs": [
        {
          "indexed": true,
          "internalType": "address",
          "name": "previousOwner",
          "type": "address"
        },
        {
          "indexed": true,
          "internalType": "address",
          "name": "newOwner",
          "type": "address"
        }
      ],
      "name": "OwnershipTransferred",
      "type": "event"
    },
    {
      "anonymous": false,
      "inputs": [
        {
          "indexed": true,
          "internalType": "uint256",
          "name": "tokenId",
          "type": "uint256"
        },
        {
          "indexed": false,
          "internalType": "string",
          "name": "dataUrl",
          "type": "string"
        },
        {
          "indexed": true,
          "internalType": "address",
          "name": "registerer",
          "type": "address"
        },
        {
          "indexed": true,
          "internalType": "bytes32",
          "name": "didHash",
          "type": "bytes32"
        },
        {
          "indexed": false,
          "internalType": "uint8",
          "name": "versionMajor",
          "type": "uint8"
        },
        {
          "indexed": false,
          "internalType": "uint16",
          "name": "interfaces",
          "type": "uint16"
        },
        {
          "indexed": false,
          "internalType": "uint256",
          "name": "registrationBlock",
          "type": "uint256"
        },
        {
          "indexed": false,
          "internalType": "uint256",
          "name": "registrationTimestamp",
          "type": "uint256"
        }
      ],
      "name": "Registered",
      "type": "event"
    },
    {
      "anonymous": false,
      "inputs": [
        {
          "indexed": true,
          "internalType": "bytes32",
          "name": "didHash",
          "type": "bytes32"
        },
        {
          "indexed": true,
          "internalType": "uint8",
          "name": "major",
          "type": "uint8"
        },
        {
          "indexed": true,
          "internalType": "uint256",
          "name": "tokenId",
          "type": "uint256"
        },
        {
          "indexed": false,
          "internalType": "uint8",
          "name": "newStatus",
          "type": "uint8"
        },
        {
          "indexed": false,
          "internalType": "uint256",
          "name": "timestamp",
          "type": "uint256"
        }
      ],
      "name": "StatusUpdated",
      "type": "event"
    },
    {
      "anonymous": false,
      "inputs": [
        {
          "indexed": true,
          "internalType": "bytes32",
          "name": "didHash",
          "type": "bytes32"
        },
        {
          "indexed": true,
          "internalType": "uint8",
          "name": "major",
          "type": "uint8"
        },
        {
          "indexed": true,
          "internalType": "uint256",
          "name": "tokenId",
          "type": "uint256"
        },
        {
          "indexed": false,
          "internalType": "bytes32[]",
          "name": "newTraitHashes",
          "type": "bytes32[]"
        }
      ],
      "name": "TraitsUpdated",
      "type": "event"
    },
    {
      "anonymous": false,
      "inputs": [
        {
          "indexed": true,
          "internalType": "address",
          "name": "from",
          "type": "address"
        },
        {
          "indexed": true,
          "internalType": "address",
          "name": "to",
          "type": "address"
        },
        {
          "indexed": true,
          "internalType": "uint256",
          "name": "tokenId",
          "type": "uint256"
        }
      ],
      "name": "Transfer",
      "type": "event"
    },
    {
      "anonymous": false,
      "inputs": [
        {
          "indexed": true,
          "internalType": "bytes32",
          "name": "didHash",
          "type": "bytes32"
        },
        {
          "indexed": true,
          "internalType": "uint8",
          "name": "major",
          "type": "uint8"
        },
        {
          "indexed": true,
          "internalType": "uint256",
          "name": "tokenId",
          "type": "uint256"
        },
        {
          "indexed": false,
          "internalType": "uint8",
          "name": "minor",
          "type": "uint8"
        },
        {
          "indexed": false,
          "internalType": "uint8",
          "name": "patch",
          "type": "uint8"
        }
      ],
      "name": "VersionAdded",
      "type": "event"
    },
    {
      "inputs": [
        {
          "internalType": "address",
          "name": "to",
          "type": "address"
        },
        {
          "internalType": "uint256",
          "name": "tokenId",
          "type": "uint256"
        }
      ],
      "name": "approve",
      "outputs": [],
      "stateMutability": "nonpayable",
      "type": "function"
    },
    {
      "inputs": [
        {
          "internalType": "address",
          "name": "owner",
          "type": "address"
        }
      ],
      "name": "balanceOf",
      "outputs": [
        {
          "internalType": "uint256",
          "name": "",
          "type": "uint256"
        }
      ],
      "stateMutability": "view",
      "type": "function"
    },
    {
      "inputs": [],
      "name": "dataUrlResolver",
      "outputs": [
        {
          "internalType": "contract IOMA3DataUrlResolver",
          "name": "",
          "type": "address"
        }
      ],
      "stateMutability": "view",
      "type": "function"
    },
    {
      "inputs": [
        {
          "internalType": "string",
          "name": "didString",
          "type": "string"
        },
        {
          "internalType": "uint8",
          "name": "major",
          "type": "uint8"
        }
      ],
      "name": "getApp",
      "outputs": [
        {
          "components": [
            {
              "internalType": "address",
              "name": "minter",
              "type": "address"
            },
            {
              "internalType": "uint16",
              "name": "interfaces",
              "type": "uint16"
            },
            {
              "internalType": "uint8",
              "name": "versionMajor",
              "type": "uint8"
            },
            {
              "internalType": "uint8",
              "name": "status",
              "type": "uint8"
            },
            {
              "internalType": "uint8",
              "name": "dataHashAlgorithm",
              "type": "uint8"
            },
            {
              "internalType": "bytes32",
              "name": "dataHash",
              "type": "bytes32"
            },
            {
              "internalType": "string",
              "name": "did",
              "type": "string"
            },
            {
              "internalType": "string",
              "name": "fungibleTokenId",
              "type": "string"
            },
            {
              "internalType": "string",
              "name": "contractId",
              "type": "string"
            },
            {
              "internalType": "string",
              "name": "dataUrl",
              "type": "string"
            },
            {
              "components": [
                {
                  "internalType": "uint8",
                  "name": "major",
                  "type": "uint8"
                },
                {
                  "internalType": "uint8",
                  "name": "minor",
                  "type": "uint8"
                },
                {
                  "internalType": "uint8",
                  "name": "patch",
                  "type": "uint8"
                }
              ],
              "internalType": "struct OMA3AppRegistry.Version[]",
              "name": "versionHistory",
              "type": "tuple[]"
            },
            {
              "internalType": "bytes32[]",
              "name": "traitHashes",
              "type": "bytes32[]"
            },
            {
              "internalType": "address",
              "name": "currentOwner",
              "type": "address"
            }
          ],
          "internalType": "struct OMA3AppRegistry.AppView",
          "name": "appView",
          "type": "tuple"
        }
      ],
      "stateMutability": "view",
      "type": "function"
    },
    {
      "inputs": [
        {
          "internalType": "uint256",
          "name": "tokenId",
          "type": "uint256"
        }
      ],
      "name": "getApproved",
      "outputs": [
        {
          "internalType": "address",
          "name": "",
          "type": "address"
        }
      ],
      "stateMutability": "view",
      "type": "function"
    },
    {
      "inputs": [
        {
          "internalType": "uint256",
          "name": "startIndex",
          "type": "uint256"
        }
      ],
      "name": "getApps",
      "outputs": [
        {
          "components": [
            {
              "internalType": "address",
              "name": "minter",
              "type": "address"
            },
            {
              "internalType": "uint16",
              "name": "interfaces",
              "type": "uint16"
            },
            {
              "internalType": "uint8",
              "name": "versionMajor",
              "type": "uint8"
            },
            {
              "internalType": "uint8",
              "name": "status",
              "type": "uint8"
            },
            {
              "internalType": "uint8",
              "name": "dataHashAlgorithm",
              "type": "uint8"
            },
            {
              "internalType": "bytes32",
              "name": "dataHash",
              "type": "bytes32"
            },
            {
              "internalType": "string",
              "name": "did",
              "type": "string"
            },
            {
              "internalType": "string",
              "name": "fungibleTokenId",
              "type": "string"
            },
            {
              "internalType": "string",
              "name": "contractId",
              "type": "string"
            },
            {
              "internalType": "string",
              "name": "dataUrl",
              "type": "string"
            },
            {
              "components": [
                {
                  "internalType": "uint8",
                  "name": "major",
                  "type": "uint8"
                },
                {
                  "internalType": "uint8",
                  "name": "minor",
                  "type": "uint8"
                },
                {
                  "internalType": "uint8",
                  "name": "patch",
                  "type": "uint8"
                }
              ],
              "internalType": "struct OMA3AppRegistry.Version[]",
              "name": "versionHistory",
              "type": "tuple[]"
            },
            {
              "internalType": "bytes32[]",
              "name": "traitHashes",
              "type": "bytes32[]"
            },
            {
              "internalType": "address",
              "name": "currentOwner",
              "type": "address"
            }
          ],
          "internalType": "struct OMA3AppRegistry.AppView[]",
          "name": "apps",
          "type": "tuple[]"
        },
        {
          "internalType": "uint256",
          "name": "nextStartIndex",
          "type": "uint256"
        }
      ],
      "stateMutability": "view",
      "type": "function"
    },
    {
      "inputs": [
        {
          "internalType": "uint16",
          "name": "interfaceMask",
          "type": "uint16"
        },
        {
          "internalType": "uint256",
          "name": "startIndex",
          "type": "uint256"
        }
      ],
      "name": "getAppsByInterface",
      "outputs": [
        {
          "components": [
            {
              "internalType": "address",
              "name": "minter",
              "type": "address"
            },
            {
              "internalType": "uint16",
              "name": "interfaces",
              "type": "uint16"
            },
            {
              "internalType": "uint8",
              "name": "versionMajor",
              "type": "uint8"
            },
            {
              "internalType": "uint8",
              "name": "status",
              "type": "uint8"
            },
            {
              "internalType": "uint8",
              "name": "dataHashAlgorithm",
              "type": "uint8"
            },
            {
              "internalType": "bytes32",
              "name": "dataHash",
              "type": "bytes32"
            },
            {
              "internalType": "string",
              "name": "did",
              "type": "string"
            },
            {
              "internalType": "string",
              "name": "fungibleTokenId",
              "type": "string"
            },
            {
              "internalType": "string",
              "name": "contractId",
              "type": "string"
            },
            {
              "internalType": "string",
              "name": "dataUrl",
              "type": "string"
            },
            {
              "components": [
                {
                  "internalType": "uint8",
                  "name": "major",
                  "type": "uint8"
                },
                {
                  "internalType": "uint8",
                  "name": "minor",
                  "type": "uint8"
                },
                {
                  "internalType": "uint8",
                  "name": "patch",
                  "type": "uint8"
                }
              ],
              "internalType": "struct OMA3AppRegistry.Version[]",
              "name": "versionHistory",
              "type": "tuple[]"
            },
            {
              "internalType": "bytes32[]",
              "name": "traitHashes",
              "type": "bytes32[]"
            },
            {
              "internalType": "address",
              "name": "currentOwner",
              "type": "address"
            }
          ],
          "internalType": "struct OMA3AppRegistry.AppView[]",
          "name": "apps",
          "type": "tuple[]"
        },
        {
          "internalType": "uint256",
          "name": "nextStartIndex",
          "type": "uint256"
        }
      ],
      "stateMutability": "view",
      "type": "function"
    },
    {
      "inputs": [
        {
          "internalType": "address",
          "name": "owner",
          "type": "address"
        },
        {
          "internalType": "uint256",
          "name": "startIndex",
          "type": "uint256"
        }
      ],
      "name": "getAppsByOwner",
      "outputs": [
        {
          "components": [
            {
              "internalType": "address",
              "name": "minter",
              "type": "address"
            },
            {
              "internalType": "uint16",
              "name": "interfaces",
              "type": "uint16"
            },
            {
              "internalType": "uint8",
              "name": "versionMajor",
              "type": "uint8"
            },
            {
              "internalType": "uint8",
              "name": "status",
              "type": "uint8"
            },
            {
              "internalType": "uint8",
              "name": "dataHashAlgorithm",
              "type": "uint8"
            },
            {
              "internalType": "bytes32",
              "name": "dataHash",
              "type": "bytes32"
            },
            {
              "internalType": "string",
              "name": "did",
              "type": "string"
            },
            {
              "internalType": "string",
              "name": "fungibleTokenId",
              "type": "string"
            },
            {
              "internalType": "string",
              "name": "contractId",
              "type": "string"
            },
            {
              "internalType": "string",
              "name": "dataUrl",
              "type": "string"
            },
            {
              "components": [
                {
                  "internalType": "uint8",
                  "name": "major",
                  "type": "uint8"
                },
                {
                  "internalType": "uint8",
                  "name": "minor",
                  "type": "uint8"
                },
                {
                  "internalType": "uint8",
                  "name": "patch",
                  "type": "uint8"
                }
              ],
              "internalType": "struct OMA3AppRegistry.Version[]",
              "name": "versionHistory",
              "type": "tuple[]"
            },
            {
              "internalType": "bytes32[]",
              "name": "traitHashes",
              "type": "bytes32[]"
            },
            {
              "internalType": "address",
              "name": "currentOwner",
              "type": "address"
            }
          ],
          "internalType": "struct OMA3AppRegistry.AppView[]",
          "name": "apps",
          "type": "tuple[]"
        },
        {
          "internalType": "uint256",
          "name": "nextStartIndex",
          "type": "uint256"
        }
      ],
      "stateMutability": "view",
      "type": "function"
    },
    {
      "inputs": [
        {
          "internalType": "uint8",
          "name": "status",
          "type": "uint8"
        },
        {
          "internalType": "uint256",
          "name": "startIndex",
          "type": "uint256"
        }
      ],
      "name": "getAppsByStatus",
      "outputs": [
        {
          "components": [
            {
              "internalType": "address",
              "name": "minter",
              "type": "address"
            },
            {
              "internalType": "uint16",
              "name": "interfaces",
              "type": "uint16"
            },
            {
              "internalType": "uint8",
              "name": "versionMajor",
              "type": "uint8"
            },
            {
              "internalType": "uint8",
              "name": "status",
              "type": "uint8"
            },
            {
              "internalType": "uint8",
              "name": "dataHashAlgorithm",
              "type": "uint8"
            },
            {
              "internalType": "bytes32",
              "name": "dataHash",
              "type": "bytes32"
            },
            {
              "internalType": "string",
              "name": "did",
              "type": "string"
            },
            {
              "internalType": "string",
              "name": "fungibleTokenId",
              "type": "string"
            },
            {
              "internalType": "string",
              "name": "contractId",
              "type": "string"
            },
            {
              "internalType": "string",
              "name": "dataUrl",
              "type": "string"
            },
            {
              "components": [
                {
                  "internalType": "uint8",
                  "name": "major",
                  "type": "uint8"
                },
                {
                  "internalType": "uint8",
                  "name": "minor",
                  "type": "uint8"
                },
                {
                  "internalType": "uint8",
                  "name": "patch",
                  "type": "uint8"
                }
              ],
              "internalType": "struct OMA3AppRegistry.Version[]",
              "name": "versionHistory",
              "type": "tuple[]"
            },
            {
              "internalType": "bytes32[]",
              "name": "traitHashes",
              "type": "bytes32[]"
            },
            {
              "internalType": "address",
              "name": "currentOwner",
              "type": "address"
            }
          ],
          "internalType": "struct OMA3AppRegistry.AppView[]",
          "name": "apps",
          "type": "tuple[]"
        },
        {
          "internalType": "uint256",
          "name": "nextStartIndex",
          "type": "uint256"
        }
      ],
      "stateMutability": "view",
      "type": "function"
    },
    {
      "inputs": [
        {
          "internalType": "uint256",
          "name": "tokenId",
          "type": "uint256"
        }
      ],
      "name": "getDIDByTokenId",
      "outputs": [
        {
          "internalType": "string",
          "name": "",
          "type": "string"
        }
      ],
      "stateMutability": "view",
      "type": "function"
    },
    {
      "inputs": [
        {
          "internalType": "string",
          "name": "didString",
          "type": "string"
        }
      ],
      "name": "getDidHash",
      "outputs": [
        {
          "internalType": "bytes32",
          "name": "",
          "type": "bytes32"
        }
      ],
      "stateMutability": "pure",
      "type": "function"
    },
    {
      "inputs": [
        {
          "internalType": "uint256",
          "name": "tokenId",
          "type": "uint256"
        },
        {
          "internalType": "string",
          "name": "key",
          "type": "string"
        }
      ],
      "name": "getMetadata",
      "outputs": [
        {
          "internalType": "bytes",
          "name": "value",
          "type": "bytes"
        }
      ],
      "stateMutability": "view",
      "type": "function"
    },
    {
      "inputs": [
        {
          "internalType": "address",
          "name": "owner",
          "type": "address"
        }
      ],
      "name": "getTotalAppsByOwner",
      "outputs": [
        {
          "internalType": "uint256",
          "name": "",
          "type": "uint256"
        }
      ],
      "stateMutability": "view",
      "type": "function"
    },
    {
      "inputs": [
        {
          "internalType": "uint8",
          "name": "status",
          "type": "uint8"
        }
      ],
      "name": "getTotalAppsByStatus",
      "outputs": [
        {
          "internalType": "uint256",
          "name": "",
          "type": "uint256"
        }
      ],
      "stateMutability": "view",
      "type": "function"
    },
    {
      "inputs": [
        {
          "internalType": "string",
          "name": "didString",
          "type": "string"
        },
        {
          "internalType": "uint8",
          "name": "major",
          "type": "uint8"
        },
        {
          "internalType": "bytes32[]",
          "name": "traits",
          "type": "bytes32[]"
        }
      ],
      "name": "hasAllTraits",
      "outputs": [
        {
          "internalType": "bool",
          "name": "",
          "type": "bool"
        }
      ],
      "stateMutability": "view",
      "type": "function"
    },
    {
      "inputs": [
        {
          "internalType": "string",
          "name": "didString",
          "type": "string"
        },
        {
          "internalType": "uint8",
          "name": "major",
          "type": "uint8"
        },
        {
          "internalType": "bytes32[]",
          "name": "traits",
          "type": "bytes32[]"
        }
      ],
      "name": "hasAnyTraits",
      "outputs": [
        {
          "internalType": "bool",
          "name": "",
          "type": "bool"
        }
      ],
      "stateMutability": "view",
      "type": "function"
    },
    {
      "inputs": [
        {
          "internalType": "address",
          "name": "owner",
          "type": "address"
        },
        {
          "internalType": "address",
          "name": "operator",
          "type": "address"
        }
      ],
      "name": "isApprovedForAll",
      "outputs": [
        {
          "internalType": "bool",
          "name": "",
          "type": "bool"
        }
      ],
      "stateMutability": "view",
      "type": "function"
    },
    {
      "inputs": [
        {
          "internalType": "bytes32",
          "name": "didHash",
          "type": "bytes32"
        }
      ],
      "name": "latestMajor",
      "outputs": [
        {
          "internalType": "uint8",
          "name": "",
          "type": "uint8"
        }
      ],
      "stateMutability": "view",
      "type": "function"
    },
    {
      "inputs": [],
      "name": "metadataContract",
      "outputs": [
        {
          "internalType": "contract IOMA3AppMetadata",
          "name": "",
          "type": "address"
        }
      ],
      "stateMutability": "view",
      "type": "function"
    },
    {
      "inputs": [
        {
          "internalType": "string",
          "name": "didString",
          "type": "string"
        },
        {
          "internalType": "uint16",
          "name": "interfaces",
          "type": "uint16"
        },
        {
          "internalType": "string",
          "name": "dataUrl",
          "type": "string"
        },
        {
          "internalType": "bytes32",
          "name": "dataHash",
          "type": "bytes32"
        },
        {
          "internalType": "uint8",
          "name": "dataHashAlgorithm",
          "type": "uint8"
        },
        {
          "internalType": "string",
          "name": "fungibleTokenId",
          "type": "string"
        },
        {
          "internalType": "string",
          "name": "contractId",
          "type": "string"
        },
        {
          "internalType": "uint8",
          "name": "initialVersionMajor",
          "type": "uint8"
        },
        {
          "internalType": "uint8",
          "name": "initialVersionMinor",
          "type": "uint8"
        },
        {
          "internalType": "uint8",
          "name": "initialVersionPatch",
          "type": "uint8"
        },
        {
          "internalType": "bytes32[]",
          "name": "traitHashes",
          "type": "bytes32[]"
        },
        {
          "internalType": "string",
          "name": "metadataJson",
          "type": "string"
        }
      ],
      "name": "mint",
      "outputs": [
        {
          "internalType": "uint256",
          "name": "",
          "type": "uint256"
        }
      ],
      "stateMutability": "nonpayable",
      "type": "function"
    },
    {
      "inputs": [],
      "name": "name",
      "outputs": [
        {
          "internalType": "string",
          "name": "",
          "type": "string"
        }
      ],
      "stateMutability": "view",
      "type": "function"
    },
    {
      "inputs": [],
      "name": "owner",
      "outputs": [
        {
          "internalType": "address",
          "name": "",
          "type": "address"
        }
      ],
      "stateMutability": "view",
      "type": "function"
    },
    {
      "inputs": [
        {
          "internalType": "uint256",
          "name": "tokenId",
          "type": "uint256"
        }
      ],
      "name": "ownerOf",
      "outputs": [
        {
          "internalType": "address",
          "name": "",
          "type": "address"
        }
      ],
      "stateMutability": "view",
      "type": "function"
    },
    {
      "inputs": [],
      "name": "ownershipResolver",
      "outputs": [
        {
          "internalType": "contract IOMA3OwnershipResolver",
          "name": "",
          "type": "address"
        }
      ],
      "stateMutability": "view",
      "type": "function"
    },
    {
      "inputs": [
        {
          "internalType": "string",
          "name": "_tokenURI",
          "type": "string"
        },
        {
          "components": [
            {
              "internalType": "string",
              "name": "key",
              "type": "string"
            },
            {
              "internalType": "bytes",
              "name": "value",
              "type": "bytes"
            }
          ],
          "internalType": "struct OMA3AppRegistry.MetadataEntry[]",
          "name": "_metadata",
          "type": "tuple[]"
        }
      ],
      "name": "register",
      "outputs": [
        {
          "internalType": "uint256",
          "name": "",
          "type": "uint256"
        }
      ],
      "stateMutability": "nonpayable",
      "type": "function"
    },
    {
      "inputs": [
        {
          "internalType": "string",
          "name": "_tokenURI",
          "type": "string"
        }
      ],
      "name": "register",
      "outputs": [
        {
          "internalType": "uint256",
          "name": "",
          "type": "uint256"
        }
      ],
      "stateMutability": "nonpayable",
      "type": "function"
    },
    {
      "inputs": [
        {
          "internalType": "bytes32",
          "name": "",
          "type": "bytes32"
        }
      ],
      "name": "registrationBlock",
      "outputs": [
        {
          "internalType": "uint256",
          "name": "",
          "type": "uint256"
        }
      ],
      "stateMutability": "view",
      "type": "function"
    },
    {
      "inputs": [],
      "name": "registrationResolver",
      "outputs": [
        {
          "internalType": "contract IOMA3RegistrationResolver",
          "name": "",
          "type": "address"
        }
      ],
      "stateMutability": "view",
      "type": "function"
    },
    {
      "inputs": [
        {
          "internalType": "bytes32",
          "name": "",
          "type": "bytes32"
        }
      ],
      "name": "registrationTimestamp",
      "outputs": [
        {
          "internalType": "uint256",
          "name": "",
          "type": "uint256"
        }
      ],
      "stateMutability": "view",
      "type": "function"
    },
    {
      "inputs": [],
      "name": "renounceOwnership",
      "outputs": [],
      "stateMutability": "nonpayable",
      "type": "function"
    },
    {
      "inputs": [],
      "name": "requireDataUrlAttestation",
      "outputs": [
        {
          "internalType": "bool",
          "name": "",
          "type": "bool"
        }
      ],
      "stateMutability": "view",
      "type": "function"
    },
    {
      "inputs": [
        {
          "internalType": "address",
          "name": "from",
          "type": "address"
        },
        {
          "internalType": "address",
          "name": "to",
          "type": "address"
        },
        {
          "internalType": "uint256",
          "name": "tokenId",
          "type": "uint256"
        }
      ],
      "name": "safeTransferFrom",
      "outputs": [],
      "stateMutability": "nonpayable",
      "type": "function"
    },
    {
      "inputs": [
        {
          "internalType": "address",
          "name": "from",
          "type": "address"
        },
        {
          "internalType": "address",
          "name": "to",
          "type": "address"
        },
        {
          "internalType": "uint256",
          "name": "tokenId",
          "type": "uint256"
        },
        {
          "internalType": "bytes",
          "name": "data",
          "type": "bytes"
        }
      ],
      "name": "safeTransferFrom",
      "outputs": [],
      "stateMutability": "nonpayable",
      "type": "function"
    },
    {
      "inputs": [
        {
          "internalType": "address",
          "name": "operator",
          "type": "address"
        },
        {
          "internalType": "bool",
          "name": "approved",
          "type": "bool"
        }
      ],
      "name": "setApprovalForAll",
      "outputs": [],
      "stateMutability": "nonpayable",
      "type": "function"
    },
    {
      "inputs": [
        {
          "internalType": "address",
          "name": "_resolver",
          "type": "address"
        }
      ],
      "name": "setDataUrlResolver",
      "outputs": [],
      "stateMutability": "nonpayable",
      "type": "function"
    },
    {
      "inputs": [
        {
          "internalType": "address",
          "name": "_metadataContract",
          "type": "address"
        }
      ],
      "name": "setMetadataContract",
      "outputs": [],
      "stateMutability": "nonpayable",
      "type": "function"
    },
    {
      "inputs": [
        {
          "internalType": "address",
          "name": "_resolver",
          "type": "address"
        }
      ],
      "name": "setOwnershipResolver",
      "outputs": [],
      "stateMutability": "nonpayable",
      "type": "function"
    },
    {
      "inputs": [
        {
          "internalType": "address",
          "name": "_resolver",
          "type": "address"
        }
      ],
      "name": "setRegistrationResolver",
      "outputs": [],
      "stateMutability": "nonpayable",
      "type": "function"
    },
    {
      "inputs": [
        {
          "internalType": "bool",
          "name": "_require",
          "type": "bool"
        }
      ],
      "name": "setRequireDataUrlAttestation",
      "outputs": [],
      "stateMutability": "nonpayable",
      "type": "function"
    },
    {
      "inputs": [
        {
          "internalType": "bytes4",
          "name": "interfaceId",
          "type": "bytes4"
        }
      ],
      "name": "supportsInterface",
      "outputs": [
        {
          "internalType": "bool",
          "name": "",
          "type": "bool"
        }
      ],
      "stateMutability": "view",
      "type": "function"
    },
    {
      "inputs": [],
      "name": "symbol",
      "outputs": [
        {
          "internalType": "string",
          "name": "",
          "type": "string"
        }
      ],
      "stateMutability": "view",
      "type": "function"
    },
    {
      "inputs": [
        {
          "internalType": "uint256",
          "name": "index",
          "type": "uint256"
        }
      ],
      "name": "tokenByIndex",
      "outputs": [
        {
          "internalType": "uint256",
          "name": "",
          "type": "uint256"
        }
      ],
      "stateMutability": "view",
      "type": "function"
    },
    {
      "inputs": [
        {
          "internalType": "address",
          "name": "owner",
          "type": "address"
        },
        {
          "internalType": "uint256",
          "name": "index",
          "type": "uint256"
        }
      ],
      "name": "tokenOfOwnerByIndex",
      "outputs": [
        {
          "internalType": "uint256",
          "name": "",
          "type": "uint256"
        }
      ],
      "stateMutability": "view",
      "type": "function"
    },
    {
      "inputs": [
        {
          "internalType": "uint256",
          "name": "tokenId",
          "type": "uint256"
        }
      ],
      "name": "tokenURI",
      "outputs": [
        {
          "internalType": "string",
          "name": "",
          "type": "string"
        }
      ],
      "stateMutability": "view",
      "type": "function"
    },
    {
      "inputs": [],
      "name": "totalSupply",
      "outputs": [
        {
          "internalType": "uint256",
          "name": "",
          "type": "uint256"
        }
      ],
      "stateMutability": "view",
      "type": "function"
    },
    {
      "inputs": [
        {
          "internalType": "address",
          "name": "from",
          "type": "address"
        },
        {
          "internalType": "address",
          "name": "to",
          "type": "address"
        },
        {
          "internalType": "uint256",
          "name": "tokenId",
          "type": "uint256"
        }
      ],
      "name": "transferFrom",
      "outputs": [],
      "stateMutability": "nonpayable",
      "type": "function"
    },
    {
      "inputs": [
        {
          "internalType": "address",
          "name": "newOwner",
          "type": "address"
        }
      ],
      "name": "transferOwnership",
      "outputs": [],
      "stateMutability": "nonpayable",
      "type": "function"
    },
    {
      "inputs": [
        {
          "internalType": "string",
          "name": "didString",
          "type": "string"
        },
        {
          "internalType": "uint8",
          "name": "major",
          "type": "uint8"
        },
        {
          "internalType": "bytes32",
          "name": "newDataHash",
          "type": "bytes32"
        },
        {
          "internalType": "uint8",
          "name": "newDataHashAlgorithm",
          "type": "uint8"
        },
        {
          "internalType": "uint16",
          "name": "newInterfaces",
          "type": "uint16"
        },
        {
          "internalType": "bytes32[]",
          "name": "newTraitHashes",
          "type": "bytes32[]"
        },
        {
          "internalType": "uint8",
          "name": "newMinor",
          "type": "uint8"
        },
        {
          "internalType": "uint8",
          "name": "newPatch",
          "type": "uint8"
        },
        {
          "internalType": "string",
          "name": "metadataJson",
          "type": "string"
        }
      ],
      "name": "updateAppControlled",
      "outputs": [],
      "stateMutability": "nonpayable",
      "type": "function"
    },
    {
      "inputs": [
        {
          "internalType": "string",
          "name": "didString",
          "type": "string"
        },
        {
          "internalType": "uint8",
          "name": "major",
          "type": "uint8"
        },
        {
          "internalType": "uint8",
          "name": "newStatus",
          "type": "uint8"
        }
      ],
      "name": "updateStatus",
      "outputs": [],
      "stateMutability": "nonpayable",
      "type": "function"
    }
  ],
  "bytecode": "0x60806040523461037b57604080519081016001600160401b0381118282101761029157604090815260118252704f4d41332041707020526567697374727960781b602083015280519081016001600160401b0381118282101761029157604052600781526604f4d41334150560cc1b602082015281516001600160401b038111610291575f54600181811c91168015610371575b602082101461027357601f811161030f575b50602092601f82116001146102b057928192935f926102a5575b50508160011b915f199060031b1c1916175f555b80516001600160401b03811161029157600154600181811c91168015610287575b602082101461027357601f8111610210575b50602091601f82116001146101b0579181925f926101a5575b50508160011b915f199060031b1c1916176001555b331561019257600a8054336001600160a01b03198216811790925560405191906001600160a01b03167f8be0079c531659141344cd1fd0a4f28419497f9722a3daafe3b4186f6b6457e05f80a36001600b55614f5a90816103808239f35b631e4fbdf760e01b5f525f60045260245ffd5b015190505f8061011f565b601f1982169260015f52805f20915f5b8581106101f8575083600195106101e0575b505050811b01600155610134565b01515f1960f88460031b161c191690555f80806101d2565b919260206001819286850151815501940192016101c0565b60015f527fb10e2d527612073b26eecdfd717e6a320cf44b4afac2b0732d9fcbe2b7fa0cf6601f830160051c81019160208410610269575b601f0160051c01905b81811061025e5750610106565b5f8155600101610251565b9091508190610248565b634e487b7160e01b5f52602260045260245ffd5b90607f16906100f4565b634e487b7160e01b5f52604160045260245ffd5b015190505f806100bf565b601f198216935f8052805f20915f5b8681106102f757508360019596106102df575b505050811b015f556100d3565b01515f1960f88460031b161c191690555f80806102d2565b919260206001819286850151815501940192016102bf565b5f80527f290decd9548b62a8d60345a988386fc84ba6bc95484008f6362f93160ef3e563601f830160051c81019160208410610367575b601f0160051c01905b81811061035c57506100a5565b5f815560010161034f565b9091508190610346565b90607f1690610093565b5f80fdfe610220806040526004361015610013575f80fd5b5f3560e01c90816301ffc9a7146122e15750806306fdde031461223f578063081812fc14612203578063095ea7b3146121195780630fecc4fb1461184057806318160ddd146120fc57806323b872dd146120e557806327ca40c2146120c05780632a678e91146120985780632f745c591461207157806333c49a6a1461204957806335209821146120215780633f89efe714611ff757806342842e0e14611fce5780634f6ccce714611f4a57806353a2b12a14611f255780635d651d2f146119485780636352211e146119185780636bb1d6e11461186357806370a0823114611840578063715018a6146117e55780637c6ecba91461174f57806385ddd4a0146116fb5780638da5cb5b146116d35780638ea422861461118f57806395d89b41146110c5578063a1e5425e14611072578063a22cb46514610fd7578063a38dca5114610f40578063a95018d814610f00578063b2a7b15814610edb578063b51c31ef14610e96578063b53818f614610d6b578063b5503f3214610d43578063b56ccfae14610d18578063b88d4fde14610cc8578063bd629a3514610caf578063c19ab07e1461099e578063c87b56dd14610932578063cb4799f2146108e0578063cef7b5d8146108a0578063d81e0de7146107bb578063db737a9214610721578063db764d92146106fe578063e5187f4314610668578063e985e9c514610611578063f2c298be146102ec578063f2fde38b146102665763fe87533f14610238575f80fd5b34610262576020366003190112610262576004355f526014602052602060405f2054604051908152f35b5f80fd5b346102625760203660031901126102625761027f6123a4565b610287613e5f565b6001600160a01b031680156102d957600a80546001600160a01b0319811683179091556001600160a01b03167f8be0079c531659141344cd1fd0a4f28419497f9722a3daafe3b4186f6b6457e05f80a3005b631e4fbdf760e01b5f525f60045260245ffd5b34610262576020366003190112610262576004356001600160401b0381116102625761031c903690600401612670565b610324613d01565b6018546001600160a01b031680156105cc575f60405180926371995b6b60e01b8252336004830152604060248301528183816103636044820189612380565b03925af19081156105c1575f916103dc575b60206103cf848480519161ffff858301511690606083015160ff60808501511660a085015160c08601519160ff60e0880151169360ff610100890151169560ff6101208a015116976101606101408b01519a01519a613e86565b6001600b55604051908152f35b90503d805f833e6103ed8183612634565b810190602081830312610262578051906001600160401b0382116102625701916101c08383031261026257604051916101c083018381106001600160401b038211176105ad5760405283516001600160401b0381116102625781610452918601612f80565b835261046060208501613056565b602084015260408401516001600160401b0381116102625781610484918601612f80565b60408401526060840151606084015261049f60808501613048565b608084015260a08401516001600160401b03811161026257816104c3918601612f80565b60a084015260c08401516001600160401b03811161026257816104e7918601612f80565b60c08401526104f860e08501613048565b60e084015261050a6101008501613048565b61010084015261051d6101208501613048565b6101208401526101408401516001600160401b0381116102625781610543918601612feb565b610140840152610160840151906001600160401b03821161026257610569918501612f80565b610160830152610180830151916001600160401b03831683036102625761059f6101a06020956103cf9561018085015201613b47565b6101a0820152915091610375565b634e487b7160e01b5f52604160045260245ffd5b6040513d5f823e3d90fd5b60405162461bcd60e51b815260206004820152601d60248201527f526567697374726174696f6e207265736f6c766572206e6f74207365740000006044820152606490fd5b346102625760403660031901126102625761062a6123a4565b6106326123ba565b9060018060a01b03165f52600560205260405f209060018060a01b03165f52602052602060ff60405f2054166040519015158152f35b34610262576020366003190112610262576106816123a4565b610689613e5f565b6001600160a01b031680156106af576001600160601b0360a01b60155416176015555f80f35b60405162461bcd60e51b815260206004820152602160248201527f496e76616c6964206d6574616461746120636f6e7472616374206164647265736044820152607360f81b6064820152608490fd5b3461026257602061071761071136612728565b91613aab565b6040519015158152f35b346102625760203660031901126102625761073a6123a4565b610742613e5f565b6001600160a01b03168015610768576001600160601b0360a01b60185416176018555f80f35b60405162461bcd60e51b815260206004820152602560248201527f496e76616c696420726567697374726174696f6e207265736f6c766572206164604482015264647265737360d81b6064820152608490fd5b34610262576060366003190112610262576004356001600160401b038111610262576107eb903690600401612670565b6107f36125dd565b906044359060ff821682036102625761082983825160208401205f52600d60205260ff60405f2091165f5260205260405f205490565b80156108845761083890613b54565b336001600160a01b0390911603610862579161085b92610856613d01565b613900565b6001600b55005b604051635f69c25560e01b8152928392506108809160048401612eb7565b0390fd5b604051634ecda4f560e11b815280610880868560048401612eb7565b346102625760403660031901126102625760043561ffff81168103610262576108cc90602435906137ca565b906108dc60405192839283612568565b0390f35b34610262576040366003190112610262576024356001600160401b0381116102625761091e6109166108dc923690600401612670565b600435613313565b604051918291602083526020830190612380565b34610262576020366003190112610262576004355f818152600260205260409020546001600160a01b03161561098c575f52600c6020526108dc61098561091e600560405f2001604051928380926127ba565b0382612634565b63a42088b560e01b5f5260045260245ffd5b34610262576020366003190112610262576040516329d1589560e11b81525f600480830182905235602483015281604481305afa9081156105c1575f905f926109f2575b506108dc60405192839283612568565b9150503d805f833e610a048183612634565b8101906040818303126102625780516001600160401b0381116102625781019180601f8401121561026257825192610a3b846126b4565b93610a496040519586612634565b80855260208086019160051b830101918383116102625760208101915b838310610a7d5750505050506020015190826109e2565b82516001600160401b038111610262578201906101a0828703601f1901126102625760405190610aac82612618565b610ab8602084016132ff565b8252610ac660408401613056565b6020830152610ad760608401613048565b6040830152610ae860808401613048565b6060830152610af960a08401613048565b608083015260c083015160a083015260e08301516001600160401b03811161026257876020610b2a92860101612f80565b60c08301526101008301516001600160401b03811161026257876020610b5292860101612f80565b60e08301526101208301516001600160401b03811161026257876020610b7a92860101612f80565b6101008301526101408301516001600160401b03811161026257876020610ba392860101612f80565b6101208301526101608301516001600160401b0381116102625760209084010187601f82011215610262578051610bd9816126b4565b91610be76040519384612634565b818352602060608185019302820101908a821161026257602001915b818310610c5e57505050610140830152610180830151916001600160401b03831161026257610c4d6101a085610c418b602080999881990101612feb565b610160850152016132ff565b610180820152815201920191610a66565b6060838c0312610262576020606091604051610c79816125fd565b610c8286613048565b8152610c8f838701613048565b83820152610c9f60408701613048565b6040820152815201920191610c03565b34610262576020610717610cc236612728565b91613244565b3461026257608036600319011261026257610ce16123a4565b610ce96123ba565b606435916001600160401b03831161026257610d0c610d16933690600401612670565b91604435916130cd565b005b34610262576020366003190112610262576020610d3b610d366125cd565b613065565b604051908152f35b34610262575f366003190112610262576018546040516001600160a01b039091168152602090f35b3461026257610180366003190112610262576004356001600160401b03811161026257610d9c903690600401612670565b6024359061ffff82168203610262576044356001600160401b03811161026257610dca903690600401612670565b9160843560ff811681036102625760a4356001600160401b03811161026257610df7903690600401612670565b60c4356001600160401b03811161026257610e16903690600401612670565b610e1e6125ed565b610104359160ff8316830361026257610124359360ff8516850361026257610144356001600160401b03811161026257610e5c9036906004016126cb565b9561016435986001600160401b038a116102625760209a610e846103cf9b3690600401612670565b99610e8d613d01565b60643592613e86565b346102625760203660031901126102625760043580151580910361026257610ebc613e5f565b6018805460ff60a01b191660a09290921b60ff60a01b16919091179055005b34610262575f36600319011261026257602060ff60185460a01c166040519015158152f35b34610262576020366003190112610262576004356001600160401b03811161026257610f326020913690600401612670565b818151910120604051908152f35b3461026257602036600319011261026257610f596123a4565b610f61613e5f565b6001600160a01b03168015610f87576001600160601b0360a01b60165416176016555f80f35b60405162461bcd60e51b815260206004820152602260248201527f496e76616c6964206f776e657273686970207265736f6c766572206164647265604482015261737360f01b6064820152608490fd5b3461026257604036600319011261026257610ff06123a4565b60243590811515809203610262576001600160a01b031690811561105f57335f52600560205260405f20825f5260205260405f2060ff1981541660ff83161790556040519081527f17307eab39ab6107e8899845ad3d59bd9653f200f220920489ca2b5937696c3160203392a3005b50630b61174360e31b5f5260045260245ffd5b34610262576020366003190112610262576004355f818152600260205260409020546001600160a01b03161561098c575f52600c6020526108dc61098561091e600260405f2001604051928380926127ba565b34610262575f366003190112610262576040515f6001546110e581612782565b808452906001811690811561116b575060011461110d575b6108dc8361091e81850382612634565b60015f9081527fb10e2d527612073b26eecdfd717e6a320cf44b4afac2b0732d9fcbe2b7fa0cf6939250905b8082106111515750909150810160200161091e6110fd565b919260018160209254838588010152019101909291611139565b60ff191660208086019190915291151560051b8401909101915061091e90506110fd565b34610262576040366003190112610262576004356001600160401b038111610262576111bf903690600401612670565b6024356001600160401b03811161026257366023820112156102625780600401356111e9816126b4565b916111f76040519384612634565b8183526024602084019260051b820101903682116102625760248101925b82841061163a578585611226613d01565b6060916001905f5f85866001915f935f958a978b995f9c5b8d8d51111561162c576112518e8e612c01565b5151602081519101207f4af34ffd9904d5bc4854346ab5ad09ba5dfb85bdbcabda139065f3cd26385b0c81145f146112b357505060016112aa60208f8f9061129891612c01565b51015160208082518301019101612fc6565b9d5b019c61123e565b909d938d917f491804cb91ec5cd12f861f142d8204e7b75cc8be84d78bf4e1ce2679da74424d810361130a5750506112ed84602092612c01565b5101516020818051810103126102625760206001910151936112ac565b949590947fc9d54eb7b84d9ee03d7e291d0304f5f17e656d3a13f90908b9d2b5abad311bc7810361136757505061134385602092612c01565b51015160208180518101031261026257611361602060019201613048565b946112ac565b909592907f47e3896e0d0ff43a3431a60c9ca5e20041e273da9f26ffc0f04eafc80f7d7cb381036113c45750506113a082602092612c01565b510151602081805181010312610262576113be602060019201613056565b916112ac565b929690927f164c6244b2e19c26d9b6edbba573afdd43797ec33e4c02786f7920cb8509c3968103611408575050611402602061129888600194612c01565b956112ac565b969790967f2fc6f32cae07e7ae089902644376689fdc72e3b74369068c60fa3a1b59ea3aaa810361144c575050611446602061129889600194612c01565b966112ac565b979890977f822fcd80c2305106a6b64e09f6d6c4eb5bdd964b8e3373e3b3a1eba5a1eef70981036114a957505061148588602092612c01565b510151602081805181010312610262576114a3602060019201613048565b976112ac565b989990987f77260edc9ffce91576691a2ac19fee12a572d0a5fb8bf9ecef7ef6b291e93ad381036115065750506114e289602092612c01565b51015160208180518101031261026257611500602060019201613048565b986112ac565b999a90997fd0f8a96f4037e03022df4b601e82b54f7ba66b54b01f842de2243666580dc277810361156357505061153f8a602092612c01565b5101516020818051810103126102625761155d602060019201613048565b996112ac565b9a9b909a7f9ab47b3a4531c42654638ea0611351352fada062374aeeb8bdb1e2283de54e0c81036115db57505061159c8b602092612c01565b5101518051810190602081830312610262576020810151906001600160401b0382116102625760206115d5928160019501920101612feb565b9a6112ac565b909b91907f6a6fcee3dfc55c9d85c759f47ae5a6f25e81b184c2cedf77171ca084d2b0127a1461160f575b506001906112ac565b819c50602061129860019361162393612c01565b9b90508c611606565b60209d506103cf9c50613e86565b83356001600160401b038111610262578201604060231982360301126102625760405191604083018381106001600160401b038211176105ad5760405260248201356001600160401b0381116102625761169a9060243691850101612670565b83526044820135926001600160401b038411610262576116c4602094936024869536920101612670565b83820152815201930192611215565b34610262575f36600319011261026257600a546040516001600160a01b039091168152602090f35b3461026257602036600319011261026257600435805f52601060205260ff60405f2054161561173d575f52600f602052602060ff60405f205416604051908152f35b6304e5b67b60e21b5f5260045260245ffd5b34610262576020366003190112610262576117686123a4565b611770613e5f565b6001600160a01b03168015611796576001600160601b0360a01b60175416176017555f80f35b60405162461bcd60e51b815260206004820152602160248201527f496e76616c696420646174612055524c207265736f6c766572206164647265736044820152607360f81b6064820152608490fd5b34610262575f366003190112610262576117fd613e5f565b600a80546001600160a01b031981169091555f906001600160a01b03167f8be0079c531659141344cd1fd0a4f28419497f9722a3daafe3b4186f6b6457e08280a3005b34610262576020366003190112610262576020610d3b61185e6123a4565b612f4f565b34610262576040366003190112610262576004356001600160401b03811161026257611893903690600401612670565b61189b6125dd565b6118a3612ab9565b506118cb81835160208501205f52600d60205260ff60405f2091165f5260205260405f205490565b9182156118fc576108dc6118e8846118e281613b54565b90613b88565b60405191829160208352602083019061240a565b610880604051928392634ecda4f560e11b845260048401612eb7565b34610262576020366003190112610262576020611936600435613b54565b6040516001600160a01b039091168152f35b3461026257610120366003190112610262576004356001600160401b03811161026257611979903690600401612670565b6119816125dd565b906064359060ff821682036102625760843561ffff811681036102625760a4356001600160401b038111610262576119bd9036906004016126cb565b60c43560ff81168103610262576119d26125ed565b91610104356001600160401b038111610262576119f3903690600401612670565b938551611a1d89602089019283205f52600d60205260ff60405f2091165f5260205260405f205490565b8015611f0957611a2c90613b54565b336001600160a01b0390911603611eed57611a45613d01565b86519020805f52600d60205260405f2060ff8a165f5260205260405f205492835f52600c60205260405f209260443515159081611edc575b8115611ec6575b61ffff811615159081611eae575b835115928015908180611ea6575b80611e9f575b611e9057600688015493845f19810111611e7c578f918f90828a95611ad48d8f9a6006905f19019101612cff565b5091611e03575b8290611dfb575b611d9a575b508715611d69575b908691611cee575b5050611c97575b5050505015611bd2575b50604051611b15816125fd565b60ff8a169283825260ff8616602083015260ff871660408301526006810154600160401b8110156105ad576006611b5492600183018282015501612cff565b919091611bbf57611b6491612f11565b6040805160ff8681168252871660208201527f8ab6771ee4cb5523129ea5bd846d7f7d4103bbf1a2cebe9dca96f04dfbd222ed9190a48251611ba7576001600b55005b611bb49560443594613d3f565b80808080808061085b565b634e487b7160e01b5f525f60045260245ffd5b8051600784016001600160401b0382116105ad57600160401b82116105ad578054828255808310611c71575b509082916020879401905f5260205f205f5b838110611c5a5750505050827f536e40ba7e2dd8d050f26bde7e64327c5e2375c23eb08a756d093181e683b5f660ff8d611c51604051928392169582612ed8565b0390a489611b08565b825181830155889550602090920191600101611c10565b815f528260205f2091820191015b818110611c8c5750611bfe565b5f8155600101611c7f565b875461ffff60a01b191660a084901b61ffff60a01b161788557f3caeada380b095b0be8b51d0aed4ae24286f0178967772d5bc509fd50eb82c759060209060ff9061ffff604051961686521693a4848c848d611afe565b60443560018c01558a5460ff60c01b191660c082901b60ff60c01b16178b55847f0565e9f9da6fa835860acf2e1e4a9b9beb169cafb1c3ec581713f4ff70da16c48c60ff611d4a604051926060845260056060850191016127ba565b9460443560208401521660408201528060ff8816940390a4848f611af7565b955050915050611d7885613d21565b60443515611d8b578d86918e8a95611aef565b633b66b41d60e21b5f5260045ffd5b93509350509293505460ff8160081c1660ff8b16111580611de8575b611dc9578893928f918f90938994611ae7565b8a60ff80926331c6775f60e01b5f5260101c166004521660245260445ffd5b5060ff8160101c1660ff8c161115611db6565b508815611ae2565b93969750935093505060ff825460081c168060ff8d161115611e62575061ffff895460a01c81811691829188161603611e475750928f918f909389948c9796611adb565b8561ffff91631571017560e31b5f526004521660245260445ffd5b8b60ff9163cc1e425960e01b5f526004521660245260445ffd5b634e487b7160e01b5f52601160045260245ffd5b630c1dc38b60e11b5f5260045ffd5b5084611aa6565b508315611aa0565b905061ffff855460a01c1661ffff8216141590611a92565b905060ff845460c01c1660ff8b16141590611a84565b600185015460443514159150611a7d565b604051635f69c25560e01b8152806108808b8a60048401612eb7565b604051634ecda4f560e11b8152806108808c8b60048401612eb7565b34610262576040366003190112610262576108cc611f416125cd565b60243590612d22565b3461026257602036600319011261026257600435600854811015611fb857600854811015611fa45760085f527ff3f7a9fe364faab93b216da50a3214154f22a0a2b415b23a84c8169e8b636ee30154604051908152602090f35b634e487b7160e01b5f52603260045260245ffd5b63295f44f760e21b5f525f60045260245260445ffd5b3461026257610d16611fdf366123d0565b9060405192611fef602085612634565b5f84526130cd565b34610262576020366003190112610262576004355f526013602052602060405f2054604051908152f35b34610262575f366003190112610262576015546040516001600160a01b039091168152602090f35b34610262575f366003190112610262576016546040516001600160a01b039091168152602090f35b34610262576040366003190112610262576020610d3b61208f6123a4565b60243590612c99565b34610262575f366003190112610262576017546040516001600160a01b039091168152602090f35b34610262576040366003190112610262576108cc6120dc6123a4565b60243590612c15565b3461026257610d166120f6366123d0565b9161283b565b34610262575f366003190112610262576020600854604051908152f35b34610262576040366003190112610262576121326123a4565b60243561213e81613b54565b331515806121f0575b806121c3575b6121b05781906001600160a01b0384811691167f8c5be1e5ebec7d5bd14f71427d1e84f3dd0314c0f7b2291e5b200ac8c7c3b9255f80a45f90815260046020526040902080546001600160a01b0319166001600160a01b03909216919091179055005b63a9fbf51f60e01b5f523360045260245ffd5b506001600160a01b0381165f90815260056020908152604080832033845290915290205460ff161561214d565b506001600160a01b038116331415612147565b346102625760203660031901126102625760043561222081613b54565b505f526004602052602060018060a01b0360405f205416604051908152f35b34610262575f366003190112610262576040515f5f5461225e81612782565b808452906001811690811561116b5750600114612285576108dc8361091e81850382612634565b5f8080527f290decd9548b62a8d60345a988386fc84ba6bc95484008f6362f93160ef3e563939250905b8082106122c75750909150810160200161091e6110fd565b9192600181602092548385880101520191019092916122af565b34610262576020366003190112610262576004359063ffffffff60e01b821680920361026257602091631b66b43760e21b8114908115612323575b5015158152f35b63780e9d6360e01b81149150811561233d575b508361231c565b6380ac58cd60e01b81149150811561236f575b811561235e575b5083612336565b6301ffc9a760e01b14905083612357565b635b5e139f60e01b81149150612350565b805180835260209291819084018484015e5f828201840152601f01601f1916010190565b600435906001600160a01b038216820361026257565b602435906001600160a01b038216820361026257565b6060906003190112610262576004356001600160a01b038116810361026257906024356001600160a01b0381168103610262579060443590565b9060018060a01b03825116815261ffff602083015116602082015260ff604083015116604082015260ff606083015116606082015260ff608083015116608082015260a082015160a08201526124b46124a061248c61247a60c08601516101a060c08701526101a0860190612380565b60e086015185820360e0870152612380565b610100850151848203610100860152612380565b610120840151838203610120850152612380565b9161014081015192828103610140840152602080855192838152019401905f5b8181106125335750505061016081015192828103610160840152602080855192838152019401905f5b81811061251d57505050610180908101516001600160a01b031691015290565b82518652602095860195909201916001016124fd565b9091946020606060019260ff60408a5182815116845282868201511686850152015116604082015201960191019190916124d4565b92919060408401906040855280518092526060850191602060608260051b8801019201925f905b8282106125a25750505060209150930152565b9091926020806125be600193605f198c8203018652885161240a565b9601920192019093929161258f565b6004359060ff8216820361026257565b6024359060ff8216820361026257565b60e4359060ff8216820361026257565b606081019081106001600160401b038211176105ad57604052565b6101a081019081106001600160401b038211176105ad57604052565b90601f801991011681019081106001600160401b038211176105ad57604052565b6001600160401b0381116105ad57601f01601f191660200190565b81601f820112156102625760208135910161268a82612655565b926126986040519485612634565b8284528282011161026257815f92602092838601378301015290565b6001600160401b0381116105ad5760051b60200190565b9080601f830112156102625781356126e2816126b4565b926126f06040519485612634565b81845260208085019260051b82010192831161026257602001905b8282106127185750505090565b813581526020918201910161270b565b6060600319820112610262576004356001600160401b038111610262578161275291600401612670565b9160243560ff811681036102625791604435906001600160401b0382116102625761277f916004016126cb565b90565b90600182811c921680156127b0575b602083101461279c57565b634e487b7160e01b5f52602260045260245ffd5b91607f1691612791565b5f92918154916127c983612782565b808352926001811690811561281e57506001146127e557505050565b5f9081526020812093945091925b838310612804575060209250010190565b6001816020929493945483858701015201910191906127f3565b915050602093945060ff929192191683830152151560051b010190565b9091906001600160a01b0383168015612aa6575f838152600260205260409020546001600160a01b03169333151580612a16575b50841580156129e3575b825f52600360205260405f2060018154019055845f52600260205260405f20836001600160601b0360a01b8254161790558483877fddf252ad1be2c89b69c2b068fc378daa952ba7f163c4a11628f55a4df523b3ef5f80a41561296657600854845f52600960205260405f20556128ef846138dc565b818503612926575b50506001600160a01b031680830361290e57505050565b6364283d7b60e01b5f5260045260245260445260645ffd5b61292f90612f4f565b5f19810191908211611e7c575f52600660205260405f20815f526020528260405f2055825f52600760205260405f20555f806128f7565b8482146128ef5761297685612f4f565b845f52600760205260405f205490865f52600660205260405f20918181036129b8575b50855f5260076020525f60408120555f526020525f60408120556128ef565b815f528260205260405f2054815f52836020528060405f20555f52600760205260405f20555f612999565b5f85815260046020526040902080546001600160a01b0319169055855f52600360205260405f205f198154019055612879565b80612a55575b15612a27575f61286f565b8385612a3f57637e27328960e01b5f5260045260245ffd5b63177e802f60e01b5f523360045260245260445ffd5b503385148015612a84575b80612a1c57505f848152600460205260409020546001600160a01b03163314612a1c565b505f85815260056020908152604080832033845290915290205460ff16612a60565b633250574960e11b5f525f60045260245ffd5b60405190612ac682612618565b5f610180838281528260208201528260408201528260608201528260808201528260a0820152606060c0820152606060e082015260606101008201526060610120820152606061014082015260606101608201520152565b60405190612b2d602083612634565b5f80835282815b828110612b4057505050565b602090612b4b612ab9565b82828501015201612b34565b604051610ca09190612b698382612634565b6064815291601f1901825f5b828110612b8157505050565b602090612b8c612ab9565b82828501015201612b75565b90612ba2826126b4565b612baf6040519182612634565b8281528092612bc0601f19916126b4565b01905f5b828110612bd057505050565b602090612bdb612ab9565b82828501015201612bc4565b91908203918211611e7c57565b805115611fa45760200190565b8051821015611fa45760209160051b010190565b90612c1f82612f4f565b9081811015612c8957612c3a612c358284612be7565b612b98565b92815b838110612c4d5750505050905f90565b80612c82612c6684612c6160019582612c99565b613b88565b612c708684612be7565b90612c7b828a612c01565b5287612c01565b5001612c3d565b505050612c94612b1e565b905f90565b612ca281612f4f565b821015612cca5760018060a01b03165f52600660205260405f20905f5260205260405f205490565b63295f44f760e21b5f5260018060a01b031660045260245260445ffd5b601154811015611fa45760115f5260205f2001905f90565b8054821015611fa4575f5260205f2001905f90565b5f198114611e7c5760010190565b60ff1680612dcb57509060115480831015612dc0576064830190818411611e7c57808211612db8575b612d58612c358584612be7565b93805b838110612d73575050811015612d6e5790565b505f90565b80612db1612d95612d85600194612ce7565b90549060031b1c6118e281613b54565b612d9f8584612be7565b90612daa828b612c01565b5288612c01565b5001612d5b565b905080612d4b565b509050612c94612b1e565b612dd433612f4f565b9182811015612c8957612de5612b57565b935f915b84811080612ead575b15612e5f57612e018133612c99565b805f52600c6020528460ff60405f205460b81c1614612e2a575b50612e2590612d14565b612de9565b612e259193612e3d612e58923390613b88565b612e47828a612c01565b52612e528189612c01565b50612d14565b9290612e1b565b92509290612e6c81612b98565b945f5b828110612e8357505050811015612d6e5790565b80612e9060019284612c01565b51612e9b828a612c01565b52612ea68189612c01565b5001612e6f565b5060648310612df2565b9060ff612ed1602092959495604085526040850190612380565b9416910152565b60206040818301928281528451809452019201905f5b818110612efb5750505090565b8251845260209384019390920191600101612eee565b81518154602084015160409094015162ff000060109190911b1661ff0060089590951b9490941660ff90921662ffffff199091161717919091179055565b6001600160a01b03168015612f6d575f52600360205260405f205490565b6322718ad960e21b5f525f60045260245ffd5b81601f8201121561026257805190612f9782612655565b92612fa56040519485612634565b8284526020838301011161026257815f9260208093018386015e8301015290565b906020828203126102625781516001600160401b0381116102625761277f9201612f80565b9080601f83011215610262578151613002816126b4565b926130106040519485612634565b81845260208085019260051b82010192831161026257602001905b8282106130385750505090565b815181526020918201910161302b565b519060ff8216820361026257565b519061ffff8216820361026257565b60ff1680613074575060115490565b61307d33612f4f565b5f915f5b82811061308e5750505090565b6130988133612c99565b5f52600c6020528160ff60405f205460b81c16146130b9575b600101613081565b926130c5600191612d14565b9390506130b1565b92916130da81838661283b565b813b6130e7575b50505050565b604051630a85bd0160e11b81523360048201526001600160a01b0394851660248201526044810191909152608060648201529216919060209082908190613132906084830190612380565b03815f865af15f91816131c8575b5061319557503d1561318e573d61315681612655565b906131646040519283612634565b81523d5f602083013e5b805190816131895782633250574960e11b5f5260045260245ffd5b602001fd5b606061316e565b6001600160e01b03191663757a42ff60e11b016131b657505f8080806130e1565b633250574960e11b5f5260045260245ffd5b9091506020813d602011613205575b816131e460209383612634565b8101031261026257516001600160e01b03198116810361026257905f613140565b3d91506131d7565b90602082549182815201915f5260205f20905f5b81811061322e5750505090565b8254845260209093019260019283019201613221565b9061326c81835160208501205f52600d60205260ff60405f2091165f5260205260405f205490565b9182156118fc5750505f52600c602052610985613295600760405f20016040519283809261320d565b5f905b82518210156132f7575f925f5b82518110156132ed576132b88483612c01565b516132c38285612c01565b51146132d1576001016132a5565b5092509060015b156132e65760010190613298565b5050505f90565b50929190916132d8565b505050600190565b51906001600160a01b038216820361026257565b5f818152600260205260409020546060906001600160a01b0316156137b757815f52600c60205260405f2091835160208501209360409460076020875161335a8982612634565b828152016619185d18555c9b60ca1b8152208114801561378c575b15613393575050505061277f906109856005935180948193016127ba565b6003602087516133a38982612634565b8281520162191a5960ea1b81522081145f146133d2575050505061277f906109856002935180948193016127ba565b600f602087516133e28982612634565b828152016e199d5b99da589b19551bdad95b9259608a1b81522081145f1461341d575050505061277f906109856003935180948193016127ba565b600a6020875161342d8982612634565b828152016918dbdb9d1c9858dd125960b21b81522081145f14613463575050505061277f906109856004935180948193016127ba565b6008602087516134738982612634565b82815201670c8c2e8c290c2e6d60c31b81522081145f146134ad5750505050600161277f9101549180519260208401526020835282612634565b6011602087516134bd8982612634565b82815201706461746148617368416c676f726974686d60781b81522081145f1461350757505050505490519060ff60f81b9060381b1660208201526001815261277f602182612634565b600a602087516135178982612634565b8281520169696e746572666163657360b01b81522081145f1461355b57505050505490519061ffff60f01b9060501b1660208201526002815261277f602282612634565b60066020875161356b8982612634565b828152016573746174757360d01b81522081145f146135ac57505091548351931b6001600160f81b031916602084015250506001815261277f602182612634565b600c602087516135bc8982612634565b828152016b3b32b939b4b7b726b0b537b960a11b81522081145f1461360157505050505490519060ff60f81b9060481b1660208201526001815261277f602182612634565b6006602087516136118982612634565b828152016536b4b73a32b960d11b81522081145f146136545750505050549051906001600160601b03199060601b1660208201526014815261277f603482612634565b600b602087516136648982612634565b828152016a747261697448617368657360a81b81522081145f146136b25750505050816136a461277f92600794519485936020808601528401910161320d565b03601f198101835282612634565b5f94939450600e602087516136c78982612634565b828152016d76657273696f6e486973746f727960901b815220145f14613763575050600601918051928184928301906020808501528254809252848401925f5260205f20945f915b83831061372d575050505061277f925003601f198101835282612634565b865460ff8181168752600882901c8116602088015260109190911c1685820152600196870196889650948201949092019161370f565b9061088085928351938493631a06112960e11b8552600485015260248401526044830190612380565b5060086020875161379d8982612634565b82815201676167656e7455524960c01b8152208114613375565b5063a42088b560e01b5f5260045260245ffd5b6011549182811015612c89576137de612b57565b935f915b84811080613894575b15613846576137f981612ce7565b90549060031b1c805f52600c60205261ffff8560405f205460a01c161661382a575b5061382590612d14565b6137e2565b6138259193612e3d826118e261383f94613b54565b929061381b565b9250929061385381612b98565b945f5b82811061386a57505050811015612d6e5790565b8061387760019284612c01565b51613882828a612c01565b5261388d8189612c01565b5001613856565b50606483106137eb565b601154600160401b8110156105ad576138c28160016138d893016011556011612cff565b819391549060031b91821b915f19901b19161790565b9055565b600854600160401b8110156105ad576138c28160016138d893016008556008612cff565b91909160208151910120805f52600d60205260405f2060ff84165f5260205260405f205492835f52600c60205260ff60405f205460b81c1660ff841693848214613aa3575f868152600c60205260409020805460ff60b81b191660b89290921b60ff60b81b16919091179055158080613a9a575b15613a425750835f52601260205260405f20546011545f198101908111611e7c5761399e90612ce7565b90549060031b1c806139b26138c284612ce7565b90555f52601260205260405f2055601154908115613a2e5760ff6040917f7c6860c4abb223f1d0f6b5a1b79fdac9cb6ea8b538f0260940bcd10af7856e7d935f19016139ff816011612cff565b8154905f199060031b1b19169055601155865f5260126020525f838120555b82519586524260208701521693a4565b634e487b7160e01b5f52603160045260245ffd5b60ff7f7c6860c4abb223f1d0f6b5a1b79fdac9cb6ea8b538f0260940bcd10af7856e7d926040921580613a92575b15613a1e57601154875f526012602052835f2055613a8d8761389e565b613a1e565b508515613a70565b50831515613974565b505050505050565b90613ad381835160208501205f52600d60205260ff60405f2091165f5260205260405f205490565b9182156118fc5750505f52600c602052610985613afc600760405f20016040519283809261320d565b5f5b82518110156132e6575f5b8251811015613b3e57613b1c8285612c01565b51613b278285612c01565b5114613b3557600101613b09565b50505050600190565b50600101613afe565b5190811515820361026257565b5f818152600260205260409020546001600160a01b0316908115613b76575090565b637e27328960e01b5f5260045260245ffd5b613b90612ab9565b505f52600c60205260405f20908154916001810154600682019060ff60405195613bb987612618565b60018060a01b038116875261ffff8160a01c166020880152818160b01c166040880152818160b81c16606088015260c01c16608086015260a0850152604051613c098161098581600287016127ba565b60c0850152604051613c228161098581600387016127ba565b60e0850152604051613c3b8161098581600487016127ba565b610100850152604051613c558161098581600587016127ba565b6101208501528054613c66816126b4565b91613c746040519384612634565b81835260208301905f5260205f205f915b838310613cc55750505050600791613cad91610140860152610985604051809481930161320d565b6101608301526001600160a01b031661018082015290565b600160208192604051613cd7816125fd565b60ff86548181168352818160081c168584015260101c166040820152815201920192019190613c85565b6002600b5414613d12576002600b55565b633ee5aeb560e01b5f5260045ffd5b5160148111613d2d5750565b63582dc9af60e11b5f5260045260245ffd5b949091959392938351613df2575b50506015546001600160a01b03169182613d6957505050505050565b823b15610262575f94613dc9613da593879360ff8098816040519c8d9b8c9a8b996330f1201960e01b8b5260a060048c015260a48b0190612380565b96166024890152166044870152166064850152838203600319016084850152612380565b03925af180156105c157613de2575b8080808080613aa3565b5f613dec91612634565b5f613dd8565b60ff1680613e1f5750825160208401205b808214613d4d57636f205f0f60e11b5f5260045260245260445ffd5b60018103613e4e575060205f60405180865180858901835e8101838152039060025afa156105c1575f51613e03565b624c220360e01b5f5260045260245ffd5b600a546001600160a01b03163303613e7357565b63118cdaa760e01b5f523360045260245ffd5b9a9998959693929a97949761010052610200526101205260e052610140526101c05261016052610100515115614f1557610100515160808111614f03575061ffff610200511615614ef457610120515115614ee55761012051516101008111614ed3575081516101008111614ec1575080516101008111614eaf5750613f0b83613d21565b6101005180516020909101206101a0526016546001600160a01b031680614df9575b5060ff60185460a01c1680614de5575b614d24575b6101a0515f52600d60205260405f2060ff61014051165f5260205260405f2054614d02576101a0515f52600e602052610985613f8760405f20604051928380926127ba565b805115614bb757602081519101208251602084012003614b62576101a0515f52600f60205260ff60405f20541660ff610140511611614b3e575b613fcc601954612d14565b6101e0526101e0516019553315612aa6576101e0515f908152600260205260409020546001600160a01b03168015908115614b02575b335f818152600360209081526040808320805460010190556101e0518084526002909252822080546001600160a01b03191684179055919083907fddf252ad1be2c89b69c2b068fc378daa952ba7f163c4a11628f55a4df523b3ef9080a48115614a7f576008546101e0515f52600960205260405f20556140856101e0516138dc565b338103614a3b575b5015614a28576040610180819052805191906140a99083612634565b600182525f5b61018051601f190181106149fb575061018051516140cc816125fd565b60ff6101405116815260ff6101c05116602082015260ff6101605116610180518201526140f883612bf4565b5261410282612bf4565b506101805151906101808201938285106001600160401b038611176105ad57859461018051523383526020830160c05261ffff610200511660c0515261018051830160ff610140511681528861426660ff606087015f81526142448260808a01928160e05116845260a08b0196875260c08b019761010051895260e08c01998a526101008c019a8b526101208c019b610120518d5261014081019d8e5261016081019e8f526101e0515f52600c602052610180515f2060a05260018060a01b039060018060a01b03905116166001600160601b0360a01b60a05154161760a0515561420e61ffff60c051511660a0519081549061ffff60a01b9060a01b169061ffff60a01b1916179055565b5160a0518054925160ff60b81b90851660b81b1691841660b090811b94901b199092169290921760ff60b81b1916919091179055565b5160a051805460ff60c01b19169290911660c01b60ff60c01b16919091179055565b51600160a0510155600260a0510190518051906001600160401b0382116105ad5781906142938454612782565b601f81116149ab575b50602090601f8311600114614948575f9261493d575b50508160011b915f199060031b1c19161790555b600360a0510190518051906001600160401b0382116105ad5781906142eb8454612782565b601f81116148ed575b50602090601f831160011461488a575f9261487f575b50508160011b915f199060031b1c19161790555b600460a0510190518051906001600160401b0382116105ad5781906143438454612782565b601f811161482f575b50602090601f83116001146147cc575f926147c1575b50508160011b915f199060031b1c19161790555b600560a0510190518051906001600160401b0382116105ad57819061439b8454612782565b601f8111614771575b50602090601f831160011461470e575f92614703575b50508160011b915f199060031b1c19161790555b600660a05101905190815191600160401b83116105ad5781548383558084106146dd575b50602001905f5260205f205f915b8383106146c05750505050518051906001600160401b0382116105ad57600160401b82116105ad5760a051600701805490839055808310614695575b50602001600760a051015f5260205f206080525f5b82811061467f575050506101a0515f52600d602052610180515f2060ff61014051165f52602052610180515f206101e05190556011546101e0515f526012602052610180515f20556144a56101e05161389e565b6101a0515f526013602052610180515f205415614654575b8051614609575b5080516145e5575b5050610180515160a081526144e760a0820161012051612380565b9060ff6101405116602082015261ffff6102005116610180518201524360608201524260808201526101a051917f929d4bc5290f296d002ad3aada73fb70d45a263ebd0ccea61435ba2f6619fff53392806101e051930390a460ff6101405116158015906145d6575b80156145c7575b614563575b6101e05190565b61018051516101e0519060ff6101405116907f8ab6771ee4cb5523129ea5bd846d7f7d4103bbf1a2cebe9dca96f04dfbd222ed6101a05191806145bf610160516101c0518390929160ff60209181604085019616845216910152565b0390a461455c565b5060ff61016051161515614557565b5060ff6101c051161515614550565b6146029160e05191610160516101c0516101405161010051613d3f565b5f806144cc565b61018051516101e051917f536e40ba7e2dd8d050f26bde7e64327c5e2375c23eb08a756d093181e683b5f660ff6101405116928061464b6101a0519482612ed8565b0390a45f6144c4565b6101a0515f52601360205243610180515f20556101a0515f52601460205242610180515f20556144bd565b6001906020835193019281608051015501614451565b600760a051015f528260205f2091820191015b8181106146b5575061443c565b5f81556001016146a8565b60016020826146d183945186612f11565b01920192019190614400565b825f528360205f2091820191015b8181106146f857506143f2565b5f81556001016146eb565b015190505f806143ba565b5f8581528281209350601f198516905b8181106147595750908460019594939210614741575b505050811b0190556143ce565b01515f1960f88460031b161c191690555f8080614734565b9293602060018192878601518155019501930161471e565b909150835f5260205f20601f840160051c810191602085106147b7575b90601f859493920160051c01905b8181106147a957506143a4565b5f815584935060010161479c565b909150819061478e565b015190505f80614362565b5f8581528281209350601f198516905b81811061481757509084600195949392106147ff575b505050811b019055614376565b01515f1960f88460031b161c191690555f80806147f2565b929360206001819287860151815501950193016147dc565b909150835f5260205f20601f840160051c81019160208510614875575b90601f859493920160051c01905b818110614867575061434c565b5f815584935060010161485a565b909150819061484c565b015190505f8061430a565b5f8581528281209350601f198516905b8181106148d557509084600195949392106148bd575b505050811b01905561431e565b01515f1960f88460031b161c191690555f80806148b0565b9293602060018192878601518155019501930161489a565b909150835f5260205f20601f840160051c81019160208510614933575b90601f859493920160051c01905b81811061492557506142f4565b5f8155849350600101614918565b909150819061490a565b015190505f806142b2565b5f8581528281209350601f198516905b818110614993575090846001959493921061497b575b505050811b0190556142c6565b01515f1960f88460031b161c191690555f808061496e565b92936020600181928786015181550195019301614958565b909150835f5260205f20601f840160051c810191602085106149f1575b90601f859493920160051c01905b8181106149e3575061429c565b5f81558493506001016149d6565b90915081906149c8565b6020906101805151614a0c816125fd565b5f81525f838201525f61018051820152828286010152016140af565b6339e3563760e11b5f525f60045260245ffd5b614a4433612f4f565b5f198101908111611e7c57335f52600660205260405f20815f526020526101e05160405f20556101e0515f52600760205260405f205561408d565b33811461408557614a8f81612f4f565b6101e0515f52600760205260405f205490825f52600660205260405f2091818103614ad7575b506101e0515f5260076020525f60408120555f526020525f6040812055614085565b815f528260205260405f2054815f52836020528060405f20555f52600760205260405f20555f614ab5565b614b266101e0515f52600460205260405f206001600160601b0360a01b8154169055565b805f52600360205260405f205f198154019055614002565b6101a0515f52600f60205260405f2060ff610140511660ff19825416179055613fc1565b60405163192ce30b60e31b815260206004820152602660248201527f46756e6769626c6520746f6b656e206368616e6765207265717569726573206e604482015265195dc811125160d21b6064820152608490fd5b506101a0515f52600e60205260405f2082516001600160401b0381116105ad57614be18254612782565b601f8111614cbd575b50806020601f8211600114614c5c575f91614c51575b508160011b915f199060031b1c19161790555b6101a0515f52600f60205260405f2060ff610140511660ff198254161790556101a0515f52601060205260405f20600160ff19825416179055613fc1565b90508401515f614c00565b5f8481528181209250601f198416905b818110614ca557509083600194939210614c8d575b5050811b019055614c13565b8601515f1960f88460031b161c191690555f80614c81565b9192602060018192868b015181550194019201614c6c565b825f5260205f20601f830160051c81019160208410614cf8575b601f0160051c01905b818110614ced5750614bea565b5f8155600101614ce0565b9091508190614cd7565b604051631afb365160e01b815280610880610140516101005160048401612eb7565b6017546040516304b1396b60e11b81526101a05160048201526024810187905290602090829060449082906001600160a01b03165afa9081156105c1575f91614dab575b50613f425760405162461bcd60e51b81526020600482015260166024820152751110551057d21054d217d393d517d055151154d5115160521b6044820152606490fd5b90506020813d602011614ddd575b81614dc660209383612634565b8101031261026257614dd790613b47565b5f614d68565b3d9150614db9565b506017546001600160a01b03161515613f3d565b6020602491604051928380926327cc573960e01b82526101a05160048301525afa9081156105c1575f91614e75575b50336001600160a01b0390911603614e40575f613f2d565b60405162461bcd60e51b815260206004820152600d60248201526c2727aa2fa224a22fa7aba722a960991b6044820152606490fd5b90506020813d602011614ea7575b81614e9060209383612634565b8101031261026257614ea1906132ff565b5f614e28565b3d9150614e83565b634f7f300b60e01b5f5260045260245ffd5b63e422361760e01b5f5260045260245ffd5b6371a40f7160e01b5f5260045260245ffd5b63df9e8a8160e01b5f5260045ffd5b631464e25760e31b5f5260045ffd5b63977af6c760e01b5f5260045260245ffd5b63ccdf6bd560e01b5f5260045ffdfea26469706673582212206d131a079429afa58c4edfa056d53c39e427cf9eba11bfea7486070d46675f2764736f6c634300081c0033",
  "linkReferences": {},
  "deployedLinkReferences": {}
}