{
  "_format": "hh-sol-artifact-1",
  "contractName": "OMA3AppRegistry",
  "sourceName": "contracts/OMA3AppRegistry.sol",
  "abi": [
    {
      "inputs": [],
      "stateMutability": "nonpayable",
      "type": "constructor"
    },
    {
      "inputs": [
        {
          "internalType": "string",
          "name": "did",
          "type": "string"
        },
        {
          "internalType": "uint8",
          "name": "major",
          "type": "uint8"
        }
      ],
      "name": "AppNotFound",
      "type": "error"
    },
    {
      "inputs": [
        {
          "internalType": "uint256",
          "name": "length",
          "type": "uint256"
        }
      ],
      "name": "ContractIdTooLong",
      "type": "error"
    },
    {
      "inputs": [],
      "name": "DIDCannotBeEmpty",
      "type": "error"
    },
    {
      "inputs": [
        {
          "internalType": "bytes32",
          "name": "didHash",
          "type": "bytes32"
        }
      ],
      "name": "DIDHashNotFound",
      "type": "error"
    },
    {
      "inputs": [
        {
          "internalType": "string",
          "name": "did",
          "type": "string"
        },
        {
          "internalType": "uint8",
          "name": "major",
          "type": "uint8"
        }
      ],
      "name": "DIDMajorAlreadyExists",
      "type": "error"
    },
    {
      "inputs": [
        {
          "internalType": "uint256",
          "name": "length",
          "type": "uint256"
        }
      ],
      "name": "DIDTooLong",
      "type": "error"
    },
    {
      "inputs": [
        {
          "internalType": "bytes32",
          "name": "computed",
          "type": "bytes32"
        },
        {
          "internalType": "bytes32",
          "name": "provided",
          "type": "bytes32"
        }
      ],
      "name": "DataHashMismatch",
      "type": "error"
    },
    {
      "inputs": [],
      "name": "DataHashRequiredForTraitChange",
      "type": "error"
    },
    {
      "inputs": [],
      "name": "DataUrlCannotBeEmpty",
      "type": "error"
    },
    {
      "inputs": [
        {
          "internalType": "uint256",
          "name": "length",
          "type": "uint256"
        }
      ],
      "name": "DataUrlTooLong",
      "type": "error"
    },
    {
      "inputs": [],
      "name": "ERC721EnumerableForbiddenBatchMint",
      "type": "error"
    },
    {
      "inputs": [
        {
          "internalType": "address",
          "name": "sender",
          "type": "address"
        },
        {
          "internalType": "uint256",
          "name": "tokenId",
          "type": "uint256"
        },
        {
          "internalType": "address",
          "name": "owner",
          "type": "address"
        }
      ],
      "name": "ERC721IncorrectOwner",
      "type": "error"
    },
    {
      "inputs": [
        {
          "internalType": "address",
          "name": "operator",
          "type": "address"
        },
        {
          "internalType": "uint256",
          "name": "tokenId",
          "type": "uint256"
        }
      ],
      "name": "ERC721InsufficientApproval",
      "type": "error"
    },
    {
      "inputs": [
        {
          "internalType": "address",
          "name": "approver",
          "type": "address"
        }
      ],
      "name": "ERC721InvalidApprover",
      "type": "error"
    },
    {
      "inputs": [
        {
          "internalType": "address",
          "name": "operator",
          "type": "address"
        }
      ],
      "name": "ERC721InvalidOperator",
      "type": "error"
    },
    {
      "inputs": [
        {
          "internalType": "address",
          "name": "owner",
          "type": "address"
        }
      ],
      "name": "ERC721InvalidOwner",
      "type": "error"
    },
    {
      "inputs": [
        {
          "internalType": "address",
          "name": "receiver",
          "type": "address"
        }
      ],
      "name": "ERC721InvalidReceiver",
      "type": "error"
    },
    {
      "inputs": [
        {
          "internalType": "address",
          "name": "sender",
          "type": "address"
        }
      ],
      "name": "ERC721InvalidSender",
      "type": "error"
    },
    {
      "inputs": [
        {
          "internalType": "uint256",
          "name": "tokenId",
          "type": "uint256"
        }
      ],
      "name": "ERC721NonexistentToken",
      "type": "error"
    },
    {
      "inputs": [
        {
          "internalType": "address",
          "name": "owner",
          "type": "address"
        },
        {
          "internalType": "uint256",
          "name": "index",
          "type": "uint256"
        }
      ],
      "name": "ERC721OutOfBoundsIndex",
      "type": "error"
    },
    {
      "inputs": [
        {
          "internalType": "uint256",
          "name": "length",
          "type": "uint256"
        }
      ],
      "name": "FungibleTokenIdTooLong",
      "type": "error"
    },
    {
      "inputs": [
        {
          "internalType": "uint16",
          "name": "current",
          "type": "uint16"
        },
        {
          "internalType": "uint16",
          "name": "attempted",
          "type": "uint16"
        }
      ],
      "name": "InterfaceRemovalNotAllowed",
      "type": "error"
    },
    {
      "inputs": [],
      "name": "InterfacesCannotBeEmpty",
      "type": "error"
    },
    {
      "inputs": [
        {
          "internalType": "uint8",
          "name": "algorithm",
          "type": "uint8"
        }
      ],
      "name": "InvalidDataHashAlgorithm",
      "type": "error"
    },
    {
      "inputs": [
        {
          "internalType": "uint8",
          "name": "major",
          "type": "uint8"
        },
        {
          "internalType": "uint8",
          "name": "minor",
          "type": "uint8"
        },
        {
          "internalType": "uint8",
          "name": "patch",
          "type": "uint8"
        }
      ],
      "name": "InvalidVersion",
      "type": "error"
    },
    {
      "inputs": [
        {
          "internalType": "string",
          "name": "did",
          "type": "string"
        },
        {
          "internalType": "uint8",
          "name": "currentMajor",
          "type": "uint8"
        },
        {
          "internalType": "uint8",
          "name": "attemptedMajor",
          "type": "uint8"
        }
      ],
      "name": "MajorVersionChangeRequiresNewMint",
      "type": "error"
    },
    {
      "inputs": [
        {
          "internalType": "uint8",
          "name": "currentMinor",
          "type": "uint8"
        },
        {
          "internalType": "uint8",
          "name": "attemptedMinor",
          "type": "uint8"
        }
      ],
      "name": "MinorIncrementRequired",
      "type": "error"
    },
    {
      "inputs": [
        {
          "internalType": "string",
          "name": "reason",
          "type": "string"
        }
      ],
      "name": "NewDIDRequired",
      "type": "error"
    },
    {
      "inputs": [],
      "name": "NoChangesSpecified",
      "type": "error"
    },
    {
      "inputs": [
        {
          "internalType": "string",
          "name": "did",
          "type": "string"
        },
        {
          "internalType": "uint8",
          "name": "major",
          "type": "uint8"
        }
      ],
      "name": "NotAppOwner",
      "type": "error"
    },
    {
      "inputs": [
        {
          "internalType": "address",
          "name": "owner",
          "type": "address"
        }
      ],
      "name": "OwnableInvalidOwner",
      "type": "error"
    },
    {
      "inputs": [
        {
          "internalType": "address",
          "name": "account",
          "type": "address"
        }
      ],
      "name": "OwnableUnauthorizedAccount",
      "type": "error"
    },
    {
      "inputs": [
        {
          "internalType": "uint8",
          "name": "currentPatch",
          "type": "uint8"
        },
        {
          "internalType": "uint8",
          "name": "attemptedPatch",
          "type": "uint8"
        }
      ],
      "name": "PatchIncrementRequired",
      "type": "error"
    },
    {
      "inputs": [],
      "name": "ReentrancyGuardReentrantCall",
      "type": "error"
    },
    {
      "inputs": [
        {
          "internalType": "uint256",
          "name": "count",
          "type": "uint256"
        }
      ],
      "name": "TooManyTraits",
      "type": "error"
    },
    {
      "anonymous": false,
      "inputs": [
        {
          "indexed": true,
          "internalType": "address",
          "name": "owner",
          "type": "address"
        },
        {
          "indexed": true,
          "internalType": "address",
          "name": "approved",
          "type": "address"
        },
        {
          "indexed": true,
          "internalType": "uint256",
          "name": "tokenId",
          "type": "uint256"
        }
      ],
      "name": "Approval",
      "type": "event"
    },
    {
      "anonymous": false,
      "inputs": [
        {
          "indexed": true,
          "internalType": "address",
          "name": "owner",
          "type": "address"
        },
        {
          "indexed": true,
          "internalType": "address",
          "name": "operator",
          "type": "address"
        },
        {
          "indexed": false,
          "internalType": "bool",
          "name": "approved",
          "type": "bool"
        }
      ],
      "name": "ApprovalForAll",
      "type": "event"
    },
    {
      "anonymous": false,
      "inputs": [
        {
          "indexed": true,
          "internalType": "bytes32",
          "name": "didHash",
          "type": "bytes32"
        },
        {
          "indexed": true,
          "internalType": "uint8",
          "name": "major",
          "type": "uint8"
        },
        {
          "indexed": true,
          "internalType": "uint256",
          "name": "tokenId",
          "type": "uint256"
        },
        {
          "indexed": false,
          "internalType": "string",
          "name": "newDataUrl",
          "type": "string"
        },
        {
          "indexed": false,
          "internalType": "bytes32",
          "name": "newDataHash",
          "type": "bytes32"
        },
        {
          "indexed": false,
          "internalType": "uint8",
          "name": "dataHashAlgorithm",
          "type": "uint8"
        }
      ],
      "name": "DataUrlUpdated",
      "type": "event"
    },
    {
      "anonymous": false,
      "inputs": [
        {
          "indexed": true,
          "internalType": "bytes32",
          "name": "didHash",
          "type": "bytes32"
        },
        {
          "indexed": true,
          "internalType": "uint8",
          "name": "major",
          "type": "uint8"
        },
        {
          "indexed": true,
          "internalType": "uint256",
          "name": "tokenId",
          "type": "uint256"
        },
        {
          "indexed": false,
          "internalType": "uint16",
          "name": "newInterfaces",
          "type": "uint16"
        }
      ],
      "name": "InterfacesUpdated",
      "type": "event"
    },
    {
      "anonymous": false,
      "inputs": [
        {
          "indexed": true,
          "internalType": "address",
          "name": "previousOwner",
          "type": "address"
        },
        {
          "indexed": true,
          "internalType": "address",
          "name": "newOwner",
          "type": "address"
        }
      ],
      "name": "OwnershipTransferred",
      "type": "event"
    },
    {
      "anonymous": false,
      "inputs": [
        {
          "indexed": true,
          "internalType": "uint256",
          "name": "tokenId",
          "type": "uint256"
        },
        {
          "indexed": false,
          "internalType": "string",
          "name": "dataUrl",
          "type": "string"
        },
        {
          "indexed": true,
          "internalType": "address",
          "name": "registerer",
          "type": "address"
        },
        {
          "indexed": true,
          "internalType": "bytes32",
          "name": "didHash",
          "type": "bytes32"
        },
        {
          "indexed": false,
          "internalType": "uint8",
          "name": "versionMajor",
          "type": "uint8"
        },
        {
          "indexed": false,
          "internalType": "uint16",
          "name": "interfaces",
          "type": "uint16"
        },
        {
          "indexed": false,
          "internalType": "uint256",
          "name": "registrationBlock",
          "type": "uint256"
        },
        {
          "indexed": false,
          "internalType": "uint256",
          "name": "registrationTimestamp",
          "type": "uint256"
        }
      ],
      "name": "Registered",
      "type": "event"
    },
    {
      "anonymous": false,
      "inputs": [
        {
          "indexed": true,
          "internalType": "bytes32",
          "name": "didHash",
          "type": "bytes32"
        },
        {
          "indexed": true,
          "internalType": "uint8",
          "name": "major",
          "type": "uint8"
        },
        {
          "indexed": true,
          "internalType": "uint256",
          "name": "tokenId",
          "type": "uint256"
        },
        {
          "indexed": false,
          "internalType": "uint8",
          "name": "newStatus",
          "type": "uint8"
        },
        {
          "indexed": false,
          "internalType": "uint256",
          "name": "timestamp",
          "type": "uint256"
        }
      ],
      "name": "StatusUpdated",
      "type": "event"
    },
    {
      "anonymous": false,
      "inputs": [
        {
          "indexed": true,
          "internalType": "bytes32",
          "name": "didHash",
          "type": "bytes32"
        },
        {
          "indexed": true,
          "internalType": "uint8",
          "name": "major",
          "type": "uint8"
        },
        {
          "indexed": true,
          "internalType": "uint256",
          "name": "tokenId",
          "type": "uint256"
        },
        {
          "indexed": false,
          "internalType": "bytes32[]",
          "name": "newTraitHashes",
          "type": "bytes32[]"
        }
      ],
      "name": "TraitsUpdated",
      "type": "event"
    },
    {
      "anonymous": false,
      "inputs": [
        {
          "indexed": true,
          "internalType": "address",
          "name": "from",
          "type": "address"
        },
        {
          "indexed": true,
          "internalType": "address",
          "name": "to",
          "type": "address"
        },
        {
          "indexed": true,
          "internalType": "uint256",
          "name": "tokenId",
          "type": "uint256"
        }
      ],
      "name": "Transfer",
      "type": "event"
    },
    {
      "anonymous": false,
      "inputs": [
        {
          "indexed": true,
          "internalType": "bytes32",
          "name": "didHash",
          "type": "bytes32"
        },
        {
          "indexed": true,
          "internalType": "uint8",
          "name": "major",
          "type": "uint8"
        },
        {
          "indexed": true,
          "internalType": "uint256",
          "name": "tokenId",
          "type": "uint256"
        },
        {
          "indexed": false,
          "internalType": "uint8",
          "name": "minor",
          "type": "uint8"
        },
        {
          "indexed": false,
          "internalType": "uint8",
          "name": "patch",
          "type": "uint8"
        }
      ],
      "name": "VersionAdded",
      "type": "event"
    },
    {
      "inputs": [
        {
          "internalType": "address",
          "name": "to",
          "type": "address"
        },
        {
          "internalType": "uint256",
          "name": "tokenId",
          "type": "uint256"
        }
      ],
      "name": "approve",
      "outputs": [],
      "stateMutability": "nonpayable",
      "type": "function"
    },
    {
      "inputs": [
        {
          "internalType": "address",
          "name": "owner",
          "type": "address"
        }
      ],
      "name": "balanceOf",
      "outputs": [
        {
          "internalType": "uint256",
          "name": "",
          "type": "uint256"
        }
      ],
      "stateMutability": "view",
      "type": "function"
    },
    {
      "inputs": [],
      "name": "dataUrlResolver",
      "outputs": [
        {
          "internalType": "contract IOMA3DataUrlResolver",
          "name": "",
          "type": "address"
        }
      ],
      "stateMutability": "view",
      "type": "function"
    },
    {
      "inputs": [
        {
          "internalType": "string",
          "name": "didString",
          "type": "string"
        },
        {
          "internalType": "uint8",
          "name": "major",
          "type": "uint8"
        }
      ],
      "name": "getApp",
      "outputs": [
        {
          "components": [
            {
              "internalType": "address",
              "name": "minter",
              "type": "address"
            },
            {
              "internalType": "uint16",
              "name": "interfaces",
              "type": "uint16"
            },
            {
              "internalType": "uint8",
              "name": "versionMajor",
              "type": "uint8"
            },
            {
              "internalType": "uint8",
              "name": "status",
              "type": "uint8"
            },
            {
              "internalType": "uint8",
              "name": "dataHashAlgorithm",
              "type": "uint8"
            },
            {
              "internalType": "bytes32",
              "name": "dataHash",
              "type": "bytes32"
            },
            {
              "internalType": "string",
              "name": "did",
              "type": "string"
            },
            {
              "internalType": "string",
              "name": "fungibleTokenId",
              "type": "string"
            },
            {
              "internalType": "string",
              "name": "contractId",
              "type": "string"
            },
            {
              "internalType": "string",
              "name": "dataUrl",
              "type": "string"
            },
            {
              "components": [
                {
                  "internalType": "uint8",
                  "name": "major",
                  "type": "uint8"
                },
                {
                  "internalType": "uint8",
                  "name": "minor",
                  "type": "uint8"
                },
                {
                  "internalType": "uint8",
                  "name": "patch",
                  "type": "uint8"
                }
              ],
              "internalType": "struct OMA3AppRegistry.Version[]",
              "name": "versionHistory",
              "type": "tuple[]"
            },
            {
              "internalType": "bytes32[]",
              "name": "traitHashes",
              "type": "bytes32[]"
            }
          ],
          "internalType": "struct OMA3AppRegistry.App",
          "name": "",
          "type": "tuple"
        }
      ],
      "stateMutability": "view",
      "type": "function"
    },
    {
      "inputs": [
        {
          "internalType": "uint256",
          "name": "tokenId",
          "type": "uint256"
        }
      ],
      "name": "getApproved",
      "outputs": [
        {
          "internalType": "address",
          "name": "",
          "type": "address"
        }
      ],
      "stateMutability": "view",
      "type": "function"
    },
    {
      "inputs": [
        {
          "internalType": "uint256",
          "name": "startIndex",
          "type": "uint256"
        }
      ],
      "name": "getApps",
      "outputs": [
        {
          "components": [
            {
              "internalType": "address",
              "name": "minter",
              "type": "address"
            },
            {
              "internalType": "uint16",
              "name": "interfaces",
              "type": "uint16"
            },
            {
              "internalType": "uint8",
              "name": "versionMajor",
              "type": "uint8"
            },
            {
              "internalType": "uint8",
              "name": "status",
              "type": "uint8"
            },
            {
              "internalType": "uint8",
              "name": "dataHashAlgorithm",
              "type": "uint8"
            },
            {
              "internalType": "bytes32",
              "name": "dataHash",
              "type": "bytes32"
            },
            {
              "internalType": "string",
              "name": "did",
              "type": "string"
            },
            {
              "internalType": "string",
              "name": "fungibleTokenId",
              "type": "string"
            },
            {
              "internalType": "string",
              "name": "contractId",
              "type": "string"
            },
            {
              "internalType": "string",
              "name": "dataUrl",
              "type": "string"
            },
            {
              "components": [
                {
                  "internalType": "uint8",
                  "name": "major",
                  "type": "uint8"
                },
                {
                  "internalType": "uint8",
                  "name": "minor",
                  "type": "uint8"
                },
                {
                  "internalType": "uint8",
                  "name": "patch",
                  "type": "uint8"
                }
              ],
              "internalType": "struct OMA3AppRegistry.Version[]",
              "name": "versionHistory",
              "type": "tuple[]"
            },
            {
              "internalType": "bytes32[]",
              "name": "traitHashes",
              "type": "bytes32[]"
            }
          ],
          "internalType": "struct OMA3AppRegistry.App[]",
          "name": "apps",
          "type": "tuple[]"
        },
        {
          "internalType": "uint256",
          "name": "nextStartIndex",
          "type": "uint256"
        }
      ],
      "stateMutability": "view",
      "type": "function"
    },
    {
      "inputs": [
        {
          "internalType": "uint16",
          "name": "interfaceMask",
          "type": "uint16"
        },
        {
          "internalType": "uint256",
          "name": "startIndex",
          "type": "uint256"
        }
      ],
      "name": "getAppsByInterface",
      "outputs": [
        {
          "components": [
            {
              "internalType": "address",
              "name": "minter",
              "type": "address"
            },
            {
              "internalType": "uint16",
              "name": "interfaces",
              "type": "uint16"
            },
            {
              "internalType": "uint8",
              "name": "versionMajor",
              "type": "uint8"
            },
            {
              "internalType": "uint8",
              "name": "status",
              "type": "uint8"
            },
            {
              "internalType": "uint8",
              "name": "dataHashAlgorithm",
              "type": "uint8"
            },
            {
              "internalType": "bytes32",
              "name": "dataHash",
              "type": "bytes32"
            },
            {
              "internalType": "string",
              "name": "did",
              "type": "string"
            },
            {
              "internalType": "string",
              "name": "fungibleTokenId",
              "type": "string"
            },
            {
              "internalType": "string",
              "name": "contractId",
              "type": "string"
            },
            {
              "internalType": "string",
              "name": "dataUrl",
              "type": "string"
            },
            {
              "components": [
                {
                  "internalType": "uint8",
                  "name": "major",
                  "type": "uint8"
                },
                {
                  "internalType": "uint8",
                  "name": "minor",
                  "type": "uint8"
                },
                {
                  "internalType": "uint8",
                  "name": "patch",
                  "type": "uint8"
                }
              ],
              "internalType": "struct OMA3AppRegistry.Version[]",
              "name": "versionHistory",
              "type": "tuple[]"
            },
            {
              "internalType": "bytes32[]",
              "name": "traitHashes",
              "type": "bytes32[]"
            }
          ],
          "internalType": "struct OMA3AppRegistry.App[]",
          "name": "apps",
          "type": "tuple[]"
        },
        {
          "internalType": "uint256",
          "name": "nextStartIndex",
          "type": "uint256"
        }
      ],
      "stateMutability": "view",
      "type": "function"
    },
    {
      "inputs": [
        {
          "internalType": "address",
          "name": "owner",
          "type": "address"
        },
        {
          "internalType": "uint256",
          "name": "startIndex",
          "type": "uint256"
        }
      ],
      "name": "getAppsByOwner",
      "outputs": [
        {
          "components": [
            {
              "internalType": "address",
              "name": "minter",
              "type": "address"
            },
            {
              "internalType": "uint16",
              "name": "interfaces",
              "type": "uint16"
            },
            {
              "internalType": "uint8",
              "name": "versionMajor",
              "type": "uint8"
            },
            {
              "internalType": "uint8",
              "name": "status",
              "type": "uint8"
            },
            {
              "internalType": "uint8",
              "name": "dataHashAlgorithm",
              "type": "uint8"
            },
            {
              "internalType": "bytes32",
              "name": "dataHash",
              "type": "bytes32"
            },
            {
              "internalType": "string",
              "name": "did",
              "type": "string"
            },
            {
              "internalType": "string",
              "name": "fungibleTokenId",
              "type": "string"
            },
            {
              "internalType": "string",
              "name": "contractId",
              "type": "string"
            },
            {
              "internalType": "string",
              "name": "dataUrl",
              "type": "string"
            },
            {
              "components": [
                {
                  "internalType": "uint8",
                  "name": "major",
                  "type": "uint8"
                },
                {
                  "internalType": "uint8",
                  "name": "minor",
                  "type": "uint8"
                },
                {
                  "internalType": "uint8",
                  "name": "patch",
                  "type": "uint8"
                }
              ],
              "internalType": "struct OMA3AppRegistry.Version[]",
              "name": "versionHistory",
              "type": "tuple[]"
            },
            {
              "internalType": "bytes32[]",
              "name": "traitHashes",
              "type": "bytes32[]"
            }
          ],
          "internalType": "struct OMA3AppRegistry.App[]",
          "name": "apps",
          "type": "tuple[]"
        },
        {
          "internalType": "uint256",
          "name": "nextStartIndex",
          "type": "uint256"
        }
      ],
      "stateMutability": "view",
      "type": "function"
    },
    {
      "inputs": [
        {
          "internalType": "uint8",
          "name": "status",
          "type": "uint8"
        },
        {
          "internalType": "uint256",
          "name": "startIndex",
          "type": "uint256"
        }
      ],
      "name": "getAppsByStatus",
      "outputs": [
        {
          "components": [
            {
              "internalType": "address",
              "name": "minter",
              "type": "address"
            },
            {
              "internalType": "uint16",
              "name": "interfaces",
              "type": "uint16"
            },
            {
              "internalType": "uint8",
              "name": "versionMajor",
              "type": "uint8"
            },
            {
              "internalType": "uint8",
              "name": "status",
              "type": "uint8"
            },
            {
              "internalType": "uint8",
              "name": "dataHashAlgorithm",
              "type": "uint8"
            },
            {
              "internalType": "bytes32",
              "name": "dataHash",
              "type": "bytes32"
            },
            {
              "internalType": "string",
              "name": "did",
              "type": "string"
            },
            {
              "internalType": "string",
              "name": "fungibleTokenId",
              "type": "string"
            },
            {
              "internalType": "string",
              "name": "contractId",
              "type": "string"
            },
            {
              "internalType": "string",
              "name": "dataUrl",
              "type": "string"
            },
            {
              "components": [
                {
                  "internalType": "uint8",
                  "name": "major",
                  "type": "uint8"
                },
                {
                  "internalType": "uint8",
                  "name": "minor",
                  "type": "uint8"
                },
                {
                  "internalType": "uint8",
                  "name": "patch",
                  "type": "uint8"
                }
              ],
              "internalType": "struct OMA3AppRegistry.Version[]",
              "name": "versionHistory",
              "type": "tuple[]"
            },
            {
              "internalType": "bytes32[]",
              "name": "traitHashes",
              "type": "bytes32[]"
            }
          ],
          "internalType": "struct OMA3AppRegistry.App[]",
          "name": "apps",
          "type": "tuple[]"
        },
        {
          "internalType": "uint256",
          "name": "nextStartIndex",
          "type": "uint256"
        }
      ],
      "stateMutability": "view",
      "type": "function"
    },
    {
      "inputs": [
        {
          "internalType": "uint256",
          "name": "tokenId",
          "type": "uint256"
        }
      ],
      "name": "getDIDByTokenId",
      "outputs": [
        {
          "internalType": "string",
          "name": "",
          "type": "string"
        }
      ],
      "stateMutability": "view",
      "type": "function"
    },
    {
      "inputs": [
        {
          "internalType": "string",
          "name": "didString",
          "type": "string"
        }
      ],
      "name": "getDidHash",
      "outputs": [
        {
          "internalType": "bytes32",
          "name": "",
          "type": "bytes32"
        }
      ],
      "stateMutability": "pure",
      "type": "function"
    },
    {
      "inputs": [
        {
          "internalType": "address",
          "name": "owner",
          "type": "address"
        }
      ],
      "name": "getTotalAppsByOwner",
      "outputs": [
        {
          "internalType": "uint256",
          "name": "",
          "type": "uint256"
        }
      ],
      "stateMutability": "view",
      "type": "function"
    },
    {
      "inputs": [
        {
          "internalType": "uint8",
          "name": "status",
          "type": "uint8"
        }
      ],
      "name": "getTotalAppsByStatus",
      "outputs": [
        {
          "internalType": "uint256",
          "name": "",
          "type": "uint256"
        }
      ],
      "stateMutability": "view",
      "type": "function"
    },
    {
      "inputs": [
        {
          "internalType": "string",
          "name": "didString",
          "type": "string"
        },
        {
          "internalType": "uint8",
          "name": "major",
          "type": "uint8"
        },
        {
          "internalType": "bytes32[]",
          "name": "traits",
          "type": "bytes32[]"
        }
      ],
      "name": "hasAllTraits",
      "outputs": [
        {
          "internalType": "bool",
          "name": "",
          "type": "bool"
        }
      ],
      "stateMutability": "view",
      "type": "function"
    },
    {
      "inputs": [
        {
          "internalType": "string",
          "name": "didString",
          "type": "string"
        },
        {
          "internalType": "uint8",
          "name": "major",
          "type": "uint8"
        },
        {
          "internalType": "bytes32[]",
          "name": "traits",
          "type": "bytes32[]"
        }
      ],
      "name": "hasAnyTraits",
      "outputs": [
        {
          "internalType": "bool",
          "name": "",
          "type": "bool"
        }
      ],
      "stateMutability": "view",
      "type": "function"
    },
    {
      "inputs": [
        {
          "internalType": "address",
          "name": "owner",
          "type": "address"
        },
        {
          "internalType": "address",
          "name": "operator",
          "type": "address"
        }
      ],
      "name": "isApprovedForAll",
      "outputs": [
        {
          "internalType": "bool",
          "name": "",
          "type": "bool"
        }
      ],
      "stateMutability": "view",
      "type": "function"
    },
    {
      "inputs": [
        {
          "internalType": "bytes32",
          "name": "didHash",
          "type": "bytes32"
        }
      ],
      "name": "latestMajor",
      "outputs": [
        {
          "internalType": "uint8",
          "name": "",
          "type": "uint8"
        }
      ],
      "stateMutability": "view",
      "type": "function"
    },
    {
      "inputs": [],
      "name": "metadataContract",
      "outputs": [
        {
          "internalType": "contract IOMA3AppMetadata",
          "name": "",
          "type": "address"
        }
      ],
      "stateMutability": "view",
      "type": "function"
    },
    {
      "inputs": [
        {
          "internalType": "string",
          "name": "didString",
          "type": "string"
        },
        {
          "internalType": "uint16",
          "name": "interfaces",
          "type": "uint16"
        },
        {
          "internalType": "string",
          "name": "dataUrl",
          "type": "string"
        },
        {
          "internalType": "bytes32",
          "name": "dataHash",
          "type": "bytes32"
        },
        {
          "internalType": "uint8",
          "name": "dataHashAlgorithm",
          "type": "uint8"
        },
        {
          "internalType": "string",
          "name": "fungibleTokenId",
          "type": "string"
        },
        {
          "internalType": "string",
          "name": "contractId",
          "type": "string"
        },
        {
          "internalType": "uint8",
          "name": "initialVersionMajor",
          "type": "uint8"
        },
        {
          "internalType": "uint8",
          "name": "initialVersionMinor",
          "type": "uint8"
        },
        {
          "internalType": "uint8",
          "name": "initialVersionPatch",
          "type": "uint8"
        },
        {
          "internalType": "bytes32[]",
          "name": "traitHashes",
          "type": "bytes32[]"
        },
        {
          "internalType": "string",
          "name": "metadataJson",
          "type": "string"
        }
      ],
      "name": "mint",
      "outputs": [
        {
          "internalType": "uint256",
          "name": "",
          "type": "uint256"
        }
      ],
      "stateMutability": "nonpayable",
      "type": "function"
    },
    {
      "inputs": [],
      "name": "name",
      "outputs": [
        {
          "internalType": "string",
          "name": "",
          "type": "string"
        }
      ],
      "stateMutability": "view",
      "type": "function"
    },
    {
      "inputs": [],
      "name": "owner",
      "outputs": [
        {
          "internalType": "address",
          "name": "",
          "type": "address"
        }
      ],
      "stateMutability": "view",
      "type": "function"
    },
    {
      "inputs": [
        {
          "internalType": "uint256",
          "name": "tokenId",
          "type": "uint256"
        }
      ],
      "name": "ownerOf",
      "outputs": [
        {
          "internalType": "address",
          "name": "",
          "type": "address"
        }
      ],
      "stateMutability": "view",
      "type": "function"
    },
    {
      "inputs": [],
      "name": "ownershipResolver",
      "outputs": [
        {
          "internalType": "contract IOMA3OwnershipResolver",
          "name": "",
          "type": "address"
        }
      ],
      "stateMutability": "view",
      "type": "function"
    },
    {
      "inputs": [
        {
          "internalType": "string",
          "name": "_tokenURI",
          "type": "string"
        },
        {
          "components": [
            {
              "internalType": "string",
              "name": "key",
              "type": "string"
            },
            {
              "internalType": "bytes",
              "name": "value",
              "type": "bytes"
            }
          ],
          "internalType": "struct OMA3AppRegistry.MetadataEntry[]",
          "name": "_metadata",
          "type": "tuple[]"
        }
      ],
      "name": "register",
      "outputs": [
        {
          "internalType": "uint256",
          "name": "",
          "type": "uint256"
        }
      ],
      "stateMutability": "nonpayable",
      "type": "function"
    },
    {
      "inputs": [
        {
          "internalType": "string",
          "name": "_tokenURI",
          "type": "string"
        }
      ],
      "name": "register",
      "outputs": [
        {
          "internalType": "uint256",
          "name": "",
          "type": "uint256"
        }
      ],
      "stateMutability": "nonpayable",
      "type": "function"
    },
    {
      "inputs": [
        {
          "internalType": "bytes32",
          "name": "",
          "type": "bytes32"
        }
      ],
      "name": "registrationBlock",
      "outputs": [
        {
          "internalType": "uint256",
          "name": "",
          "type": "uint256"
        }
      ],
      "stateMutability": "view",
      "type": "function"
    },
    {
      "inputs": [],
      "name": "registrationResolver",
      "outputs": [
        {
          "internalType": "contract IOMA3RegistrationResolver",
          "name": "",
          "type": "address"
        }
      ],
      "stateMutability": "view",
      "type": "function"
    },
    {
      "inputs": [
        {
          "internalType": "bytes32",
          "name": "",
          "type": "bytes32"
        }
      ],
      "name": "registrationTimestamp",
      "outputs": [
        {
          "internalType": "uint256",
          "name": "",
          "type": "uint256"
        }
      ],
      "stateMutability": "view",
      "type": "function"
    },
    {
      "inputs": [],
      "name": "renounceOwnership",
      "outputs": [],
      "stateMutability": "nonpayable",
      "type": "function"
    },
    {
      "inputs": [],
      "name": "requireDataUrlAttestation",
      "outputs": [
        {
          "internalType": "bool",
          "name": "",
          "type": "bool"
        }
      ],
      "stateMutability": "view",
      "type": "function"
    },
    {
      "inputs": [
        {
          "internalType": "address",
          "name": "from",
          "type": "address"
        },
        {
          "internalType": "address",
          "name": "to",
          "type": "address"
        },
        {
          "internalType": "uint256",
          "name": "tokenId",
          "type": "uint256"
        }
      ],
      "name": "safeTransferFrom",
      "outputs": [],
      "stateMutability": "nonpayable",
      "type": "function"
    },
    {
      "inputs": [
        {
          "internalType": "address",
          "name": "from",
          "type": "address"
        },
        {
          "internalType": "address",
          "name": "to",
          "type": "address"
        },
        {
          "internalType": "uint256",
          "name": "tokenId",
          "type": "uint256"
        },
        {
          "internalType": "bytes",
          "name": "data",
          "type": "bytes"
        }
      ],
      "name": "safeTransferFrom",
      "outputs": [],
      "stateMutability": "nonpayable",
      "type": "function"
    },
    {
      "inputs": [
        {
          "internalType": "address",
          "name": "operator",
          "type": "address"
        },
        {
          "internalType": "bool",
          "name": "approved",
          "type": "bool"
        }
      ],
      "name": "setApprovalForAll",
      "outputs": [],
      "stateMutability": "nonpayable",
      "type": "function"
    },
    {
      "inputs": [
        {
          "internalType": "address",
          "name": "_resolver",
          "type": "address"
        }
      ],
      "name": "setDataUrlResolver",
      "outputs": [],
      "stateMutability": "nonpayable",
      "type": "function"
    },
    {
      "inputs": [
        {
          "internalType": "address",
          "name": "_metadataContract",
          "type": "address"
        }
      ],
      "name": "setMetadataContract",
      "outputs": [],
      "stateMutability": "nonpayable",
      "type": "function"
    },
    {
      "inputs": [
        {
          "internalType": "address",
          "name": "_resolver",
          "type": "address"
        }
      ],
      "name": "setOwnershipResolver",
      "outputs": [],
      "stateMutability": "nonpayable",
      "type": "function"
    },
    {
      "inputs": [
        {
          "internalType": "address",
          "name": "_resolver",
          "type": "address"
        }
      ],
      "name": "setRegistrationResolver",
      "outputs": [],
      "stateMutability": "nonpayable",
      "type": "function"
    },
    {
      "inputs": [
        {
          "internalType": "bool",
          "name": "_require",
          "type": "bool"
        }
      ],
      "name": "setRequireDataUrlAttestation",
      "outputs": [],
      "stateMutability": "nonpayable",
      "type": "function"
    },
    {
      "inputs": [
        {
          "internalType": "bytes4",
          "name": "interfaceId",
          "type": "bytes4"
        }
      ],
      "name": "supportsInterface",
      "outputs": [
        {
          "internalType": "bool",
          "name": "",
          "type": "bool"
        }
      ],
      "stateMutability": "view",
      "type": "function"
    },
    {
      "inputs": [],
      "name": "symbol",
      "outputs": [
        {
          "internalType": "string",
          "name": "",
          "type": "string"
        }
      ],
      "stateMutability": "view",
      "type": "function"
    },
    {
      "inputs": [
        {
          "internalType": "uint256",
          "name": "index",
          "type": "uint256"
        }
      ],
      "name": "tokenByIndex",
      "outputs": [
        {
          "internalType": "uint256",
          "name": "",
          "type": "uint256"
        }
      ],
      "stateMutability": "view",
      "type": "function"
    },
    {
      "inputs": [
        {
          "internalType": "address",
          "name": "owner",
          "type": "address"
        },
        {
          "internalType": "uint256",
          "name": "index",
          "type": "uint256"
        }
      ],
      "name": "tokenOfOwnerByIndex",
      "outputs": [
        {
          "internalType": "uint256",
          "name": "",
          "type": "uint256"
        }
      ],
      "stateMutability": "view",
      "type": "function"
    },
    {
      "inputs": [
        {
          "internalType": "uint256",
          "name": "tokenId",
          "type": "uint256"
        }
      ],
      "name": "tokenURI",
      "outputs": [
        {
          "internalType": "string",
          "name": "",
          "type": "string"
        }
      ],
      "stateMutability": "view",
      "type": "function"
    },
    {
      "inputs": [],
      "name": "totalSupply",
      "outputs": [
        {
          "internalType": "uint256",
          "name": "",
          "type": "uint256"
        }
      ],
      "stateMutability": "view",
      "type": "function"
    },
    {
      "inputs": [
        {
          "internalType": "address",
          "name": "from",
          "type": "address"
        },
        {
          "internalType": "address",
          "name": "to",
          "type": "address"
        },
        {
          "internalType": "uint256",
          "name": "tokenId",
          "type": "uint256"
        }
      ],
      "name": "transferFrom",
      "outputs": [],
      "stateMutability": "nonpayable",
      "type": "function"
    },
    {
      "inputs": [
        {
          "internalType": "address",
          "name": "newOwner",
          "type": "address"
        }
      ],
      "name": "transferOwnership",
      "outputs": [],
      "stateMutability": "nonpayable",
      "type": "function"
    },
    {
      "inputs": [
        {
          "internalType": "string",
          "name": "didString",
          "type": "string"
        },
        {
          "internalType": "uint8",
          "name": "major",
          "type": "uint8"
        },
        {
          "internalType": "string",
          "name": "newDataUrl",
          "type": "string"
        },
        {
          "internalType": "bytes32",
          "name": "newDataHash",
          "type": "bytes32"
        },
        {
          "internalType": "uint8",
          "name": "newDataHashAlgorithm",
          "type": "uint8"
        },
        {
          "internalType": "uint16",
          "name": "newInterfaces",
          "type": "uint16"
        },
        {
          "internalType": "bytes32[]",
          "name": "newTraitHashes",
          "type": "bytes32[]"
        },
        {
          "internalType": "uint8",
          "name": "newMinor",
          "type": "uint8"
        },
        {
          "internalType": "uint8",
          "name": "newPatch",
          "type": "uint8"
        },
        {
          "internalType": "string",
          "name": "metadataJson",
          "type": "string"
        }
      ],
      "name": "updateAppControlled",
      "outputs": [],
      "stateMutability": "nonpayable",
      "type": "function"
    },
    {
      "inputs": [
        {
          "internalType": "string",
          "name": "didString",
          "type": "string"
        },
        {
          "internalType": "uint8",
          "name": "major",
          "type": "uint8"
        },
        {
          "internalType": "uint8",
          "name": "newStatus",
          "type": "uint8"
        }
      ],
      "name": "updateStatus",
      "outputs": [],
      "stateMutability": "nonpayable",
      "type": "function"
    }
  ],
  "bytecode": "0x60806040523461037b57604080519081016001600160401b0381118282101761029157604090815260118252704f4d41332041707020526567697374727960781b602083015280519081016001600160401b0381118282101761029157604052600781526604f4d41334150560cc1b602082015281516001600160401b038111610291575f54600181811c91168015610371575b602082101461027357601f811161030f575b50602092601f82116001146102b057928192935f926102a5575b50508160011b915f199060031b1c1916175f555b80516001600160401b03811161029157600154600181811c91168015610287575b602082101461027357601f8111610210575b50602091601f82116001146101b0579181925f926101a5575b50508160011b915f199060031b1c1916176001555b331561019257600a8054336001600160a01b03198216811790925560405191906001600160a01b03167f8be0079c531659141344cd1fd0a4f28419497f9722a3daafe3b4186f6b6457e05f80a36001600b55614c1d90816103808239f35b631e4fbdf760e01b5f525f60045260245ffd5b015190505f8061011f565b601f1982169260015f52805f20915f5b8581106101f8575083600195106101e0575b505050811b01600155610134565b01515f1960f88460031b161c191690555f80806101d2565b919260206001819286850151815501940192016101c0565b60015f527fb10e2d527612073b26eecdfd717e6a320cf44b4afac2b0732d9fcbe2b7fa0cf6601f830160051c81019160208410610269575b601f0160051c01905b81811061025e5750610106565b5f8155600101610251565b9091508190610248565b634e487b7160e01b5f52602260045260245ffd5b90607f16906100f4565b634e487b7160e01b5f52604160045260245ffd5b015190505f806100bf565b601f198216935f8052805f20915f5b8681106102f757508360019596106102df575b505050811b015f556100d3565b01515f1960f88460031b161c191690555f80806102d2565b919260206001819286850151815501940192016102bf565b5f80527f290decd9548b62a8d60345a988386fc84ba6bc95484008f6362f93160ef3e563601f830160051c81019160208410610367575b601f0160051c01905b81811061035c57506100a5565b5f815560010161034f565b9091508190610346565b90607f1690610093565b5f80fdfe6102c0806040526004361015610013575f80fd5b5f3560e01c90816301ffc9a71461244a5750806306fdde03146123a8578063081812fc1461236c578063095ea7b3146122825780630fecc4fb14611f8557806318160ddd1461226557806323b872dd1461224e57806327ca40c2146122295780632a678e91146122015780632f745c59146121da57806333c49a6a146121b2578063352098211461218a5780633f89efe71461216057806342842e0e146121375780634f6ccce7146120b357806353a2b12a1461208e5780636352211e1461205e5780636bb1d6e114611fa857806370a0823114611f85578063715018a614611f2a5780637c6ecba914611e9457806385ddd4a014611e405780638da5cb5b14611e185780638ea42286146118d457806395d89b411461180a57806399671e3814611058578063a1e5425e14610fff578063a22cb46514610f64578063a38dca5114610ecd578063a95018d814610e8d578063b2a7b15814610e68578063b51c31ef14610e23578063b53818f614610d03578063b5503f3214610cdb578063b56ccfae14610cb0578063b88d4fde14610c60578063bd629a3514610c47578063c19ab07e14610949578063c87b56dd146108d5578063cef7b5d814610895578063d81e0de7146107b0578063db737a9214610716578063db764d92146106f3578063e5187f431461065d578063e985e9c514610606578063f2c298be146102e1578063f2fde38b1461025b5763fe87533f1461022d575f80fd5b34610257576020366003190112610257576004355f526014602052602060405f2054604051908152f35b5f80fd5b34610257576020366003190112610257576102746124f3565b61027c6139b8565b6001600160a01b031680156102ce57600a80546001600160a01b0319811683179091556001600160a01b03167f8be0079c531659141344cd1fd0a4f28419497f9722a3daafe3b4186f6b6457e05f80a3005b631e4fbdf760e01b5f525f60045260245ffd5b34610257576020366003190112610257576004356001600160401b038111610257576103119036906004016127cb565b6103196139df565b6018546001600160a01b031680156105c1575f60405180926371995b6b60e01b82523360048301526040602483015281838161035860448201896124cf565b03925af19081156105b6575f916103d1575b60206103c4848480519161ffff858301511690606083015160ff60808501511660a085015160c08601519160ff60e0880151169360ff610100890151169560ff6101208a015116976101606101408b01519a01519a6139ff565b6001600b55604051908152f35b90503d805f833e6103e2818361278f565b810190602081830312610257578051906001600160401b0382116102575701916101c08383031261025757604051916101c083018381106001600160401b038211176105a25760405283516001600160401b03811161025757816104479186016131ff565b8352610455602085016132d5565b602084015260408401516001600160401b03811161025757816104799186016131ff565b604084015260608401516060840152610494608085016132c7565b608084015260a08401516001600160401b03811161025757816104b89186016131ff565b60a084015260c08401516001600160401b03811161025757816104dc9186016131ff565b60c08401526104ed60e085016132c7565b60e08401526104ff61010085016132c7565b61010084015261051261012085016132c7565b6101208401526101408401516001600160401b038111610257578161053891860161326a565b610140840152610160840151906001600160401b0382116102575761055e9185016131ff565b610160830152610180830151916001600160401b0383168303610257576105946101a06020956103c49561018085015201613977565b6101a082015291509161036a565b634e487b7160e01b5f52604160045260245ffd5b6040513d5f823e3d90fd5b60405162461bcd60e51b815260206004820152601d60248201527f526567697374726174696f6e207265736f6c766572206e6f74207365740000006044820152606490fd5b346102575760403660031901126102575761061f6124f3565b610627612509565b9060018060a01b03165f52600560205260405f209060018060a01b03165f52602052602060ff60405f2054166040519015158152f35b34610257576020366003190112610257576106766124f3565b61067e6139b8565b6001600160a01b031680156106a4576001600160601b0360a01b60155416176015555f80f35b60405162461bcd60e51b815260206004820152602160248201527f496e76616c6964206d6574616461746120636f6e7472616374206164647265736044820152607360f81b6064820152608490fd5b3461025757602061070c61070636612883565b916138e5565b6040519015158152f35b346102575760203660031901126102575761072f6124f3565b6107376139b8565b6001600160a01b0316801561075d576001600160601b0360a01b60185416176018555f80f35b60405162461bcd60e51b815260206004820152602560248201527f496e76616c696420726567697374726174696f6e207265736f6c766572206164604482015264647265737360d81b6064820152608490fd5b34610257576060366003190112610257576004356001600160401b038111610257576107e09036906004016127cb565b6107e8612717565b906044359060ff821682036102575761081e83825160208401205f52600d60205260ff60405f2091165f5260205260405f205490565b80156108795761082d90613984565b336001600160a01b039091160361085757916108509261084b6139df565b61373a565b6001600b55005b604051635f69c25560e01b81529283925061087591600484016131ad565b0390fd5b604051634ecda4f560e11b8152806108758685600484016131ad565b346102575760403660031901126102575760043561ffff81168103610257576108c19060243590613608565b906108d1604051928392836126a2565b0390f35b34610257576020366003190112610257576004355f8181526002602052604090205461090b906001600160a01b0316151561335b565b5f52600c6020526108d161092e610935600560405f200160405192838092612915565b038261278f565b6040519182916020835260208301906124cf565b34610257576020366003190112610257576040516329d1589560e11b81525f600480830182905235602483015281604481305afa9081156105b6575f905f9261099d575b506108d1604051928392836126a2565b9150503d805f833e6109af818361278f565b8101906040818303126102575780516001600160401b0381116102575781019180601f84011215610257578251926109e68461280f565b936109f4604051958661278f565b80855260208086019160051b830101918383116102575760208101915b838310610a2857505050505060200151908261098d565b82516001600160401b03811161025757820190610180828703601f1901126102575760405190610a5782612773565b610a63602084016135f4565b8252610a71604084016132d5565b6020830152610a82606084016132c7565b6040830152610a93608084016132c7565b6060830152610aa460a084016132c7565b608083015260c083015160a083015260e08301516001600160401b03811161025757876020610ad5928601016131ff565b60c08301526101008301516001600160401b03811161025757876020610afd928601016131ff565b60e08301526101208301516001600160401b03811161025757876020610b25928601016131ff565b6101008301526101408301516001600160401b03811161025757876020610b4e928601016131ff565b6101208301526101608301516001600160401b0381116102575760209084010187601f82011215610257578051610b848161280f565b91610b92604051938461278f565b818352602060608185019302820101908a821161025757602001915b818310610bf657505050610140830152610180830151916001600160401b03831161025757610be58860208096958196010161326a565b610160820152815201920191610a11565b6060838c0312610257576020606091604051610c1181612758565b610c1a866132c7565b8152610c278387016132c7565b83820152610c37604087016132c7565b6040820152815201920191610bae565b3461025757602061070c610c5a36612883565b91613543565b3461025757608036600319011261025757610c796124f3565b610c81612509565b606435916001600160401b03831161025757610ca4610cae9336906004016127cb565b9160443591613403565b005b34610257576020366003190112610257576020610cd3610cce612707565b61339b565b604051908152f35b34610257575f366003190112610257576018546040516001600160a01b039091168152602090f35b3461025757610180366003190112610257576004356001600160401b03811161025757610d349036906004016127cb565b6024359061ffff82168203610257576044356001600160401b03811161025757610d629036906004016127cb565b91610d6b612727565b60a4356001600160401b03811161025757610d8a9036906004016127cb565b60c4356001600160401b03811161025757610da99036906004016127cb565b610db1612737565b610db9612747565b91610124359360ff8516850361025757610144356001600160401b03811161025757610de9903690600401612826565b9561016435986001600160401b038a116102575760209a610e116103c49b36906004016127cb565b99610e1a6139df565b606435926139ff565b346102575760203660031901126102575760043580151580910361025757610e496139b8565b6018805460ff60a01b191660a09290921b60ff60a01b16919091179055005b34610257575f36600319011261025757602060ff60185460a01c166040519015158152f35b34610257576020366003190112610257576004356001600160401b03811161025757610ebf60209136906004016127cb565b818151910120604051908152f35b3461025757602036600319011261025757610ee66124f3565b610eee6139b8565b6001600160a01b03168015610f14576001600160601b0360a01b60165416176016555f80f35b60405162461bcd60e51b815260206004820152602260248201527f496e76616c6964206f776e657273686970207265736f6c766572206164647265604482015261737360f01b6064820152608490fd5b3461025757604036600319011261025757610f7d6124f3565b60243590811515809203610257576001600160a01b0316908115610fec57335f52600560205260405f20825f5260205260405f2060ff1981541660ff83161790556040519081527f17307eab39ab6107e8899845ad3d59bd9653f200f220920489ca2b5937696c3160203392a3005b50630b61174360e31b5f5260045260245ffd5b34610257576020366003190112610257576004355f81815260026020526040902054611035906001600160a01b0316151561335b565b5f52600c6020526108d161092e610935600260405f200160405192838092612915565b3461025757610140366003190112610257576004356001600160401b038111610257576110899036906004016127cb565b60a052611094612717565b60e0526044356001600160401b038111610257576110b69036906004016127cb565b6110be612727565b60c05260a43561ffff811681036102575760c4356001600160401b038111610257576110ee903690600401612826565b916110f7612737565b91611100612747565b93610124356001600160401b038111610257576111219036906004016127cb565b60805260a05151611154602060a051019160e0519083205f52600d60205260ff60405f2091165f5260205260405f205490565b80156117ea5761116390613984565b336001600160a01b03909116036117ca5761117c6139df565b60a05151902090815f52600d60205260405f2060ff60e051165f5260205260405f205493845f52600c60205260405f2093815190811515918261179e575b50811561177b575b8115611763575b61ffff811615158061174d575b845115938315938480611745575b8061173e575b61172f576006890154805f1981011161171b578a9561121085925f190160068d01612feb565b50916116aa575b82906116a2575b611647575b5080611604575b85156115db575b611437575b506113e1575b50501561131c575b5060405161125181612758565b60ff60e051169283825260ff8616602083015260ff871660408301526006810154600160401b8110156105a257600661129292600183018282015501612feb565b919091611309576112a29161331d565b6040805160ff8681168252871660208201527f8ab6771ee4cb5523129ea5bd846d7f7d4103bbf1a2cebe9dca96f04dfbd222ed9190a4608051516112e7576001600b55005b6113029160c05191606435916080519160e05160a051614ac7565b8080610850565b634e487b7160e01b5f525f60045260245ffd5b8051600784016001600160401b0382116105a257600160401b82116105a25780548282558083106113bb575b509082916020879401905f5260205f205f5b8381106113a45750505050827f536e40ba7e2dd8d050f26bde7e64327c5e2375c23eb08a756d093181e683b5f66040518061139b60ff60e0511695826132e4565b0390a485611244565b82518183015588955060209092019160010161135a565b815f528260205f2091820191015b8181106113d65750611348565b5f81556001016113c9565b855461ffff60a01b191660a082901b61ffff60a01b1617865561ffff60405191168152847f3caeada380b095b0be8b51d0aed4ae24286f0178967772d5bc509fd50eb82c75602060ff60e0511693a4848861123c565b805193506001600160401b0384116105a257889361145860058a01546128dd565b601f8111611585575b506020601f82116001146115185790808693925f9161150d575b508160011b915f199060031b1c19161760058a01555b60643560018a015560c080518a5460ff60c01b1916911b60ff60c01b16178955877fb5daf8653c340810f25c86316337b06a4d13c3730ea2bfd33d9280f3cfcc30706114e8604051936060855260608501906124cf565b92606435602082015260ff60c0511660408201528060ff60e05116940390a48a611236565b90508201518e61147b565b60058a015f52805f20905f5b601f198416811061156a57509160019187949382601f19811610611552575b5050811b0160058a0155611491565b8401515f1960f88460031b161c191690558e80611543565b8185015183558c975060019092019160209182019101611524565b909192939450600589015f5260205f20601f830160051c8101602084106115d4575b908b9695949392915b601f830160051c820181106115c6575050611461565b5f81558c97506001016115b0565b50806115a7565b93506115e686614aa9565b606435156115f5578893611231565b633b66b41d60e21b5f5260045ffd5b908092939450511561163857815161010081116116265750908893929161122a565b6371a40f7160e01b5f5260045260245ffd5b63df9e8a8160e01b5f5260045ffd5b9091929394505460ff8160081c1660ff8c1611158061168f575b61167057908994939291611223565b8b60ff80926331c6775f60e01b5f5260101c166004521660245260445ffd5b5060ff8160101c1660ff8d161115611661565b50861561121e565b9091929394955060ff825460081c1660ff8d16908082111561170657505061ffff8a5460a01c818116918291891616036116eb5750908a9594939291611217565b8661ffff91631571017560e31b5f526004521660245260445ffd5b63cc1e425960e01b5f5260045260245260445ffd5b634e487b7160e01b5f52601160045260245ffd5b630c1dc38b60e11b5f5260045ffd5b50856111ea565b5082156111e4565b5061ffff865460a01c1661ffff821614156111d6565b905060ff855460c01c1660ff60c051161415906111c9565b905060643515158061178e575b906111c2565b5060018501546064351415611788565b90915060208301206040516117ba8161092e8160058b01612915565b60208151910120141590896111ba565b604051635f69c25560e01b81528061087560e05160a051600484016131ad565b604051634ecda4f560e11b81528061087560e05160a051600484016131ad565b34610257575f366003190112610257576040515f60015461182a816128dd565b80845290600181169081156118b05750600114611852575b6108d1836109358185038261278f565b60015f9081527fb10e2d527612073b26eecdfd717e6a320cf44b4afac2b0732d9fcbe2b7fa0cf6939250905b80821061189657509091508101602001610935611842565b91926001816020925483858801015201910190929161187e565b60ff191660208086019190915291151560051b840190910191506109359050611842565b34610257576040366003190112610257576004356001600160401b038111610257576119049036906004016127cb565b6024356001600160401b038111610257573660238201121561025757806004013561192e8161280f565b9161193c604051938461278f565b8183526024602084019260051b820101903682116102575760248101925b828410611d7f57858561196b6139df565b6060916001905f5f85866001915f935f958a978b995f9c5b8d8d511115611d71576119968e8e612d4f565b5151602081519101207f4af34ffd9904d5bc4854346ab5ad09ba5dfb85bdbcabda139065f3cd26385b0c81145f146119f857505060016119ef60208f8f906119dd91612d4f565b51015160208082518301019101613245565b9d5b019c611983565b909d938d917f491804cb91ec5cd12f861f142d8204e7b75cc8be84d78bf4e1ce2679da74424d8103611a4f575050611a3284602092612d4f565b5101516020818051810103126102575760206001910151936119f1565b949590947fc9d54eb7b84d9ee03d7e291d0304f5f17e656d3a13f90908b9d2b5abad311bc78103611aac575050611a8885602092612d4f565b51015160208180518101031261025757611aa66020600192016132c7565b946119f1565b909592907f47e3896e0d0ff43a3431a60c9ca5e20041e273da9f26ffc0f04eafc80f7d7cb38103611b09575050611ae582602092612d4f565b51015160208180518101031261025757611b036020600192016132d5565b916119f1565b929690927f164c6244b2e19c26d9b6edbba573afdd43797ec33e4c02786f7920cb8509c3968103611b4d575050611b4760206119dd88600194612d4f565b956119f1565b969790967f2fc6f32cae07e7ae089902644376689fdc72e3b74369068c60fa3a1b59ea3aaa8103611b91575050611b8b60206119dd89600194612d4f565b966119f1565b979890977f822fcd80c2305106a6b64e09f6d6c4eb5bdd964b8e3373e3b3a1eba5a1eef7098103611bee575050611bca88602092612d4f565b51015160208180518101031261025757611be86020600192016132c7565b976119f1565b989990987f77260edc9ffce91576691a2ac19fee12a572d0a5fb8bf9ecef7ef6b291e93ad38103611c4b575050611c2789602092612d4f565b51015160208180518101031261025757611c456020600192016132c7565b986119f1565b999a90997fd0f8a96f4037e03022df4b601e82b54f7ba66b54b01f842de2243666580dc2778103611ca8575050611c848a602092612d4f565b51015160208180518101031261025757611ca26020600192016132c7565b996119f1565b9a9b909a7f9ab47b3a4531c42654638ea0611351352fada062374aeeb8bdb1e2283de54e0c8103611d20575050611ce18b602092612d4f565b5101518051810190602081830312610257576020810151906001600160401b038211610257576020611d1a92816001950192010161326a565b9a6119f1565b909b91907f6a6fcee3dfc55c9d85c759f47ae5a6f25e81b184c2cedf77171ca084d2b0127a14611d54575b506001906119f1565b819c5060206119dd600193611d6893612d4f565b9b90508c611d4b565b60209d506103c49c506139ff565b83356001600160401b038111610257578201604060231982360301126102575760405191604083018381106001600160401b038211176105a25760405260248201356001600160401b03811161025757611ddf90602436918501016127cb565b83526044820135926001600160401b03841161025757611e096020949360248695369201016127cb565b8382015281520193019261195a565b34610257575f36600319011261025757600a546040516001600160a01b039091168152602090f35b3461025757602036600319011261025757600435805f52601060205260ff60405f20541615611e82575f52600f602052602060ff60405f205416604051908152f35b6304e5b67b60e21b5f5260045260245ffd5b3461025757602036600319011261025757611ead6124f3565b611eb56139b8565b6001600160a01b03168015611edb576001600160601b0360a01b60175416176017555f80f35b60405162461bcd60e51b815260206004820152602160248201527f496e76616c696420646174612055524c207265736f6c766572206164647265736044820152607360f81b6064820152608490fd5b34610257575f36600319011261025757611f426139b8565b600a80546001600160a01b031981169091555f906001600160a01b03167f8be0079c531659141344cd1fd0a4f28419497f9722a3daafe3b4186f6b6457e08280a3005b34610257576020366003190112610257576020610cd3611fa36124f3565b6131ce565b34610257576040366003190112610257576004356001600160401b03811161025757611fd89036906004016127cb565b611fe0612717565b611fe8612c14565b5061201081835160208501205f52600d60205260ff60405f2091165f5260205260405f205490565b91821561204257825f52600c6020526108d161202e60405f20612dad565b604051918291602083526020830190612559565b610875604051928392634ecda4f560e11b8452600484016131ad565b3461025757602036600319011261025757602061207c600435613984565b6040516001600160a01b039091168152f35b34610257576040366003190112610257576108c16120aa612707565b6024359061300e565b34610257576020366003190112610257576004356008548110156121215760085481101561210d5760085f527ff3f7a9fe364faab93b216da50a3214154f22a0a2b415b23a84c8169e8b636ee30154604051908152602090f35b634e487b7160e01b5f52603260045260245ffd5b63295f44f760e21b5f525f60045260245260445ffd5b3461025757610cae6121483661251f565b906040519261215860208561278f565b5f8452613403565b34610257576020366003190112610257576004355f526013602052602060405f2054604051908152f35b34610257575f366003190112610257576015546040516001600160a01b039091168152602090f35b34610257575f366003190112610257576016546040516001600160a01b039091168152602090f35b34610257576040366003190112610257576020610cd36121f86124f3565b60243590612f85565b34610257575f366003190112610257576017546040516001600160a01b039091168152602090f35b34610257576040366003190112610257576108c16122456124f3565b60243590612ef7565b3461025757610cae61225f3661251f565b91612996565b34610257575f366003190112610257576020600854604051908152f35b346102575760403660031901126102575761229b6124f3565b6024356122a781613984565b33151580612359575b8061232c575b6123195781906001600160a01b0384811691167f8c5be1e5ebec7d5bd14f71427d1e84f3dd0314c0f7b2291e5b200ac8c7c3b9255f80a45f90815260046020526040902080546001600160a01b0319166001600160a01b03909216919091179055005b63a9fbf51f60e01b5f523360045260245ffd5b506001600160a01b0381165f90815260056020908152604080832033845290915290205460ff16156122b6565b506001600160a01b0381163314156122b0565b346102575760203660031901126102575760043561238981613984565b505f526004602052602060018060a01b0360405f205416604051908152f35b34610257575f366003190112610257576040515f5f546123c7816128dd565b80845290600181169081156118b057506001146123ee576108d1836109358185038261278f565b5f8080527f290decd9548b62a8d60345a988386fc84ba6bc95484008f6362f93160ef3e563939250905b80821061243057509091508101602001610935611842565b919260018160209254838588010152019101909291612418565b34610257576020366003190112610257576004359063ffffffff60e01b82168092036102575760209163780e9d6360e01b811490811561248c575b5015158152f35b6380ac58cd60e01b8114915081156124be575b81156124ad575b5083612485565b6301ffc9a760e01b149050836124a6565b635b5e139f60e01b8114915061249f565b805180835260209291819084018484015e5f828201840152601f01601f1916010190565b600435906001600160a01b038216820361025757565b602435906001600160a01b038216820361025757565b6060906003190112610257576004356001600160a01b038116810361025757906024356001600160a01b0381168103610257579060443590565b60018060a01b03815116825261ffff602082015116602083015260ff604082015116604083015260ff606082015116606083015260ff608082015116608083015260a081015160a08301526126026125ee6125da6125c860c085015161018060c08801526101808701906124cf565b60e085015186820360e08801526124cf565b6101008401518582036101008701526124cf565b6101208301518482036101208601526124cf565b9061014081015191838103610140850152602080845192838152019301905f5b81811061266d57505050610160015191610160818303910152602080835192838152019201905f5b8181106126575750505090565b825184526020938401939092019160010161264a565b9091936020606060019260ff604089518281511684528286820151168685015201511660408201520195019101919091612622565b92919060408401906040855280518092526060850191602060608260051b8801019201925f905b8282106126dc5750505060209150930152565b9091926020806126f8600193605f198c82030186528851612559565b960192019201909392916126c9565b6004359060ff8216820361025757565b6024359060ff8216820361025757565b6084359060ff8216820361025757565b60e4359060ff8216820361025757565b610104359060ff8216820361025757565b606081019081106001600160401b038211176105a257604052565b61018081019081106001600160401b038211176105a257604052565b90601f801991011681019081106001600160401b038211176105a257604052565b6001600160401b0381116105a257601f01601f191660200190565b81601f82011215610257576020813591016127e5826127b0565b926127f3604051948561278f565b8284528282011161025757815f92602092838601378301015290565b6001600160401b0381116105a25760051b60200190565b9080601f8301121561025757813561283d8161280f565b9261284b604051948561278f565b81845260208085019260051b82010192831161025757602001905b8282106128735750505090565b8135815260209182019101612866565b6060600319820112610257576004356001600160401b03811161025757816128ad916004016127cb565b9160243560ff811681036102575791604435906001600160401b038211610257576128da91600401612826565b90565b90600182811c9216801561290b575b60208310146128f757565b634e487b7160e01b5f52602260045260245ffd5b91607f16916128ec565b5f9291815491612924836128dd565b8083529260018116908115612979575060011461294057505050565b5f9081526020812093945091925b83831061295f575060209250010190565b60018160209294939454838587010152019101919061294e565b915050602093945060ff929192191683830152151560051b010190565b9091906001600160a01b0383168015612c01575f838152600260205260409020546001600160a01b03169333151580612b71575b5084158015612b3e575b825f52600360205260405f2060018154019055845f52600260205260405f20836001600160601b0360a01b8254161790558483877fddf252ad1be2c89b69c2b068fc378daa952ba7f163c4a11628f55a4df523b3ef5f80a415612ac157600854845f52600960205260405f2055612a4a84613716565b818503612a81575b50506001600160a01b0316808303612a6957505050565b6364283d7b60e01b5f5260045260245260445260645ffd5b612a8a906131ce565b5f1981019190821161171b575f52600660205260405f20815f526020528260405f2055825f52600760205260405f20555f80612a52565b848214612a4a57612ad1856131ce565b845f52600760205260405f205490865f52600660205260405f2091818103612b13575b50855f5260076020525f60408120555f526020525f6040812055612a4a565b815f528260205260405f2054815f52836020528060405f20555f52600760205260405f20555f612af4565b5f85815260046020526040902080546001600160a01b0319169055855f52600360205260405f205f1981540190556129d4565b80612bb0575b15612b82575f6129ca565b8385612b9a57637e27328960e01b5f5260045260245ffd5b63177e802f60e01b5f523360045260245260445ffd5b503385148015612bdf575b80612b7757505f848152600460205260409020546001600160a01b03163314612b77565b505f85815260056020908152604080832033845290915290205460ff16612bbb565b633250574960e11b5f525f60045260245ffd5b60405190612c2182612773565b6060610160835f81525f60208201525f60408201525f838201525f60808201525f60a08201528260c08201528260e08201528261010082015282610120820152826101408201520152565b60405190612c7b60208361278f565b5f80835282815b828110612c8e57505050565b602090612c99612c14565b82828501015201612c82565b604051610ca09190612cb7838261278f565b6064815291601f1901825f5b828110612ccf57505050565b602090612cda612c14565b82828501015201612cc3565b90612cf08261280f565b612cfd604051918261278f565b8281528092612d0e601f199161280f565b01905f5b828110612d1e57505050565b602090612d29612c14565b82828501015201612d12565b9190820391821161171b57565b80511561210d5760200190565b805182101561210d5760209160051b010190565b90604051918281549182825260208201905f5260205f20925f5b818110612d94575050612d929250038361278f565b565b8454835260019485019487945060209093019201612d7d565b90604051612dba81612773565b809260ff815460018060a01b038116845261ffff8160a01c166020850152818160b01c166040850152818160b81c16606085015260c01c166080830152600181015460a0830152604051612e158161092e8160028601612915565b60c0830152604051612e2e8161092e8160038601612915565b60e0830152604051612e478161092e8160048601612915565b610100830152604051612e618161092e8160058601612915565b610120830152600681018054612e768161280f565b91612e84604051938461278f565b81835260208301905f5260205f205f915b838310612ebb5750505050600761016092612eb69261014086015201612d63565b910152565b600160208192604051612ecd81612758565b60ff86548181168352818160081c168584015260101c166040820152815201920192019190612e95565b90612f01826131ce565b9081811015612f7557612f1c612f178284612d35565b612ce6565b92815b838110612f2f5750505050905f90565b80612f3c60019284612f85565b5f52600c602052612f6e60405f20612f5d612f578785612d35565b91612dad565b612f67828a612d4f565b5287612d4f565b5001612f1f565b505050612f80612c6c565b905f90565b612f8e816131ce565b821015612fb65760018060a01b03165f52600660205260405f20905f5260205260405f205490565b63295f44f760e21b5f5260018060a01b031660045260245260445ffd5b60115481101561210d5760115f5260205f2001905f90565b805482101561210d575f5260205f2001905f90565b5f19811461171b5760010190565b60ff16806130b8575090601154808310156130ad57606483019081841161171b578082116130a5575b613044612f178584612d35565b93805b83811061305f57505081101561305a5790565b505f90565b8061306b600192612fd3565b90549060031b1c5f52600c60205261309e60405f2061308d612f578685612d35565b613097828b612d4f565b5288612d4f565b5001613047565b905080613037565b509050612f80612c6c565b6130c1336131ce565b9182811015612f75576130d2612ca5565b935f915b848110806131a3575b15613155576130ee8133612f85565b805f52600c6020528460ff60405f205460b81c1614613117575b5061311290613000565b6130d6565b613112919361314e915f52600c60205261313360405f20612dad565b61313d828a612d4f565b526131488189612d4f565b50613000565b9290613108565b9250929061316281612ce6565b945f5b8281106131795750505081101561305a5790565b8061318660019284612d4f565b51613191828a612d4f565b5261319c8189612d4f565b5001613165565b50606483106130df565b9060ff6131c76020929594956040855260408501906124cf565b9416910152565b6001600160a01b031680156131ec575f52600360205260405f205490565b6322718ad960e21b5f525f60045260245ffd5b81601f8201121561025757805190613216826127b0565b92613224604051948561278f565b8284526020838301011161025757815f9260208093018386015e8301015290565b906020828203126102575781516001600160401b038111610257576128da92016131ff565b9080601f830112156102575781516132818161280f565b9261328f604051948561278f565b81845260208085019260051b82010192831161025757602001905b8282106132b75750505090565b81518152602091820191016132aa565b519060ff8216820361025757565b519061ffff8216820361025757565b60206040818301928281528451809452019201905f5b8181106133075750505090565b82518452602093840193909201916001016132fa565b81518154602084015160409094015162ff000060109190911b1661ff0060089590951b9490941660ff90921662ffffff199091161717919091179055565b1561336257565b60405162461bcd60e51b81526020600482015260116024820152702737b732bc34b9ba32b73a103a37b5b2b760791b6044820152606490fd5b60ff16806133aa575060115490565b6133b3336131ce565b5f915f5b8281106133c45750505090565b6133ce8133612f85565b5f52600c6020528160ff60405f205460b81c16146133ef575b6001016133b7565b926133fb600191613000565b9390506133e7565b9291613410818386612996565b813b61341d575b50505050565b604051630a85bd0160e11b81523360048201526001600160a01b03948516602482015260448101919091526080606482015292169190602090829081906134689060848301906124cf565b03815f865af15f91816134fe575b506134cb57503d156134c4573d61348c816127b0565b9061349a604051928361278f565b81523d5f602083013e5b805190816134bf5782633250574960e11b5f5260045260245ffd5b602001fd5b60606134a4565b6001600160e01b03191663757a42ff60e11b016134ec57505f808080613417565b633250574960e11b5f5260045260245ffd5b9091506020813d60201161353b575b8161351a6020938361278f565b8101031261025757516001600160e01b03198116810361025757905f613476565b3d915061350d565b9061356b81835160208501205f52600d60205260ff60405f2091165f5260205260405f205490565b9182156120425750505f52600c60205261358a600760405f2001612d63565b5f905b82518210156135ec575f925f5b82518110156135e2576135ad8483612d4f565b516135b88285612d4f565b51146135c65760010161359a565b5092509060015b156135db576001019061358d565b5050505f90565b50929190916135cd565b505050600190565b51906001600160a01b038216820361025757565b6011549182811015612f755761361c612ca5565b935f915b848110806136ce575b156136805761363781612fd3565b90549060031b1c5f52600c60205260405f2061ffff85825460a01c1616613668575b5061366390613000565b613620565b613663919361313361367992612dad565b9290613659565b9250929061368d81612ce6565b945f5b8281106136a45750505081101561305a5790565b806136b160019284612d4f565b516136bc828a612d4f565b526136c78189612d4f565b5001613690565b5060648310613629565b601154600160401b8110156105a2576136fc81600161371293016011556011612feb565b819391549060031b91821b915f19901b19161790565b9055565b600854600160401b8110156105a2576136fc81600161371293016008556008612feb565b91909160208151910120805f52600d60205260405f2060ff84165f5260205260405f205492835f52600c60205260ff60405f205460b81c1660ff8416938482146138dd575f868152600c60205260409020805460ff60b81b191660b89290921b60ff60b81b169190911790551580806138d4575b1561387c5750835f52601260205260405f20546011545f19810190811161171b576137d890612fd3565b90549060031b1c806137ec6136fc84612fd3565b90555f52601260205260405f20556011549081156138685760ff6040917f7c6860c4abb223f1d0f6b5a1b79fdac9cb6ea8b538f0260940bcd10af7856e7d935f1901613839816011612feb565b8154905f199060031b1b19169055601155865f5260126020525f838120555b82519586524260208701521693a4565b634e487b7160e01b5f52603160045260245ffd5b60ff7f7c6860c4abb223f1d0f6b5a1b79fdac9cb6ea8b538f0260940bcd10af7856e7d9260409215806138cc575b1561385857601154875f526012602052835f20556138c7876136d8565b613858565b5085156138aa565b508315156137ae565b505050505050565b9061390d81835160208501205f52600d60205260ff60405f2091165f5260205260405f205490565b9182156120425750505f52600c60205261392c600760405f2001612d63565b5f5b82518110156135db575f5b825181101561396e5761394c8285612d4f565b516139578285612d4f565b511461396557600101613939565b50505050600190565b5060010161392e565b5190811515820361025757565b5f818152600260205260409020546001600160a01b03169081156139a6575090565b637e27328960e01b5f5260045260245ffd5b600a546001600160a01b031633036139cc57565b63118cdaa760e01b5f523360045260245ffd5b6002600b54146139f0576002600b55565b633ee5aeb560e01b5f5260045ffd5b9a9998969493929a97959761018052610280526101a052610160526102a0526101c052610240526101e052610180515115614a9a57610180515160808111614a88575061ffff610280511615614a79576101a0515115611638576101a05151610100811161162657506102a051516101008111614a67575080516101008111614a555750613a8c82614aa9565b610180518051602090910120610220526016546001600160a01b03168061499f575b5060ff60185460a01c168061498b575b6148ca575b610220515f52600d60205260405f2060ff6101c051165f5260205260405f20546148a857610220515f52600e60205261092e613b0860405f2060405192838092612915565b80511561475057602081519101206102a0515160206102a0510120036146fb57610220515f52600f60205260ff60405f20541660ff6101c05116116146d7575b613b53601954613000565b61026052610260516019553315612c0157610260515f908152600260205260409020546001600160a01b03168015801591908261469b575b335f81815260036020908152604080832080546001019055610260518084526002909252822080546001600160a01b03191684179055919084907fddf252ad1be2c89b69c2b068fc378daa952ba7f163c4a11628f55a4df523b3ef9080a41561461857600854610260515f52600960205260405f2055613c0d61026051613716565b3381036145cf575b506145bc576040610200819052805183929091613c32908361278f565b600182525f5b61020051601f1901811061458857506102005151613c5581612758565b60ff6101c05116815260ff6102405116602082015260ff6101e0511661020051820152613c8183612d42565b52613c8b82612d42565b50610200515190613c9b82612773565b338252602082016101405261ffff6102805116610140515261020051820160ff6101c051168152606083015f81526080840160ff61016051168152613de760ff60a08701928c8452613dc48260c08a019661018051885260e08b01986102a0518a526101008c019a8b526101208c019b6101a0518d5261014081019d8e5261016081019e8f52610260515f52600c602052610200515f206101205260018060a01b039060018060a01b03905116166001600160601b0360a01b610120515416176101205155613d8d61ffff610140515116610120519081549061ffff60a01b9060a01b169061ffff60a01b1916179055565b51610120518054925160ff60b81b90851660b81b1691841660b090811b94901b199092169290921760ff60b81b1916919091179055565b5161012051805460ff60c01b19169290911660c01b60ff60c01b16919091179055565b5160016101205101556002610120510190518051906001600160401b0382116105a2578190613e1684546128dd565b601f8111614538575b50602090601f83116001146144d5575f926144ca575b50508160011b915f199060031b1c19161790555b6003610120510190518051906001600160401b0382116105a2578190613e6f84546128dd565b601f811161447a575b50602090601f8311600114614417575f9261440c575b50508160011b915f199060031b1c19161790555b6004610120510190518051906001600160401b0382116105a2578190613ec884546128dd565b601f81116143bc575b50602090601f8311600114614359575f9261434e575b50508160011b915f199060031b1c19161790555b6005610120510190518051906001600160401b0382116105a2578190613f2184546128dd565b601f81116142fe575b50602090601f831160011461429b575f92614290575b50508160011b915f199060031b1c19161790555b60066101205101905190815191600160401b83116105a257815483835580841061426a575b50602001905f5260205f205f915b83831061424d5750505050518051906001600160401b0382116105a257600160401b82116105a25761012051600701805490839055808310614221575b50602001600761012051015f5260205f20610100525f5b82811061420a57505050610220515f52600d602052610200515f2060ff6101c051165f52602052610200515f20610260519055601154610260515f526012602052610200515f205561402f610260516136d8565b610220515f526013602052610200515f2054156141df575b8051614194575b50805161416f575b5050610200515160a0815261407160a082016101a0516124cf565b9060ff6101c05116602082015261ffff61028051166102005182015243606082015242608082015261022051917f929d4bc5290f296d002ad3aada73fb70d45a263ebd0ccea61435ba2f6619fff533928061026051930390a460ff6101c0511615801590614160575b8015614151575b6140ed575b6102605190565b6102005151610260519060ff6101c05116907f8ab6771ee4cb5523129ea5bd846d7f7d4103bbf1a2cebe9dca96f04dfbd222ed6102205191806141496101e051610240518390929160ff60209181604085019616845216910152565b0390a46140e6565b5060ff6101e0511615156140e1565b5060ff610240511615156140da565b61418d9161016051916101e051610240516101c05161018051614ac7565b5f80614056565b610200515161026051917f536e40ba7e2dd8d050f26bde7e64327c5e2375c23eb08a756d093181e683b5f660ff6101c0511692806141d66102205194826132e4565b0390a45f61404e565b610220515f52601360205243610200515f2055610220515f52601460205242610200515f2055614047565b600190602083519301928161010051015501613fdb565b600761012051015f528260205f2091820191015b8181106142425750613fc4565b5f8155600101614235565b600160208261425e8394518661331d565b01920192019190613f87565b825f528360205f2091820191015b8181106142855750613f79565b5f8155600101614278565b015190505f80613f40565b5f8581528281209350601f198516905b8181106142e657509084600195949392106142ce575b505050811b019055613f54565b01515f1960f88460031b161c191690555f80806142c1565b929360206001819287860151815501950193016142ab565b909150835f5260205f20601f840160051c81019160208510614344575b90601f859493920160051c01905b8181106143365750613f2a565b5f8155849350600101614329565b909150819061431b565b015190505f80613ee7565b5f8581528281209350601f198516905b8181106143a4575090846001959493921061438c575b505050811b019055613efb565b01515f1960f88460031b161c191690555f808061437f565b92936020600181928786015181550195019301614369565b909150835f5260205f20601f840160051c81019160208510614402575b90601f859493920160051c01905b8181106143f45750613ed1565b5f81558493506001016143e7565b90915081906143d9565b015190505f80613e8e565b5f8581528281209350601f198516905b818110614462575090846001959493921061444a575b505050811b019055613ea2565b01515f1960f88460031b161c191690555f808061443d565b92936020600181928786015181550195019301614427565b909150835f5260205f20601f840160051c810191602085106144c0575b90601f859493920160051c01905b8181106144b25750613e78565b5f81558493506001016144a5565b9091508190614497565b015190505f80613e35565b5f8581528281209350601f198516905b8181106145205750908460019594939210614508575b505050811b019055613e49565b01515f1960f88460031b161c191690555f80806144fb565b929360206001819287860151815501950193016144e5565b909150835f5260205f20601f840160051c8101916020851061457e575b90601f859493920160051c01905b8181106145705750613e1f565b5f8155849350600101614563565b9091508190614555565b602091929350610200515161459c81612758565b5f81525f838201525f610200518201528282860101520190839291613c38565b6339e3563760e11b5f525f60045260245ffd5b6145d8336131ce565b805f1981011161171b57335f52600660205260405f205f1982015f526020526102605160405f2055610260515f5260076020525f190160405f2055613c15565b338114613c0d57614628816131ce565b610260515f52600760205260405f205490825f52600660205260405f2091818103614670575b50610260515f5260076020525f60408120555f526020525f6040812055613c0d565b815f528260205260405f2054815f52836020528060405f20555f52600760205260405f20555f61464e565b6146bf610260515f52600460205260405f206001600160601b0360a01b8154169055565b815f52600360205260405f205f198154019055613b8b565b610220515f52600f60205260405f2060ff6101c0511660ff19825416179055613b48565b60405163192ce30b60e31b815260206004820152602660248201527f46756e6769626c6520746f6b656e206368616e6765207265717569726573206e604482015265195dc811125160d21b6064820152608490fd5b50610220515f52600e60205260405f206102a051516001600160401b0381116105a25761477d82546128dd565b601f8111614863575b50806020601f82116001146147fb575f916147ed575b508160011b915f199060031b1c19161790555b610220515f52600f60205260405f2060ff6101c0511660ff19825416179055610220515f52601060205260405f20600160ff19825416179055613b48565b90506102a05101515f61479c565b9150825f52815f205f925b601f1983168410614848576001935082601f1981161061482d575b5050811b0190556147af565b6102a05101515f1960f88460031b161c191690555f80614821565b6102a051810151825560209384019360019092019101614806565b825f5260205f20601f830160051c8101916020841061489e575b601f0160051c01905b8181106148935750614786565b5f8155600101614886565b909150819061487d565b604051631afb365160e01b8152806108756101c05161018051600484016131ad565b6017546040516304b1396b60e11b81526102205160048201526024810186905290602090829060449082906001600160a01b03165afa9081156105b6575f91614951575b50613ac35760405162461bcd60e51b81526020600482015260166024820152751110551057d21054d217d393d517d055151154d5115160521b6044820152606490fd5b90506020813d602011614983575b8161496c6020938361278f565b810103126102575761497d90613977565b5f61490e565b3d915061495f565b506017546001600160a01b03161515613abe565b6020602491604051928380926327cc573960e01b82526102205160048301525afa9081156105b6575f91614a1b575b50336001600160a01b03909116036149e6575f613aae565b60405162461bcd60e51b815260206004820152600d60248201526c2727aa2fa224a22fa7aba722a960991b6044820152606490fd5b90506020813d602011614a4d575b81614a366020938361278f565b8101031261025757614a47906135f4565b5f6149ce565b3d9150614a29565b634f7f300b60e01b5f5260045260245ffd5b63e422361760e01b5f5260045260245ffd5b631464e25760e31b5f5260045ffd5b63977af6c760e01b5f5260045260245ffd5b63ccdf6bd560e01b5f5260045ffd5b5160148111614ab55750565b63582dc9af60e11b5f5260045260245ffd5b949091959392938351614b7a575b50506015546001600160a01b03169182614af157505050505050565b823b15610257575f94614b51614b2d93879360ff8098816040519c8d9b8c9a8b996330f1201960e01b8b5260a060048c015260a48b01906124cf565b961660248901521660448701521660648501528382036003190160848501526124cf565b03925af180156105b657614b6a575b80808080806138dd565b5f614b749161278f565b5f614b60565b60ff1680614ba75750825160208401205b808214614ad557636f205f0f60e11b5f5260045260245260445ffd5b60018103614bd6575060205f60405180865180858901835e8101838152039060025afa156105b6575f51614b8b565b624c220360e01b5f5260045260245ffdfea2646970667358221220d6522307438a6cb0baf9e65869dc1f092833c4d838a99d330ccbbe289d9944e364736f6c634300081c0033",
  "linkReferences": {},
  "deployedLinkReferences": {}
}