{
  "_format": "hh-sol-artifact-1",
  "contractName": "OMA3AppRegistry",
  "sourceName": "contracts/OMA3AppRegistry.sol",
  "abi": [
    {
      "inputs": [],
      "stateMutability": "nonpayable",
      "type": "constructor"
    },
    {
      "inputs": [
        {
          "internalType": "string",
          "name": "did",
          "type": "string"
        },
        {
          "internalType": "uint8",
          "name": "major",
          "type": "uint8"
        }
      ],
      "name": "AppNotFound",
      "type": "error"
    },
    {
      "inputs": [
        {
          "internalType": "uint256",
          "name": "length",
          "type": "uint256"
        }
      ],
      "name": "ContractIdTooLong",
      "type": "error"
    },
    {
      "inputs": [],
      "name": "DIDCannotBeEmpty",
      "type": "error"
    },
    {
      "inputs": [
        {
          "internalType": "bytes32",
          "name": "didHash",
          "type": "bytes32"
        }
      ],
      "name": "DIDHashNotFound",
      "type": "error"
    },
    {
      "inputs": [
        {
          "internalType": "string",
          "name": "did",
          "type": "string"
        },
        {
          "internalType": "uint8",
          "name": "major",
          "type": "uint8"
        }
      ],
      "name": "DIDMajorAlreadyExists",
      "type": "error"
    },
    {
      "inputs": [
        {
          "internalType": "uint256",
          "name": "length",
          "type": "uint256"
        }
      ],
      "name": "DIDTooLong",
      "type": "error"
    },
    {
      "inputs": [
        {
          "internalType": "bytes32",
          "name": "computed",
          "type": "bytes32"
        },
        {
          "internalType": "bytes32",
          "name": "provided",
          "type": "bytes32"
        }
      ],
      "name": "DataHashMismatch",
      "type": "error"
    },
    {
      "inputs": [],
      "name": "DataHashRequiredForTraitChange",
      "type": "error"
    },
    {
      "inputs": [],
      "name": "DataUrlCannotBeEmpty",
      "type": "error"
    },
    {
      "inputs": [
        {
          "internalType": "uint256",
          "name": "length",
          "type": "uint256"
        }
      ],
      "name": "DataUrlTooLong",
      "type": "error"
    },
    {
      "inputs": [],
      "name": "ERC721EnumerableForbiddenBatchMint",
      "type": "error"
    },
    {
      "inputs": [
        {
          "internalType": "address",
          "name": "sender",
          "type": "address"
        },
        {
          "internalType": "uint256",
          "name": "tokenId",
          "type": "uint256"
        },
        {
          "internalType": "address",
          "name": "owner",
          "type": "address"
        }
      ],
      "name": "ERC721IncorrectOwner",
      "type": "error"
    },
    {
      "inputs": [
        {
          "internalType": "address",
          "name": "operator",
          "type": "address"
        },
        {
          "internalType": "uint256",
          "name": "tokenId",
          "type": "uint256"
        }
      ],
      "name": "ERC721InsufficientApproval",
      "type": "error"
    },
    {
      "inputs": [
        {
          "internalType": "address",
          "name": "approver",
          "type": "address"
        }
      ],
      "name": "ERC721InvalidApprover",
      "type": "error"
    },
    {
      "inputs": [
        {
          "internalType": "address",
          "name": "operator",
          "type": "address"
        }
      ],
      "name": "ERC721InvalidOperator",
      "type": "error"
    },
    {
      "inputs": [
        {
          "internalType": "address",
          "name": "owner",
          "type": "address"
        }
      ],
      "name": "ERC721InvalidOwner",
      "type": "error"
    },
    {
      "inputs": [
        {
          "internalType": "address",
          "name": "receiver",
          "type": "address"
        }
      ],
      "name": "ERC721InvalidReceiver",
      "type": "error"
    },
    {
      "inputs": [
        {
          "internalType": "address",
          "name": "sender",
          "type": "address"
        }
      ],
      "name": "ERC721InvalidSender",
      "type": "error"
    },
    {
      "inputs": [
        {
          "internalType": "uint256",
          "name": "tokenId",
          "type": "uint256"
        }
      ],
      "name": "ERC721NonexistentToken",
      "type": "error"
    },
    {
      "inputs": [
        {
          "internalType": "address",
          "name": "owner",
          "type": "address"
        },
        {
          "internalType": "uint256",
          "name": "index",
          "type": "uint256"
        }
      ],
      "name": "ERC721OutOfBoundsIndex",
      "type": "error"
    },
    {
      "inputs": [
        {
          "internalType": "uint256",
          "name": "length",
          "type": "uint256"
        }
      ],
      "name": "FungibleTokenIdTooLong",
      "type": "error"
    },
    {
      "inputs": [
        {
          "internalType": "uint16",
          "name": "current",
          "type": "uint16"
        },
        {
          "internalType": "uint16",
          "name": "attempted",
          "type": "uint16"
        }
      ],
      "name": "InterfaceRemovalNotAllowed",
      "type": "error"
    },
    {
      "inputs": [],
      "name": "InterfacesCannotBeEmpty",
      "type": "error"
    },
    {
      "inputs": [
        {
          "internalType": "uint256",
          "name": "tokenId",
          "type": "uint256"
        }
      ],
      "name": "InvalidAgent",
      "type": "error"
    },
    {
      "inputs": [
        {
          "internalType": "uint8",
          "name": "algorithm",
          "type": "uint8"
        }
      ],
      "name": "InvalidDataHashAlgorithm",
      "type": "error"
    },
    {
      "inputs": [
        {
          "internalType": "uint8",
          "name": "major",
          "type": "uint8"
        },
        {
          "internalType": "uint8",
          "name": "minor",
          "type": "uint8"
        },
        {
          "internalType": "uint8",
          "name": "patch",
          "type": "uint8"
        }
      ],
      "name": "InvalidVersion",
      "type": "error"
    },
    {
      "inputs": [
        {
          "internalType": "string",
          "name": "did",
          "type": "string"
        },
        {
          "internalType": "uint8",
          "name": "currentMajor",
          "type": "uint8"
        },
        {
          "internalType": "uint8",
          "name": "attemptedMajor",
          "type": "uint8"
        }
      ],
      "name": "MajorVersionChangeRequiresNewMint",
      "type": "error"
    },
    {
      "inputs": [
        {
          "internalType": "uint256",
          "name": "tokenId",
          "type": "uint256"
        },
        {
          "internalType": "string",
          "name": "key",
          "type": "string"
        }
      ],
      "name": "MetadataUnavailable",
      "type": "error"
    },
    {
      "inputs": [
        {
          "internalType": "uint8",
          "name": "currentMinor",
          "type": "uint8"
        },
        {
          "internalType": "uint8",
          "name": "attemptedMinor",
          "type": "uint8"
        }
      ],
      "name": "MinorIncrementRequired",
      "type": "error"
    },
    {
      "inputs": [
        {
          "internalType": "string",
          "name": "reason",
          "type": "string"
        }
      ],
      "name": "NewDIDRequired",
      "type": "error"
    },
    {
      "inputs": [],
      "name": "NoChangesSpecified",
      "type": "error"
    },
    {
      "inputs": [
        {
          "internalType": "string",
          "name": "did",
          "type": "string"
        },
        {
          "internalType": "uint8",
          "name": "major",
          "type": "uint8"
        }
      ],
      "name": "NotAppOwner",
      "type": "error"
    },
    {
      "inputs": [
        {
          "internalType": "address",
          "name": "owner",
          "type": "address"
        }
      ],
      "name": "OwnableInvalidOwner",
      "type": "error"
    },
    {
      "inputs": [
        {
          "internalType": "address",
          "name": "account",
          "type": "address"
        }
      ],
      "name": "OwnableUnauthorizedAccount",
      "type": "error"
    },
    {
      "inputs": [
        {
          "internalType": "uint8",
          "name": "currentPatch",
          "type": "uint8"
        },
        {
          "internalType": "uint8",
          "name": "attemptedPatch",
          "type": "uint8"
        }
      ],
      "name": "PatchIncrementRequired",
      "type": "error"
    },
    {
      "inputs": [],
      "name": "ReentrancyGuardReentrantCall",
      "type": "error"
    },
    {
      "inputs": [
        {
          "internalType": "uint256",
          "name": "count",
          "type": "uint256"
        }
      ],
      "name": "TooManyTraits",
      "type": "error"
    },
    {
      "anonymous": false,
      "inputs": [
        {
          "indexed": true,
          "internalType": "address",
          "name": "owner",
          "type": "address"
        },
        {
          "indexed": true,
          "internalType": "address",
          "name": "approved",
          "type": "address"
        },
        {
          "indexed": true,
          "internalType": "uint256",
          "name": "tokenId",
          "type": "uint256"
        }
      ],
      "name": "Approval",
      "type": "event"
    },
    {
      "anonymous": false,
      "inputs": [
        {
          "indexed": true,
          "internalType": "address",
          "name": "owner",
          "type": "address"
        },
        {
          "indexed": true,
          "internalType": "address",
          "name": "operator",
          "type": "address"
        },
        {
          "indexed": false,
          "internalType": "bool",
          "name": "approved",
          "type": "bool"
        }
      ],
      "name": "ApprovalForAll",
      "type": "event"
    },
    {
      "anonymous": false,
      "inputs": [
        {
          "indexed": true,
          "internalType": "bytes32",
          "name": "didHash",
          "type": "bytes32"
        },
        {
          "indexed": true,
          "internalType": "uint8",
          "name": "major",
          "type": "uint8"
        },
        {
          "indexed": true,
          "internalType": "uint256",
          "name": "tokenId",
          "type": "uint256"
        },
        {
          "indexed": false,
          "internalType": "string",
          "name": "newDataUrl",
          "type": "string"
        },
        {
          "indexed": false,
          "internalType": "bytes32",
          "name": "newDataHash",
          "type": "bytes32"
        },
        {
          "indexed": false,
          "internalType": "uint8",
          "name": "dataHashAlgorithm",
          "type": "uint8"
        }
      ],
      "name": "DataUrlUpdated",
      "type": "event"
    },
    {
      "anonymous": false,
      "inputs": [
        {
          "indexed": true,
          "internalType": "bytes32",
          "name": "didHash",
          "type": "bytes32"
        },
        {
          "indexed": true,
          "internalType": "uint8",
          "name": "major",
          "type": "uint8"
        },
        {
          "indexed": true,
          "internalType": "uint256",
          "name": "tokenId",
          "type": "uint256"
        },
        {
          "indexed": false,
          "internalType": "uint16",
          "name": "newInterfaces",
          "type": "uint16"
        }
      ],
      "name": "InterfacesUpdated",
      "type": "event"
    },
    {
      "anonymous": false,
      "inputs": [
        {
          "indexed": true,
          "internalType": "address",
          "name": "previousOwner",
          "type": "address"
        },
        {
          "indexed": true,
          "internalType": "address",
          "name": "newOwner",
          "type": "address"
        }
      ],
      "name": "OwnershipTransferred",
      "type": "event"
    },
    {
      "anonymous": false,
      "inputs": [
        {
          "indexed": true,
          "internalType": "uint256",
          "name": "tokenId",
          "type": "uint256"
        },
        {
          "indexed": false,
          "internalType": "string",
          "name": "dataUrl",
          "type": "string"
        },
        {
          "indexed": true,
          "internalType": "address",
          "name": "registerer",
          "type": "address"
        },
        {
          "indexed": true,
          "internalType": "bytes32",
          "name": "didHash",
          "type": "bytes32"
        },
        {
          "indexed": false,
          "internalType": "uint8",
          "name": "versionMajor",
          "type": "uint8"
        },
        {
          "indexed": false,
          "internalType": "uint16",
          "name": "interfaces",
          "type": "uint16"
        },
        {
          "indexed": false,
          "internalType": "uint256",
          "name": "registrationBlock",
          "type": "uint256"
        },
        {
          "indexed": false,
          "internalType": "uint256",
          "name": "registrationTimestamp",
          "type": "uint256"
        }
      ],
      "name": "Registered",
      "type": "event"
    },
    {
      "anonymous": false,
      "inputs": [
        {
          "indexed": true,
          "internalType": "bytes32",
          "name": "didHash",
          "type": "bytes32"
        },
        {
          "indexed": true,
          "internalType": "uint8",
          "name": "major",
          "type": "uint8"
        },
        {
          "indexed": true,
          "internalType": "uint256",
          "name": "tokenId",
          "type": "uint256"
        },
        {
          "indexed": false,
          "internalType": "uint8",
          "name": "newStatus",
          "type": "uint8"
        },
        {
          "indexed": false,
          "internalType": "uint256",
          "name": "timestamp",
          "type": "uint256"
        }
      ],
      "name": "StatusUpdated",
      "type": "event"
    },
    {
      "anonymous": false,
      "inputs": [
        {
          "indexed": true,
          "internalType": "bytes32",
          "name": "didHash",
          "type": "bytes32"
        },
        {
          "indexed": true,
          "internalType": "uint8",
          "name": "major",
          "type": "uint8"
        },
        {
          "indexed": true,
          "internalType": "uint256",
          "name": "tokenId",
          "type": "uint256"
        },
        {
          "indexed": false,
          "internalType": "bytes32[]",
          "name": "newTraitHashes",
          "type": "bytes32[]"
        }
      ],
      "name": "TraitsUpdated",
      "type": "event"
    },
    {
      "anonymous": false,
      "inputs": [
        {
          "indexed": true,
          "internalType": "address",
          "name": "from",
          "type": "address"
        },
        {
          "indexed": true,
          "internalType": "address",
          "name": "to",
          "type": "address"
        },
        {
          "indexed": true,
          "internalType": "uint256",
          "name": "tokenId",
          "type": "uint256"
        }
      ],
      "name": "Transfer",
      "type": "event"
    },
    {
      "anonymous": false,
      "inputs": [
        {
          "indexed": true,
          "internalType": "bytes32",
          "name": "didHash",
          "type": "bytes32"
        },
        {
          "indexed": true,
          "internalType": "uint8",
          "name": "major",
          "type": "uint8"
        },
        {
          "indexed": true,
          "internalType": "uint256",
          "name": "tokenId",
          "type": "uint256"
        },
        {
          "indexed": false,
          "internalType": "uint8",
          "name": "minor",
          "type": "uint8"
        },
        {
          "indexed": false,
          "internalType": "uint8",
          "name": "patch",
          "type": "uint8"
        }
      ],
      "name": "VersionAdded",
      "type": "event"
    },
    {
      "inputs": [
        {
          "internalType": "address",
          "name": "to",
          "type": "address"
        },
        {
          "internalType": "uint256",
          "name": "tokenId",
          "type": "uint256"
        }
      ],
      "name": "approve",
      "outputs": [],
      "stateMutability": "nonpayable",
      "type": "function"
    },
    {
      "inputs": [
        {
          "internalType": "address",
          "name": "owner",
          "type": "address"
        }
      ],
      "name": "balanceOf",
      "outputs": [
        {
          "internalType": "uint256",
          "name": "",
          "type": "uint256"
        }
      ],
      "stateMutability": "view",
      "type": "function"
    },
    {
      "inputs": [],
      "name": "dataUrlResolver",
      "outputs": [
        {
          "internalType": "contract IOMA3DataUrlResolver",
          "name": "",
          "type": "address"
        }
      ],
      "stateMutability": "view",
      "type": "function"
    },
    {
      "inputs": [
        {
          "internalType": "string",
          "name": "didString",
          "type": "string"
        },
        {
          "internalType": "uint8",
          "name": "major",
          "type": "uint8"
        }
      ],
      "name": "getApp",
      "outputs": [
        {
          "components": [
            {
              "internalType": "address",
              "name": "minter",
              "type": "address"
            },
            {
              "internalType": "uint16",
              "name": "interfaces",
              "type": "uint16"
            },
            {
              "internalType": "uint8",
              "name": "versionMajor",
              "type": "uint8"
            },
            {
              "internalType": "uint8",
              "name": "status",
              "type": "uint8"
            },
            {
              "internalType": "uint8",
              "name": "dataHashAlgorithm",
              "type": "uint8"
            },
            {
              "internalType": "bytes32",
              "name": "dataHash",
              "type": "bytes32"
            },
            {
              "internalType": "string",
              "name": "did",
              "type": "string"
            },
            {
              "internalType": "string",
              "name": "fungibleTokenId",
              "type": "string"
            },
            {
              "internalType": "string",
              "name": "contractId",
              "type": "string"
            },
            {
              "internalType": "string",
              "name": "dataUrl",
              "type": "string"
            },
            {
              "components": [
                {
                  "internalType": "uint8",
                  "name": "major",
                  "type": "uint8"
                },
                {
                  "internalType": "uint8",
                  "name": "minor",
                  "type": "uint8"
                },
                {
                  "internalType": "uint8",
                  "name": "patch",
                  "type": "uint8"
                }
              ],
              "internalType": "struct OMA3AppRegistry.Version[]",
              "name": "versionHistory",
              "type": "tuple[]"
            },
            {
              "internalType": "bytes32[]",
              "name": "traitHashes",
              "type": "bytes32[]"
            },
            {
              "internalType": "address",
              "name": "currentOwner",
              "type": "address"
            }
          ],
          "internalType": "struct OMA3AppRegistry.AppView",
          "name": "appView",
          "type": "tuple"
        }
      ],
      "stateMutability": "view",
      "type": "function"
    },
    {
      "inputs": [
        {
          "internalType": "uint256",
          "name": "tokenId",
          "type": "uint256"
        }
      ],
      "name": "getApproved",
      "outputs": [
        {
          "internalType": "address",
          "name": "",
          "type": "address"
        }
      ],
      "stateMutability": "view",
      "type": "function"
    },
    {
      "inputs": [
        {
          "internalType": "uint256",
          "name": "startIndex",
          "type": "uint256"
        }
      ],
      "name": "getApps",
      "outputs": [
        {
          "components": [
            {
              "internalType": "address",
              "name": "minter",
              "type": "address"
            },
            {
              "internalType": "uint16",
              "name": "interfaces",
              "type": "uint16"
            },
            {
              "internalType": "uint8",
              "name": "versionMajor",
              "type": "uint8"
            },
            {
              "internalType": "uint8",
              "name": "status",
              "type": "uint8"
            },
            {
              "internalType": "uint8",
              "name": "dataHashAlgorithm",
              "type": "uint8"
            },
            {
              "internalType": "bytes32",
              "name": "dataHash",
              "type": "bytes32"
            },
            {
              "internalType": "string",
              "name": "did",
              "type": "string"
            },
            {
              "internalType": "string",
              "name": "fungibleTokenId",
              "type": "string"
            },
            {
              "internalType": "string",
              "name": "contractId",
              "type": "string"
            },
            {
              "internalType": "string",
              "name": "dataUrl",
              "type": "string"
            },
            {
              "components": [
                {
                  "internalType": "uint8",
                  "name": "major",
                  "type": "uint8"
                },
                {
                  "internalType": "uint8",
                  "name": "minor",
                  "type": "uint8"
                },
                {
                  "internalType": "uint8",
                  "name": "patch",
                  "type": "uint8"
                }
              ],
              "internalType": "struct OMA3AppRegistry.Version[]",
              "name": "versionHistory",
              "type": "tuple[]"
            },
            {
              "internalType": "bytes32[]",
              "name": "traitHashes",
              "type": "bytes32[]"
            },
            {
              "internalType": "address",
              "name": "currentOwner",
              "type": "address"
            }
          ],
          "internalType": "struct OMA3AppRegistry.AppView[]",
          "name": "apps",
          "type": "tuple[]"
        },
        {
          "internalType": "uint256",
          "name": "nextStartIndex",
          "type": "uint256"
        }
      ],
      "stateMutability": "view",
      "type": "function"
    },
    {
      "inputs": [
        {
          "internalType": "uint16",
          "name": "interfaceMask",
          "type": "uint16"
        },
        {
          "internalType": "uint256",
          "name": "startIndex",
          "type": "uint256"
        }
      ],
      "name": "getAppsByInterface",
      "outputs": [
        {
          "components": [
            {
              "internalType": "address",
              "name": "minter",
              "type": "address"
            },
            {
              "internalType": "uint16",
              "name": "interfaces",
              "type": "uint16"
            },
            {
              "internalType": "uint8",
              "name": "versionMajor",
              "type": "uint8"
            },
            {
              "internalType": "uint8",
              "name": "status",
              "type": "uint8"
            },
            {
              "internalType": "uint8",
              "name": "dataHashAlgorithm",
              "type": "uint8"
            },
            {
              "internalType": "bytes32",
              "name": "dataHash",
              "type": "bytes32"
            },
            {
              "internalType": "string",
              "name": "did",
              "type": "string"
            },
            {
              "internalType": "string",
              "name": "fungibleTokenId",
              "type": "string"
            },
            {
              "internalType": "string",
              "name": "contractId",
              "type": "string"
            },
            {
              "internalType": "string",
              "name": "dataUrl",
              "type": "string"
            },
            {
              "components": [
                {
                  "internalType": "uint8",
                  "name": "major",
                  "type": "uint8"
                },
                {
                  "internalType": "uint8",
                  "name": "minor",
                  "type": "uint8"
                },
                {
                  "internalType": "uint8",
                  "name": "patch",
                  "type": "uint8"
                }
              ],
              "internalType": "struct OMA3AppRegistry.Version[]",
              "name": "versionHistory",
              "type": "tuple[]"
            },
            {
              "internalType": "bytes32[]",
              "name": "traitHashes",
              "type": "bytes32[]"
            },
            {
              "internalType": "address",
              "name": "currentOwner",
              "type": "address"
            }
          ],
          "internalType": "struct OMA3AppRegistry.AppView[]",
          "name": "apps",
          "type": "tuple[]"
        },
        {
          "internalType": "uint256",
          "name": "nextStartIndex",
          "type": "uint256"
        }
      ],
      "stateMutability": "view",
      "type": "function"
    },
    {
      "inputs": [
        {
          "internalType": "address",
          "name": "owner",
          "type": "address"
        },
        {
          "internalType": "uint256",
          "name": "startIndex",
          "type": "uint256"
        }
      ],
      "name": "getAppsByOwner",
      "outputs": [
        {
          "components": [
            {
              "internalType": "address",
              "name": "minter",
              "type": "address"
            },
            {
              "internalType": "uint16",
              "name": "interfaces",
              "type": "uint16"
            },
            {
              "internalType": "uint8",
              "name": "versionMajor",
              "type": "uint8"
            },
            {
              "internalType": "uint8",
              "name": "status",
              "type": "uint8"
            },
            {
              "internalType": "uint8",
              "name": "dataHashAlgorithm",
              "type": "uint8"
            },
            {
              "internalType": "bytes32",
              "name": "dataHash",
              "type": "bytes32"
            },
            {
              "internalType": "string",
              "name": "did",
              "type": "string"
            },
            {
              "internalType": "string",
              "name": "fungibleTokenId",
              "type": "string"
            },
            {
              "internalType": "string",
              "name": "contractId",
              "type": "string"
            },
            {
              "internalType": "string",
              "name": "dataUrl",
              "type": "string"
            },
            {
              "components": [
                {
                  "internalType": "uint8",
                  "name": "major",
                  "type": "uint8"
                },
                {
                  "internalType": "uint8",
                  "name": "minor",
                  "type": "uint8"
                },
                {
                  "internalType": "uint8",
                  "name": "patch",
                  "type": "uint8"
                }
              ],
              "internalType": "struct OMA3AppRegistry.Version[]",
              "name": "versionHistory",
              "type": "tuple[]"
            },
            {
              "internalType": "bytes32[]",
              "name": "traitHashes",
              "type": "bytes32[]"
            },
            {
              "internalType": "address",
              "name": "currentOwner",
              "type": "address"
            }
          ],
          "internalType": "struct OMA3AppRegistry.AppView[]",
          "name": "apps",
          "type": "tuple[]"
        },
        {
          "internalType": "uint256",
          "name": "nextStartIndex",
          "type": "uint256"
        }
      ],
      "stateMutability": "view",
      "type": "function"
    },
    {
      "inputs": [
        {
          "internalType": "uint8",
          "name": "status",
          "type": "uint8"
        },
        {
          "internalType": "uint256",
          "name": "startIndex",
          "type": "uint256"
        }
      ],
      "name": "getAppsByStatus",
      "outputs": [
        {
          "components": [
            {
              "internalType": "address",
              "name": "minter",
              "type": "address"
            },
            {
              "internalType": "uint16",
              "name": "interfaces",
              "type": "uint16"
            },
            {
              "internalType": "uint8",
              "name": "versionMajor",
              "type": "uint8"
            },
            {
              "internalType": "uint8",
              "name": "status",
              "type": "uint8"
            },
            {
              "internalType": "uint8",
              "name": "dataHashAlgorithm",
              "type": "uint8"
            },
            {
              "internalType": "bytes32",
              "name": "dataHash",
              "type": "bytes32"
            },
            {
              "internalType": "string",
              "name": "did",
              "type": "string"
            },
            {
              "internalType": "string",
              "name": "fungibleTokenId",
              "type": "string"
            },
            {
              "internalType": "string",
              "name": "contractId",
              "type": "string"
            },
            {
              "internalType": "string",
              "name": "dataUrl",
              "type": "string"
            },
            {
              "components": [
                {
                  "internalType": "uint8",
                  "name": "major",
                  "type": "uint8"
                },
                {
                  "internalType": "uint8",
                  "name": "minor",
                  "type": "uint8"
                },
                {
                  "internalType": "uint8",
                  "name": "patch",
                  "type": "uint8"
                }
              ],
              "internalType": "struct OMA3AppRegistry.Version[]",
              "name": "versionHistory",
              "type": "tuple[]"
            },
            {
              "internalType": "bytes32[]",
              "name": "traitHashes",
              "type": "bytes32[]"
            },
            {
              "internalType": "address",
              "name": "currentOwner",
              "type": "address"
            }
          ],
          "internalType": "struct OMA3AppRegistry.AppView[]",
          "name": "apps",
          "type": "tuple[]"
        },
        {
          "internalType": "uint256",
          "name": "nextStartIndex",
          "type": "uint256"
        }
      ],
      "stateMutability": "view",
      "type": "function"
    },
    {
      "inputs": [
        {
          "internalType": "uint256",
          "name": "tokenId",
          "type": "uint256"
        }
      ],
      "name": "getDIDByTokenId",
      "outputs": [
        {
          "internalType": "string",
          "name": "",
          "type": "string"
        }
      ],
      "stateMutability": "view",
      "type": "function"
    },
    {
      "inputs": [
        {
          "internalType": "string",
          "name": "didString",
          "type": "string"
        }
      ],
      "name": "getDidHash",
      "outputs": [
        {
          "internalType": "bytes32",
          "name": "",
          "type": "bytes32"
        }
      ],
      "stateMutability": "pure",
      "type": "function"
    },
    {
      "inputs": [
        {
          "internalType": "uint256",
          "name": "tokenId",
          "type": "uint256"
        },
        {
          "internalType": "string",
          "name": "key",
          "type": "string"
        }
      ],
      "name": "getMetadata",
      "outputs": [
        {
          "internalType": "bytes",
          "name": "value",
          "type": "bytes"
        }
      ],
      "stateMutability": "view",
      "type": "function"
    },
    {
      "inputs": [
        {
          "internalType": "address",
          "name": "owner",
          "type": "address"
        }
      ],
      "name": "getTotalAppsByOwner",
      "outputs": [
        {
          "internalType": "uint256",
          "name": "",
          "type": "uint256"
        }
      ],
      "stateMutability": "view",
      "type": "function"
    },
    {
      "inputs": [
        {
          "internalType": "uint8",
          "name": "status",
          "type": "uint8"
        }
      ],
      "name": "getTotalAppsByStatus",
      "outputs": [
        {
          "internalType": "uint256",
          "name": "",
          "type": "uint256"
        }
      ],
      "stateMutability": "view",
      "type": "function"
    },
    {
      "inputs": [
        {
          "internalType": "string",
          "name": "didString",
          "type": "string"
        },
        {
          "internalType": "uint8",
          "name": "major",
          "type": "uint8"
        },
        {
          "internalType": "bytes32[]",
          "name": "traits",
          "type": "bytes32[]"
        }
      ],
      "name": "hasAllTraits",
      "outputs": [
        {
          "internalType": "bool",
          "name": "",
          "type": "bool"
        }
      ],
      "stateMutability": "view",
      "type": "function"
    },
    {
      "inputs": [
        {
          "internalType": "string",
          "name": "didString",
          "type": "string"
        },
        {
          "internalType": "uint8",
          "name": "major",
          "type": "uint8"
        },
        {
          "internalType": "bytes32[]",
          "name": "traits",
          "type": "bytes32[]"
        }
      ],
      "name": "hasAnyTraits",
      "outputs": [
        {
          "internalType": "bool",
          "name": "",
          "type": "bool"
        }
      ],
      "stateMutability": "view",
      "type": "function"
    },
    {
      "inputs": [
        {
          "internalType": "address",
          "name": "owner",
          "type": "address"
        },
        {
          "internalType": "address",
          "name": "operator",
          "type": "address"
        }
      ],
      "name": "isApprovedForAll",
      "outputs": [
        {
          "internalType": "bool",
          "name": "",
          "type": "bool"
        }
      ],
      "stateMutability": "view",
      "type": "function"
    },
    {
      "inputs": [
        {
          "internalType": "bytes32",
          "name": "didHash",
          "type": "bytes32"
        }
      ],
      "name": "latestMajor",
      "outputs": [
        {
          "internalType": "uint8",
          "name": "",
          "type": "uint8"
        }
      ],
      "stateMutability": "view",
      "type": "function"
    },
    {
      "inputs": [],
      "name": "metadataContract",
      "outputs": [
        {
          "internalType": "contract IOMA3AppMetadata",
          "name": "",
          "type": "address"
        }
      ],
      "stateMutability": "view",
      "type": "function"
    },
    {
      "inputs": [
        {
          "internalType": "string",
          "name": "didString",
          "type": "string"
        },
        {
          "internalType": "uint16",
          "name": "interfaces",
          "type": "uint16"
        },
        {
          "internalType": "string",
          "name": "dataUrl",
          "type": "string"
        },
        {
          "internalType": "bytes32",
          "name": "dataHash",
          "type": "bytes32"
        },
        {
          "internalType": "uint8",
          "name": "dataHashAlgorithm",
          "type": "uint8"
        },
        {
          "internalType": "string",
          "name": "fungibleTokenId",
          "type": "string"
        },
        {
          "internalType": "string",
          "name": "contractId",
          "type": "string"
        },
        {
          "internalType": "uint8",
          "name": "initialVersionMajor",
          "type": "uint8"
        },
        {
          "internalType": "uint8",
          "name": "initialVersionMinor",
          "type": "uint8"
        },
        {
          "internalType": "uint8",
          "name": "initialVersionPatch",
          "type": "uint8"
        },
        {
          "internalType": "bytes32[]",
          "name": "traitHashes",
          "type": "bytes32[]"
        },
        {
          "internalType": "string",
          "name": "metadataJson",
          "type": "string"
        }
      ],
      "name": "mint",
      "outputs": [
        {
          "internalType": "uint256",
          "name": "",
          "type": "uint256"
        }
      ],
      "stateMutability": "nonpayable",
      "type": "function"
    },
    {
      "inputs": [],
      "name": "name",
      "outputs": [
        {
          "internalType": "string",
          "name": "",
          "type": "string"
        }
      ],
      "stateMutability": "view",
      "type": "function"
    },
    {
      "inputs": [],
      "name": "owner",
      "outputs": [
        {
          "internalType": "address",
          "name": "",
          "type": "address"
        }
      ],
      "stateMutability": "view",
      "type": "function"
    },
    {
      "inputs": [
        {
          "internalType": "uint256",
          "name": "tokenId",
          "type": "uint256"
        }
      ],
      "name": "ownerOf",
      "outputs": [
        {
          "internalType": "address",
          "name": "",
          "type": "address"
        }
      ],
      "stateMutability": "view",
      "type": "function"
    },
    {
      "inputs": [],
      "name": "ownershipResolver",
      "outputs": [
        {
          "internalType": "contract IOMA3OwnershipResolver",
          "name": "",
          "type": "address"
        }
      ],
      "stateMutability": "view",
      "type": "function"
    },
    {
      "inputs": [
        {
          "internalType": "string",
          "name": "_tokenURI",
          "type": "string"
        },
        {
          "components": [
            {
              "internalType": "string",
              "name": "key",
              "type": "string"
            },
            {
              "internalType": "bytes",
              "name": "value",
              "type": "bytes"
            }
          ],
          "internalType": "struct OMA3AppRegistry.MetadataEntry[]",
          "name": "_metadata",
          "type": "tuple[]"
        }
      ],
      "name": "register",
      "outputs": [
        {
          "internalType": "uint256",
          "name": "",
          "type": "uint256"
        }
      ],
      "stateMutability": "nonpayable",
      "type": "function"
    },
    {
      "inputs": [
        {
          "internalType": "string",
          "name": "_tokenURI",
          "type": "string"
        }
      ],
      "name": "register",
      "outputs": [
        {
          "internalType": "uint256",
          "name": "",
          "type": "uint256"
        }
      ],
      "stateMutability": "nonpayable",
      "type": "function"
    },
    {
      "inputs": [
        {
          "internalType": "bytes32",
          "name": "",
          "type": "bytes32"
        }
      ],
      "name": "registrationBlock",
      "outputs": [
        {
          "internalType": "uint256",
          "name": "",
          "type": "uint256"
        }
      ],
      "stateMutability": "view",
      "type": "function"
    },
    {
      "inputs": [],
      "name": "registrationResolver",
      "outputs": [
        {
          "internalType": "contract IOMA3RegistrationResolver",
          "name": "",
          "type": "address"
        }
      ],
      "stateMutability": "view",
      "type": "function"
    },
    {
      "inputs": [
        {
          "internalType": "bytes32",
          "name": "",
          "type": "bytes32"
        }
      ],
      "name": "registrationTimestamp",
      "outputs": [
        {
          "internalType": "uint256",
          "name": "",
          "type": "uint256"
        }
      ],
      "stateMutability": "view",
      "type": "function"
    },
    {
      "inputs": [],
      "name": "renounceOwnership",
      "outputs": [],
      "stateMutability": "nonpayable",
      "type": "function"
    },
    {
      "inputs": [],
      "name": "requireDataUrlAttestation",
      "outputs": [
        {
          "internalType": "bool",
          "name": "",
          "type": "bool"
        }
      ],
      "stateMutability": "view",
      "type": "function"
    },
    {
      "inputs": [
        {
          "internalType": "address",
          "name": "from",
          "type": "address"
        },
        {
          "internalType": "address",
          "name": "to",
          "type": "address"
        },
        {
          "internalType": "uint256",
          "name": "tokenId",
          "type": "uint256"
        }
      ],
      "name": "safeTransferFrom",
      "outputs": [],
      "stateMutability": "nonpayable",
      "type": "function"
    },
    {
      "inputs": [
        {
          "internalType": "address",
          "name": "from",
          "type": "address"
        },
        {
          "internalType": "address",
          "name": "to",
          "type": "address"
        },
        {
          "internalType": "uint256",
          "name": "tokenId",
          "type": "uint256"
        },
        {
          "internalType": "bytes",
          "name": "data",
          "type": "bytes"
        }
      ],
      "name": "safeTransferFrom",
      "outputs": [],
      "stateMutability": "nonpayable",
      "type": "function"
    },
    {
      "inputs": [
        {
          "internalType": "address",
          "name": "operator",
          "type": "address"
        },
        {
          "internalType": "bool",
          "name": "approved",
          "type": "bool"
        }
      ],
      "name": "setApprovalForAll",
      "outputs": [],
      "stateMutability": "nonpayable",
      "type": "function"
    },
    {
      "inputs": [
        {
          "internalType": "address",
          "name": "_resolver",
          "type": "address"
        }
      ],
      "name": "setDataUrlResolver",
      "outputs": [],
      "stateMutability": "nonpayable",
      "type": "function"
    },
    {
      "inputs": [
        {
          "internalType": "address",
          "name": "_metadataContract",
          "type": "address"
        }
      ],
      "name": "setMetadataContract",
      "outputs": [],
      "stateMutability": "nonpayable",
      "type": "function"
    },
    {
      "inputs": [
        {
          "internalType": "address",
          "name": "_resolver",
          "type": "address"
        }
      ],
      "name": "setOwnershipResolver",
      "outputs": [],
      "stateMutability": "nonpayable",
      "type": "function"
    },
    {
      "inputs": [
        {
          "internalType": "address",
          "name": "_resolver",
          "type": "address"
        }
      ],
      "name": "setRegistrationResolver",
      "outputs": [],
      "stateMutability": "nonpayable",
      "type": "function"
    },
    {
      "inputs": [
        {
          "internalType": "bool",
          "name": "_require",
          "type": "bool"
        }
      ],
      "name": "setRequireDataUrlAttestation",
      "outputs": [],
      "stateMutability": "nonpayable",
      "type": "function"
    },
    {
      "inputs": [
        {
          "internalType": "bytes4",
          "name": "interfaceId",
          "type": "bytes4"
        }
      ],
      "name": "supportsInterface",
      "outputs": [
        {
          "internalType": "bool",
          "name": "",
          "type": "bool"
        }
      ],
      "stateMutability": "view",
      "type": "function"
    },
    {
      "inputs": [],
      "name": "symbol",
      "outputs": [
        {
          "internalType": "string",
          "name": "",
          "type": "string"
        }
      ],
      "stateMutability": "view",
      "type": "function"
    },
    {
      "inputs": [
        {
          "internalType": "uint256",
          "name": "index",
          "type": "uint256"
        }
      ],
      "name": "tokenByIndex",
      "outputs": [
        {
          "internalType": "uint256",
          "name": "",
          "type": "uint256"
        }
      ],
      "stateMutability": "view",
      "type": "function"
    },
    {
      "inputs": [
        {
          "internalType": "address",
          "name": "owner",
          "type": "address"
        },
        {
          "internalType": "uint256",
          "name": "index",
          "type": "uint256"
        }
      ],
      "name": "tokenOfOwnerByIndex",
      "outputs": [
        {
          "internalType": "uint256",
          "name": "",
          "type": "uint256"
        }
      ],
      "stateMutability": "view",
      "type": "function"
    },
    {
      "inputs": [
        {
          "internalType": "uint256",
          "name": "tokenId",
          "type": "uint256"
        }
      ],
      "name": "tokenURI",
      "outputs": [
        {
          "internalType": "string",
          "name": "",
          "type": "string"
        }
      ],
      "stateMutability": "view",
      "type": "function"
    },
    {
      "inputs": [],
      "name": "totalSupply",
      "outputs": [
        {
          "internalType": "uint256",
          "name": "",
          "type": "uint256"
        }
      ],
      "stateMutability": "view",
      "type": "function"
    },
    {
      "inputs": [
        {
          "internalType": "address",
          "name": "from",
          "type": "address"
        },
        {
          "internalType": "address",
          "name": "to",
          "type": "address"
        },
        {
          "internalType": "uint256",
          "name": "tokenId",
          "type": "uint256"
        }
      ],
      "name": "transferFrom",
      "outputs": [],
      "stateMutability": "nonpayable",
      "type": "function"
    },
    {
      "inputs": [
        {
          "internalType": "address",
          "name": "newOwner",
          "type": "address"
        }
      ],
      "name": "transferOwnership",
      "outputs": [],
      "stateMutability": "nonpayable",
      "type": "function"
    },
    {
      "inputs": [
        {
          "internalType": "string",
          "name": "didString",
          "type": "string"
        },
        {
          "internalType": "uint8",
          "name": "major",
          "type": "uint8"
        },
        {
          "internalType": "string",
          "name": "newDataUrl",
          "type": "string"
        },
        {
          "internalType": "bytes32",
          "name": "newDataHash",
          "type": "bytes32"
        },
        {
          "internalType": "uint8",
          "name": "newDataHashAlgorithm",
          "type": "uint8"
        },
        {
          "internalType": "uint16",
          "name": "newInterfaces",
          "type": "uint16"
        },
        {
          "internalType": "bytes32[]",
          "name": "newTraitHashes",
          "type": "bytes32[]"
        },
        {
          "internalType": "uint8",
          "name": "newMinor",
          "type": "uint8"
        },
        {
          "internalType": "uint8",
          "name": "newPatch",
          "type": "uint8"
        },
        {
          "internalType": "string",
          "name": "metadataJson",
          "type": "string"
        }
      ],
      "name": "updateAppControlled",
      "outputs": [],
      "stateMutability": "nonpayable",
      "type": "function"
    },
    {
      "inputs": [
        {
          "internalType": "string",
          "name": "didString",
          "type": "string"
        },
        {
          "internalType": "uint8",
          "name": "major",
          "type": "uint8"
        },
        {
          "internalType": "uint8",
          "name": "newStatus",
          "type": "uint8"
        }
      ],
      "name": "updateStatus",
      "outputs": [],
      "stateMutability": "nonpayable",
      "type": "function"
    }
  ],
  "bytecode": "0x60806040523461037b57604080519081016001600160401b0381118282101761029157604090815260118252704f4d41332041707020526567697374727960781b602083015280519081016001600160401b0381118282101761029157604052600781526604f4d41334150560cc1b602082015281516001600160401b038111610291575f54600181811c91168015610371575b602082101461027357601f811161030f575b50602092601f82116001146102b057928192935f926102a5575b50508160011b915f199060031b1c1916175f555b80516001600160401b03811161029157600154600181811c91168015610287575b602082101461027357601f8111610210575b50602091601f82116001146101b0579181925f926101a5575b50508160011b915f199060031b1c1916176001555b331561019257600a8054336001600160a01b03198216811790925560405191906001600160a01b03167f8be0079c531659141344cd1fd0a4f28419497f9722a3daafe3b4186f6b6457e05f80a36001600b5561513b90816103808239f35b631e4fbdf760e01b5f525f60045260245ffd5b015190505f8061011f565b601f1982169260015f52805f20915f5b8581106101f8575083600195106101e0575b505050811b01600155610134565b01515f1960f88460031b161c191690555f80806101d2565b919260206001819286850151815501940192016101c0565b60015f527fb10e2d527612073b26eecdfd717e6a320cf44b4afac2b0732d9fcbe2b7fa0cf6601f830160051c81019160208410610269575b601f0160051c01905b81811061025e5750610106565b5f8155600101610251565b9091508190610248565b634e487b7160e01b5f52602260045260245ffd5b90607f16906100f4565b634e487b7160e01b5f52604160045260245ffd5b015190505f806100bf565b601f198216935f8052805f20915f5b8681106102f757508360019596106102df575b505050811b015f556100d3565b01515f1960f88460031b161c191690555f80806102d2565b919260206001819286850151815501940192016102bf565b5f80527f290decd9548b62a8d60345a988386fc84ba6bc95484008f6362f93160ef3e563601f830160051c81019160208410610367575b601f0160051c01905b81811061035c57506100a5565b5f815560010161034f565b9091508190610346565b90607f1690610093565b5f80fdfe6102a0806040526004361015610013575f80fd5b5f3560e01c90816301ffc9a7146124ab5750806306fdde0314612409578063081812fc146123cd578063095ea7b3146122e35780630fecc4fb14611fe757806318160ddd146122c657806323b872dd146122af57806327ca40c21461228a5780632a678e91146122625780632f745c591461223b57806333c49a6a1461221357806335209821146121eb5780633f89efe7146121c157806342842e0e146121985780634f6ccce71461211457806353a2b12a146120ef5780636352211e146120bf5780636bb1d6e11461200a57806370a0823114611fe7578063715018a614611f8c5780637c6ecba914611ef657806385ddd4a014611ea25780638da5cb5b14611e7a5780638ea422861461193657806395d89b411461186c57806399671e38146110ba578063a1e5425e14611067578063a22cb46514610fcc578063a38dca5114610f35578063a95018d814610ef5578063b2a7b15814610ed0578063b51c31ef14610e8b578063b53818f614610d6b578063b5503f3214610d43578063b56ccfae14610d18578063b88d4fde14610cc8578063bd629a3514610caf578063c19ab07e1461099e578063c87b56dd14610932578063cb4799f2146108e0578063cef7b5d8146108a0578063d81e0de7146107bb578063db737a9214610721578063db764d92146106fe578063e5187f4314610668578063e985e9c514610611578063f2c298be146102ec578063f2fde38b146102665763fe87533f14610238575f80fd5b34610262576020366003190112610262576004355f526014602052602060405f2054604051908152f35b5f80fd5b346102625760203660031901126102625761027f61256e565b610287613eec565b6001600160a01b031680156102d957600a80546001600160a01b0319811683179091556001600160a01b03167f8be0079c531659141344cd1fd0a4f28419497f9722a3daafe3b4186f6b6457e05f80a3005b631e4fbdf760e01b5f525f60045260245ffd5b34610262576020366003190112610262576004356001600160401b0381116102625761031c90369060040161285b565b610324613f13565b6018546001600160a01b031680156105cc575f60405180926371995b6b60e01b825233600483015260406024830152818381610363604482018961254a565b03925af19081156105c1575f916103dc575b60206103cf848480519161ffff858301511690606083015160ff60808501511660a085015160c08601519160ff60e0880151169360ff610100890151169560ff6101208a015116976101606101408b01519a01519a613f33565b6001600b55604051908152f35b90503d805f833e6103ed818361281f565b810190602081830312610262578051906001600160401b0382116102625701916101c08383031261026257604051916101c083018381106001600160401b038211176105ad5760405283516001600160401b03811161026257816104529186016130f4565b8352610460602085016131ca565b602084015260408401516001600160401b03811161026257816104849186016130f4565b60408401526060840151606084015261049f608085016131bc565b608084015260a08401516001600160401b03811161026257816104c39186016130f4565b60a084015260c08401516001600160401b03811161026257816104e79186016130f4565b60c08401526104f860e085016131bc565b60e084015261050a61010085016131bc565b61010084015261051d61012085016131bc565b6101208401526101408401516001600160401b038111610262578161054391860161315f565b610140840152610160840151906001600160401b038211610262576105699185016130f4565b610160830152610180830151916001600160401b03831683036102625761059f6101a06020956103cf9561018085015201613d32565b6101a0820152915091610375565b634e487b7160e01b5f52604160045260245ffd5b6040513d5f823e3d90fd5b60405162461bcd60e51b815260206004820152601d60248201527f526567697374726174696f6e207265736f6c766572206e6f74207365740000006044820152606490fd5b346102625760403660031901126102625761062a61256e565b610632612584565b9060018060a01b03165f52600560205260405f209060018060a01b03165f52602052602060ff60405f2054166040519015158152f35b346102625760203660031901126102625761068161256e565b610689613eec565b6001600160a01b031680156106af576001600160601b0360a01b60155416176015555f80f35b60405162461bcd60e51b815260206004820152602160248201527f496e76616c6964206d6574616461746120636f6e7472616374206164647265736044820152607360f81b6064820152608490fd5b3461026257602061071761071136612913565b91613c96565b6040519015158152f35b346102625760203660031901126102625761073a61256e565b610742613eec565b6001600160a01b03168015610768576001600160601b0360a01b60185416176018555f80f35b60405162461bcd60e51b815260206004820152602560248201527f496e76616c696420726567697374726174696f6e207265736f6c766572206164604482015264647265737360d81b6064820152608490fd5b34610262576060366003190112610262576004356001600160401b038111610262576107eb90369060040161285b565b6107f36127a7565b906044359060ff821682036102625761082983825160208401205f52600d60205260ff60405f2091165f5260205260405f205490565b80156108845761083890613d3f565b336001600160a01b0390911603610862579161085b92610856613f13565b613aeb565b6001600b55005b604051635f69c25560e01b81529283925061088091600484016130a2565b0390fd5b604051634ecda4f560e11b8152806108808685600484016130a2565b346102625760403660031901126102625760043561ffff81168103610262576108cc90602435906139b5565b906108dc60405192839283612732565b0390f35b34610262576040366003190112610262576024356001600160401b0381116102625761091e6109166108dc92369060040161285b565b6004356134fe565b60405191829160208352602083019061254a565b34610262576020366003190112610262576004355f818152600260205260409020546001600160a01b03161561098c575f52600c6020526108dc61098561091e600560405f2001604051928380926129a5565b038261281f565b63a42088b560e01b5f5260045260245ffd5b34610262576020366003190112610262576040516329d1589560e11b81525f600480830182905235602483015281604481305afa9081156105c1575f905f926109f2575b506108dc60405192839283612732565b9150503d805f833e610a04818361281f565b8101906040818303126102625780516001600160401b0381116102625781019180601f8401121561026257825192610a3b8461289f565b93610a49604051958661281f565b80855260208086019160051b830101918383116102625760208101915b838310610a7d5750505050506020015190826109e2565b82516001600160401b038111610262578201906101a0828703601f1901126102625760405190610aac82612803565b610ab8602084016134ea565b8252610ac6604084016131ca565b6020830152610ad7606084016131bc565b6040830152610ae8608084016131bc565b6060830152610af960a084016131bc565b608083015260c083015160a083015260e08301516001600160401b03811161026257876020610b2a928601016130f4565b60c08301526101008301516001600160401b03811161026257876020610b52928601016130f4565b60e08301526101208301516001600160401b03811161026257876020610b7a928601016130f4565b6101008301526101408301516001600160401b03811161026257876020610ba3928601016130f4565b6101208301526101608301516001600160401b0381116102625760209084010187601f82011215610262578051610bd98161289f565b91610be7604051938461281f565b818352602060608185019302820101908a821161026257602001915b818310610c5e57505050610140830152610180830151916001600160401b03831161026257610c4d6101a085610c418b60208099988199010161315f565b610160850152016134ea565b610180820152815201920191610a66565b6060838c0312610262576020606091604051610c79816127e8565b610c82866131bc565b8152610c8f8387016131bc565b83820152610c9f604087016131bc565b6040820152815201920191610c03565b34610262576020610717610cc236612913565b9161342f565b3461026257608036600319011261026257610ce161256e565b610ce9612584565b606435916001600160401b03831161026257610d0c610d1693369060040161285b565b91604435916132b8565b005b34610262576020366003190112610262576020610d3b610d36612797565b613250565b604051908152f35b34610262575f366003190112610262576018546040516001600160a01b039091168152602090f35b3461026257610180366003190112610262576004356001600160401b03811161026257610d9c90369060040161285b565b6024359061ffff82168203610262576044356001600160401b03811161026257610dca90369060040161285b565b91610dd36127b7565b60a4356001600160401b03811161026257610df290369060040161285b565b60c4356001600160401b03811161026257610e1190369060040161285b565b610e196127c7565b610e216127d7565b91610124359360ff8516850361026257610144356001600160401b03811161026257610e519036906004016128b6565b9561016435986001600160401b038a116102625760209a610e796103cf9b369060040161285b565b99610e82613f13565b60643592613f33565b346102625760203660031901126102625760043580151580910361026257610eb1613eec565b6018805460ff60a01b191660a09290921b60ff60a01b16919091179055005b34610262575f36600319011261026257602060ff60185460a01c166040519015158152f35b34610262576020366003190112610262576004356001600160401b03811161026257610f27602091369060040161285b565b818151910120604051908152f35b3461026257602036600319011261026257610f4e61256e565b610f56613eec565b6001600160a01b03168015610f7c576001600160601b0360a01b60165416176016555f80f35b60405162461bcd60e51b815260206004820152602260248201527f496e76616c6964206f776e657273686970207265736f6c766572206164647265604482015261737360f01b6064820152608490fd5b3461026257604036600319011261026257610fe561256e565b60243590811515809203610262576001600160a01b031690811561105457335f52600560205260405f20825f5260205260405f2060ff1981541660ff83161790556040519081527f17307eab39ab6107e8899845ad3d59bd9653f200f220920489ca2b5937696c3160203392a3005b50630b61174360e31b5f5260045260245ffd5b34610262576020366003190112610262576004355f818152600260205260409020546001600160a01b03161561098c575f52600c6020526108dc61098561091e600260405f2001604051928380926129a5565b3461026257610140366003190112610262576004356001600160401b038111610262576110eb90369060040161285b565b60a0526110f66127a7565b60e0526044356001600160401b0381116102625761111890369060040161285b565b6111206127b7565b60c05260a43561ffff811681036102625760c4356001600160401b038111610262576111509036906004016128b6565b916111596127c7565b916111626127d7565b93610124356001600160401b0381116102625761118390369060040161285b565b60805260a051516111b6602060a051019160e0519083205f52600d60205260ff60405f2091165f5260205260405f205490565b801561184c576111c590613d3f565b336001600160a01b039091160361182c576111de613f13565b60a05151902090815f52600d60205260405f2060ff60e051165f5260205260405f205493845f52600c60205260405f20938151908115159182611800575b5081156117dd575b81156117c5575b61ffff81161515806117af575b8451159383159384806117a7575b806117a0575b611791576006890154805f1981011161177d578a9561127285925f190160068d01612eea565b509161170c575b8290611704575b6116a9575b5080611666575b851561163d575b611499575b50611443575b50501561137e575b506040516112b3816127e8565b60ff60e051169283825260ff8616602083015260ff871660408301526006810154600160401b8110156105ad5760066112f492600183018282015501612eea565b91909161136b5761130491613212565b6040805160ff8681168252871660208201527f8ab6771ee4cb5523129ea5bd846d7f7d4103bbf1a2cebe9dca96f04dfbd222ed9190a460805151611349576001600b55005b6113649160c05191606435916080519160e05160a051614fe5565b808061085b565b634e487b7160e01b5f525f60045260245ffd5b8051600784016001600160401b0382116105ad57600160401b82116105ad57805482825580831061141d575b509082916020879401905f5260205f205f5b8381106114065750505050827f536e40ba7e2dd8d050f26bde7e64327c5e2375c23eb08a756d093181e683b5f6604051806113fd60ff60e0511695826131d9565b0390a4856112a6565b8251818301558895506020909201916001016113bc565b815f528260205f2091820191015b81811061143857506113aa565b5f815560010161142b565b855461ffff60a01b191660a082901b61ffff60a01b1617865561ffff60405191168152847f3caeada380b095b0be8b51d0aed4ae24286f0178967772d5bc509fd50eb82c75602060ff60e0511693a4848861129e565b805193506001600160401b0384116105ad5788936114ba60058a015461296d565b601f81116115e7575b506020601f821160011461157a5790808693925f9161156f575b508160011b915f199060031b1c19161760058a01555b60643560018a015560c080518a5460ff60c01b1916911b60ff60c01b16178955877fb5daf8653c340810f25c86316337b06a4d13c3730ea2bfd33d9280f3cfcc307061154a6040519360608552606085019061254a565b92606435602082015260ff60c0511660408201528060ff60e05116940390a48a611298565b90508201518e6114dd565b60058a015f52805f20905f5b601f19841681106115cc57509160019187949382601f198116106115b4575b5050811b0160058a01556114f3565b8401515f1960f88460031b161c191690558e806115a5565b8185015183558c975060019092019160209182019101611586565b909192939450600589015f5260205f20601f830160051c810160208410611636575b908b9695949392915b601f830160051c820181106116285750506114c3565b5f81558c9750600101611612565b5080611609565b935061164886614fc7565b60643515611657578893611293565b633b66b41d60e21b5f5260045ffd5b908092939450511561169a57815161010081116116885750908893929161128c565b6371a40f7160e01b5f5260045260245ffd5b63df9e8a8160e01b5f5260045ffd5b9091929394505460ff8160081c1660ff8c161115806116f1575b6116d257908994939291611285565b8b60ff80926331c6775f60e01b5f5260101c166004521660245260445ffd5b5060ff8160101c1660ff8d1611156116c3565b508615611280565b9091929394955060ff825460081c1660ff8d16908082111561176857505061ffff8a5460a01c8181169182918916160361174d5750908a9594939291611279565b8661ffff91631571017560e31b5f526004521660245260445ffd5b63cc1e425960e01b5f5260045260245260445ffd5b634e487b7160e01b5f52601160045260245ffd5b630c1dc38b60e11b5f5260045ffd5b508561124c565b508215611246565b5061ffff865460a01c1661ffff82161415611238565b905060ff855460c01c1660ff60c0511614159061122b565b90506064351515806117f0575b90611224565b50600185015460643514156117ea565b909150602083012060405161181c816109858160058b016129a5565b602081519101201415908961121c565b604051635f69c25560e01b81528061088060e05160a051600484016130a2565b604051634ecda4f560e11b81528061088060e05160a051600484016130a2565b34610262575f366003190112610262576040515f60015461188c8161296d565b808452906001811690811561191257506001146118b4575b6108dc8361091e8185038261281f565b60015f9081527fb10e2d527612073b26eecdfd717e6a320cf44b4afac2b0732d9fcbe2b7fa0cf6939250905b8082106118f85750909150810160200161091e6118a4565b9192600181602092548385880101520191019092916118e0565b60ff191660208086019190915291151560051b8401909101915061091e90506118a4565b34610262576040366003190112610262576004356001600160401b0381116102625761196690369060040161285b565b6024356001600160401b03811161026257366023820112156102625780600401356119908161289f565b9161199e604051938461281f565b8183526024602084019260051b820101903682116102625760248101925b828410611de15785856119cd613f13565b6060916001905f5f85866001915f935f958a978b995f9c5b8d8d511115611dd3576119f88e8e612dec565b5151602081519101207f4af34ffd9904d5bc4854346ab5ad09ba5dfb85bdbcabda139065f3cd26385b0c81145f14611a5a5750506001611a5160208f8f90611a3f91612dec565b5101516020808251830101910161313a565b9d5b019c6119e5565b909d938d917f491804cb91ec5cd12f861f142d8204e7b75cc8be84d78bf4e1ce2679da74424d8103611ab1575050611a9484602092612dec565b510151602081805181010312610262576020600191015193611a53565b949590947fc9d54eb7b84d9ee03d7e291d0304f5f17e656d3a13f90908b9d2b5abad311bc78103611b0e575050611aea85602092612dec565b51015160208180518101031261026257611b086020600192016131bc565b94611a53565b909592907f47e3896e0d0ff43a3431a60c9ca5e20041e273da9f26ffc0f04eafc80f7d7cb38103611b6b575050611b4782602092612dec565b51015160208180518101031261026257611b656020600192016131ca565b91611a53565b929690927f164c6244b2e19c26d9b6edbba573afdd43797ec33e4c02786f7920cb8509c3968103611baf575050611ba96020611a3f88600194612dec565b95611a53565b969790967f2fc6f32cae07e7ae089902644376689fdc72e3b74369068c60fa3a1b59ea3aaa8103611bf3575050611bed6020611a3f89600194612dec565b96611a53565b979890977f822fcd80c2305106a6b64e09f6d6c4eb5bdd964b8e3373e3b3a1eba5a1eef7098103611c50575050611c2c88602092612dec565b51015160208180518101031261026257611c4a6020600192016131bc565b97611a53565b989990987f77260edc9ffce91576691a2ac19fee12a572d0a5fb8bf9ecef7ef6b291e93ad38103611cad575050611c8989602092612dec565b51015160208180518101031261026257611ca76020600192016131bc565b98611a53565b999a90997fd0f8a96f4037e03022df4b601e82b54f7ba66b54b01f842de2243666580dc2778103611d0a575050611ce68a602092612dec565b51015160208180518101031261026257611d046020600192016131bc565b99611a53565b9a9b909a7f9ab47b3a4531c42654638ea0611351352fada062374aeeb8bdb1e2283de54e0c8103611d82575050611d438b602092612dec565b5101518051810190602081830312610262576020810151906001600160401b038211610262576020611d7c92816001950192010161315f565b9a611a53565b909b91907f6a6fcee3dfc55c9d85c759f47ae5a6f25e81b184c2cedf77171ca084d2b0127a14611db6575b50600190611a53565b819c506020611a3f600193611dca93612dec565b9b90508c611dad565b60209d506103cf9c50613f33565b83356001600160401b038111610262578201604060231982360301126102625760405191604083018381106001600160401b038211176105ad5760405260248201356001600160401b03811161026257611e41906024369185010161285b565b83526044820135926001600160401b03841161026257611e6b60209493602486953692010161285b565b838201528152019301926119bc565b34610262575f36600319011261026257600a546040516001600160a01b039091168152602090f35b3461026257602036600319011261026257600435805f52601060205260ff60405f20541615611ee4575f52600f602052602060ff60405f205416604051908152f35b6304e5b67b60e21b5f5260045260245ffd5b3461026257602036600319011261026257611f0f61256e565b611f17613eec565b6001600160a01b03168015611f3d576001600160601b0360a01b60175416176017555f80f35b60405162461bcd60e51b815260206004820152602160248201527f496e76616c696420646174612055524c207265736f6c766572206164647265736044820152607360f81b6064820152608490fd5b34610262575f36600319011261026257611fa4613eec565b600a80546001600160a01b031981169091555f906001600160a01b03167f8be0079c531659141344cd1fd0a4f28419497f9722a3daafe3b4186f6b6457e08280a3005b34610262576020366003190112610262576020610d3b61200561256e565b6130c3565b34610262576040366003190112610262576004356001600160401b0381116102625761203a90369060040161285b565b6120426127a7565b61204a612ca4565b5061207281835160208501205f52600d60205260ff60405f2091165f5260205260405f205490565b9182156120a3576108dc61208f8461208981613d3f565b90613d73565b6040519182916020835260208301906125d4565b610880604051928392634ecda4f560e11b8452600484016130a2565b346102625760203660031901126102625760206120dd600435613d3f565b6040516001600160a01b039091168152f35b34610262576040366003190112610262576108cc61210b612797565b60243590612f0d565b34610262576020366003190112610262576004356008548110156121825760085481101561216e5760085f527ff3f7a9fe364faab93b216da50a3214154f22a0a2b415b23a84c8169e8b636ee30154604051908152602090f35b634e487b7160e01b5f52603260045260245ffd5b63295f44f760e21b5f525f60045260245260445ffd5b3461026257610d166121a93661259a565b90604051926121b960208561281f565b5f84526132b8565b34610262576020366003190112610262576004355f526013602052602060405f2054604051908152f35b34610262575f366003190112610262576015546040516001600160a01b039091168152602090f35b34610262575f366003190112610262576016546040516001600160a01b039091168152602090f35b34610262576040366003190112610262576020610d3b61225961256e565b60243590612e84565b34610262575f366003190112610262576017546040516001600160a01b039091168152602090f35b34610262576040366003190112610262576108cc6122a661256e565b60243590612e00565b3461026257610d166122c03661259a565b91612a26565b34610262575f366003190112610262576020600854604051908152f35b34610262576040366003190112610262576122fc61256e565b60243561230881613d3f565b331515806123ba575b8061238d575b61237a5781906001600160a01b0384811691167f8c5be1e5ebec7d5bd14f71427d1e84f3dd0314c0f7b2291e5b200ac8c7c3b9255f80a45f90815260046020526040902080546001600160a01b0319166001600160a01b03909216919091179055005b63a9fbf51f60e01b5f523360045260245ffd5b506001600160a01b0381165f90815260056020908152604080832033845290915290205460ff1615612317565b506001600160a01b038116331415612311565b34610262576020366003190112610262576004356123ea81613d3f565b505f526004602052602060018060a01b0360405f205416604051908152f35b34610262575f366003190112610262576040515f5f546124288161296d565b8084529060018116908115611912575060011461244f576108dc8361091e8185038261281f565b5f8080527f290decd9548b62a8d60345a988386fc84ba6bc95484008f6362f93160ef3e563939250905b8082106124915750909150810160200161091e6118a4565b919260018160209254838588010152019101909291612479565b34610262576020366003190112610262576004359063ffffffff60e01b821680920361026257602091631b66b43760e21b81149081156124ed575b5015158152f35b63780e9d6360e01b811491508115612507575b50836124e6565b6380ac58cd60e01b811491508115612539575b8115612528575b5083612500565b6301ffc9a760e01b14905083612521565b635b5e139f60e01b8114915061251a565b805180835260209291819084018484015e5f828201840152601f01601f1916010190565b600435906001600160a01b038216820361026257565b602435906001600160a01b038216820361026257565b6060906003190112610262576004356001600160a01b038116810361026257906024356001600160a01b0381168103610262579060443590565b9060018060a01b03825116815261ffff602083015116602082015260ff604083015116604082015260ff606083015116606082015260ff608083015116608082015260a082015160a082015261267e61266a61265661264460c08601516101a060c08701526101a086019061254a565b60e086015185820360e087015261254a565b61010085015184820361010086015261254a565b61012084015183820361012085015261254a565b9161014081015192828103610140840152602080855192838152019401905f5b8181106126fd5750505061016081015192828103610160840152602080855192838152019401905f5b8181106126e757505050610180908101516001600160a01b031691015290565b82518652602095860195909201916001016126c7565b9091946020606060019260ff60408a51828151168452828682015116868501520151166040820152019601910191909161269e565b92919060408401906040855280518092526060850191602060608260051b8801019201925f905b82821061276c5750505060209150930152565b909192602080612788600193605f198c820301865288516125d4565b96019201920190939291612759565b6004359060ff8216820361026257565b6024359060ff8216820361026257565b6084359060ff8216820361026257565b60e4359060ff8216820361026257565b610104359060ff8216820361026257565b606081019081106001600160401b038211176105ad57604052565b6101a081019081106001600160401b038211176105ad57604052565b90601f801991011681019081106001600160401b038211176105ad57604052565b6001600160401b0381116105ad57601f01601f191660200190565b81601f820112156102625760208135910161287582612840565b92612883604051948561281f565b8284528282011161026257815f92602092838601378301015290565b6001600160401b0381116105ad5760051b60200190565b9080601f830112156102625781356128cd8161289f565b926128db604051948561281f565b81845260208085019260051b82010192831161026257602001905b8282106129035750505090565b81358152602091820191016128f6565b6060600319820112610262576004356001600160401b038111610262578161293d9160040161285b565b9160243560ff811681036102625791604435906001600160401b0382116102625761296a916004016128b6565b90565b90600182811c9216801561299b575b602083101461298757565b634e487b7160e01b5f52602260045260245ffd5b91607f169161297c565b5f92918154916129b48361296d565b8083529260018116908115612a0957506001146129d057505050565b5f9081526020812093945091925b8383106129ef575060209250010190565b6001816020929493945483858701015201910191906129de565b915050602093945060ff929192191683830152151560051b010190565b9091906001600160a01b0383168015612c91575f838152600260205260409020546001600160a01b03169333151580612c01575b5084158015612bce575b825f52600360205260405f2060018154019055845f52600260205260405f20836001600160601b0360a01b8254161790558483877fddf252ad1be2c89b69c2b068fc378daa952ba7f163c4a11628f55a4df523b3ef5f80a415612b5157600854845f52600960205260405f2055612ada84613ac7565b818503612b11575b50506001600160a01b0316808303612af957505050565b6364283d7b60e01b5f5260045260245260445260645ffd5b612b1a906130c3565b5f1981019190821161177d575f52600660205260405f20815f526020528260405f2055825f52600760205260405f20555f80612ae2565b848214612ada57612b61856130c3565b845f52600760205260405f205490865f52600660205260405f2091818103612ba3575b50855f5260076020525f60408120555f526020525f6040812055612ada565b815f528260205260405f2054815f52836020528060405f20555f52600760205260405f20555f612b84565b5f85815260046020526040902080546001600160a01b0319169055855f52600360205260405f205f198154019055612a64565b80612c40575b15612c12575f612a5a565b8385612c2a57637e27328960e01b5f5260045260245ffd5b63177e802f60e01b5f523360045260245260445ffd5b503385148015612c6f575b80612c0757505f848152600460205260409020546001600160a01b03163314612c07565b505f85815260056020908152604080832033845290915290205460ff16612c4b565b633250574960e11b5f525f60045260245ffd5b60405190612cb182612803565b5f610180838281528260208201528260408201528260608201528260808201528260a0820152606060c0820152606060e082015260606101008201526060610120820152606061014082015260606101608201520152565b60405190612d1860208361281f565b5f80835282815b828110612d2b57505050565b602090612d36612ca4565b82828501015201612d1f565b604051610ca09190612d54838261281f565b6064815291601f1901825f5b828110612d6c57505050565b602090612d77612ca4565b82828501015201612d60565b90612d8d8261289f565b612d9a604051918261281f565b8281528092612dab601f199161289f565b01905f5b828110612dbb57505050565b602090612dc6612ca4565b82828501015201612daf565b9190820391821161177d57565b80511561216e5760200190565b805182101561216e5760209160051b010190565b90612e0a826130c3565b9081811015612e7457612e25612e208284612dd2565b612d83565b92815b838110612e385750505050905f90565b80612e6d612e5184612e4c60019582612e84565b613d73565b612e5b8684612dd2565b90612e66828a612dec565b5287612dec565b5001612e28565b505050612e7f612d09565b905f90565b612e8d816130c3565b821015612eb55760018060a01b03165f52600660205260405f20905f5260205260405f205490565b63295f44f760e21b5f5260018060a01b031660045260245260445ffd5b60115481101561216e5760115f5260205f2001905f90565b805482101561216e575f5260205f2001905f90565b5f19811461177d5760010190565b60ff1680612fb657509060115480831015612fab57606483019081841161177d57808211612fa3575b612f43612e208584612dd2565b93805b838110612f5e575050811015612f595790565b505f90565b80612f9c612f80612f70600194612ed2565b90549060031b1c61208981613d3f565b612f8a8584612dd2565b90612f95828b612dec565b5288612dec565b5001612f46565b905080612f36565b509050612e7f612d09565b612fbf336130c3565b9182811015612e7457612fd0612d42565b935f915b84811080613098575b1561304a57612fec8133612e84565b805f52600c6020528460ff60405f205460b81c1614613015575b5061301090612eff565b612fd4565b6130109193613028613043923390613d73565b613032828a612dec565b5261303d8189612dec565b50612eff565b9290613006565b9250929061305781612d83565b945f5b82811061306e57505050811015612f595790565b8061307b60019284612dec565b51613086828a612dec565b526130918189612dec565b500161305a565b5060648310612fdd565b9060ff6130bc60209295949560408552604085019061254a565b9416910152565b6001600160a01b031680156130e1575f52600360205260405f205490565b6322718ad960e21b5f525f60045260245ffd5b81601f820112156102625780519061310b82612840565b92613119604051948561281f565b8284526020838301011161026257815f9260208093018386015e8301015290565b906020828203126102625781516001600160401b0381116102625761296a92016130f4565b9080601f830112156102625781516131768161289f565b92613184604051948561281f565b81845260208085019260051b82010192831161026257602001905b8282106131ac5750505090565b815181526020918201910161319f565b519060ff8216820361026257565b519061ffff8216820361026257565b60206040818301928281528451809452019201905f5b8181106131fc5750505090565b82518452602093840193909201916001016131ef565b81518154602084015160409094015162ff000060109190911b1661ff0060089590951b9490941660ff90921662ffffff199091161717919091179055565b60ff168061325f575060115490565b613268336130c3565b5f915f5b8281106132795750505090565b6132838133612e84565b5f52600c6020528160ff60405f205460b81c16146132a4575b60010161326c565b926132b0600191612eff565b93905061329c565b92916132c5818386612a26565b813b6132d2575b50505050565b604051630a85bd0160e11b81523360048201526001600160a01b039485166024820152604481019190915260806064820152921691906020908290819061331d90608483019061254a565b03815f865af15f91816133b3575b5061338057503d15613379573d61334181612840565b9061334f604051928361281f565b81523d5f602083013e5b805190816133745782633250574960e11b5f5260045260245ffd5b602001fd5b6060613359565b6001600160e01b03191663757a42ff60e11b016133a157505f8080806132cc565b633250574960e11b5f5260045260245ffd5b9091506020813d6020116133f0575b816133cf6020938361281f565b8101031261026257516001600160e01b03198116810361026257905f61332b565b3d91506133c2565b90602082549182815201915f5260205f20905f5b8181106134195750505090565b825484526020909301926001928301920161340c565b9061345781835160208501205f52600d60205260ff60405f2091165f5260205260405f205490565b9182156120a35750505f52600c602052610985613480600760405f2001604051928380926133f8565b5f905b82518210156134e2575f925f5b82518110156134d8576134a38483612dec565b516134ae8285612dec565b51146134bc57600101613490565b5092509060015b156134d15760010190613483565b5050505f90565b50929190916134c3565b505050600190565b51906001600160a01b038216820361026257565b5f818152600260205260409020546060906001600160a01b0316156139a257815f52600c60205260405f20918351602085012093604094600760208751613545898261281f565b828152016619185d18555c9b60ca1b81522081148015613977575b1561357e575050505061296a906109856005935180948193016129a5565b60036020875161358e898261281f565b8281520162191a5960ea1b81522081145f146135bd575050505061296a906109856002935180948193016129a5565b600f602087516135cd898261281f565b828152016e199d5b99da589b19551bdad95b9259608a1b81522081145f14613608575050505061296a906109856003935180948193016129a5565b600a60208751613618898261281f565b828152016918dbdb9d1c9858dd125960b21b81522081145f1461364e575050505061296a906109856004935180948193016129a5565b60086020875161365e898261281f565b82815201670c8c2e8c290c2e6d60c31b81522081145f146136985750505050600161296a910154918051926020840152602083528261281f565b6011602087516136a8898261281f565b82815201706461746148617368416c676f726974686d60781b81522081145f146136f257505050505490519060ff60f81b9060381b1660208201526001815261296a60218261281f565b600a60208751613702898261281f565b8281520169696e746572666163657360b01b81522081145f1461374657505050505490519061ffff60f01b9060501b1660208201526002815261296a60228261281f565b600660208751613756898261281f565b828152016573746174757360d01b81522081145f1461379757505091548351931b6001600160f81b031916602084015250506001815261296a60218261281f565b600c602087516137a7898261281f565b828152016b3b32b939b4b7b726b0b537b960a11b81522081145f146137ec57505050505490519060ff60f81b9060481b1660208201526001815261296a60218261281f565b6006602087516137fc898261281f565b828152016536b4b73a32b960d11b81522081145f1461383f5750505050549051906001600160601b03199060601b1660208201526014815261296a60348261281f565b600b6020875161384f898261281f565b828152016a747261697448617368657360a81b81522081145f1461389d57505050508161388f61296a9260079451948593602080860152840191016133f8565b03601f19810183528261281f565b5f94939450600e602087516138b2898261281f565b828152016d76657273696f6e486973746f727960901b815220145f1461394e575050600601918051928184928301906020808501528254809252848401925f5260205f20945f915b838310613918575050505061296a925003601f19810183528261281f565b865460ff8181168752600882901c8116602088015260109190911c168582015260019687019688965094820194909201916138fa565b9061088085928351938493631a06112960e11b855260048501526024840152604483019061254a565b50600860208751613988898261281f565b82815201676167656e7455524960c01b8152208114613560565b5063a42088b560e01b5f5260045260245ffd5b6011549182811015612e74576139c9612d42565b935f915b84811080613a7f575b15613a31576139e481612ed2565b90549060031b1c805f52600c60205261ffff8560405f205460a01c1616613a15575b50613a1090612eff565b6139cd565b613a10919361302882612089613a2a94613d3f565b9290613a06565b92509290613a3e81612d83565b945f5b828110613a5557505050811015612f595790565b80613a6260019284612dec565b51613a6d828a612dec565b52613a788189612dec565b5001613a41565b50606483106139d6565b601154600160401b8110156105ad57613aad816001613ac393016011556011612eea565b819391549060031b91821b915f19901b19161790565b9055565b600854600160401b8110156105ad57613aad816001613ac393016008556008612eea565b91909160208151910120805f52600d60205260405f2060ff84165f5260205260405f205492835f52600c60205260ff60405f205460b81c1660ff841693848214613c8e575f868152600c60205260409020805460ff60b81b191660b89290921b60ff60b81b16919091179055158080613c85575b15613c2d5750835f52601260205260405f20546011545f19810190811161177d57613b8990612ed2565b90549060031b1c80613b9d613aad84612ed2565b90555f52601260205260405f2055601154908115613c195760ff6040917f7c6860c4abb223f1d0f6b5a1b79fdac9cb6ea8b538f0260940bcd10af7856e7d935f1901613bea816011612eea565b8154905f199060031b1b19169055601155865f5260126020525f838120555b82519586524260208701521693a4565b634e487b7160e01b5f52603160045260245ffd5b60ff7f7c6860c4abb223f1d0f6b5a1b79fdac9cb6ea8b538f0260940bcd10af7856e7d926040921580613c7d575b15613c0957601154875f526012602052835f2055613c7887613a89565b613c09565b508515613c5b565b50831515613b5f565b505050505050565b90613cbe81835160208501205f52600d60205260ff60405f2091165f5260205260405f205490565b9182156120a35750505f52600c602052610985613ce7600760405f2001604051928380926133f8565b5f5b82518110156134d1575f5b8251811015613d2957613d078285612dec565b51613d128285612dec565b5114613d2057600101613cf4565b50505050600190565b50600101613ce9565b5190811515820361026257565b5f818152600260205260409020546001600160a01b0316908115613d61575090565b637e27328960e01b5f5260045260245ffd5b613d7b612ca4565b505f52600c60205260405f20908154916001810154600682019060ff60405195613da487612803565b60018060a01b038116875261ffff8160a01c166020880152818160b01c166040880152818160b81c16606088015260c01c16608086015260a0850152604051613df48161098581600287016129a5565b60c0850152604051613e0d8161098581600387016129a5565b60e0850152604051613e268161098581600487016129a5565b610100850152604051613e408161098581600587016129a5565b6101208501528054613e518161289f565b91613e5f604051938461281f565b81835260208301905f5260205f205f915b838310613eb05750505050600791613e989161014086015261098560405180948193016133f8565b6101608301526001600160a01b031661018082015290565b600160208192604051613ec2816127e8565b60ff86548181168352818160081c168584015260101c166040820152815201920192019190613e70565b600a546001600160a01b03163303613f0057565b63118cdaa760e01b5f523360045260245ffd5b6002600b5414613f24576002600b55565b633ee5aeb560e01b5f5260045ffd5b9a9998959693929a97949761018052610280526101a052610160526101c052610240526101e052610180515115614fb857610180515160808111614fa6575061ffff610280511615614f97576101a051511561169a576101a051516101008111611688575081516101008111614f85575080516101008111614f735750613fb983614fc7565b610180518051602090910120610220526016546001600160a01b031680614ebd575b5060ff60185460a01c1680614ea9575b614de8575b610220515f52600d60205260405f2060ff6101c051165f5260205260405f2054614dc657610220515f52600e60205261098561403560405f20604051928380926129a5565b805115614c7b57602081519101208251602084012003614c2657610220515f52600f60205260ff60405f20541660ff6101c0511611614c02575b61407a601954612eff565b61026052610260516019553315612c9157610260515f908152600260205260409020546001600160a01b03168015908115614bc6575b335f81815260036020908152604080832080546001019055610260518084526002909252822080546001600160a01b03191684179055919083907fddf252ad1be2c89b69c2b068fc378daa952ba7f163c4a11628f55a4df523b3ef9080a48115614b4357600854610260515f52600960205260405f205561413361026051613ac7565b338103614aff575b5015614aec57604061020081905280519190614157908361281f565b600182525f5b61020051601f19018110614abf5750610200515161417a816127e8565b60ff6101c05116815260ff6102405116602082015260ff6101e05116610200518201526141a683612ddf565b526141b082612ddf565b506102005151906101808201938285106001600160401b038611176105ad5785946102005152338352602083016101405261ffff6102805116610140515261020051830160ff6101c0511681528861431e60ff606087015f81526142fb8260808a0192816101605116845260a08b0196875260c08b019761018051895260e08c01998a526101008c019a8b526101208c019b6101a0518d5261014081019d8e5261016081019e8f52610260515f52600c602052610200515f206101205260018060a01b039060018060a01b03905116166001600160601b0360a01b6101205154161761012051556142c461ffff610140515116610120519081549061ffff60a01b9060a01b169061ffff60a01b1916179055565b51610120518054925160ff60b81b90851660b81b1691841660b090811b94901b199092169290921760ff60b81b1916919091179055565b5161012051805460ff60c01b19169290911660c01b60ff60c01b16919091179055565b5160016101205101556002610120510190518051906001600160401b0382116105ad57819061434d845461296d565b601f8111614a6f575b50602090601f8311600114614a0c575f92614a01575b50508160011b915f199060031b1c19161790555b6003610120510190518051906001600160401b0382116105ad5781906143a6845461296d565b601f81116149b1575b50602090601f831160011461494e575f92614943575b50508160011b915f199060031b1c19161790555b6004610120510190518051906001600160401b0382116105ad5781906143ff845461296d565b601f81116148f3575b50602090601f8311600114614890575f92614885575b50508160011b915f199060031b1c19161790555b6005610120510190518051906001600160401b0382116105ad578190614458845461296d565b601f8111614835575b50602090601f83116001146147d2575f926147c7575b50508160011b915f199060031b1c19161790555b60066101205101905190815191600160401b83116105ad5781548383558084106147a1575b50602001905f5260205f205f915b8383106147845750505050518051906001600160401b0382116105ad57600160401b82116105ad5761012051600701805490839055808310614758575b50602001600761012051015f5260205f20610100525f5b82811061474157505050610220515f52600d602052610200515f2060ff6101c051165f52602052610200515f20610260519055601154610260515f526012602052610200515f205561456661026051613a89565b610220515f526013602052610200515f205415614716575b80516146cb575b5080516146a6575b5050610200515160a081526145a860a082016101a05161254a565b9060ff6101c05116602082015261ffff61028051166102005182015243606082015242608082015261022051917f929d4bc5290f296d002ad3aada73fb70d45a263ebd0ccea61435ba2f6619fff533928061026051930390a460ff6101c0511615801590614697575b8015614688575b614624575b6102605190565b6102005151610260519060ff6101c05116907f8ab6771ee4cb5523129ea5bd846d7f7d4103bbf1a2cebe9dca96f04dfbd222ed6102205191806146806101e051610240518390929160ff60209181604085019616845216910152565b0390a461461d565b5060ff6101e051161515614618565b5060ff61024051161515614611565b6146c49161016051916101e051610240516101c05161018051614fe5565b5f8061458d565b610200515161026051917f536e40ba7e2dd8d050f26bde7e64327c5e2375c23eb08a756d093181e683b5f660ff6101c05116928061470d6102205194826131d9565b0390a45f614585565b610220515f52601360205243610200515f2055610220515f52601460205242610200515f205561457e565b600190602083519301928161010051015501614512565b600761012051015f528260205f2091820191015b81811061477957506144fb565b5f815560010161476c565b600160208261479583945186613212565b019201920191906144be565b825f528360205f2091820191015b8181106147bc57506144b0565b5f81556001016147af565b015190505f80614477565b5f8581528281209350601f198516905b81811061481d5750908460019594939210614805575b505050811b01905561448b565b01515f1960f88460031b161c191690555f80806147f8565b929360206001819287860151815501950193016147e2565b909150835f5260205f20601f840160051c8101916020851061487b575b90601f859493920160051c01905b81811061486d5750614461565b5f8155849350600101614860565b9091508190614852565b015190505f8061441e565b5f8581528281209350601f198516905b8181106148db57509084600195949392106148c3575b505050811b019055614432565b01515f1960f88460031b161c191690555f80806148b6565b929360206001819287860151815501950193016148a0565b909150835f5260205f20601f840160051c81019160208510614939575b90601f859493920160051c01905b81811061492b5750614408565b5f815584935060010161491e565b9091508190614910565b015190505f806143c5565b5f8581528281209350601f198516905b8181106149995750908460019594939210614981575b505050811b0190556143d9565b01515f1960f88460031b161c191690555f8080614974565b9293602060018192878601518155019501930161495e565b909150835f5260205f20601f840160051c810191602085106149f7575b90601f859493920160051c01905b8181106149e957506143af565b5f81558493506001016149dc565b90915081906149ce565b015190505f8061436c565b5f8581528281209350601f198516905b818110614a575750908460019594939210614a3f575b505050811b019055614380565b01515f1960f88460031b161c191690555f8080614a32565b92936020600181928786015181550195019301614a1c565b909150835f5260205f20601f840160051c81019160208510614ab5575b90601f859493920160051c01905b818110614aa75750614356565b5f8155849350600101614a9a565b9091508190614a8c565b6020906102005151614ad0816127e8565b5f81525f838201525f610200518201528282860101520161415d565b6339e3563760e11b5f525f60045260245ffd5b614b08336130c3565b5f19810190811161177d57335f52600660205260405f20815f526020526102605160405f2055610260515f52600760205260405f205561413b565b33811461413357614b53816130c3565b610260515f52600760205260405f205490825f52600660205260405f2091818103614b9b575b50610260515f5260076020525f60408120555f526020525f6040812055614133565b815f528260205260405f2054815f52836020528060405f20555f52600760205260405f20555f614b79565b614bea610260515f52600460205260405f206001600160601b0360a01b8154169055565b805f52600360205260405f205f1981540190556140b0565b610220515f52600f60205260405f2060ff6101c0511660ff1982541617905561406f565b60405163192ce30b60e31b815260206004820152602660248201527f46756e6769626c6520746f6b656e206368616e6765207265717569726573206e604482015265195dc811125160d21b6064820152608490fd5b50610220515f52600e60205260405f2082516001600160401b0381116105ad57614ca5825461296d565b601f8111614d81575b50806020601f8211600114614d20575f91614d15575b508160011b915f199060031b1c19161790555b610220515f52600f60205260405f2060ff6101c0511660ff19825416179055610220515f52601060205260405f20600160ff1982541617905561406f565b90508401515f614cc4565b5f8481528181209250601f198416905b818110614d6957509083600194939210614d51575b5050811b019055614cd7565b8601515f1960f88460031b161c191690555f80614d45565b9192602060018192868b015181550194019201614d30565b825f5260205f20601f830160051c81019160208410614dbc575b601f0160051c01905b818110614db15750614cae565b5f8155600101614da4565b9091508190614d9b565b604051631afb365160e01b8152806108806101c05161018051600484016130a2565b6017546040516304b1396b60e11b81526102205160048201526024810187905290602090829060449082906001600160a01b03165afa9081156105c1575f91614e6f575b50613ff05760405162461bcd60e51b81526020600482015260166024820152751110551057d21054d217d393d517d055151154d5115160521b6044820152606490fd5b90506020813d602011614ea1575b81614e8a6020938361281f565b8101031261026257614e9b90613d32565b5f614e2c565b3d9150614e7d565b506017546001600160a01b03161515613feb565b6020602491604051928380926327cc573960e01b82526102205160048301525afa9081156105c1575f91614f39575b50336001600160a01b0390911603614f04575f613fdb565b60405162461bcd60e51b815260206004820152600d60248201526c2727aa2fa224a22fa7aba722a960991b6044820152606490fd5b90506020813d602011614f6b575b81614f546020938361281f565b8101031261026257614f65906134ea565b5f614eec565b3d9150614f47565b634f7f300b60e01b5f5260045260245ffd5b63e422361760e01b5f5260045260245ffd5b631464e25760e31b5f5260045ffd5b63977af6c760e01b5f5260045260245ffd5b63ccdf6bd560e01b5f5260045ffd5b5160148111614fd35750565b63582dc9af60e11b5f5260045260245ffd5b949091959392938351615098575b50506015546001600160a01b0316918261500f57505050505050565b823b15610262575f9461506f61504b93879360ff8098816040519c8d9b8c9a8b996330f1201960e01b8b5260a060048c015260a48b019061254a565b9616602489015216604487015216606485015283820360031901608485015261254a565b03925af180156105c157615088575b8080808080613c8e565b5f6150929161281f565b5f61507e565b60ff16806150c55750825160208401205b808214614ff357636f205f0f60e11b5f5260045260245260445ffd5b600181036150f4575060205f60405180865180858901835e8101838152039060025afa156105c1575f516150a9565b624c220360e01b5f5260045260245ffdfea26469706673582212203cc1dd6ae8e0bcb059a272f1b44011084e2ec882d0b43b5d0375519bc930b60664736f6c634300081c0033",
  "linkReferences": {},
  "deployedLinkReferences": {}
}