{
  "_format": "hh-sol-artifact-1",
  "contractName": "OMA3ResolverWithStore",
  "sourceName": "contracts/OMA3ResolverWithStore.sol",
  "abi": [
    {
      "inputs": [],
      "stateMutability": "nonpayable",
      "type": "constructor"
    },
    {
      "inputs": [],
      "name": "BadSignature",
      "type": "error"
    },
    {
      "inputs": [],
      "name": "ExpiredDeadline",
      "type": "error"
    },
    {
      "inputs": [],
      "name": "InvalidNonce",
      "type": "error"
    },
    {
      "inputs": [
        {
          "internalType": "address",
          "name": "owner",
          "type": "address"
        }
      ],
      "name": "OwnableInvalidOwner",
      "type": "error"
    },
    {
      "inputs": [
        {
          "internalType": "address",
          "name": "account",
          "type": "address"
        }
      ],
      "name": "OwnableUnauthorizedAccount",
      "type": "error"
    },
    {
      "anonymous": false,
      "inputs": [
        {
          "indexed": true,
          "internalType": "address",
          "name": "issuer",
          "type": "address"
        },
        {
          "indexed": true,
          "internalType": "bytes32",
          "name": "didHash",
          "type": "bytes32"
        },
        {
          "indexed": true,
          "internalType": "bytes32",
          "name": "dataHash",
          "type": "bytes32"
        },
        {
          "indexed": false,
          "internalType": "uint64",
          "name": "expiresAt",
          "type": "uint64"
        },
        {
          "indexed": false,
          "internalType": "uint64",
          "name": "recordedAt",
          "type": "uint64"
        },
        {
          "indexed": false,
          "internalType": "uint64",
          "name": "recordedBlock",
          "type": "uint64"
        }
      ],
      "name": "DataHashAttested",
      "type": "event"
    },
    {
      "anonymous": false,
      "inputs": [
        {
          "indexed": true,
          "internalType": "address",
          "name": "issuer",
          "type": "address"
        },
        {
          "indexed": true,
          "internalType": "bytes32",
          "name": "didHash",
          "type": "bytes32"
        },
        {
          "indexed": true,
          "internalType": "bytes32",
          "name": "dataHash",
          "type": "bytes32"
        },
        {
          "indexed": false,
          "internalType": "uint64",
          "name": "recordedAt",
          "type": "uint64"
        },
        {
          "indexed": false,
          "internalType": "uint64",
          "name": "recordedBlock",
          "type": "uint64"
        }
      ],
      "name": "DataHashRevoked",
      "type": "event"
    },
    {
      "anonymous": false,
      "inputs": [
        {
          "indexed": true,
          "internalType": "address",
          "name": "issuer",
          "type": "address"
        }
      ],
      "name": "IssuerAuthorized",
      "type": "event"
    },
    {
      "anonymous": false,
      "inputs": [
        {
          "indexed": true,
          "internalType": "address",
          "name": "issuer",
          "type": "address"
        }
      ],
      "name": "IssuerRevoked",
      "type": "event"
    },
    {
      "anonymous": false,
      "inputs": [
        {
          "indexed": true,
          "internalType": "address",
          "name": "previousOwner",
          "type": "address"
        },
        {
          "indexed": true,
          "internalType": "address",
          "name": "newOwner",
          "type": "address"
        }
      ],
      "name": "OwnershipTransferred",
      "type": "event"
    },
    {
      "anonymous": false,
      "inputs": [
        {
          "indexed": true,
          "internalType": "address",
          "name": "issuer",
          "type": "address"
        },
        {
          "indexed": true,
          "internalType": "bytes32",
          "name": "didHash",
          "type": "bytes32"
        },
        {
          "indexed": false,
          "internalType": "uint64",
          "name": "recordedAt",
          "type": "uint64"
        },
        {
          "indexed": false,
          "internalType": "uint64",
          "name": "recordedBlock",
          "type": "uint64"
        }
      ],
      "name": "Revoke",
      "type": "event"
    },
    {
      "anonymous": false,
      "inputs": [
        {
          "indexed": true,
          "internalType": "address",
          "name": "issuer",
          "type": "address"
        },
        {
          "indexed": true,
          "internalType": "bytes32",
          "name": "didHash",
          "type": "bytes32"
        },
        {
          "indexed": false,
          "internalType": "bytes32",
          "name": "controllerAddress",
          "type": "bytes32"
        },
        {
          "indexed": false,
          "internalType": "uint64",
          "name": "expiresAt",
          "type": "uint64"
        },
        {
          "indexed": false,
          "internalType": "uint64",
          "name": "recordedAt",
          "type": "uint64"
        },
        {
          "indexed": false,
          "internalType": "uint64",
          "name": "recordedBlock",
          "type": "uint64"
        }
      ],
      "name": "Upsert",
      "type": "event"
    },
    {
      "inputs": [],
      "name": "NAME",
      "outputs": [
        {
          "internalType": "string",
          "name": "",
          "type": "string"
        }
      ],
      "stateMutability": "view",
      "type": "function"
    },
    {
      "inputs": [],
      "name": "VERSION",
      "outputs": [
        {
          "internalType": "string",
          "name": "",
          "type": "string"
        }
      ],
      "stateMutability": "view",
      "type": "function"
    },
    {
      "inputs": [
        {
          "internalType": "address",
          "name": "issuer",
          "type": "address"
        }
      ],
      "name": "addAuthorizedIssuer",
      "outputs": [],
      "stateMutability": "nonpayable",
      "type": "function"
    },
    {
      "inputs": [
        {
          "internalType": "bytes32",
          "name": "didHash",
          "type": "bytes32"
        },
        {
          "internalType": "bytes32",
          "name": "dataHash",
          "type": "bytes32"
        },
        {
          "internalType": "uint64",
          "name": "expiresAt",
          "type": "uint64"
        }
      ],
      "name": "attestDataHash",
      "outputs": [],
      "stateMutability": "nonpayable",
      "type": "function"
    },
    {
      "inputs": [
        {
          "internalType": "bytes32",
          "name": "didHash",
          "type": "bytes32"
        }
      ],
      "name": "currentOwner",
      "outputs": [
        {
          "internalType": "address",
          "name": "",
          "type": "address"
        }
      ],
      "stateMutability": "view",
      "type": "function"
    },
    {
      "inputs": [
        {
          "internalType": "address",
          "name": "issuer",
          "type": "address"
        },
        {
          "internalType": "bytes32",
          "name": "didHash",
          "type": "bytes32"
        }
      ],
      "name": "get",
      "outputs": [
        {
          "components": [
            {
              "internalType": "bool",
              "name": "active",
              "type": "bool"
            },
            {
              "internalType": "uint64",
              "name": "recordedAt",
              "type": "uint64"
            },
            {
              "internalType": "uint64",
              "name": "recordedBlock",
              "type": "uint64"
            },
            {
              "internalType": "uint64",
              "name": "expiresAt",
              "type": "uint64"
            },
            {
              "internalType": "bytes32",
              "name": "controllerAddress",
              "type": "bytes32"
            }
          ],
          "internalType": "struct IOMA3DidOwnershipAttestationStore.Entry",
          "name": "",
          "type": "tuple"
        }
      ],
      "stateMutability": "view",
      "type": "function"
    },
    {
      "inputs": [
        {
          "internalType": "address",
          "name": "issuer",
          "type": "address"
        },
        {
          "internalType": "bytes32",
          "name": "didHash",
          "type": "bytes32"
        },
        {
          "internalType": "bytes32",
          "name": "dataHash",
          "type": "bytes32"
        }
      ],
      "name": "getDataEntry",
      "outputs": [
        {
          "components": [
            {
              "internalType": "bool",
              "name": "active",
              "type": "bool"
            },
            {
              "internalType": "uint64",
              "name": "recordedAt",
              "type": "uint64"
            },
            {
              "internalType": "uint64",
              "name": "recordedBlock",
              "type": "uint64"
            },
            {
              "internalType": "uint64",
              "name": "expiresAt",
              "type": "uint64"
            },
            {
              "internalType": "bytes32",
              "name": "attester",
              "type": "bytes32"
            }
          ],
          "internalType": "struct IOMA3DataUrlAttestationStore.DataEntry",
          "name": "",
          "type": "tuple"
        }
      ],
      "stateMutability": "view",
      "type": "function"
    },
    {
      "inputs": [
        {
          "internalType": "address",
          "name": "issuer",
          "type": "address"
        },
        {
          "internalType": "bytes32",
          "name": "didHash",
          "type": "bytes32"
        }
      ],
      "name": "hasActive",
      "outputs": [
        {
          "internalType": "bool",
          "name": "ok",
          "type": "bool"
        },
        {
          "internalType": "bytes32",
          "name": "controllerAddress",
          "type": "bytes32"
        },
        {
          "internalType": "uint64",
          "name": "expiresAt",
          "type": "uint64"
        }
      ],
      "stateMutability": "view",
      "type": "function"
    },
    {
      "inputs": [
        {
          "internalType": "bytes32",
          "name": "didHash",
          "type": "bytes32"
        },
        {
          "internalType": "bytes32",
          "name": "dataHash",
          "type": "bytes32"
        }
      ],
      "name": "isDataHashValid",
      "outputs": [
        {
          "internalType": "bool",
          "name": "",
          "type": "bool"
        }
      ],
      "stateMutability": "view",
      "type": "function"
    },
    {
      "inputs": [
        {
          "internalType": "address",
          "name": "",
          "type": "address"
        }
      ],
      "name": "isIssuer",
      "outputs": [
        {
          "internalType": "bool",
          "name": "",
          "type": "bool"
        }
      ],
      "stateMutability": "view",
      "type": "function"
    },
    {
      "inputs": [],
      "name": "maturationSeconds",
      "outputs": [
        {
          "internalType": "uint64",
          "name": "",
          "type": "uint64"
        }
      ],
      "stateMutability": "view",
      "type": "function"
    },
    {
      "inputs": [],
      "name": "maxTTLSeconds",
      "outputs": [
        {
          "internalType": "uint64",
          "name": "",
          "type": "uint64"
        }
      ],
      "stateMutability": "view",
      "type": "function"
    },
    {
      "inputs": [],
      "name": "owner",
      "outputs": [
        {
          "internalType": "address",
          "name": "",
          "type": "address"
        }
      ],
      "stateMutability": "view",
      "type": "function"
    },
    {
      "inputs": [
        {
          "internalType": "address",
          "name": "issuer",
          "type": "address"
        }
      ],
      "name": "removeAuthorizedIssuer",
      "outputs": [],
      "stateMutability": "nonpayable",
      "type": "function"
    },
    {
      "inputs": [],
      "name": "renounceOwnership",
      "outputs": [],
      "stateMutability": "nonpayable",
      "type": "function"
    },
    {
      "inputs": [
        {
          "internalType": "bytes32",
          "name": "didHash",
          "type": "bytes32"
        },
        {
          "internalType": "bytes32",
          "name": "dataHash",
          "type": "bytes32"
        }
      ],
      "name": "revokeDataHash",
      "outputs": [],
      "stateMutability": "nonpayable",
      "type": "function"
    },
    {
      "inputs": [
        {
          "internalType": "address",
          "name": "issuer",
          "type": "address"
        },
        {
          "internalType": "bytes32",
          "name": "didHash",
          "type": "bytes32"
        },
        {
          "internalType": "uint64",
          "name": "deadline",
          "type": "uint64"
        },
        {
          "internalType": "uint256",
          "name": "nonce",
          "type": "uint256"
        },
        {
          "internalType": "bytes",
          "name": "sig",
          "type": "bytes"
        }
      ],
      "name": "revokeDelegated",
      "outputs": [],
      "stateMutability": "nonpayable",
      "type": "function"
    },
    {
      "inputs": [
        {
          "internalType": "bytes32",
          "name": "didHash",
          "type": "bytes32"
        }
      ],
      "name": "revokeDirect",
      "outputs": [],
      "stateMutability": "nonpayable",
      "type": "function"
    },
    {
      "inputs": [
        {
          "internalType": "uint64",
          "name": "durationSeconds",
          "type": "uint64"
        }
      ],
      "name": "setMaturation",
      "outputs": [],
      "stateMutability": "nonpayable",
      "type": "function"
    },
    {
      "inputs": [
        {
          "internalType": "uint64",
          "name": "durationSeconds",
          "type": "uint64"
        }
      ],
      "name": "setMaxTTL",
      "outputs": [],
      "stateMutability": "nonpayable",
      "type": "function"
    },
    {
      "inputs": [
        {
          "internalType": "address",
          "name": "newOwner",
          "type": "address"
        }
      ],
      "name": "transferOwnership",
      "outputs": [],
      "stateMutability": "nonpayable",
      "type": "function"
    },
    {
      "inputs": [
        {
          "components": [
            {
              "internalType": "address",
              "name": "issuer",
              "type": "address"
            },
            {
              "internalType": "bytes32",
              "name": "didHash",
              "type": "bytes32"
            },
            {
              "internalType": "bytes32",
              "name": "controllerAddress",
              "type": "bytes32"
            },
            {
              "internalType": "uint64",
              "name": "expiresAt",
              "type": "uint64"
            },
            {
              "internalType": "uint64",
              "name": "deadline",
              "type": "uint64"
            },
            {
              "internalType": "uint256",
              "name": "nonce",
              "type": "uint256"
            }
          ],
          "internalType": "struct IOMA3DidOwnershipAttestationStore.Delegated",
          "name": "att",
          "type": "tuple"
        },
        {
          "internalType": "bytes",
          "name": "sig",
          "type": "bytes"
        }
      ],
      "name": "upsertDelegated",
      "outputs": [],
      "stateMutability": "nonpayable",
      "type": "function"
    },
    {
      "inputs": [
        {
          "internalType": "bytes32",
          "name": "didHash",
          "type": "bytes32"
        },
        {
          "internalType": "bytes32",
          "name": "controllerAddress",
          "type": "bytes32"
        },
        {
          "internalType": "uint64",
          "name": "expiresAt",
          "type": "uint64"
        }
      ],
      "name": "upsertDirect",
      "outputs": [],
      "stateMutability": "nonpayable",
      "type": "function"
    }
  ],
  "bytecode": "0x608080604052346100985733156100825760008054336001600160a01b03198216811783556040519290916001600160a01b0316907f8be0079c531659141344cd1fd0a4f28419497f9722a3daafe3b4186f6b6457e09080a3600580546001600160801b0319166b03c26700000000000002a30017905561170d908161009e8239f35b631e4fbdf760e01b815260006004820152602490fd5b600080fdfe6080604052600436101561001257600080fd5b60003560e01c806308cf90ff146101875780630d2239c9146101825780630d5762d31461017d578063208a1f671461017857806327cc573914610173578063427121b31461016e5780634e452e15146101695780635c4d452014610164578063715018a61461015f5780637b82d74e1461015a57806381b7a7a514610155578063877b9a67146101505780638b87727b1461014b5780638d969c4a146101465780638da5cb5b146101415780639c2b1d211461013c578063a3f4df7e14610137578063a6e8ca0014610132578063b0b2a4251461012d578063f2fde38b14610128578063f55294c914610123578063f7c088e01461011e5763ffa1ad741461011957600080fd5b611088565b611011565b610f45565b610eb9565b610d3d565b610d25565b610cfd565b610b34565b610b0b565b610a54565b610a2d565b6109eb565b6109c1565b610927565b6108c9565b610773565b6106ff565b6106e2565b610526565b61032f565b6102ad565b6101b7565b346101b25760403660031901126101b25760206101a86024356004356110a4565b6040519015158152f35b600080fd5b346101b2576040806003193601126101b2576004356024359060009233845260046020526101ea60ff8286205416611190565b33845260036020528084208285526020528084208385526020527faa711eba2ce29a06d05e6452130e8ed5410b649628221663b9d5ab21452c73ba61029682862060ff1981541681556001600160401b03936102758542169561026c87859068ffffffffffffffff0082549160081b169068ffffffffffffffff001916179055565b43168093611337565b516001600160401b0394851681529316602084015233929081906040820190565b0390a480f35b6001600160401b038116036101b257565b346101b25760203660031901126101b2576001600160401b036004356102d28161029c565b6102da61135f565b166001600160401b03196005541617600555600080f35b6001600160a01b038116036101b257565b9181601f840112156101b2578235916001600160401b0383116101b257602083818601950101116101b257565b346101b25760a03660031901126101b25760043561034c816102f1565b6024356044359161035c8361029c565b606435926001600160401b03906084358281116101b257610381903690600401610302565b91909280421690821610610514576103c86103c1876103b28760018060a01b03166000526002602052604060002090565b90600052602052604060002090565b5460ff1690565b610502576104a49261049e91610487610493604051928361043f8c60208301938d8d86909493926001600160401b039060809360a08401977fbfe48d6c8958d69d41631c43d8a8c359115d8e33adc2c2851c10aba07430ce35855260018060a01b0316602085015260408401521660608201520152565b0393610453601f1995868101835282610c6b565b5190209261045f61138b565b93604051938491602083019687909160429261190160f01b8352600283015260228201520190565b03908101835282610c6b565b5190209236916111d4565b9061142c565b6001600160a01b038281169116036104f0576104e96104dc6104ee946103b28460018060a01b03166000526002602052604060002090565b805460ff19166001179055565b6114de565b005b604051635cd5d23360e01b8152600490fd5b604051633ab3447f60e11b8152600490fd5b60405163f87d927160e01b8152600490fd5b346101b2576020806003193601126101b257600435906000809260006105546005546001600160401b031690565b916001600160401b03908184161515925b6103e88110610586576040516001600160a01b0389168152602090f35b0390f35b816105de6105d26040518a8101906105c3816105b588856026916534b9b9bab2b960d11b825260068201520190565b03601f198101835282610c6b565b5190206001600160a01b031690565b6001600160a01b031690565b6001600160a01b038116600090815260046020526040902061060790610603906103c1565b1590565b6106cc576001600160a01b0316600090815260016020526040902061062c91906103b2565b805460ff8116156106cc57848160881c1680151590816106d6575b506106cc57858786826106a2575b50509050610699576001878111610673575b50506001905b01610565565b908101549198509550600190610691906001600160a01b03166105d2565b979038610667565b5060019061066d565b6106b492506106c09360081c16611230565b6001600160401b031690565b84421610808786610655565b505060019061066d565b90508542161138610647565b346101b25760203660031901126101b2576104ee600435336114de565b346101b25760203660031901126101b25760043561071c8161029c565b61072461135f565b67ffffffffffffffff60401b6005549160401b169067ffffffffffffffff60401b191617600555600080f35b60609060031901126101b25760043590602435906044356107708161029c565b90565b346101b25761078136610750565b91909133600052600460205261079e60ff60406000205416611190565b7f74f2b5200e76d80e7fa1535a440e0fc6a29d5faa149e5054553828d8fc0d2fbb816001600160401b038060055460401c16801515806108be575b61089e575b503360009081526003602052604090206107fd9087906103b290889082565b805468ffffffffffffffffff1916428316600881901b68ffffffffffffffff001691909117600117825591610861904316936108398584611337565b825467ffffffffffffffff60881b191660889190911b67ffffffffffffffff60881b16178255565b60013391015561089960405192839233968491604091949360608401956001600160401b039283809216865216602085015216910152565b0390a4005b6108aa90824216611230565b81811682861611156107de579150386107de565b5081851615156107d9565b346101b257600080600319360112610924576108e361135f565b80546001600160a01b03198116825581906001600160a01b03167f8be0079c531659141344cd1fd0a4f28419497f9722a3daafe3b4186f6b6457e08280a380f35b80fd5b346101b25760403660031901126101b257600435610944816102f1565b61094c611250565b5060018060a01b03166000526001602052604060002060243560005260205260a061097a604060002061127b565b6109bf60405180926080809180511515845260208101516001600160401b03809116602086015280604083015116604086015260608201511660608501520151910152565bf35b346101b25760003660031901126101b25760206005546001600160401b036040519160401c168152f35b346101b25760203660031901126101b257600435610a08816102f1565b60018060a01b03166000526004602052602060ff604060002054166040519015158152f35b346101b25760003660031901126101b25760206001600160401b0360055416604051908152f35b346101b25760403660031901126101b257600435610a71816102f1565b60018060a01b0316600052600160205260406000206024356000526020526001600160401b03604060002061058281549160ff83169081610ae0575b6001015460405194859460881c1691849160409194936001600160401b0391606085019615158552602085015216910152565b9050600184808560881c168015918215610aff575b5050919050610aad565b42161090503880610af5565b346101b25760003660031901126101b2576000546040516001600160a01b039091168152602090f35b346101b25760203660031901126101b257600435610b51816102f1565b610b5961135f565b6001600160a01b038116908115610bdc576104dc81610b9b610b966106036103c1610bb59660018060a01b03166000526004602052604060002090565b6112c7565b6001600160a01b0316600090815260046020526040902090565b7f8b4006ca14f23d4e7aa8d120d1ab7c3761d650eefac1a5d6732dbea94b54ea24600080a2005b60405162461bcd60e51b8152602060048201526016602482015275496e76616c696420697373756572206164647265737360501b6044820152606490fd5b634e487b7160e01b600052604160045260246000fd5b60a081019081106001600160401b03821117610c4b57604052565b610c1a565b604081019081106001600160401b03821117610c4b57604052565b90601f801991011681019081106001600160401b03821117610c4b57604052565b60405190610c9982610c50565b600c82526b04449444f776e6572736869760a41b6020830152565b6020808252825181830181905290939260005b828110610ce957505060409293506000838284010152601f8019910116010190565b818101860151848201604001528501610cc7565b346101b25760003660031901126101b257610582610d19610c8c565b60405191829182610cb4565b346101b2576104ee610d3636610750565b913361158b565b346101b257366003190160e081126101b25760c0136101b2576001600160401b0360c4358181116101b257610d76903690600401610302565b91610d7f611313565b42821691161061051457610dae610d9461132b565b6001600160a01b0316600090815260026020526040902090565b91610dc96103c160a435809590600052602052604060002090565b61050257610e726104939161049e610ddf61132b565b94602435956104876044359687928961043f8c610dfa61131f565b610e02611313565b906040519889956020870197889260c09492979695919760e08501987f1071d4bd1f1ac8841ec9c73ec32e1959a697b0e0e9152be73c986c440548ab67865260018060a01b03166020860152604085015260608401526001600160401b0380921660808401521660a08201520152565b610e7d6105d261132b565b6001600160a01b03909116036104f057610ea26104dc6104ee946103b2610d9461132b565b610eaa61132b565b91610eb361131f565b9261158b565b346101b25760203660031901126101b257600435610ed6816102f1565b610ede61135f565b6001600160a01b039081168015610f2c57600080546001600160a01b03198116831782559092167f8be0079c531659141344cd1fd0a4f28419497f9722a3daafe3b4186f6b6457e08380a380f35b604051631e4fbdf760e01b815260006004820152602490fd5b346101b25760203660031901126101b257600435610f62816102f1565b610f6a61135f565b6001600160a01b03811660008181526004602052604081205490929060ff1615610fd4576001600160a01b03166000908152600460205260409020805460ff191690557f95a4c2ae425bb769549aa1a911911ff57c17ae811ae8c8962d0b9746fcb153978280a280f35b60405162461bcd60e51b8152602060048201526015602482015274125cdcdd595c881b9bdd08185d5d1a1bdc9a5e9959605a1b6044820152606490fd5b346101b25760603660031901126101b25760a061097a6040600435611035816102f1565b61103d611250565b50600090600180861b031681526003602052818120602435825260205281812060443582526020522061127b565b6040519061107882610c50565b60018252603160f81b6020830152565b346101b25760003660031901126101b257610582610d1961106b565b9060005b6103e881106110b957505050600090565b81836110ea6105d260405160208101906105c3816105b589856026916534b9b9bab2b960d11b825260068201520190565b6001600160a01b038116600090815260046020526040902061110f90610603906103c1565b611185576001600160a01b0316600090815260036020526040902061113692916103b29182565b5460ff81161561117c576001600160401b03809160881c168015159182611170575b505061116657505050600190565b6001905b016110a8565b42161190503880611158565b5060019061116a565b50505060019061116a565b1561119757565b60405162461bcd60e51b81526020600482015260156024820152742727aa2fa0aaaa2427a924ad22a22fa4a9a9aaa2a960591b6044820152606490fd5b9291926001600160401b038211610c4b57604051916111fd601f8201601f191660200184610c6b565b8294818452818301116101b2578281602093846000960137010152565b634e487b7160e01b600052601160045260246000fd5b9190916001600160401b038080941691160191821161124b57565b61121a565b6040519061125d82610c30565b60006080838281528260208201528260408201528260608201520152565b9060405161128881610c30565b608060018294805460ff8116151585526001600160401b0390818160081c166020870152818160481c16604087015260881c1660608501520154910152565b156112ce57565b60405162461bcd60e51b815260206004820152601960248201527f49737375657220616c726561647920617574686f72697a6564000000000000006044820152606490fd5b6084356107708161029c565b6064356107708161029c565b600435610770816102f1565b9067ffffffffffffffff60481b82549160481b169067ffffffffffffffff60481b1916179055565b6000546001600160a01b0316330361137357565b60405163118cdaa760e01b8152336004820152602490fd5b611393610c8c565b602081519101206113a261106b565b602081519101206040519060208201927f8b73c3c69bb8fe3d512ecc4cf759cc79239f7b179b0ffacaa9a75d522b39400f8452604083015260608201524660808201523060a082015260a0815260c081018181106001600160401b03821117610c4b5760405251902090565b60ff601b9116019060ff821161124b57565b6040513d6000823e3d90fd5b9060418151036114d75760009160208201519260606040840151930151901a90601b82106114c7575b60ff8216601b81141590816114bb575b506114b257611499600093602095604051948594859094939260ff6060936080840197845216602083015260408201520152565b838052039060015afa156114ad5760005190565b611420565b50505050600090565b601c9150141538611465565b906114d19061140e565b90611455565b5050600090565b6001600160a01b031660008181526001602090815260408083208584529091529020805468ffffffffffffffffff19164260081b68ffffffffffffffff00161781557f2eced6c73dc791aa637224fe61cda36640cd52a1ab51d3079c95b04b288e1ff8906001600160401b039061155782431682611337565b54604080516001600160401b03600884901c85168116825260489390931c909316919091166020830152819081015b0390a3565b927f307b6a0d3168b804b85c36726696479ddace29f57c6ff8f8bcff388e242a76c891936115c56005546001600160401b039060401c1690565b936001600160401b03948581161515806116cc575b6116aa575b5061158690611604876103b28560018060a01b03166000526001602052604060002090565b805468ffffffffffffffff0042891660081b1668ffffffffffffffffff1990911617600117815561163743881682611337565b805467ffffffffffffffff60881b1916608886901b67ffffffffffffffff60881b161781556001810182905554604080519283526001600160401b039586166020840152600882901c881686169083015260481c90951690921660608501526001600160a01b0316929081906080820190565b6116b690864216611230565b85811686851611156115df5792506115866115df565b5085841615156115da56fea26469706673582212209896b3d48cb4ad3d87a7f483e9244f1c88c216a0c2a2dde92ba4a25f358ecffb64736f6c63430008180033",
  "linkReferences": {},
  "deployedLinkReferences": {}
}