{
  "_format": "hh-sol-artifact-1",
  "contractName": "OMA3ResolverWithStore",
  "sourceName": "contracts/OMA3ResolverWithStore.sol",
  "abi": [
    {
      "inputs": [],
      "stateMutability": "nonpayable",
      "type": "constructor"
    },
    {
      "inputs": [],
      "name": "BadSignature",
      "type": "error"
    },
    {
      "inputs": [],
      "name": "ExpiredDeadline",
      "type": "error"
    },
    {
      "inputs": [],
      "name": "InvalidNonce",
      "type": "error"
    },
    {
      "inputs": [
        {
          "internalType": "address",
          "name": "owner",
          "type": "address"
        }
      ],
      "name": "OwnableInvalidOwner",
      "type": "error"
    },
    {
      "inputs": [
        {
          "internalType": "address",
          "name": "account",
          "type": "address"
        }
      ],
      "name": "OwnableUnauthorizedAccount",
      "type": "error"
    },
    {
      "anonymous": false,
      "inputs": [
        {
          "indexed": true,
          "internalType": "address",
          "name": "issuer",
          "type": "address"
        },
        {
          "indexed": true,
          "internalType": "bytes32",
          "name": "didHash",
          "type": "bytes32"
        },
        {
          "indexed": true,
          "internalType": "bytes32",
          "name": "dataHash",
          "type": "bytes32"
        },
        {
          "indexed": false,
          "internalType": "uint64",
          "name": "expiresAt",
          "type": "uint64"
        },
        {
          "indexed": false,
          "internalType": "uint64",
          "name": "recordedAt",
          "type": "uint64"
        },
        {
          "indexed": false,
          "internalType": "uint64",
          "name": "recordedBlock",
          "type": "uint64"
        }
      ],
      "name": "DataHashAttested",
      "type": "event"
    },
    {
      "anonymous": false,
      "inputs": [
        {
          "indexed": true,
          "internalType": "address",
          "name": "issuer",
          "type": "address"
        },
        {
          "indexed": true,
          "internalType": "bytes32",
          "name": "didHash",
          "type": "bytes32"
        },
        {
          "indexed": true,
          "internalType": "bytes32",
          "name": "dataHash",
          "type": "bytes32"
        },
        {
          "indexed": false,
          "internalType": "uint64",
          "name": "recordedAt",
          "type": "uint64"
        },
        {
          "indexed": false,
          "internalType": "uint64",
          "name": "recordedBlock",
          "type": "uint64"
        }
      ],
      "name": "DataHashRevoked",
      "type": "event"
    },
    {
      "anonymous": false,
      "inputs": [
        {
          "indexed": true,
          "internalType": "address",
          "name": "issuer",
          "type": "address"
        }
      ],
      "name": "IssuerAuthorized",
      "type": "event"
    },
    {
      "anonymous": false,
      "inputs": [
        {
          "indexed": true,
          "internalType": "address",
          "name": "issuer",
          "type": "address"
        }
      ],
      "name": "IssuerRevoked",
      "type": "event"
    },
    {
      "anonymous": false,
      "inputs": [
        {
          "indexed": true,
          "internalType": "address",
          "name": "previousOwner",
          "type": "address"
        },
        {
          "indexed": true,
          "internalType": "address",
          "name": "newOwner",
          "type": "address"
        }
      ],
      "name": "OwnershipTransferred",
      "type": "event"
    },
    {
      "anonymous": false,
      "inputs": [
        {
          "indexed": true,
          "internalType": "address",
          "name": "who",
          "type": "address"
        },
        {
          "indexed": false,
          "internalType": "string",
          "name": "didString",
          "type": "string"
        }
      ],
      "name": "RegistrationParamsConsumed",
      "type": "event"
    },
    {
      "anonymous": false,
      "inputs": [
        {
          "indexed": true,
          "internalType": "address",
          "name": "who",
          "type": "address"
        },
        {
          "indexed": false,
          "internalType": "string",
          "name": "didString",
          "type": "string"
        },
        {
          "indexed": false,
          "internalType": "uint64",
          "name": "expiresAt",
          "type": "uint64"
        }
      ],
      "name": "RegistrationParamsPrepared",
      "type": "event"
    },
    {
      "anonymous": false,
      "inputs": [
        {
          "indexed": true,
          "internalType": "address",
          "name": "issuer",
          "type": "address"
        },
        {
          "indexed": true,
          "internalType": "bytes32",
          "name": "didHash",
          "type": "bytes32"
        },
        {
          "indexed": false,
          "internalType": "uint64",
          "name": "recordedAt",
          "type": "uint64"
        },
        {
          "indexed": false,
          "internalType": "uint64",
          "name": "recordedBlock",
          "type": "uint64"
        }
      ],
      "name": "Revoke",
      "type": "event"
    },
    {
      "anonymous": false,
      "inputs": [
        {
          "indexed": true,
          "internalType": "address",
          "name": "issuer",
          "type": "address"
        },
        {
          "indexed": true,
          "internalType": "bytes32",
          "name": "didHash",
          "type": "bytes32"
        },
        {
          "indexed": false,
          "internalType": "bytes32",
          "name": "controllerAddress",
          "type": "bytes32"
        },
        {
          "indexed": false,
          "internalType": "uint64",
          "name": "expiresAt",
          "type": "uint64"
        },
        {
          "indexed": false,
          "internalType": "uint64",
          "name": "recordedAt",
          "type": "uint64"
        },
        {
          "indexed": false,
          "internalType": "uint64",
          "name": "recordedBlock",
          "type": "uint64"
        }
      ],
      "name": "Upsert",
      "type": "event"
    },
    {
      "inputs": [],
      "name": "NAME",
      "outputs": [
        {
          "internalType": "string",
          "name": "",
          "type": "string"
        }
      ],
      "stateMutability": "view",
      "type": "function"
    },
    {
      "inputs": [],
      "name": "VERSION",
      "outputs": [
        {
          "internalType": "string",
          "name": "",
          "type": "string"
        }
      ],
      "stateMutability": "view",
      "type": "function"
    },
    {
      "inputs": [
        {
          "internalType": "address",
          "name": "issuer",
          "type": "address"
        }
      ],
      "name": "addAuthorizedIssuer",
      "outputs": [],
      "stateMutability": "nonpayable",
      "type": "function"
    },
    {
      "inputs": [
        {
          "internalType": "bytes32",
          "name": "didHash",
          "type": "bytes32"
        },
        {
          "internalType": "bytes32",
          "name": "dataHash",
          "type": "bytes32"
        },
        {
          "internalType": "uint64",
          "name": "expiresAt",
          "type": "uint64"
        }
      ],
      "name": "attestDataHash",
      "outputs": [],
      "stateMutability": "nonpayable",
      "type": "function"
    },
    {
      "inputs": [
        {
          "internalType": "uint256",
          "name": "",
          "type": "uint256"
        }
      ],
      "name": "authorizedIssuers",
      "outputs": [
        {
          "internalType": "address",
          "name": "",
          "type": "address"
        }
      ],
      "stateMutability": "view",
      "type": "function"
    },
    {
      "inputs": [
        {
          "internalType": "bytes32",
          "name": "didHash",
          "type": "bytes32"
        },
        {
          "internalType": "bytes32",
          "name": "dataHash",
          "type": "bytes32"
        }
      ],
      "name": "checkDataHashAttestation",
      "outputs": [
        {
          "internalType": "bool",
          "name": "",
          "type": "bool"
        }
      ],
      "stateMutability": "view",
      "type": "function"
    },
    {
      "inputs": [
        {
          "internalType": "bytes32",
          "name": "didHash",
          "type": "bytes32"
        }
      ],
      "name": "currentOwner",
      "outputs": [
        {
          "internalType": "address",
          "name": "",
          "type": "address"
        }
      ],
      "stateMutability": "view",
      "type": "function"
    },
    {
      "inputs": [
        {
          "internalType": "address",
          "name": "issuer",
          "type": "address"
        },
        {
          "internalType": "bytes32",
          "name": "didHash",
          "type": "bytes32"
        }
      ],
      "name": "get",
      "outputs": [
        {
          "components": [
            {
              "internalType": "bool",
              "name": "active",
              "type": "bool"
            },
            {
              "internalType": "uint64",
              "name": "recordedAt",
              "type": "uint64"
            },
            {
              "internalType": "uint64",
              "name": "recordedBlock",
              "type": "uint64"
            },
            {
              "internalType": "uint64",
              "name": "expiresAt",
              "type": "uint64"
            },
            {
              "internalType": "bytes32",
              "name": "controllerAddress",
              "type": "bytes32"
            }
          ],
          "internalType": "struct IOMA3DidOwnershipAttestationStore.Entry",
          "name": "",
          "type": "tuple"
        }
      ],
      "stateMutability": "view",
      "type": "function"
    },
    {
      "inputs": [
        {
          "internalType": "address",
          "name": "issuer",
          "type": "address"
        },
        {
          "internalType": "bytes32",
          "name": "didHash",
          "type": "bytes32"
        },
        {
          "internalType": "bytes32",
          "name": "dataHash",
          "type": "bytes32"
        }
      ],
      "name": "getDataEntry",
      "outputs": [
        {
          "components": [
            {
              "internalType": "bool",
              "name": "active",
              "type": "bool"
            },
            {
              "internalType": "uint64",
              "name": "recordedAt",
              "type": "uint64"
            },
            {
              "internalType": "uint64",
              "name": "recordedBlock",
              "type": "uint64"
            },
            {
              "internalType": "uint64",
              "name": "expiresAt",
              "type": "uint64"
            },
            {
              "internalType": "bytes32",
              "name": "attester",
              "type": "bytes32"
            }
          ],
          "internalType": "struct IOMA3DataUrlAttestationStore.DataEntry",
          "name": "",
          "type": "tuple"
        }
      ],
      "stateMutability": "view",
      "type": "function"
    },
    {
      "inputs": [
        {
          "internalType": "address",
          "name": "issuer",
          "type": "address"
        },
        {
          "internalType": "bytes32",
          "name": "didHash",
          "type": "bytes32"
        }
      ],
      "name": "hasActive",
      "outputs": [
        {
          "internalType": "bool",
          "name": "ok",
          "type": "bool"
        },
        {
          "internalType": "bytes32",
          "name": "controllerAddress",
          "type": "bytes32"
        },
        {
          "internalType": "uint64",
          "name": "expiresAt",
          "type": "uint64"
        }
      ],
      "stateMutability": "view",
      "type": "function"
    },
    {
      "inputs": [
        {
          "internalType": "address",
          "name": "",
          "type": "address"
        }
      ],
      "name": "isIssuer",
      "outputs": [
        {
          "internalType": "bool",
          "name": "",
          "type": "bool"
        }
      ],
      "stateMutability": "view",
      "type": "function"
    },
    {
      "inputs": [
        {
          "internalType": "address",
          "name": "who",
          "type": "address"
        },
        {
          "internalType": "string",
          "name": "expectedTokenURI",
          "type": "string"
        }
      ],
      "name": "loadAndConsumeRegister",
      "outputs": [
        {
          "components": [
            {
              "internalType": "string",
              "name": "didString",
              "type": "string"
            },
            {
              "internalType": "uint16",
              "name": "interfaces",
              "type": "uint16"
            },
            {
              "internalType": "string",
              "name": "tokenURI",
              "type": "string"
            },
            {
              "internalType": "bytes32",
              "name": "dataHash",
              "type": "bytes32"
            },
            {
              "internalType": "uint8",
              "name": "dataHashAlgorithm",
              "type": "uint8"
            },
            {
              "internalType": "string",
              "name": "fungibleTokenId",
              "type": "string"
            },
            {
              "internalType": "string",
              "name": "contractId",
              "type": "string"
            },
            {
              "internalType": "uint8",
              "name": "initialVersionMajor",
              "type": "uint8"
            },
            {
              "internalType": "uint8",
              "name": "initialVersionMinor",
              "type": "uint8"
            },
            {
              "internalType": "uint8",
              "name": "initialVersionPatch",
              "type": "uint8"
            },
            {
              "internalType": "bytes32[]",
              "name": "traitHashes",
              "type": "bytes32[]"
            },
            {
              "internalType": "string",
              "name": "metadataJson",
              "type": "string"
            },
            {
              "internalType": "uint64",
              "name": "expiresAt",
              "type": "uint64"
            },
            {
              "internalType": "bool",
              "name": "exists",
              "type": "bool"
            }
          ],
          "internalType": "struct OMA3ResolverWithStore.RegistrationStoredParams",
          "name": "storedParams",
          "type": "tuple"
        }
      ],
      "stateMutability": "nonpayable",
      "type": "function"
    },
    {
      "inputs": [],
      "name": "maturationSeconds",
      "outputs": [
        {
          "internalType": "uint64",
          "name": "",
          "type": "uint64"
        }
      ],
      "stateMutability": "view",
      "type": "function"
    },
    {
      "inputs": [],
      "name": "maxTTLSeconds",
      "outputs": [
        {
          "internalType": "uint64",
          "name": "",
          "type": "uint64"
        }
      ],
      "stateMutability": "view",
      "type": "function"
    },
    {
      "inputs": [],
      "name": "owner",
      "outputs": [
        {
          "internalType": "address",
          "name": "",
          "type": "address"
        }
      ],
      "stateMutability": "view",
      "type": "function"
    },
    {
      "inputs": [
        {
          "internalType": "string",
          "name": "didString",
          "type": "string"
        },
        {
          "internalType": "uint16",
          "name": "interfaces",
          "type": "uint16"
        },
        {
          "internalType": "string",
          "name": "tokenURI",
          "type": "string"
        },
        {
          "internalType": "bytes32",
          "name": "dataHash",
          "type": "bytes32"
        },
        {
          "internalType": "uint8",
          "name": "dataHashAlgorithm",
          "type": "uint8"
        },
        {
          "internalType": "string",
          "name": "fungibleTokenId",
          "type": "string"
        },
        {
          "internalType": "string",
          "name": "contractId",
          "type": "string"
        },
        {
          "internalType": "uint8",
          "name": "initialVersionMajor",
          "type": "uint8"
        },
        {
          "internalType": "uint8",
          "name": "initialVersionMinor",
          "type": "uint8"
        },
        {
          "internalType": "uint8",
          "name": "initialVersionPatch",
          "type": "uint8"
        },
        {
          "internalType": "bytes32[]",
          "name": "traitHashes",
          "type": "bytes32[]"
        },
        {
          "internalType": "string",
          "name": "metadataJson",
          "type": "string"
        },
        {
          "internalType": "uint64",
          "name": "expiresAt",
          "type": "uint64"
        }
      ],
      "name": "prepareRegister",
      "outputs": [],
      "stateMutability": "nonpayable",
      "type": "function"
    },
    {
      "inputs": [
        {
          "internalType": "address",
          "name": "issuer",
          "type": "address"
        }
      ],
      "name": "removeAuthorizedIssuer",
      "outputs": [],
      "stateMutability": "nonpayable",
      "type": "function"
    },
    {
      "inputs": [],
      "name": "renounceOwnership",
      "outputs": [],
      "stateMutability": "nonpayable",
      "type": "function"
    },
    {
      "inputs": [
        {
          "internalType": "bytes32",
          "name": "didHash",
          "type": "bytes32"
        },
        {
          "internalType": "bytes32",
          "name": "dataHash",
          "type": "bytes32"
        }
      ],
      "name": "revokeDataHash",
      "outputs": [],
      "stateMutability": "nonpayable",
      "type": "function"
    },
    {
      "inputs": [
        {
          "internalType": "address",
          "name": "issuer",
          "type": "address"
        },
        {
          "internalType": "bytes32",
          "name": "didHash",
          "type": "bytes32"
        },
        {
          "internalType": "uint64",
          "name": "deadline",
          "type": "uint64"
        },
        {
          "internalType": "uint256",
          "name": "nonce",
          "type": "uint256"
        },
        {
          "internalType": "bytes",
          "name": "sig",
          "type": "bytes"
        }
      ],
      "name": "revokeDelegated",
      "outputs": [],
      "stateMutability": "nonpayable",
      "type": "function"
    },
    {
      "inputs": [
        {
          "internalType": "bytes32",
          "name": "didHash",
          "type": "bytes32"
        }
      ],
      "name": "revokeDirect",
      "outputs": [],
      "stateMutability": "nonpayable",
      "type": "function"
    },
    {
      "inputs": [
        {
          "internalType": "uint64",
          "name": "durationSeconds",
          "type": "uint64"
        }
      ],
      "name": "setMaturation",
      "outputs": [],
      "stateMutability": "nonpayable",
      "type": "function"
    },
    {
      "inputs": [
        {
          "internalType": "uint64",
          "name": "durationSeconds",
          "type": "uint64"
        }
      ],
      "name": "setMaxTTL",
      "outputs": [],
      "stateMutability": "nonpayable",
      "type": "function"
    },
    {
      "inputs": [
        {
          "internalType": "address",
          "name": "newOwner",
          "type": "address"
        }
      ],
      "name": "transferOwnership",
      "outputs": [],
      "stateMutability": "nonpayable",
      "type": "function"
    },
    {
      "inputs": [
        {
          "components": [
            {
              "internalType": "address",
              "name": "issuer",
              "type": "address"
            },
            {
              "internalType": "bytes32",
              "name": "didHash",
              "type": "bytes32"
            },
            {
              "internalType": "bytes32",
              "name": "controllerAddress",
              "type": "bytes32"
            },
            {
              "internalType": "uint64",
              "name": "expiresAt",
              "type": "uint64"
            },
            {
              "internalType": "uint64",
              "name": "deadline",
              "type": "uint64"
            },
            {
              "internalType": "uint256",
              "name": "nonce",
              "type": "uint256"
            }
          ],
          "internalType": "struct IOMA3DidOwnershipAttestationStore.Delegated",
          "name": "att",
          "type": "tuple"
        },
        {
          "internalType": "bytes",
          "name": "sig",
          "type": "bytes"
        }
      ],
      "name": "upsertDelegated",
      "outputs": [],
      "stateMutability": "nonpayable",
      "type": "function"
    },
    {
      "inputs": [
        {
          "internalType": "bytes32",
          "name": "didHash",
          "type": "bytes32"
        },
        {
          "internalType": "bytes32",
          "name": "controllerAddress",
          "type": "bytes32"
        },
        {
          "internalType": "uint64",
          "name": "expiresAt",
          "type": "uint64"
        }
      ],
      "name": "upsertDirect",
      "outputs": [],
      "stateMutability": "nonpayable",
      "type": "function"
    }
  ],
  "bytecode": "0x60808060405234608f573315607c575f8054336001600160a01b0319821681178355916001600160a01b03909116907f8be0079c531659141344cd1fd0a4f28419497f9722a3daafe3b4186f6b6457e09080a3600780546001600160801b0319166b03c26700000000000002a30017905561272390816100948239f35b631e4fbdf760e01b5f525f60045260245ffd5b5f80fdfe60806040526004361015610011575f80fd5b5f3560e01c8063096272d6146101b45780630d2239c9146101af5780630d5762d3146101aa578063208a1f67146101a557806327cc5739146101a0578063427121b31461019b57806346b78e4f146101965780634e452e15146101915780635c4d45201461018c578063715018a61461018757806371995b6b146101825780637b82d74e1461017d57806381b7a7a514610178578063877b9a67146101735780638b87727b1461016e5780638d969c4a146101695780638da5cb5b146101645780639c2b1d211461015f578063a3f4df7e1461015a578063a6e8ca0014610155578063b0b2a42514610150578063f2fde38b1461014b578063f55294c914610146578063f7c088e014610141578063fabb82b11461013c5763ffa1ad7414610137575f80fd5b611575565b6114fc565b611460565b611325565b61129c565b61110c565b6110f4565b6110c5565b610f9b565b610f74565b610e9e565b610e78565b610e38565b610e0f565b610daf565b610c00565b610a38565b6108b0565b610840565b61072e565b610573565b610543565b610351565b6102d0565b6101e3565b346101df5760403660031901126101df5760206101d5602435600435611590565b6040519015158152f35b5f80fd5b346101df5760403660031901126101df5760043560243590335f52600560205261021360ff60405f205416611632565b335f90815260036020908152604080832084845282528083208584529091529020805468ffffffffffffffffff19164260081b68ffffffffffffffff0016178155610268906001600160401b03431690612331565b604080516001600160401b0342811682524316602082015233917faa711eba2ce29a06d05e6452130e8ed5410b649628221663b9d5ab21452c73ba9190819081015b0390a4005b6001600160401b038116036101df57565b61018435906102ce826102af565b565b346101df5760203660031901126101df576001600160401b036004356102f5816102af565b6102fd612359565b166001600160401b031960075416176007555f80f35b6001600160a01b038116036101df57565b9181601f840112156101df578235916001600160401b0383116101df57602083818601950101116101df57565b346101df5760a03660031901126101df5760043561036e81610313565b6024356044359161037e836102af565b606435926084356001600160401b0381116101df576103a1903690600401610324565b90916103bd6001600160401b0342165b6001600160401b031690565b6001600160401b03821610610534576104016103fa876103ed8760018060a01b03165f52600260205260405f2090565b905f5260205260405f2090565b5460ff1690565b610525576104cc926104c691604051610482816104748b60208301958c8c88909493926001600160401b039060809360a08401977fbfe48d6c8958d69d41631c43d8a8c359115d8e33adc2c2851c10aba07430ce35855260018060a01b0316602085015260408401521660608201520152565b03601f1981018352826105e0565b5190206104746104bb61049361237f565b92604051928391602083019586909160429261190160f01b8352600283015260228201520190565b519020923691610611565b90612411565b6001600160a01b038281169116036105165761050f610502610514946103ed8460018060a01b03165f52600260205260405f2090565b805460ff19166001179055565b6124bc565b005b635cd5d23360e01b5f5260045ffd5b633ab3447f60e11b5f5260045ffd5b63f87d927160e01b5f5260045ffd5b346101df5760203660031901126101df5760206105616004356116bd565b6040516001600160a01b039091168152f35b346101df5760203660031901126101df57610514600435336124bc565b634e487b7160e01b5f52604160045260245ffd5b6101c081019081106001600160401b038211176105c057604052565b610590565b60a081019081106001600160401b038211176105c057604052565b90601f801991011681019081106001600160401b038211176105c057604052565b604051906102ce6101c0836105e0565b9291926001600160401b0382116105c0576040519161063a601f8201601f1916602001846105e0565b8294818452818301116101df578281602093845f960137010152565b9080601f830112156101df5781602061067193359101610611565b90565b6024359061ffff821682036101df57565b6084359060ff821682036101df57565b60e4359060ff821682036101df57565b610104359060ff821682036101df57565b610124359060ff821682036101df57565b9080601f830112156101df578135916001600160401b0383116105c0578260051b90604051936106fa60208401866105e0565b84526020808501928201019283116101df57602001905b82821061071e5750505090565b8135815260209182019101610711565b346101df576101a03660031901126101df576004356001600160401b0381116101df5761075f903690600401610656565b610767610674565b906044356001600160401b0381116101df57610787903690600401610656565b91606435610793610685565b60a4356001600160401b0381116101df576107b2903690600401610656565b60c4356001600160401b0381116101df576107d1903690600401610656565b6107d9610695565b906107e26106a5565b926107eb6106b6565b94610144356001600160401b0381116101df5761080c9036906004016106c7565b96610164359a6001600160401b038c116101df576108316105149c3690600401610656565b9961083a6102c0565b9b611c49565b346101df5760203660031901126101df5760043561085d816102af565b610865612359565b67ffffffffffffffff60401b6007549160401b169067ffffffffffffffff60401b1916176007555f80f35b60609060031901126101df576004359060243590604435610671816102af565b346101df576108be36610890565b919091335f5260056020526108d960ff60405f205416611632565b806007546001600160401b038160401c16151580610a26575b6109e5575b5061097e61091d856103ed866103ed3360018060a01b03165f52600360205260405f2090565b805468ffffffffffffffff004260081b1668ffffffffffffffffff1990911617600117815591610956436001600160401b031684612331565b825467ffffffffffffffff60881b191660889190911b67ffffffffffffffff60881b16178255565b6001339101557f74f2b5200e76d80e7fa1535a440e0fc6a29d5faa149e5054553828d8fc0d2fbb6109b5426001600160401b031690565b604080516001600160401b03948516815291841660208301524390931692810192909252339180606081016102aa565b610a049060401c6001600160401b03166001600160401b03421661169d565b6001600160401b0381166001600160401b03841611156108f75790505f6108f7565b506001600160401b03831615156108f2565b346101df575f3660031901126101df57610a50612359565b5f80546001600160a01b0319811682556001600160a01b03167f8be0079c531659141344cd1fd0a4f28419497f9722a3daafe3b4186f6b6457e08280a3005b805180835260209291819084018484015e5f828201840152601f01601f1916010190565b90602080835192838152019201905f5b818110610ad05750505090565b8251845260209384019390920191600101610ac3565b61067190602081526101c06101a0610be3610bcb610b87610b71610b3d610b198a518860208b01526101e08a0190610a8f565b60208b015161ffff1660408a015260408b0151898203601f190160608b0152610a8f565b60608a01516080890152610b5b60808b015160a08a019060ff169052565b60a08a0151888203601f190160c08a0152610a8f565b60c0890151878203601f190160e0890152610a8f565b60e088015160ff1661010087015261010088015160ff1661012087015261012088015160ff16610140870152610140880151868203601f1901610160880152610ab3565b610160870151858203601f1901610180870152610a8f565b6101808601516001600160401b0316848301529401511515910152565b346101df5760403660031901126101df57600435610c1d81610313565b602435906001600160401b0382116101df57610c40610d23923690600401610656565b90610c49611d13565b506001600160a01b0381165f908152600460205260409020610cb590610c6e90611e65565b92610c85610c806101a0860151151590565b611f84565b6101808401516001600160401b031680610d27575b50604084015160208151910120906020815191012014612000565b6001600160a01b0381165f908152600460205260409020610cd5906120a0565b81516040516001600160a01b03909216917f2a65660e1fd28375aef67b6e17cd056fea7694fd12e6307457b87c0dea58e49a918190610d1490826110b4565b0390a260405191829182610ae6565b0390f35b610d4f906001600160401b03610d46428216926001600160401b031690565b91161115611fc3565b5f610c9a565b608080918051151584526001600160401b0360208201511660208501526001600160401b0360408201511660408501526001600160401b0360608201511660608501520151910152565b60a0810192916102ce9190610d55565b346101df5760403660031901126101df57600435610dcc81610313565b60243590610dd8612129565b5060018060a01b03165f52600160205260405f20905f5260205260a0610e0060405f20612153565b610e0d6040518092610d55565bf35b346101df575f3660031901126101df5760206001600160401b0360075460401c16604051908152f35b346101df5760203660031901126101df57600435610e5581610313565b60018060a01b03165f526005602052602060ff60405f2054166040519015158152f35b346101df575f3660031901126101df5760206001600160401b0360075416604051908152f35b346101df5760403660031901126101df57600435610ebb81610313565b6001600160a01b03165f9081526001602090815260408083206024358452909152902080549060ff82169081610f2c575b6001015491610d239060881c6001600160401b03165b604051938493849160409194936001600160401b0391606085019615158552602085015216910152565b9050610d23610f0260016001600160401b038560881c168015908115610f58575b509392505050610eec565b6001600160401b031690506001600160401b034216105f610f4d565b346101df575f3660031901126101df575f546040516001600160a01b039091168152602090f35b346101df5760203660031901126101df57600435610fb881610313565b610fc0612359565b6001600160a01b03811690811561104c5780611001610ffc610ff86103fa6110269560018060a01b03165f52600560205260405f2090565b1590565b6121a0565b6001600160a01b0381165f90815260056020526040902061102190610502565b6121ec565b7f8b4006ca14f23d4e7aa8d120d1ab7c3761d650eefac1a5d6732dbea94b54ea245f80a2005b60405162461bcd60e51b8152602060048201526016602482015275496e76616c696420697373756572206164647265737360501b6044820152606490fd5b604051906110996040836105e0565b600c82526b04449444f776e6572736869760a41b6020830152565b906020610671928181520190610a8f565b346101df575f3660031901126101df57610d236110e061108a565b604051918291602083526020830190610a8f565b346101df5761051461110536610890565b913361256b565b346101df57366003190160e081126101df5760c0136101df5760c4356001600160401b0381116101df57611144903690600401610324565b9061114d612254565b6001600160401b036111604282166103b1565b9116106105345761118b61117261226c565b6001600160a01b03165f90815260026020526040902090565b916111a46103fa60a4358095905f5260205260405f2090565b610525576112496111b361226c565b916104c6602435946044359485610482886104748b6111d0612260565b6111d8612254565b9060405196879560208701998a9260c0946001600160401b0393918492999897939960e087019a7f1071d4bd1f1ac8841ec9c73ec32e1959a697b0e0e9152be73c986c440548ab67885260018060a01b03166020880152604087015260608601521660808401521660a08201520152565b61126061125461226c565b6001600160a01b031690565b6001600160a01b039091160361051657611285610502610514946103ed61117261226c565b61128d61226c565b91611296612260565b9261256b565b346101df5760203660031901126101df576004356112b981610313565b6112c1612359565b6001600160a01b03168015611312575f80546001600160a01b03198116831782556001600160a01b0316907f8be0079c531659141344cd1fd0a4f28419497f9722a3daafe3b4186f6b6457e09080a3005b631e4fbdf760e01b5f525f60045260245ffd5b346101df5760203660031901126101df5760043561134281610313565b61134a612359565b6001600160a01b0381165f9081526005602052604090206113739061136e906103fa565b612278565b6001600160a01b03165f818152600560205260408120805460ff191690555b600654908181101561145957826113c26113ab836114df565b90546001600160a01b039260039290921b1c821690565b16146113d2576001915001611392565b6114076114016113ec6113e761142b956122bc565b6114df565b905460039190911b1c6001600160a01b031690565b916114df565b81546001600160a01b0393841660039290921b91821b9390911b1916919091179055565b6114336122ca565b7f95a4c2ae425bb769549aa1a911911ff57c17ae811ae8c8962d0b9746fcb153975f80a2005b5050611433565b346101df5760603660031901126101df5760043561147d81610313565b6024356044359161148c612129565b5060018060a01b03165f52600360205260405f20905f5260205260405f20905f52602052610d236114bf60405f20612153565b60405191829182610d9f565b634e487b7160e01b5f52603260045260245ffd5b6006548110156114f75760065f5260205f2001905f90565b6114cb565b346101df5760203660031901126101df576004356006548110156101df5760065f527ff652222313e28459528d920b65115c16c04f3efc82aaedc97be59f3f377c0d3f01546040516001600160a01b039091168152602090f35b604051906115656040836105e0565b60018252603160f81b6020830152565b346101df575f3660031901126101df57610d236110e0611556565b600654915f5b8381106115a557505050505f90565b6115d5826103ed856103ed6115bc6113ec876114df565b6001600160a01b03165f90815260036020526040902090565b5460ff811615611629576115f49060881c6001600160401b03166103b1565b8015159081611616575b5061160c5750505050600190565b6001905b01611596565b426001600160401b03161190505f6115fe565b50600190611610565b1561163957565b60405162461bcd60e51b81526020600482015260156024820152742727aa2fa0aaaa2427a924ad22a22fa4a9a9aaa2a960591b6044820152606490fd5b634e487b7160e01b5f52601160045260245ffd5b5f1981146116985760010190565b611676565b906001600160401b03809116911601906001600160401b03821161169857565b5f905f5f905f5f945f945f945f600654926116e06007546001600160401b031690565b906001600160401b03821615908115935b8681106117485750505050505050801561173e576001109081611736575b501561172f575081611726575b5061067157505f90565b9050155f61171c565b9250505090565b90505f61170f565b5050505050505f90565b611777826103ed61175e6113ec859e9c9e6114df565b6001600160a01b03165f90815260016020526040902090565b9788549a611788610ff88d60ff1690565b611896576117a260888d901c6001600160401b03166103b1565b80151590816118a2575b506118965761125460016117c26117d19361168a565b9b01546001600160a01b031690565b968061186d57505060019585819b5b8591611837575b506117f8575b506001905b016116f1565b909c909b8061180f5750506001809b9c5b906117ed565b909c909b6001600160a01b03808f1691160361182e575b600190611809565b60019a50611826565b90506001600160401b036118636103b18861185e4285169560081c6001600160401b031690565b61169d565b911610155f6117e7565b909a9096906001600160a01b03808d169083160361188d575b86906117e0565b60019a50611886565b985099506001906117f2565b426001600160401b03161190505f6117ac565b90600182811c921680156118e3575b60208310146118cf57565b634e487b7160e01b5f52602260045260245ffd5b91607f16916118c4565b8181106118f8575050565b5f81556001016118ed565b9190601f811161191257505050565b6102ce925f5260205f20906020601f840160051c8301931061193c575b601f0160051c01906118ed565b909150819061192f565b91909182516001600160401b0381116105c05761196d8161196784546118b5565b84611903565b6020601f82116001146119ac57819061199d9394955f926119a1575b50508160011b915f199060031b1c19161790565b9055565b015190505f80611989565b601f198216906119bf845f5260205f2090565b915f5b8181106119f9575095836001959697106119e1575b505050811b019055565b01515f1960f88460031b161c191690555f80806119d7565b9192602060018192868b0151815501940192016119c2565b8151916001600160401b0383116105c057600160401b83116105c0578154838355808410611a68575b50602001905f5260205f205f5b838110611a545750505050565b600190602084519401938184015501611a47565b825f528360205f2091820191015b818110611a835750611a3a565b5f8155600101611a76565b90611bfe6101a0600a6102ce94611aa6855182611946565b611acd611ab8602087015161ffff1690565b600183019061ffff1661ffff19825416179055565b611ade604086015160028301611946565b60608501516003820155611b0c611af9608087015160ff1690565b600483019060ff1660ff19825416179055565b611b1d60a086015160058301611946565b611b2e60c086015160068301611946565b611b9c60078201611b56611b4660e089015160ff1690565b825460ff191660ff909116178255565b611b7e611b6861010089015160ff1690565b825461ff00191660089190911b61ff0016178255565b610120870151815462ff0000191660109190911b62ff000016179055565b611bae61014086015160088301611a11565b611bc061016086015160098301611946565b0192611bf7611bda6101808301516001600160401b031690565b855467ffffffffffffffff19166001600160401b03909116178555565b0151151590565b815468ff0000000000000000191690151560401b68ff000000000000000016179055565b906001600160401b03611c42602092959495604085526040850190610a8f565b9416910152565b9a98969492909997959391611c5c610601565b8c815261ffff909b1660208c015260408b015260608a015260ff16608089015260a088015260c087015260ff1660e086015260ff1661010085015260ff166101208401526101408301526101608201526001600160401b03831661018082015260016101a0820152335f90815260046020526040902090611cdc91611a8e565b60405180913393611ced9183611c22565b037f7b3efb988f7bbd0efa9ad739e9fc6d24f6612ee94bf3dd6ac06e61b4bd1cd56591a2565b60405190611d20826105a4565b5f6101a0836060815282602082015260606040820152826060820152826080820152606060a0820152606060c08201528260e0820152826101008201528261012082015260606101408201526060610160820152826101808201520152565b9060405191825f825492611d92846118b5565b8084529360018116908115611dfb5750600114611db7575b506102ce925003836105e0565b90505f9291925260205f20905f915b818310611ddf5750509060206102ce928201015f611daa565b6020919350806001915483858901015201910190918492611dc6565b9050602092506102ce94915060ff191682840152151560051b8201015f611daa565b90604051918281549182825260208201905f5260205f20925f5b818110611e4c5750506102ce925003836105e0565b8454835260019485019487945060209093019201611e37565b906102ce611f7a600a611e76610601565b94611e8081611d7f565b8652611e9f611e94600183015461ffff1690565b61ffff166020880152565b611eab60028201611d7f565b604087015260038101546060870152611ed5611ecb600483015460ff1690565b60ff166080880152565b611ee160058201611d7f565b60a0870152611ef260068201611d7f565b60c0870152611f3b611f306007830154611f19611f0f8260ff1690565b60ff1660e08b0152565b60ff600882901c166101008a015260101c60ff1690565b60ff16610120880152565b611f4760088201611e1d565b610140870152611f5960098201611d7f565b61016087015201546001600160401b03811661018086015260401c60ff1690565b15156101a0840152565b15611f8b57565b60405162461bcd60e51b815260206004820152601060248201526f4e4f5f53544f5245445f504152414d5360801b6044820152606490fd5b15611fca57565b60405162461bcd60e51b815260206004820152600e60248201526d141054905354d7d156141254915160921b6044820152606490fd5b1561200757565b60405162461bcd60e51b81526020600482015260126024820152710a89e968a9cbeaaa492be9a92a69a82a886960731b6044820152606490fd5b61204b81546118b5565b9081612055575050565b81601f5f9311600114612066575055565b8183526020832061208291601f0160051c8101906001016118ed565b808252602082209081548360011b9084198560031b1c191617905555565b6120a981612041565b5f60018201556120bb60028201612041565b5f60038201555f60048201556120d360058201612041565b6120df60068201612041565b5f6007820155600881018054905f81558161210b575b5050600a8161210760095f9401612041565b0155565b5f5260205f20908101905b818110156120f5575f8155600101612116565b60405190612136826105c5565b5f6080838281528260208201528260408201528260608201520152565b90604051612160816105c5565b6080600182946001600160401b0380825460ff811615158752818160081c166020880152818160481c16604088015260881c161660608501520154910152565b156121a757565b60405162461bcd60e51b815260206004820152601960248201527f49737375657220616c726561647920617574686f72697a6564000000000000006044820152606490fd5b60065490600160401b8210156105c057600182016006556006548210156114f75760065f527ff652222313e28459528d920b65115c16c04f3efc82aaedc97be59f3f377c0d3f90910180546001600160a01b0319166001600160a01b03909216919091179055565b608435610671816102af565b606435610671816102af565b60043561067181610313565b1561227f57565b60405162461bcd60e51b8152602060048201526015602482015274125cdcdd595c881b9bdd08185d5d1a1bdc9a5e9959605a1b6044820152606490fd5b5f1981019190821161169857565b600654801561231d575f198101906006548210156114f75760065f8190527ff652222313e28459528d920b65115c16c04f3efc82aaedc97be59f3f377c0d3e90910180546001600160a01b031916905555565b634e487b7160e01b5f52603160045260245ffd5b9067ffffffffffffffff60481b82549160481b169067ffffffffffffffff60481b1916179055565b5f546001600160a01b0316330361236c57565b63118cdaa760e01b5f523360045260245ffd5b61238761108a565b60208151910120612396611556565b602081519101206040519060208201927f8b73c3c69bb8fe3d512ecc4cf759cc79239f7b179b0ffacaa9a75d522b39400f8452604083015260608201524660808201523060a082015260a081526123ee60c0826105e0565b51902090565b60ff601b9116019060ff821161169857565b6040513d5f823e3d90fd5b9060418151036124b657602081015191606060408301519201515f1a90601b82106124a6575b60ff8216601b811415908161249a575b506124925761247a5f93602095604051948594859094939260ff6060936080840197845216602083015260408201520152565b838052039060015afa1561248d575f5190565b612406565b505050505f90565b601c915014155f612447565b906124b0906123f4565b90612437565b50505f90565b6001600160a01b03165f8181526001602090815260408083208584529091529020805468ffffffffffffffffff19164260081b68ffffffffffffffff00161781557f2eced6c73dc791aa637224fe61cda36640cd52a1ab51d3079c95b04b288e1ff8906001600160401b039061253482431682612331565b54612566828260481c1660405193849360081c16839092916001600160401b0360209181604085019616845216910152565b0390a3565b927f307b6a0d3168b804b85c36726696479ddace29f57c6ff8f8bcff388e242a76c891936125a56007546001600160401b039060401c1690565b6001600160401b0381161515806126db575b6126a6575b506125666125de866103ed8460018060a01b03165f52600160205260405f2090565b805468ffffffffffffffff004260081b1668ffffffffffffffffff19909116176001178155612616436001600160401b031682612331565b805467ffffffffffffffff60881b1916608885901b67ffffffffffffffff60881b1617815585600182015554612669612659826001600160401b039060081c1690565b9160481c6001600160401b031690565b604080519788526001600160401b0395861660208901529185169187019190915290921660608501526001600160a01b0316929081906080820190565b6126b9906001600160401b03421661169d565b6001600160401b0381166001600160401b03841611156125bc5791505f6125bc565b506001600160401b03831615156125b756fea264697066735822122019ca798924f7215a69e61984a299c0c968be34379a50555db6d74d0a26879d1b64736f6c634300081c0033",
  "linkReferences": {},
  "deployedLinkReferences": {}
}